:020000040800F2
:10000000000003206D060008651900086719000844
:10001000691900086B1900086D190008000000003C
:1000200000000000000000000000000061830008E4
:100030006F19000800000000F18300087B7C0008B5
:10004000BD060008BD060008BD060008BD06000884
:10005000BD060008BD060008BD06000871190008AD
:1000600077190008BD060008BD060008BD06000897
:10007000BD060008BD060008BD060008BD06000854
:10008000BD060008BD060008BD060008BD06000844
:10009000BD060008BD060008BD060008BD06000834
:1000A000BD060008BD060008BD060008BD06000824
:1000B000BD060008BD060008BD060008BD06000814
:1000C000BD060008BD060008BD060008BD06000804
:1000D000BD060008BD060008BD060008BD060008F4
:1000E0007D190008BD060008BD060008BD06000811
:1000F000BD060008BD060008BD060008BD060008D4
:10010000BD060008BD060008BD060008BD060008C3
:10011000BD060008BD06000895190008BD060008C8
:10012000BD060008BD060008BD060008BD060008A3
:10013000BD060008BD060008BD060008BD06000893
:10014000BD060008BD060008BD060008BD06000883
:10015000BD060008BD060008BD060008BD06000873
:10016000BD060008BD060008BD060008BD06000863
:10017000BD060008BD060008BD060008000000001E
:10018000BD060008BD060008BD060008BD06000843
:10019000BD060008BD060008BD060008BD06000833
:0C01A000A1190008BD060008AD190008F8
:1001B00010B5054C237833B9044B13B10448AFF3A1
:1001C00000800123237010BD800300200000000088
:1001D0009C64020808B5034B1BB103490348AFF305
:1001E000008008BD00000000840300209C64020819
:1001F000034613F8012B002AFBD1181A0138704767
:1002000001F0FF01102A2BDB10F0070F08D010F8C7
:10021000013B013A8B422DD010F0070F42B3F6D1CB
:10022000F0B441EA012141EA014122F007047FF0E4
:1002300000070023F0E80256083C85EA010586EA3B
:10024000010685FA47F5A3FA87F586FA47F6A5FA77
:1002500087F68EB9EED1F0BC01F0FF0102F0070283
:1002600032B110F8013B013A83EA010313B1F8D12E
:100270000020704701387047002D06BF354603380F
:10028000073815F0010F07D1013015F4807F02BF48
:10029000013015F4C03F0130F0BC0138704700BF99
:1002A0007BB972B90029BEBF00204FF0004106E0C3
:1002B00008BF00281CBF6FF000414FF0FF3000F076
:1002C000D3B9ADF1080C6DE904CE002909DB002B90
:1002D0001ADB00F04DF8DDF804E0DDE9022304B09C
:1002E0007047404261EB4101002B1BDB00F040F8FE
:1002F000DDF804E0DDE9022304B0404261EB410196
:10030000524263EB43037047524263EB430300F0F6
:100310002FF8DDF804E0DDE9022304B0404261EB90
:1003200041017047524263EB430300F021F8DDF8CE
:1003300004E0DDE9022304B0524263EB430370475B
:1003400053B94AB9002908BF00281CBF4FF0FF313C
:100350004FF0FF3000F088B9ADF1080C6DE904CE24
:1003600000F006F8DDF804E0DDE9022304B0704790
:100370002DE9F047089D8E4604468846002B4AD159
:100380008A42174662D9B2FA82F64EB1C6F120030C
:1003900001FA06F820FA03F3B74043EA0808B4402C
:1003A0004FEA174E1FFA87FCB8FBFEF1230C0EFB39
:1003B000118843EA084301FB0CF29A4209D9FB1861
:1003C00001F1FF3080F0EA809A4240F2E780023982
:1003D0003B449A1AA3B2B2FBFEF00EFB102243EA92
:1003E000024300FB0CFC9C4509D9FB1800F1FF32CD
:1003F00080F0D6809C4540F2D3803B44023840EAEE
:100400000140A3EB0C0300211DB1F3400022C5E91C
:100410000032BDE8F0878B4205D90DB1C5E9000176
:1004200000210846F5E7B3FA83F1002946D1734568
:1004300002D3824200F20581841A6EEB030201208E
:100440009046002DE5D0C5E90048E2E7002A00F01B
:100450009080B2FA82F6002E40F0A4808A1A030C33
:100460004FEA174E80B2BCB20121B2FBFEFC0EFB7C
:100470001C2243EA024304FB0CF29A4207D9FB1800
:100480000CF1FF3802D29A4200F2E080C4469B1A77
:10049000B3FBFEF20EFB123340EA034302FB04F40B
:1004A0009C4207D9FB1802F1FF3002D29C4200F2B5
:1004B000CA8002461B1B42EA0C40A5E7C1F1200698
:1004C0008B4022FA06F71F430EFA01F420FA06F3D6
:1004D0002EFA06FE4FEA1749234300FA01F81FFAE5
:1004E00087FCBEFBF9F01C0C09FB10EE44EA0E443D
:1004F00000FB0CFEA64502FA01F209D93C1900F1F5
:10050000FF3A80F09C80A64540F2998002383C4436
:10051000A4EB0E041FFA83FEB4FBF9F309FB1344AA
:100520004EEA044403FB0CFCA44508D93C1903F132
:10053000FF3E80F08280A4457FD9023B3C4443EAE1
:100540000040A4EB0C04A0FB02EC64457346E146BA
:1005500062D35FD05DB1B8EB030264EB090404FA27
:1005600006F622FA01F31E43CC40C5E900640021DF
:100570004FE7B1FBF2FC010C41EA0E4180B240EAC8
:1005800001423B4638463C46B846BE462026B1FBB3
:10059000F7F1A2EB080241EA0C4166E7014618E7D1
:1005A00010462CE7C6F120022EFA02F3B740B14004
:1005B00020FA02F24FEA174E0A43B3FBFEF8BCB230
:1005C0000EFB1833110C41EA034108FB04F9B0405B
:1005D00089454FEA104380B23ED9791808F1FF3CB3
:1005E00001D289451FD8A1EB0901B1FBFEF909FB36
:1005F00004F80EFB191192B242EA0142424529D297
:10060000BA1809F1FF31C4D24245C2D2A9F10201A0
:100610003A44BEE7F0459DD2BEEB02036CEB070CFB
:100620000138E14696E7A7EB09094944A8F1020C15
:10063000B1FBFEF909FB04F8DBE773467FE75046A0
:1006400066E70846FDE63B44023A33E7ACF1020CAC
:100650003B441CE749469CE7A1EB0901C446B1FBBA
:10066000FEF909FB04F8C4E7704700BFDFF834D097
:10067000002103E00C4B5B58435004310B480C4BFA
:1006800042189A42F6D30B4A02E0002342F8043B98
:10069000094B9A42F9D304F03FFF24F0E9FF00F040
:1006A00099FB704700000320088D0408000000201B
:1006B000680100208003002078460120FEE700004A
:1006C0002DE9F041054688B010222F1F0021684611
:1006D00024F025FF0C353B46002253F8041F29B1B6
:1006E00008A800EB8200013240F8201CAB42F4D194
:1006F0006E46324603244FF0000852F8043B6BB1BB
:1007000011688B420AD1184801685B00194442F80D
:10071000043C0023016013604FF00108013CECD160
:10072000102221460DEB020024F0F9FE234656F874
:10073000042B2AB108A901EB8301013341F8102CE5
:100740000134042CF3D104AB57F8041F53F8042BE5
:1007500091421CBF3A604FF00108AF42F4D14046CD
:1007600008B0BDE8F08100BF9C030020034B0449A2
:100770001A68044801FB020018607047040000205A
:100780000D6619005FF36E3C10B50446FFF730FDAF
:10079000214682B2BDE8104002484FF0FF3307F017
:1007A00086B900BF280400201FB5024604496846E8
:1007B00024F050FE6846FFF7E7FF05B05DF804FB44
:1007C000F464020810B504F0DBFE084CA04214BF2C
:1007D0006040012020600648FFF7D6FF2068FFF741
:1007E000E3FFBDE810400348FFF7CEBF0400002040
:1007F000F7640208DA650208012805D0022805D04E
:1008000030B90448FFF7C0BF0348FBE70348F9E7E6
:100810000348F7E711650208226502082F65020800
:10082000426502082DE9F34704461848DFF86C904A
:10083000174FDFF86C80FFF7A7FF04F10C054C346D
:100840004846FFF7A1FFDFF85CA0A5F1100656F8B7
:10085000042FA2B94046FFF797FF5046FFF794FFD9
:10086000AE42F4D10B4806F11005FFF78DFFA5420B
:10087000E6D1094802B0BDE8F047FFF785BF394629
:10088000684624F0E7FD6846E5E700BF53650208C7
:100890006F650208DA650208776502087465020868
:1008A0006A6502087365020870B5044600F14006E7
:1008B00000252046FFF704FF1034002818BF054626
:1008C000B442F6D1284670BD7FB5044600F140061B
:1008D0000025E3680093A368019363680293684668
:1008E00023680393FFF7ECFE009BE360019BA3608A
:1008F000029B6360039B44F8103B002818BF054629
:10090000B442E6D1284604B070BD7FB5041F00F1A3
:100910000C06002554F8043F009323690193236AD1
:1009200002936846236B0393FFF7CAFE009B236084
:10093000019B2361029B2362002818BF0546039B8D
:100940002363B442E6D1284604B070BD7FB5041FCE
:1009500000F10C060025636B0093636A01936369E1
:100960000293684654F8043F0393FFF7A9FE009BE7
:100970002363019B2362029B2361002818BF054665
:10098000039B2360A642E6D1284604B070BD000058
:10099000F0B50024A1B00546264605EB041100235E
:1009A00051F823202AB920AA02EBC60242E92043CB
:1009B00001360133042BF3D10134042CEDD1002E88
:1009C00034DDFFF7D3FEB0FBF6F303FB160020ABDC
:1009D00003EBC00050E92076FFF7C8FE6423B0FBAC
:1009E000F3F202FB1300592805EB0715104B1148D1
:1009F00098BF0224012245F826401A70FFF7C4FE72
:100A000055F82600FFF7D0FE0B48FFF7BDFE38462D
:100A1000FFF7CAFE0948FFF7B7FE3046FFF7C4FEEE
:100A2000074821B0BDE8F040FFF7AEBE0548F8E743
:100A30005C0600208C6502089F650208AE6502080E
:100A4000B0650208B465020808B51348FFF79CFEBC
:100A5000FFF7B8FE0021114B0A4601310429C3E912
:100A60000022C3E9022203F11003F6D10C4B0D481A
:100A70001A60FFF789FE0C48FFF786FE0748FFF76C
:100A800087FF0648FFF784FF0448FFF7CBFEBDE869
:100A900008400648FFF778BEDD650208A403002081
:100AA000A003002011650208F86502081466020818
:100AB00070B5002500EB0516002456F82430B3F578
:100AC000006F17DB0F48FFF75FFE56F82400FFF7B3
:100AD0006BFE0D48FFF758FE2846FFF765FE0B48F2
:100AE000FFF752FE2046FFF75FFE0948FFF74CFE76
:100AF000012070BD0134042CDFD10135042DD9D182
:100B00000020F6E73566020850660208AE65020866
:100B1000B065020810B500F10C0200244C30A2F1BF
:100B2000100353F8041F01B901349342F9D103F1C2
:100B300010028242F3D10748FFF726FE2046FFF756
:100B400033FE0548FFF720FE002CD4BF0020012013
:100B500010BD00BF56660208DA65020870B500F1E4
:100B60000C0200F14C050024A2F10C03196853F8A3
:100B7000046FB14201D101B101349342F6D103F1C6
:100B80001002AA42F0D100F13005014600231030D6
:100B900051F8232050F82360B24201D102B1013450
:100BA0000133042BF4D1A842EFD10748FFF7ECFD45
:100BB0002046FFF7F9FD0548FFF7E6FD002CD4BFFE
:100BC0000020012070BD00BF64660208DA650208DB
:100BD00010B50446FFF79EFF20B10848FFF7D4FD8B
:100BE000002010BD2046FFF7B9FF08B10448F5E723
:100BF0000448FFF7C9FD0120F3E700BF766602084D
:100C00009E660208BF66020838B504462D48FFF705
:100C1000BBFD2D48FFF7B8FD032C12D8DFE804F028
:100C2000020B0D0F29482A4DFFF7AEFD2B68022B52
:100C30000CD1284806E02848F5E72848F3E728487B
:100C4000F1E72848BDE83840FFF79EBD012B02D1EF
:100C50002548FFF799FD022C24482BD0032C2CD0DB
:100C6000012C24D0FFF720FE50B32148FFF78CFD64
:100C70001E48FFF78DFE2B6843B91C48FFF718FF8D
:100C800020B101231B482B60FFF77EFD1748FFF7BB
:100C90009FFF20B1022318482B60FFF775FD2868DD
:100CA000FFF7AAFDBDE838401048FFF7BBBDFFF7CE
:100CB0000BFED9E7FFF729FED6E7FFF747FED3E79C
:100CC0000E48BFE7F26602080B67020817670208C2
:100CD000A00300203C6702081E670208266702087E
:100CE0002B6702083267020868670208A403002025
:100CF0008D670208B5670208E26702080E680208FD
:100D000000487047A403002007B5064BADF8060065
:100D10001B68054801220DF1060106F037FA03B001
:100D20005DF804FB080000207004002008B5642072
:100D300007F020F8FBE7000030B595B01022002145
:100D40000AA824F0ECFB1422002103A824F0E7FBFE
:100D500000241E4B01941A6C42F080521A641B6CE2
:100D600003F080530193019B194B02941A6842F4DB
:100D700040421A601B6803F4404302930122029B25
:100D80004FF48033CDE9082302254FF48003082176
:100D9000CDE90E534FF4B473CDE9101308A8042322
:100DA0001393129505F09AFC05F05EFC0F23CDE934
:100DB00003354FF4A0504FF48053CDE906030521CD
:100DC00003A8059405F066FE15B030BD003802405A
:100DD0000070004080B59AB004F0ACFBFFF7ACFFA8
:100DE000142200210DA824F09AFB0024CA4B009481
:100DF0001A6BCA48DFF8609342F010021A631A6B4C
:100E000002F010020092009A01941A6B42F0200244
:100E10001A631A6B02F020020192019A02941A6B73
:100E200042F080021A631A6B02F080020292029A68
:100E300003941A6B42F004021A631A6B02F0040264
:100E40000392039A04941A6B42F001021A631A6B1C
:100E500002F001020492049A05941A6B42F0020215
:100E60001A631A6B02F002020592059A06941A6B35
:100E700042F040021A631A6B02F040020692069A90
:100E800007941A6B42F008021A631B6B03F0080305
:100E9000224607933C21079B04F0D2FDA048012283
:100EA000022104F0CDFD22469D48042104F0C8FD36
:100EB00022469C484FF4405104F0C2FD01263C23D9
:100EC000CDE90D3695480F9403230DA90227109301
:100ED00004F0CCFC92480DA9CDE90D76CDE90F4484
:100EE00004F0C4FC04238E480DA9CDE90D36CDE9EC
:100EF0000F474FF4881804F0B9FC06238A480F976F
:100F00000DA9CDE90D384FF4405504F0AFFC8748EA
:100F10000F970DA9CDE90D5804F0A8FC8148DFF822
:100F20003C820DA9CDE90D56CDE90F4704F09EFC9A
:100F300022460521072004F04FFB072004F07EFB2A
:100F400022460521082004F047FB082004F076FB28
:100F500022460521282004F03FFB282004F06EFBE8
:100F60007348744B744D036004F076FB734B2C6232
:100F7000C5E9008328464FF48043C5E90434C5E938
:100F80000244C5E9064404F075FF1021284605F027
:100F9000B9F9214628466A4D05F0D3F94FF482731A
:100FA000C5E900934FF4007A1823C5E906A3284643
:100FB0000A23C5E90244C5E90444C5E90844AC6212
:100FC000EB6206F087F88F232246394654488DF8A5
:100FD00024308DF8344004F033FD32464FF47A73F8
:100FE00009A9284606F0D2F84FF47A7332460DA9C3
:100FF000284606F077FA324639464948514D04F002
:101000001FFD9DF83430D32B04BF4F4B1E704F4B48
:101010000126C5E90036102240230024C5E9042337
:101020004FF4C073C5E906344FF40063C5E90834D2
:101030004FF4005302274FF00409AB624FF0030A4C
:1010400007230DA92846CDE90D73CDE90F934FF085
:101050000808C5E90249CDE911A7139705F01EFF5D
:101060004FF6FF7209A92846CDE90A860894099629
:101070000C9405F033FF304604F088FA4FF6FF7207
:1010800009A92846CDE90978CDE90B6405F026FFCA
:101090004FF6FF7209A92846CDE909A8CDE90B94BE
:1010A00005F01CFF4FF40C730893089B0C934FF64C
:1010B000FF7209A92846CDE909980B9605F00EFFA5
:1010C00040F26A51284605F027FF34220DEB02005A
:1010D000214624F024FA1E4D1E4B2C61C5E9003434
:1010E0000923C5E905361D23C5E9073A40F20D116C
:1010F00040F24313C5E9091340F2171040F24713B9
:10110000C5E90B032846C5E90244AC8685F836409C
:1011100005F0AAF924E000BF0038024000100240A8
:1011200000080240000C024000000240000402409F
:10113000040600200030024070050020A086010057
:1011400070040020F4030020E8030020400100A008
:10115000C80400200068014000500140005C0040CD
:10116000FF214FF4806CF022CDE912140521CDE966
:1011700014C14FF4A0730DA9CDE90E24CDE9164298
:1011800028462246244D1893CDE910370D94ADF82A
:1011900064408DF8664005F01BFA204B2B601B68FD
:1011A00098472B681E4DDB6898471E4B2846C5E9BB
:1011B0000034C5E90274C5E90A47C5E90C4404F0E6
:1011C0005BFA3146284604F00DFBDFF878E016485C
:1011D0004FF4E133C0E900E30C23C0E90534C0E972
:1011E00002440461C46106F033FC00F05EFC00F0D0
:1011F0005BFC06F04FFD0D4A0D48214606F076FDDA
:101200000C4B0D4A186021460C4806F06FFD0C4B44
:10121000186006F051FDFEE7E403002018000020EE
:10122000C405002000B002402804002070730208AA
:101230002D0D0008F00300204C730208B91A0008B5
:10124000EC03002000100140704770477FB5094B48
:101250008DF817201B6802930DF1170201230092ED
:1012600001930A460146044804F0ACFE07B05DF85D
:1012700004FB00BF0C000020700500207FB5002398
:101280008DF81730084B1B6802930A4601230DF1B5
:101290001701009101930146044804F023FF9DF8D3
:1012A000170007B05DF804FB0C000020700500205B
:1012B0001FB5084C24680092CDE901340A46012389
:1012C0000146054804F00EFF003818BF012004B0A5
:1012D00010BD00BF0C0000207005002004F056B9BE
:1012E00010B5064C00222046042104F0A9FB20463C
:1012F0000122BDE81040042104F0A2BB0008024016
:1013000038B50B4D044601220A484FF4005104F051
:1013100097FB00220421284604F092FB2046FFF7A9
:10132000F3FC28460122BDE83840042104F088BBC4
:1013300000080240000C024038B50B4D0446002264
:101340000A484FF4005104F07BFB00220421284698
:1013500004F076FB2046FFF7D7FC28460122BDE8C3
:101360003840042104F06CBB00080240000C02402D
:10137000F7B5144E144F05460C46304600220421A2
:1013800004F05EFB00224FF40051384604F058FB95
:101390002846FFF7B9FC0D4B0D481B68224601A9F2
:1013A00006F0A0F8384601224FF40051019C04F0E9
:1013B00047FB30460122042104F042FB204603B0E3
:1013C000F0BD00BF00080240000C024008000020F1
:1013D0007004002004F0DAB80268034B9A4201D18D
:1013E00004F0C2B8704700BF001000407047000012
:1013F00082B00E4B00220092596C41F48041596436
:10140000596C01F48041009100990192196C41F0EE
:10141000805119641B6C03F080530193019B0F21D1
:101420006FF0010002B004F0D7B800BF00380240EE
:101430000268094B9A4282B00BD100230193074BFB
:101440001A6B42F480521A631B6B03F480530193AE
:10145000019B02B0704700BF0030024000380240DC
:1014600007B50F4B02689A4216D10022A3F5F0434C
:101470000192196B41F4000119631B6B03F4000323
:10148000019305215A20019B04F0A6F85A2003B0CD
:101490005DF804EB04F0D2B803B05DF804FB00BFC4
:1014A00000B002402DE9F043044689B01422002127
:1014B00003A824F034F82268244B9A4243D1244CE8
:1014C000244800250095236B43F004032363236B1A
:1014D00003F004030093009B0195236B43F0010389
:1014E0002363236B03F001030193019B4FF0120967
:1014F0004FF400734FF001080327042603A9CDE938
:101500000339CDE90587079604F0B0F94FF48073ED
:101510001148079603A9CDE90339CDE9058704F001
:10152000A5F90295236C43F400032364236C03F4B0
:1015300000030293029B236A43F400032362236A9D
:1015400023F40003236209B0BDE8F083005C00408F
:10155000003802400008024000000240F0B599B097
:1015600004461422002107A823F0D9FF30220DEBF6
:101570000200002123F0D3FF22685E4B9A4240F024
:10158000B78008230C93C0231093042312930CA854
:101590004FF40033159305F055FB08B1FFF726FF14
:1015A000554B5648002400945A6C42F080625A64AD
:1015B0005A6C02F080620092009A01941A6B42F019
:1015C00020021A631A6B02F020020192019A02941F
:1015D0001A6B42F001021A631A6B02F001020292C6
:1015E000029A03941A6B42F002021A631A6B02F019
:1015F00002020392039A04941A6B42F040021A63A7
:101600001A6B02F040020492049A05941A6B42F09D
:1016100004021A631A6B02F004020592059A0694FA
:101620001A6B42F008021A631B6B03F0080306935F
:1016300002250E26069B0B964FF4806307A9CDE981
:101640000735CDE9094504F011F941F658032C4856
:101650000B9607A9CDE907350927CDE9094504F01F
:1016600005F9032327480B9707A9CDE90735CDE9ED
:10167000094504F0FBF84FF4706322480B9607A964
:10168000CDE90735CDE9094504F0F0F84FF40C63D6
:101690001D480B9607A9CDE90735CDE9094504F0AA
:1016A000E5F8C02319480B9607A9CDE90735CDE920
:1016B000094504F0DBF8082315480B9607A9CDE986
:1016C0000735CDE9094504F0D1F84FF4A0530E4891
:1016D0000B9707A9CDE90735CDE9094504F0C6F810
:1016E00058202246052103F077FF582003F0A6FF7B
:1016F00019B0F0BD006801400038024000140240FB
:1017000000000240000402400018024000080240AD
:10171000000C024010B5044688B01422002103A832
:1017200023F0FDFE2268144B9A4223D103F568434F
:10173000002101915A6C114842F480125A645A6C8B
:1017400002F480120192019A02911A6B42F0200277
:101750001A631B6B03F020030293029B4FF4607229
:1017600002230321CDE903230523CDE9061303A9B1
:1017700004F07CF808B010BD005001400014024095
:1017800010B5044688B01422002103A823F0C7FE38
:101790002268144B9A4223D103F59433002101911E
:1017A0005A6C114842F010025A645A6C02F010024E
:1017B0000192019A02911A6B42F001021A631B6BAB
:1017C00003F001030293029B4FF4C0620223032142
:1017D000CDE903230723CDE9061303A904F046F856
:1017E00008B010BD00100140000002402DE9F0419A
:1017F00086B0002303932B4B1C68002C4FD14FF075
:101800000108C3F80080284B00949A6B274842EAED
:1018100008029A639B6B03EA0803009302270326DE
:101820000C25009B01A94FF63F03CDE90137CDE917
:10183000046504F01BF81E48059501A9CDE9018750
:10184000CDE9034604F012F848F233131948059520
:1018500001A9CDE90137CDE9034604F007F84FF6B9
:1018600083731548059501A9CDE90137CDE90346F4
:1018700003F0FCFF4CF203731048059501A9CDE974
:101880000137CDE9034603F0F1FF60230C480595CD
:1018900001A9CDE90137CDE9034603F0E7FF06B022
:1018A000BDE8F0810C060020003802400014024020
:1018B000000802400018024000100240000C0240E4
:1018C0000004024070B588B000230293204B1A6CCC
:1018D00042F010021A641B6C03F0100302930546D9
:1018E00001A903A8029B05F08FF9069B4BBB05F0ED
:1018F0006BF9184E184B336040F2E733F360174B27
:10190000B0FBF3F3013B7360304600233361B360F7
:10191000B36105F0B1FF044680B9304605F086FE9C
:10192000044658B9362003F089FE0F2D0DD8224603
:101930002946362003F050FE094B1D60204608B0B2
:1019400070BD05F041F94000D3E70124F6E700BF80
:1019500000380240100600200010004040420F00F6
:10196000800000207047FEE7FEE7FEE7FEE77047D5
:10197000022004F073B8042004F070B808B54FF4E6
:10198000805004F06BF8BDE808404FF4005004F0BC
:1019900065B80000014805F087BE00BF10060020B2
:1019A000014804F0B8BD00BFC8040020014803F09E
:1019B0008FBE00BFC405002070B5104E044603F072
:1019C000DFFD3368C31AC82B054609D9B4F5805F1B
:1019D00007D10020FFF718F9094B01221A70356072
:1019E00070BDB4F5005F01D10120F3E7022C01D1F5
:1019F0002046EFE7042CF2D10320EBE75806002045
:101A00005C0600200120704708B523F02BFE16234A
:101A100003604FF0FF3008BD08B523F023FE162306
:101A20000360FEE770B50D4614460E46731B9C42DC
:101A300001DC204670BDAFF3008006F8010BF5E72E
:101A400070B50D4614460E46731B9C4201DC2046C1
:101A500070BD16F8010BAFF30080F5E74FF0FF30D3
:101A600070474FF400534B600020704701207047CF
:101A7000002070470A4A116808B5034609B90949A8
:101A800011601068694603448B4206D923F0EAFDD1
:101A90000C2303604FF0FF3008BD1360FCE700BF6C
:101AA0006006002078460120704708B500F0BEFDB2
:101AB000BDE8084000F040BD00F0BABD704710B569
:101AC0000421044622F0C6FB204610BD38B50C4B5D
:101AD0000C4C18800C4B822019806368984740F6A4
:101AE000110398420AD1094D23682C60822098473F
:101AF0002B688220DB689847002038BD0120FCE776
:101B00006E060020500000206C06002070060020A9
:101B10004FF4A071F020FFF7D9BF0000F7B5394DA1
:101B20002B6804461B6982209847208000284ED0ED
:101B30002B680DF106025B6901A982209847324BA0
:101B40001B78002B4BD0BDF8062040F674639A42F8
:101B50003FD9ADF80630BDF806209B1A9BB20A2B80
:101B600042D90B22B3FBF2F3284A1288934201D9DF
:101B7000013A93B2BDF80420254840F6B8318A42B4
:101B800034D8C2F571620E32016892B20F25B2FBF1
:101B9000F5F2204D2D88AA4284BF05F1FF35AAB287
:101BA0008A4215468EB22AD9921B91B21A4E3768D4
:101BB000BB42BAB28CBF9A1AD21A92B2114405290A
:101BC000C4BF05603360036863803368A38003B0DB
:101BD000F0BDB32A9CBFB422ADF80620BBE7BDF828
:101BE0000630A3F5B473B9E70023C3E7C2F56D620D
:101BF000083292B20E2A0168C8D800252A46891AEE
:101C000089B2D3E770060020E80300206C060020AC
:101C1000680600206E0600206406002037B568467E
:101C20000D461446FFF77AFFBDF8000030B1BDF84D
:101C300002302B60BDF804302360012003B030BDBA
:101C4000032821D8DFE800F0020B12190F4B1A68A5
:101C5000B2FA82F2520904210D4803F0F1BE0B4B97
:101C60005A68B2FA82F252090821F5E7074B9A68DE
:101C7000B2FA82F252091021EEE7044BDA68B2FAA6
:101C800082F252092021E7E7704700BF7406002066
:101C900000100240032821D8DFE800F0020B1219DF
:101CA0000F4B1A68003A18BF012204210D4803F0B7
:101CB000C7BE0B4B5A68003A18BF01220821F5E74E
:101CC000074B9A68003A18BF01221021EEE7044B37
:101CD000DA68003A18BF01222021E7E7704700BF09
:101CE000740600200010024003280DD8DFE800F041
:101CF0000206080A0421054803F0A7BE0821FAE7F6
:101D00001021F8E72021F6E7704700BF00100240DD
:101D100008B5032811D8DFE800F0020A0C0E0421F0
:101D2000074803F087FE431E5842584108BD08216A
:101D3000F6E71021F4E72021F2E70020F3E700BFE7
:101D40000010024070B5084D00240126E0B2FFF7F4
:101D5000DFFF18B12B68012B18BF2E600134052C52
:101D600005F10405F2D170BD74060020012380F84E
:101D7000781080F879307047704700207047000075
:101D8000034B4164003918BF01211970704700BF2F
:101D900037390120704700207047836B0BB108462C
:101DA000184770474FF6FF707047406803689B699B
:101DB00018477047704770477047704710B5044622
:101DC00000F04CFD23680349D3F890302046BDE86D
:101DD00010401847000000D008B503680446D3F847
:101DE0008430984723682046DB6F984700F0ECF872
:101DF000236820465B6F98472920FFF79DFA00F083
:101E0000E3F8236820465B6F9847F8E710B504466F
:101E100009F09CF823682046D3F8BC30BDE8104098
:101E2000184700F0FFBC00F003BD00F035BD00F026
:101E3000D5BC00F045BD00F04DBD00F0D9BC08F0A8
:101E4000B3BA10B58421044622F004FA204610BD2E
:101E500010B590F8341090F878400C4B8C421A78FA
:101E600009D03AB90A4A0B491488088810800C80B6
:101E700001221A7010BD002AFCD0054A05491488B9
:101E8000088810800C800022F3E700BF3039012061
:101E90002C3901202E39012070B50D46194635B96F
:101EA000094B0A4A0A4840F2FF2123F00FF9C0E922
:101EB0000F52084B003A18BF01221A700368BDE8A0
:101EC0007040D3F890301847426802087A680208D8
:101ED000C86802083639012008B5094B1B888B42B7
:101EE00003D8084B1B88934205D9074B074A08487B
:101EF000A32123F0EBF8074B1980074B1A8008BD8C
:101F00002C3901202E3901200D6902087069020860
:101F1000C86802083239012034390120034690F89C
:101F20007A0018B1586803681B68184770470000AA
:101F3000012108B50022084605F028FF0A4B186069
:101F400028B90A4B0A4A28210A4823F0BFF8002280
:101F50000421012005F0B9FF074B186018B9074BA1
:101F6000034A2C21F0E708BD88060020B369020867
:101F7000FC6902082B6A020884060020716A0208C4
:101F8000024B4FF0FF31186805F04ABF8806002069
:101F9000014B186805F070BF88060020024B002135
:101FA000186805F03DBF00BF88060020FFF7F0BFAE
:101FB00003480449006800231A4605F0C1BF00BF6A
:101FC000840600201000002013B5084C00231A4698
:101FD00001A9206805F0E5FF20684FF0FF330022DB
:101FE00001A905F0DEFF02B010BD00BF840600208D
:101FF00003685B6C18470120704703689B6A1847A9
:10200000FEE740F2EF307047054B0360054B4FF0A1
:102010008062C3F88820BFF34F8FBFF36F8F704784
:10202000A074020800E100E010B504464FF45A61C4
:10203000FFF7EAFF204622F00DF9204610BD000010
:1020400082B0002301930E4B1A6B42F400021A6314
:102050001A6B02F400020192019A1A6942F400021A
:102060001A611A6922F400021A61064B064A1A61C3
:10207000064A5A61064B4FF080629A6002B0704780
:1020800000380240C4050020E122000801200008B9
:1020900000E100E008B50A2809D8DFE800F00610E2
:1020A0000E080808081010101000022008BD054B8B
:1020B000054A0648902123F009F80020F6E70120A0
:1020C000F4E700BFB36A0208CE6A0208196B02087F
:1020D00038B50C46887FFFF7DDFFA58AE28A164BEC
:1020E0002169586342EA05425A64628BD963521BE4
:1020F0001A642568082D0ED19A611A615862207FF2
:102100000E4A42EA0062DA61E2681A620C4A5961D8
:10211000D9601A6038BD0022D8611A61E1680A0AE4
:10212000480902F4784200F4FC600243C1F3C401A0
:102130000A439A63034AECE700B002400900010039
:10214000012302000123030008B50B280BD8DFE8A8
:1021500000F00612100A0A0A0A08080808080220F5
:1021600008BD0520FCE7054B054A06486F2122F013
:10217000ADFF0020F4E70120F2E700BFB36A0208D8
:102180005D6B0208196B02082DE9F04191F81D8082
:102190000C464046FFF7D8FFA77F05463846FFF7B5
:1021A000D3FF06463846FFF775FFA18A628B444B82
:1021B000521A1A649A61228B521A1A61E28A58637F
:1021C00042EA01425A6421696268D963DA60206890
:1021D000802828D0227F0FD8202867D0402865D0BB
:1021E00004281AD0364B45EA026545F40035B84557
:1021F000DD6161D0334A44E0B0F5807F04D0B0F5B2
:10220000007FEFD1304800E0304840EA0262DA61F6
:10221000E2681A625E62596132E045EA026242F4A3
:102220000032DA61F6E7A068021DDA62227F45EA31
:10223000026545F40035DD615E625961017841B1A6
:10224000012921D0224B234A23484FF48D7122F0DB
:102250003DFFDA69418822F47F42013922F0100201
:1022600042EA0122DA610121154BDA6942F02002CB
:10227000DA61DA699206FCD410229A600029B9D09A
:10228000164A1A60BDE8F081B2F1FF01DA694088B0
:1022900022F47F4200F1FF3022F0100242EA0022D5
:1022A00042F0100218BF0121DA61DDE745EA02625F
:1022B000034B42F40032B4E742F20132E1E700BFDF
:1022C00000B0024001230100090002000A000200E0
:1022D000A76B0208C16B0208196B020801230200F8
:1022E000024B1B68586803685B691847383901203E
:1022F00070B5044625460A4B0C30002660602672F5
:10230000667245F8203B6022294608F075FF04F507
:102310005A63EE6024359D42FBD1204670BD00BF5C
:10232000A0740208034B1A68D207FCD423229A60D7
:10233000704700BF00B002407047000030B50F4C3E
:102340002568ED07FCD423250904A56041F00101AF
:102350000225FF2B65636164E0630AD0084965626A
:1023600041EA0363E361074B22626061E06023603E
:1023700030BDE561039BA363034BF8E700B0024067
:1023800009000100010002000100030030B50E4CFD
:102390002568ED07FCD423251204A56042F0010254
:1023A0000225FF2B65636264E063E16008D01B06D1
:1023B00043F00213E361054B65626061236030BD49
:1023C000034BE3610123F9E700B002400100020082
:1023D000020002FF30B50B4C2568ED07FCD4232525
:1023E00012041B06A56043F40033022542F00102EB
:1023F00065636264E063E160E361034B65626061B1
:10240000236030BD00B0024001000200012070478F
:102410000C2070470C2303FB0100083070470C238D
:1024200003FB0100083070470120704741F2B420DF
:10243000704741F2B42303FB01000830704741F2BA
:10244000B42303FB010008307047012070471020BF
:10245000704700EB01100830704700EB01100830A6
:102460007047084600F0C8BC10B5034B0360044633
:1024700007F0F1FC204610BD5875020810B504465F
:10248000FFF7F2FF2046142121F0E4FE204610BDA4
:1024900010B5034B0360044607F0DDFC204610BD79
:1024A0002475020810B50446FFF7F2FF204641F2FA
:1024B000BC2121F0CFFE204610BD000010B5034B1B
:1024C0000360044607F0C7FC204610BDF074020804
:1024D00010B50446FFF7F2FF2046182121F0BAFE9E
:1024E000204610BD10B5094B0360044600F5975017
:1024F0000830FFF7B9FF04F12C00FFF7C9FF04F122
:102500001400FFF7DBFF204610BD00BF8C750208EA
:1025100008B50248FFF7E6FF08BD00BF64150020BC
:1025200010B50446FFF7DEFF204641F25C4121F082
:1025300091FE204610BD00002DE9F34100F0D2FAD3
:10254000054600F0D3FA00240146234628462246D9
:10255000009412F0CDFD274B274A1A60204602F066
:10256000A3F9264D264B274A27489A6012F028FDEA
:102570002B68BFF35B8FDB0735D4284621F06CFE58
:1025800088B3224C224B234F236004F5985604F164
:10259000140004F12C086060C4F80880E76026612C
:1025A00007F05AFC1C4B6361404607F055FC1B4B7F
:1025B000E362384607F050FC04F5805303F53F70A2
:1025C000174AC3F8E82202F0B1FB2246311F304619
:1025D00002F0D6FA304600F00FFC124822F094FDCB
:1025E000284621F045FE104802B0BDE8F041FFF753
:1025F000E5BB00BF9C3901201007002060150020BA
:10260000300700201407002014000020641500206B
:102610008C7502084C280020F0740208247502080A
:1026200058750208112500088C060020704700002C
:102630000148FFF7D1BB00BF8C06002070B5264EC5
:10264000264C274D274B23603046FFF751FE284686
:1026500017F054FE24480FF0DFFD244B2448DC60C3
:1026600000224FF48071C3E9121222491A86C3E98D
:102670001A12214983F85820C3E91E011F49C3F8E3
:1026800080101F491F480B60F021C3E90422C3E9F1
:102690000622C3E90822C3E90A22C3E90E22C3E9DC
:1026A0001022C3E91422C3E917225A6683F8702066
:1026B0005A67C3E9016501801348018013484FF44C
:1026C000A07101801248018012490A70012283F82A
:1026D0003420114A1A6070BDBC0700205C15002030
:1026E000300700209C730208140700208C0600208D
:1026F0000000010101000001000450001A00140054
:10270000383901202C390120323901202E3901209D
:102710003439012030390120B47302080148FFF731
:1027200073BC00BFBC070020002070478180704749
:10273000C180704701817047418170477047704781
:1027400070477047704710B4C4880368121B8488B0
:102750005B6D091B12B25DF8044B09B218474FF6C6
:10276000FF7383814FF0FF3303621368C36110600E
:102770007047002070478B88838001207047704726
:1027800080F82610704790F82600704710B5002298
:10279000B1F90840B1F90A10028042808480C180FA
:1027A00010BD0022028042808280C2807047017783
:1027B000704780ED080A704780F82410704780F851
:1027C0002510704701207047983070478C30704753
:1027D000843070477047704770470000034B902269
:1027E00083F85A2383F85823704700BF00E100E0C4
:1027F000094A0A49D3680A48C3F30A03013B9BB25A
:102800000B801169C1F30A01013901801364536B14
:1028100043F001035363704700680140C229002060
:10282000C0290020014BD3F8AC007047006801407C
:10283000024B0122C3F8AC105A6270470068014095
:1028400010B52C21044621F005FD204610BD10B521
:10285000BC21044621F0FEFC204610BD70B50446A4
:1028600007F0F7FD23689D6E0EF078FA01462046CA
:10287000A8472368054AD3F88C502046AC4600236D
:10288000BDE87040A2F51631604700BF00B004D02B
:1028900007F0C6BD07F0D0BD07F08CBD07F0FBBE4A
:1028A00090F8252012B103685B691847704790F8CB
:1028B00025201AB190F8242002B11860704700005A
:1028C000034B4FF080629A604FF080729A607047BD
:1028D00000E100E0084B4FF08062C3F88820BFF3AE
:1028E0004F8FBFF36F8F4FF08072C3F88820BFF314
:1028F0004F8FBFF36F8F704700E100E070B500238A
:10290000124E8380124B0360336893F858200546BB
:102910000AB1D86C00B998680368DB6A98473368D5
:10292000B0FA80F4D86C640930B10368DB6A984768
:10293000002808BF44F001042CB9064B064A07489A
:102940002C2122F0C3FB284670BD00BF383901207E
:10295000A0750208FF6B02085D6C0208966C020805
:1029600070B5254E3568BFF35B8F15F0010540D17A
:10297000304621F071FC00283BD0204C204B2561D3
:1029800004F13400C4E90035C4E90255E584A562C8
:10299000A5850FF026FF04F158000AF0E1F8194B65
:1029A000A3652046184B40F8843BFFF7A7FF174B61
:1029B000C4F884302433C4F88C304FF4C803C4E91D
:1029C00028350023C4F8AC30C4F8B030C4F8B430B3
:1029D000C4F8B8300E480F4BC4F89050C4F89C505F
:1029E000C4F8A850C4F8983022F08EFB304621F08D
:1029F0003FFC024870BD00BFC4290020C829002048
:102A000000800208C075020838760208B47F020808
:102A1000D9270008947F020838B5184C23685BB3A7
:102A2000174B184A1B6C11888B4216D1164B19880C
:102A300003F0FCFD236893F86A200025013283F837
:102A40006A2083F87C50FFF7B3FA206808F07EFA1A
:102A50002846BDE83840FFF7F3B803F0E7FD2468E7
:102A6000236820461B6A9847012384F87C300020A5
:102A7000BDE83840FFF70EB938BD00BF3839012036
:102A800000680140C2290020C0290020704708B515
:102A900006291DD8DFE801F00804080C10141800FE
:102AA00001F04EFF406808BD01F04AFF0068FAE7F8
:102AB00001F046FF8068F6E701F042FFC068F2E7E8
:102AC00001F03EFF0069EEE701F03AFF4069EAE7F6
:102AD0000020E8E710B50421044621F0BBFB2046A6
:102AE00010BD00000048704790760208072070472C
:102AF00013B5002451B1036801948DF8034001AA75
:102B00009C680DF10303A04702B010BD0846FBE727
:102B1000C0897047008A7047C088704780887047B6
:102B2000807A00F07F007047807AC00970470020EB
:102B3000704700009FED010A704700BF00000000D1
:102B4000704710B50821044621F084FB204610BDD3
:102B50007047704700F598730868496803C3704769
:102B6000704770474160704770477047064BC0F828
:102B70004C310023C0F8503100F5A273C0F8480171
:102B8000C0F84031704700BF2D2C000801230372AC
:102B90007047704710B4C26841685410034601EB97
:102BA0006200D20748BF0A599B685DF8044B48BFD2
:102BB000D35818470346406830B19A681AB9D868A4
:102BC00000F0010070470120704710B50C21044649
:102BD00021F040FB204610BD10B51021044621F025
:102BE00039FB204610BD10B54FF4AE71044621F0FC
:102BF00031FB204610BD10B50EF0B0F80368BDE8FB
:102C00001040DB6B184710B50446D0F8400158B1AE
:102C10000368DB68984738B1D4F8400103689B68C3
:102C200098470023C4F8403110BD00002DE9F14F52
:102C3000D0E9556A0746B06803681B6A984741F2B5
:102C4000B323984205D8444B444AA321444822F078
:102C50003DFA706803681B6A98470F2803D8414BF8
:102C60003E4AA421F2E7F06803681B6A98470B28E4
:102C700003D83D4B394AA521E8E70EF06FF8DFF89D
:102C8000F09004300EF0A8F8D9F8000010B10368F5
:102C9000DB689847D9F8000010B103681B689847B3
:102CA000DFF8D080D8F8000010B103685B6998475E
:102CB000D7F83C0110B103685B689847D8F800006A
:102CC00010B103681B689847D7F83C0110B103683E
:102CD0009B689847F068036800215B6A98474FF04B
:102CE000000B224BC0F804B0044680F808B0036023
:102CF000B068036859465B6A9847054601F0A4FF2F
:102D00007068036859465B6A98472946064601F091
:102D100079FF331DC7F83C61C9F80040C8F800507E
:102D2000CAF800302B68C6F808A02846DB68EE63B6
:102D30009847336830461B6898472146284610F06C
:102D4000D5F9236820461B69984723685B692046AC
:102D500001B0BDE8F04F1847F86C0208866D020814
:102D60005E6E0208A56E0208486F0208A07702088E
:102D7000803901207C390120044B1B6893F85820CE
:102D80000AB1D86C00B99868704700BF3839012083
:102D9000F8B5174604460E460EF0BCF8124B1C6000
:102DA000124B2360124B0025C4E95135114BC4E985
:102DB00053551868036801219B68C4E94F55C4E95D
:102DC00055769847284601F06FFDFFF7D5FF19F0BB
:102DD0003EF9FFF7D1FF19F0B5F9FFF7CDFF19F074
:102DE000BDF92046F8BD00BF8C3901204C770208A0
:102DF0003477020838390120064BC0F84C310023E3
:102E0000C0F8503100F5A273C0F84801C0F8403155
:102E1000704700BF2D2C0008806A704770477047CC
:102E20007047704730B4C26844685510034604EBDD
:102E30006200D20748BF62599B6830BC48BFD35874
:102E400018470346406830B19A681AB9D86800F04C
:102E5000010070470120704710B51021044621F091
:102E6000F9F9204610BD10B5F821044621F0F2F919
:102E7000204610BD00F1A0028A4203D10368D3F8B6
:102E80008C30184770470000074A02600022C0E9F2
:102E90000122C0E90322C0E90522C0E907224FF45C
:102EA00080728284704700BFEC83020870B50368AB
:102EB00004461B6B154698472368294620465B6BE2
:102EC000BDE8704018470000F8B5194B018F1B880A
:102ED0008B4206462AD9174B1B682BB9164B174A4B
:102EE00017486C2122F0F2F813F81120154B1B68DB
:102EF00053F82250144B186801F012FD2B68074656
:102F00009B6B284698472B6804469B6C394628469D
:102F100098472B6814FB00F45B6A394628469847AB
:102F2000A4B223181BB2A6F84630F8BD0023FAE776
:102F30009439012090390120EB6F02082D700208AE
:102F400068700208983901209C3901202DE9F0476A
:102F5000044688B026460025FFF796FF4C4BA56235
:102F600046F82C3B4FF0260842462946304622F0D0
:102F7000D6FA3046FFF788FF464BE36204F1580764
:102F8000FF234246294684F852306565384622F0D0
:102F9000C6FA3846FFF778FF3F4BA3654FF6FF733D
:102FA00004F1A0084FF0FF39DFF8FCA0A4F884304A
:102FB0004FF47F03C4F88C30C4E92695C4F880A090
:102FC000C4F88850A4F89050C4F8945040460AF0D1
:102FD00001FF324BC4E93A34314BC4E93C354FF080
:102FE000C8132A46A36029463046FFF75FFF3046E4
:102FF000C821FFF79FFB3046C821FFF79DFB294BF7
:1030000063653146204606F039FF6E463722384662
:103010000B21FFF74BFF39463046C4F88890A4F8DF
:103020008C500AF0AFF896E8070004F1940383E8A7
:103030000700142306A93846ADF81C30CDF818A0B7
:103040000AF048FB3946204606F018FF4046782231
:103050003221FFF72BFF06AA05A94046ADF8145010
:10306000ADF818500AF089FB1223A4F8D830404676
:10307000FFF72AFF04F1E8032046C4E93799C4F8B2
:10308000C830414606F0FAFE204608B0BDE8F08799
:10309000DC770208C881020838810208C477020878
:1030A000752E0008929296FF2477020870477047A9
:1030B00070477047704730B5036885B06D46018131
:1030C000D3F88430014604462846984795E807001F
:1030D0003C3484E8070005B030BD30B5036885B0E6
:1030E0006D464181D3F8843001460446284698470E
:1030F00095E807003C3484E8070005B030BD0022A5
:10310000028042808280C280704780F8361070470B
:1031100070B5036804461B6B15469847236829461B
:1031200020465B6EBDE87040184700207047806CF9
:10313000704770477047704730B4C2684468551094
:10314000034604EB6200D20748BF62599B6830BC5B
:1031500048BFD35818470346406830B19A681AB937
:10316000D86800F0010070470120704710B54C216D
:10317000044621F06FF8204610BD10B5102104461A
:1031800021F068F8204610BD10B5044600F5967091
:1031900001F072FE04F58050043001F01BFF04F5CD
:1031A00087501C30BDE8104001F01CBD08B5FFF78A
:1031B00077FB08BD00F1F0028A4202D10368DB6AA6
:1031C00018477047036870B55E6B124B1B68044666
:1031D0008DB22BB9104B114A6C21114821F076FFAA
:1031E0001049828D0988914203D80F4B0B4A6D21FB
:1031F000F3E713F812200D4B1B6853F82200036805
:103200001B6B9847291A3346204609B2BDE8704027
:10321000184700BF90390120EB6F02082D7002089B
:103220006870020894390120AF70020898390120B3
:1032300000224FF0FF31C0E900218260704700009A
:1032400038B500F580550D4B036004460C4BC5F8AE
:10325000FC3000F587501C30FFF7E2FD094B6B6036
:103260002846043001F091FB074BC4F82C3104F5DB
:10327000967000F017FA204638BD00BF1C7902088E
:103280005C7C0208E87D0208547D020810B5044603
:10329000FFF7D6FF204641F29C2120F0DBFF2046BD
:1032A00010BD70B504461D46BDF91060FFF7FEFD68
:1032B0002368294620469B6B984723683146204661
:1032C000DB6BBDE8704018474FF4807181840E4974
:1032D00081624FF6FF7181854FF47F0141630B4995
:1032E000016000224FF0FF31C0E90122C0E9032252
:1032F000C0E90522C0E90722C0E910120263028773
:10330000C2638264704700BF2477020874780208A1
:103310002DE9F04F044695B00FF03CFDA84B23601B
:10332000A84B0025C4E910354FF480730DF148080F
:1033300004F16C0AA4F86430FF234FF6FF7684F89A
:1033400066304146C4E91255C4E91455C4E916551E
:10335000E5632566A5665046ADF8486009F068FC4F
:1033600004F19803414618460393ADF8486009F00C
:103370005FFC04F1C403414618460493ADF848606D
:1033800009F056FC04F1F003184607930AF0C4FB59
:1033900004F596731846089301F0E2FC04F5805397
:1033A00004331846059301F00BFE04F587531C33D4
:1033B00004F58F5909F11409184604F5925B069338
:1033C00001F006FC4846FFF77FFF5846FFF77CFFF9
:1033D0007D4B04F58056C6E9A3347C4BC6E9A53580
:1033E0004FF4A0732A4604F1400000932946F023CD
:1033F0000990FFF756FF0998271D4FF07F43A366FA
:103400000146384606F03AFD012341465046ADF8E4
:1034100048300AF0A8FB4FF4A0732A4600932946CF
:10342000F0235046FFF73DFF2946504609F0BBFB0D
:103430005146384606F022FD4FF0280A0398032330
:103440004146ADF848300AF08EFB0522642303980C
:10345000CDF800A00F21FFF724FF0398294609F0BB
:10346000A2FB0399384606F009FD0498062341465D
:10347000ADF848300AF077FBC82340F207120498F1
:10348000CDF800A01421FFF70CFF0498294609F09D
:103490008AFB0499384606F0F1FC07984FF48272D3
:1034A000A521FFF703FD0423ADF83C30ADF8403013
:1034B000022310AA0798ADF84430ADF848300FA9A0
:1034C00011ABCDF800800AF092FA6123C4F82831DC
:1034D00004F594530C33C4F818310799384606F0B4
:1034E000CDFC089832221421FFF7E0FC08993846F9
:1034F00006F0C4FC059832221421FFF7D7FC059989
:1035000086F82950384606F0B9FC06983222142174
:10351000FFF7CCFC069986F82151384606F0AEFC40
:103520001E2248467821FFF7C1FC4FF07F43C6F8C2
:103530002432D6F8F431A6F82852EA4449465046D7
:10354000D3F8843098479AE8070009F13C0383E8F0
:1035500007001F4B1293414610234846ADF84C30EC
:103560000AF0B8F84946384606F088FC58460F225B
:103570007821FFF79BFCD6F84032A6F874524FF042
:103580007F42C6F8702259465046D3F88430984797
:103590009AE807000BF13C0383E807000C4B1293F9
:1035A000414611235846ADF84C300AF093F838469E
:1035B000594606F063FC204615B0BDE8F08F00BF09
:1035C0001C790208C881020804790208B531000894
:1035D00024770208406A7047806A704770478A887B
:1035E0000B8810B5D20A4C88C1699BB251F82200F1
:1035F00043EA0443184410BD10B50446BAB1107B29
:1036000068B1537BD27A1B0203F4E0631A43236A46
:1036100003EB82031A888A4202D193F9020010BD9B
:1036200005D8013880B204330028F3D1F7E7002031
:10363000F5E710B52C21044620F00CFE204610BD05
:1036400030B58BB00446BDF860500895BDF85C50AD
:1036500007959DF8505006959DF84C5005959DF89E
:10366000485004959DF8445003959DF840500295AC
:103670009DF83C500195BDF8385000950FF06EF95B
:10368000064B2360159BE361169B2362199B6362C3
:103690001A9BA36220460BB030BD00BF54790208CC
:1036A0007047704770477047A0F850107047B0F8E7
:1036B0005000704701867047008E704710B560213A
:1036C000044620F0C7FD204610BD10B54821044631
:1036D00020F0C0FD204610BD10B540F698510446BC
:1036E00020F0B8FD204610BD08B590F826300BB18B
:1036F000FFF7D6F808BD90F84C3070B50446002BA3
:103700004AD0B0F84E00B4F85030013080B2984240
:10371000A4F84E0040D3B4F85450B4F85620A66D27
:10372000521BC01A12B2B4F85230002180B2B04716
:1037300094F836200544ABB22DB2AA4205D02DBB79
:103740002046FFF7ADF884F83650B4F85030B4F89E
:103750005210B4F84E200B449A421DD3002384F833
:103760004C30A4F852300DF0F9FA214604300DF037
:103770001AFBE06D80B10368DB68984760B1E06DCB
:10378000036821469B68BDE87040184784F83630CE
:103790002046FFF785F8D8E770BD90F82C302DE96A
:1037A000F0410446002B41D0C38D028E01339BB201
:1037B0009342C3853AD39B1A9DB2028F838EC66B08
:1037C000D21A12B2438E00212846B047E38E628F90
:1037D000276CD21A0646638E12B200212846B847DB
:1037E000E38EC218A38EF11812B209B22046FEF77A
:1037F000AAFF238E618EE28D0B449A4216D30023DA
:1038000084F82C30E3850DF0A9FA214604300DF040
:10381000CAFA606C50B10368DB68984730B1606CDD
:10382000036821469B68BDE8F0411847BDE8F08178
:1038300010B50446FFF728FB024B23600023A36268
:10384000204610BDD47E020810B526220446002171
:1038500021F065FE2046FFF717FB044B2360FF2392
:1038600084F826300023A362204610BDC8810208D8
:1038700000224FF0FF31C0E9002182607047000054
:1038800010B50446FFF7E0FF064B23600023C4E9B0
:103890000C33C4E90E33C4E9103384F82C30E385CB
:1038A000204610BDBC79020838B526220446002106
:1038B00021F035FE2046FFF7E7FA0E4B23600E4B52
:1038C000A3624FF6FF730025A3854FF47F03C4E97D
:1038D0000C53258704F13C00FFF7CAFF074BA56492
:1038E000236084F84C50A4F84E50A4F85050E5657D
:1038F000204638BD38810208247702082C7A020855
:103900002DE9F04F0446B9B02646FFF791FFDA4B98
:1039100046F82C3B3046FFF797FF04F1580304F1BB
:103920008405184604F1CC0A0693FFF781FF284668
:10393000FFF7A6FF5046FFF7B7FF04F5967318464A
:103940000793FFF775FF04F5AC7318462193FFF753
:1039500097FF04F5D07318460293FFF7A5FF04F50F
:10396000007318460893FFF763FF04F50B731846BE
:103970002293FFF785FF04F51D7318460393FFF7A5
:1039800093FF04F5357318460993FFF751FF04F5CB
:10399000407318462393FFF773FF04F552731846DC
:1039A0000493FFF781FF04F56A7318460A93FFF743
:1039B0003FFF04F5757318462493FFF761FF04F287
:1039C0001C4318460593FFF76FFF04F27C4318462B
:1039D0000B93FFF72DFF04F5956318462593FFF72A
:1039E0004FFF04F59E6318461693FFF75DFF04F53D
:1039F000AA6318460C93FFF71BFF04F27C5318468A
:103A00002693FFF73DFF04F2C45318461793FFF7C0
:103A10004BFF04F2246318460D93FFF709FF04F5EA
:103A2000CA6318462793FFF72BFF04F5D3631846A4
:103A30001893FFF739FF04F5DF6318460E93FFF77D
:103A4000F7FE04F2247318462893FFF719FF04F2D7
:103A50006C7318461993FFF727FF04F2CC731846CE
:103A60000F93FFF7E5FE04F5FF6318462993FFF770
:103A700007FF04F5046318461A93FFF715FF04F5D2
:103A80000A6318461093FFF7D3FE04F6CC031846DA
:103A90002A93FFF7F5FE04F6141318461B93FFF75D
:103AA00003FF04F6741318461193FFF7C1FE04F5E3
:103AB0001A6318462B93FFF7E3FE04F6E813184643
:103AC0001C93FFF7F1FE04F6482318461293FFF704
:103AD000AFFE04F6742318462C93FFF7D1FE04F6CC
:103AE000BC2318461D93FFF7DFFE04F61C3318466F
:103AF0001393FFF79DFE04F6483318462D93FFF706
:103B0000BFFE04F5396318461E93FFF7CDFE04F59A
:103B10003F6318461493FFF78BFE04F61C431846C8
:103B20002E93FFF7ADFE04F6644318461F93FFF78C
:103B3000BBFE04F6C44318461593FFF779FE04F55F
:103B40004F6318462F93FFF79BFE04F63853184631
:103B50002093FFF7A9FE4FF0C813A3600022C823EB
:103B6000114600933046FFF79CFB444B636531469A
:103B700020462D2606F082F99722069800963346B5
:103B80001146FFF78EFB0022114600963346284669
:103B9000FFF787FB3A4B0698C4F8AC304FF00F099B
:103BA000294606F06BF933464A465046CDF8009058
:103BB0000021FFF776FBD4F8CC3000270DF1C008C8
:103BC0004FF07F42C4F8FC2051464046D3F8843081
:103BD000A4F80071984798E80700D4F8CC304FF06B
:103BE000060B04F5847585E80700D3F8843084F863
:103BF00005B151464046984798E8070085E8070018
:103C000035AD204A359229465046ADF8D89009F096
:103C100061FD0698514606F031F90699204606F0F6
:103C20002DF907980096334697226621FFF739FB56
:103C30003A462198009633463946FFF732FB104B3F
:103C400021990798C4F8803106F018F94A4602987D
:103C5000CDF8009033463946FFF723FBD4F8A03166
:103C6000A4F8D4714FF07F41C4F8D01140460299B6
:103C7000D3F8843008E000BFC47A0208A0ADBBFFCF
:103C8000B4C1CDFF24770208984798E80700D4F81C
:103C9000A03104F5EE7A8AE80700D3F8843002995F
:103CA00084F8D9B14046984798E807000D238AE880
:103CB0000700CF4A029835922946ADF8D83009F06E
:103CC00009FD0299079806F0D9F80799204606F0F1
:103CD000D5F808980096334697223521FFF7E1FA88
:103CE0003A462298009633463946FFF7DAFAC14B36
:103CF00022990898C4F8543206F0C0F84A4603984E
:103D0000CDF8009033463946FFF7CBFAD4F8743239
:103D1000A4F8A8724FF07F41C4F8A412404603995A
:103D2000D3F88430984798E80700D4F8743204F543
:103D30002C7A8AE80700D3F88430039984F8ADB26E
:103D40004046984798E807000C238AE80700A84AED
:103D5000039835922946ADF8D83009F0BBFC039999
:103D6000089806F08BF80899204606F087F809981D
:103D70000096334697220421FFF793FA3A46239898
:103D8000009633463946FFF78CFA9A4B23990998E7
:103D9000C4F8283306F072F84A460498CDF800902B
:103DA00033463946FFF77DFAD4F84833A4F87C73DC
:103DB0004FF07F41C4F8781340460499D3F884301B
:103DC000984798E80700D4F8483304F5617A8AE800
:103DD0000700D3F88430049984F881B340469847AB
:103DE00098E807000B238AE80700814A0498359277
:103DF0002946ADF8D83009F06DFC0499099806F011
:103E00003DF80999204606F039F80A98009633469D
:103E100066229721FFF745FA3A46249800963346E2
:103E20003946FFF73EFA734B24990A98C4F8FC33DD
:103E300006F024F84A460598CDF8009033463946F6
:103E4000FFF72FFAD4F81C34A4F850744FF07F41D8
:103E5000C4F84C1440460599D3F88430984798E844
:103E60000700D4F81C3404F58B6A8AE80700D3F8FD
:103E70008430059984F855B44046984798E807007F
:103E80000A238AE807005A4A059835922946ADF870
:103E9000D83009F01FFC05990A9805F0EFFF0A9940
:103EA000204605F0EBFF66220B980096334611463C
:103EB000FFF7F7F93A462598009633463946FFF75B
:103EC000F0F94C4B25990B98C4F8D03405F0D6FF87
:103ED00033464A461698CDF800903946FFF7E1F987
:103EE0004FF07F41C4F82015A4F824752846FFF749
:103EF000BFFC95E8070004F22C5888E8070084F816
:103F000029B52846FFF7B4FC95E80700092388E89F
:103F10000700374A169835922946ADF8D83009F08F
:103F2000D9FB16990B9805F0A9FF0B99204605F0CF
:103F3000A5FF0C980096334666223521FFF7B1F9AC
:103F40003A462698009633463946FFF7AAF9294B98
:103F500026990C98C4F8A43505F090FF33464A46DC
:103F60001798CDF800903946FFF79BF94FF07F4145
:103F7000C4F8F415A4F8F8752846FFF779FC95E81D
:103F8000070004F5C06888E8070084F8FDB52846F6
:103F9000FFF76EFC95E80700082388E80700144A3D
:103FA000179835922946ADF8D83009F093FB179948
:103FB0000C9805F063FF0C99204605F05FFF0D9803
:103FC0000096334666220521FFF76BF93A4627989B
:103FD000009633463946FFF764F9064B27990D984A
:103FE000C4F8783605F04AFF33464A4604E000BF7D
:103FF00024770208B4C1CDFF1898CDF80090394657
:10400000FFF74FF94FF07F41C4F8C816A4F8CC76FB
:104010002846FFF72DFC95E8070004F2D46888E8ED
:10402000070084F8D1B62846FFF722FC95E8070080
:10403000072388E80700D34A189835922946ADF837
:10404000D83009F047FB18990D9805F017FF0D9926
:10405000204605F013FF0E9800963346352297212F
:10406000FFF71FF93A462898009633463946FFF77E
:1040700018F9C54B28990E98C4F84C3705F0FEFE88
:1040800033464A461998CDF800903946FFF709F9AA
:104090004FF07F41C4F89C17A4F8A0772846FFF79B
:1040A000E7FB95E8070004F5F56888E8070084F861
:1040B000A5B72846FFF7DCFB95E8070088E807006E
:1040C000B04A199835922946ADF8D8B009F002FBEC
:1040D00019990E9805F0D2FE0E99204605F0CEFEF5
:1040E0000F980096334635226621FFF7DAF83A46F4
:1040F0002998009633463946FFF7D3F8A24B299901
:104100000F98C4F8203805F0B9FE33464A461A988D
:10411000CDF800903946FFF7C4F84FF07F41C4F85E
:104120007018A4F874782846FFF7A2FB95E80700FA
:1041300004F67C0888E8070084F879B82846FFF779
:1041400097FB95E80700052388E807008D4A1A9831
:1041500035922946ADF8D83009F0BCFA1A990F9873
:1041600005F08CFE0F99204605F088FE3522109848
:10417000009633461146FFF794F83A462A9800967F
:1041800033463946FFF78DF87F4B2A991098C4F8CB
:10419000F43805F073FE33464A461B98CDF800907C
:1041A0003946FFF77EF84FF07F41C4F84419A4F870
:1041B00048792846FFF75CFB95E8070004F5156889
:1041C00088E8070084F84DB92846FFF751FB95E8C9
:1041D000070088E807004FF004086A4A1B983592E8
:1041E0002946ADF8D88009F075FA1B99109805F0AA
:1041F00045FE1099204605F041FE11980096334681
:1042000041463522FFF74DF83A462B980096334643
:104210003946FFF746F85C4B2B991198C4F8C8391A
:1042200005F02CFE33464A461C98CDF800903946DE
:10423000FFF737F84FF07F41C4F8181AA4F81C7A3A
:104240002846FFF715FB95E8070004F6242A8AE8BC
:10425000070084F821BA2846FFF70AFB95E8070013
:1042600003238AE80700474A1C9835922946ADF88F
:10427000D83009F02FFA1C99119805F0FFFD11991B
:10428000204605F0FBFD12980096334642469721E2
:10429000FFF707F83A462C98009633463946FFF761
:1042A00000F8394B2C991298C4F89C3A05F0E6FDB9
:1042B00033464A461D98CDF800903946FEF7F1FF87
:1042C0004FF07F41C4F8EC1AA4F8F07A2846FFF7C3
:1042D000CFFA95E8070004F6F82A8AE8070084F880
:1042E000F5BA2846FFF7C4FA95E8070002238AE8E2
:1042F0000700244A1D9835922946ADF8D83009F0B8
:10430000E9F91D99129805F0B9FD1299204605F0BA
:10431000B5FD13980096334642466621FEF7C1FF6D
:104320003A462D98009633463946FEF7BAFF164BAB
:104330002D991398C4F8703B05F0A0FD33464A460A
:104340001E98CDF800903946FEF7ABFF4FF07F4145
:10435000C4F8C01BA4F8C47B2846FFF789FA95E887
:10436000070004F6CC3A8AE8070084F8C9BB28465F
:10437000FFF77EFA95E807008AE80700014A1E98D1
:1043800004E000BF24770208B4C1CDFF35924FF09E
:10439000010A2946ADF8D8A009F09CF91E99139896
:1043A00005F06CFD1399204605F068FD1498009601
:1043B000334642463521FEF774FF3A462E98009662
:1043C00033463946FEF76DFF404B2E991498C4F8DA
:1043D000443C05F053FD33464A461F98CDF8009003
:1043E0003946FEF75EFF4FF07F41C4F8941CA4F8F5
:1043F000987C2846FFF73CFA95E8070004F54A63E5
:1044000083E8070084F89DBC28460293FFF730FA42
:1044100095E80700029BADF8D87083E807002C4AA6
:104420001F983592294609F055F91F99149805F0FF
:1044300025FD1499204605F021FD15980096334678
:1044400042464146FEF72DFF3A462F9800963346E6
:104450003946FEF726FF1D4B2F991598C4F8183DD5
:1044600005F00CFD4A4639462098CDF800903346B9
:10447000FEF717FF4FF07F43C4F8683DA4F86C7D4A
:104480002846FFF7F5F995E8070004F6745686E824
:10449000070084F871BD2846FFF7EAF995E80700A0
:1044A00086E807000A4A209835922946ADF8D8A038
:1044B00009F010F92099159805F0E0FC20461599AF
:1044C00005F0DCFC204639B0BDE8F08FB4C1CDFF6B
:1044D000247702087047000030B5164D2C6814F0A0
:1044E00001048FB0BFF35B8F20D128461FF0B4FECC
:1044F000E0B13F230993104B0893104B104911482A
:104500000A940122CDE906430423CDE903320A23AC
:104510000093CDE90B44CDE901440594FFF790F8F1
:10452000094820F0F1FD28461FF0A2FE05480FB013
:1045300030BD00BF842A00204CA0020864A00208FD
:10454000889D0208882A0020D54400087047000092
:1045500030B5164D2C6814F001048FB0BFF35B8F9B
:1045600021D128461FF078FEE8B13F230993104B74
:104570000893104B104911480A94CDE906430122D3
:104580000423CDE903320A2300930B22CDE90B4427
:10459000CDE901440594FFF753F8094820F0B4FD34
:1045A00028461FF065FE05480FB030BDB42A002034
:1045B00050A0020868A00208989D0208B82A0020AE
:1045C0004D4500087047000030B5164D2C6814F0BA
:1045D00001048FB0BFF35B8F21D128461FF03CFE52
:1045E000E8B13F230993104B0893104B1049114831
:1045F0000A94CDE9064301220423CDE903320E23B8
:1046000000930B22CDE90B44CDE901440594FFF75B
:1046100017F8094820F078FD28461FF029FE0548C4
:104620000FB030BDE42A002054A002086CA002089C
:10463000349E0208E82A0020C545000870470000A3
:1046400030B5164D2C6814F001048FB0BFF35B8FAA
:1046500021D128461FF000FEE8B13F230993104BFB
:104660000893104B104911480A94CDE906430122E2
:104670000423CDE903320F2300930822CDE90B4434
:10468000CDE901440594FEF7DBFF094820F03CFD2D
:1046900028461FF0EDFD05480FB030BD142B00205B
:1046A00058A0020870A00208D09E0208182B002013
:1046B0003D4600087047000030B5164D2C6814F0D8
:1046C00001048FB0BFF35B8F21D128461FF0C4FDDA
:1046D000E8B13F230993104B0893104B1049114840
:1046E0000A94CDE9064301220423CDE903321B23BA
:1046F00000930A22CDE90B44CDE901440594FEF76D
:104700009FFF094820F000FD28461FF0B1FD054835
:104710000FB030BD442B00205CA0020874A002083A
:10472000409F0208482B0020B54600087047000053
:1047300030B5174D2C6814F001048FB0BFF35B8FB8
:1047400022D128461FF088FDF0B13F230993114B79
:104750000893114B114912480A94CDE906430122EE
:104760000423CDE903322323009309222423CDE936
:104770000B44CDE901440594FEF762FF094820F09F
:10478000C3FC28461FF074FD05480FB030BD00BFC4
:10479000742B002060A0020878A00208CC9F0208B9
:1047A000782B00202D47000800207047002070471C
:1047B0000EB403B503AB002153F8042B01930DF0A5
:1047C0006FFB02B05DF804EB03B070470CB407B5A3
:1047D00004AB53F8042B01930DF062FB03B05DF8BA
:1047E00004EB02B07047000010B504460EF00AFD5D
:1047F000E38E04EB43035884636C5BB3238F2BB9C4
:10480000174B184AC521184820F060FC10B3204609
:104810000FF01FFE238F012B03D8144B144ACB211A
:10482000F1E7E28E531C9BB2092B194688BFA3F116
:104830000A0104EB410140F63F10498C814209D145
:104840000A2B04EB420228BF002304EB4303508CE5
:10485000588451842046BDE810400FF0FDBC00BFD5
:10486000ED700208F6700208A1710208EB710208EF
:10487000F971020810B504460FF0B5FC2046BDE8FA
:1048800010400EF0BABC10B586B002AC84E8060049
:104890001A460AAB05930193099B00932146089B96
:1048A0000BF0C6FD06B010BD38B518BB124B13484F
:1048B0001C681349B4B12268224402606268224431
:1048C0000A60A26814440F4B00221A8000F038F8E6
:1048D000054600F033F80C4B1C600C4B1D600C4B74
:1048E000188007E00B4B03600B4B0B600B4B1C68F5
:1048F000002CE8D138BD00BFB02B0020A82B002031
:10490000A42B0020AC2B00209039012098390120E5
:1049100094390120D4A002087CA002082CA102082E
:10492000044B1B6853F82100034B1B6803EB40004A
:10493000704700BFA42B0020A82B00201620704732
:1049400000487047B42B002010B5FFF7C5FD094C97
:104950002060FFF7EDFE6060FFF736FEA060FFF716
:10496000ABFEE060FFF76CFE2061FFF7F1FD6061D8
:1049700010BD00BFB42B002010B5002404600C60F3
:1049800014601C6010BD704770477047704730B4AA
:10499000C26844685510034604EB6200D20748BF62
:1049A00062599B6830BC48BFD358184703464068DB
:1049B00030B19A681AB9D86800F001007047012038
:1049C000704710B5102104461FF044FC204610BD6E
:1049D00010B5F82104461FF03DFC204610BD00F143
:1049E000A0028A4203D10368D3F88C30184770477D
:1049F0002DE9F047044688B026460025FEF744FA24
:104A00004D4BA56246F82C3B4FF0260842462946FE
:104A1000304620F084FD3046FEF736FA474BE3621D
:104A200004F15807FF234246294684F85230656551
:104A3000384620F074FD3846FEF726FA404BA36551
:104A40004FF6FF7304F1A008DFF808A1A4F8843042
:104A50004FF0FF394FF47F03C4F88C30C4E926953A
:104A6000C4F880A0C4F88850A4F89050C4F89450BA
:104A7000404609F0AFF9334BC4E93A34324BC4E94C
:104A80003C354FF0C8132A46A36029463046FEF74E
:104A90000DFA3046C821FDF74DFE3046C821FDF71E
:104AA0004BFE2A4B63653146204605F0E7F9382274
:104AB00038460B21FEF7FAF96E46254BC4F88830CC
:104AC00039463046A4F88C5008F05CFB96E80700A5
:104AD00004F1940383E80700152306A93846ADF8CE
:104AE0001C30CDF818A008F0F5FD3946204605F039
:104AF000C5F9404678223221FEF7D8F906AA05A961
:104B00004046ADF81450ADF8185008F036FE1323A7
:104B1000A4F8D8304046FEF7D7F904F1E803204660
:104B2000C4E93799C4F8C830414605F0A7F92046D2
:104B300008B0BDE8F08700BF707B0208C88102089A
:104B400038810208587B0208DF4900088C8CFFFF7F
:104B5000F7F7FFFF24770208704710B54FF4AE71E6
:104B600004461FF077FB204610BD10B50446D0F870
:104B7000580100F0DEF82046BDE810400CF08AB97C
:104B800010B50446FEF704F9014B2360204610BD22
:104B9000087C0208034B186810B10368DB6A1847E9
:104BA000704700BFCC2B002010B5034B03600446B8
:104BB000FEF736F9204610BD5C7C020810B50446AD
:104BC000FFF7F2FF2046F8211FF044FB204610BDFE
:104BD00010B50446FEF7BAF9014B2360204610BD1C
:104BE0005C7C0208FEF71DB97047043870477047B7
:104BF00010B5102104461FF02DFB204610BDA0F17A
:104C00000400F5E700228260024A02601832426026
:104C1000C1607047F47C02087047000010B5034B78
:104C200003600446FEF70CFB204610BD1C7D020805
:104C300010B50446FFF7F2FF204641F2B4211FF001
:104C400009FB204610BD000010B50446FEF760FBCE
:104C5000014B2360204610BD1C7D020810B50446A0
:104C6000FEF792FA04F5967000F006F9024B1C600C
:104C7000BDE81040FBF7E8BECC2B002070B500F576
:104C80008055002600F5875085F821611C300DF015
:104C90000EFA284685F8296004300DF008FABDE8C0
:104CA0007040FBF7D1BE00F580530122184683F80F
:104CB000292004300DF0FBB900F58053012200F5E6
:104CC000875083F821211C300DF0F1B92DE9F04116
:104CD000144E33780746E3B1134B1B68012B1AD0EF
:104CE000022B1BD000243470FCF70AF807F59677E6
:104CF000064606EB0418002558F825302A462146BA
:104D00003846013500F036F8042DF5D10134042C75
:104D1000EFD1BDE8F081FFF7C6FFE3E7FFF7CCFF77
:104D2000E0E700BF5C060020A00300200022026034
:104D30007047704710B5034B03600446FEF7B2FCA2
:104D4000204610BD547D020810B50446FFF7F2FF5F
:104D5000204640F6D8611FF07DFA204610BD0000C5
:104D600010B50446FEF7CCFD014B2360204610BD74
:104D7000547D02082DE9F04102EB810500EB850529
:104D80001C46D5F8986E002E5AD0D5F8585E6BB9EF
:104D900086F825302B4BAB622B6828465B69984719
:104DA000336830465B69BDE8F04118470C277A4309
:104DB00002F69852302707FB01214718224A0621A4
:104DC000384610F0EFF80123B76486F82530002D3F
:104DD000E6D0402C28D013DC082C27D008DC022C8D
:104DE00026D01A4A1A4B042C08BF1A46AA62D3E7E7
:104DF000102C1FD0154A174B202C08BF1A46F5E778
:104E0000B4F5007F18D008DC802C17D00F4A124B65
:104E1000B4F5807F08BF1A46E8E70C4A0F4BB4F59B
:104E2000806F08BF1A46E1E70D4ADFE70D4ADDE76C
:104E30000D4ADBE70D4AD9E70D4AD7E70D4AD5E71A
:104E4000BDE8F081B4C1CDFFF4640208C8C8C8FF52
:104E50005A14F0FFD69500FFA5D729FF9B065FFFE8
:104E60007B00CEFF1BC9FFFFFF0096FF6395F5FF98
:104E70002400FFFF1855FFFF10B50446FEF713FC92
:104E800004F63853C4F8983E04F54F63C4F8583E0E
:104E900004F66443C4F89C3E04F61C43C4F85C3E2C
:104EA00004F53963C4F8A03E04F64833C4F8603E04
:104EB00004F6BC23C4F8A43E04F67423C4F8643E8C
:104EC00004F6E813C4F8A83E04F51A63C4F8683E73
:104ED00004F61413C4F8AC3E04F6CC03C4F86C3EDC
:104EE00004F50463C4F8B03E04F5FF63C4F8703EF3
:104EF00004F26C73C4F8B43E04F22473C4F8743E34
:104F000004F5D363C4F8B83E04F5CA63C4F8783E28
:104F100004F2C453C4F8BC3E04F27C53C4F87C3E93
:104F200004F59E63C4F8C03E04F59563C4F8803E62
:104F300004F21C43C4F8C43E04F57573C4F8843EFF
:104F400004F55273C4F8C83E04F54073C4F8883EB3
:104F500004F51D73C4F8CC3E04F50B73C4F88C3E05
:104F600004F5D073C4F8D03E04F5AC73C4F8903E99
:104F700004F1CC03C4F8D43E04F18403C4F8943E95
:104F800010BD0000034B186810B10368DB6A1847B6
:104F9000704700BFCC2B002010B5034B03600446C4
:104FA000FFF7F3FC204610BDE87D020810B504466B
:104FB000FFF7F2FF2046F8211FF04CF9204610BD04
:104FC00010B50446FFF714FD014B2360204610BDC9
:104FD000E87D0208FFF7DABCF02070474FF4A070BC
:104FE00070472920FCF7A8B92820FCF7A5B908B517
:104FF000FCF776F9CA20FCF79FF9C320FCF780F98B
:105000000820FCF77DF95020FCF77AF9CF20FCF757
:1050100093F90020FCF774F9C120FCF771F93020F6
:10502000FCF76EF9ED20FCF787F96420FCF768F9CE
:105030000320FCF765F91220FCF762F98120FCF7E8
:105040005FF9E820FCF778F98520FCF759F9002092
:10505000FCF756F97820FCF753F9CB20FCF76CF9F4
:105060003920FCF74DF92C20FCF74AF90020FCF719
:1050700047F93420FCF744F90220FCF741F9F72006
:10508000FCF75AF92020FCF73BF9EA20FCF754F929
:105090000020FCF735F90020FCF732F9B120FCF7CD
:1050A0004BF90020FCF72CF91B20FCF729F9B6205E
:1050B000FCF742F90A20FCF723F9A220FCF720F9BB
:1050C000C020FCF739F91020FCF71AF9C120FCF7D1
:1050D00033F91020FCF714F9C520FCF72DF9452011
:1050E000FCF70EF91520FCF70BF9C720FCF724F9A3
:1050F0009020FCF705F93620FCF71EF9C820FCF7D4
:10510000FFF8F220FCF718F90020FCF7F9F8B020BE
:10511000FCF712F9C220FCF7F3F8B620FCF70CF903
:105120000A20FCF7EDF8A720FCF7EAF82720FCF7A7
:10513000E7F80420FCF7E4F82A20FCF7FDF800204B
:10514000FCF7DEF80020FCF7DBF80020FCF7D8F8CD
:10515000EF20FCF7D5F82B20FCF7EEF80020FCF749
:10516000CFF80020FCF7CCF80120FCF7C9F83F206D
:10517000FCF7C6F8F620FCF7DFF80120FCF7C0F8D2
:105180000020FCF7BDF80620FCF7BAF82C20FCF74D
:10519000D3F8C820FCF71EF92620FCF7CDF8012033
:1051A000FCF7AEF8E020FCF7C7F80F20FCF7A8F8F2
:1051B0002920FCF7A5F82420FCF7A2F80C20FCF726
:1051C0009FF80E20FCF79CF80920FCF799F84E2078
:1051D000FCF796F87820FCF793F83C20FCF790F861
:1051E0000920FCF78DF81320FCF78AF80520FCF75E
:1051F00087F81720FCF784F81120FCF781F80020CD
:10520000FCF77EF8E120FCF797F80020FCF778F82F
:105210001620FCF775F81B20FCF772F80420FCF749
:105220006FF81120FCF76CF80720FCF769F83120C3
:10523000FCF766F83320FCF763F84220FCF760F8CF
:105240000520FCF75DF80C20FCF75AF80A20FCF763
:1052500057F82820FCF754F82F20FCF751F80F20BE
:10526000FCF74EF81120FCF767F8C820FCF7B2F8FD
:105270002920FCF761F8BDE808402C20FCF75CB859
:1052800008B5FCF72DF80321D320FCF771F880B2A4
:1052900008BD10B5C4B2022203212046FBF7D6FF99
:1052A0000A20FCF71BF8204600220321FBF7CEFF63
:1052B000BDE810400220FCF711B838B50446E4B24E
:1052C000FBF7C2FF00212046FBF7D8FF012105466E
:1052D0002046FBF7D3FF40EA052080B238BD10B569
:1052E000C4B240212046FBF7C9FF030607D54C2175
:1052F0002046FBF7C3FF003818BF012010BD012274
:105300004B212046FBF7A2FF204600224B21FBF752
:105310009DFF0020F2E773B50423C4B20E46154684
:10532000D7210DEB03022046FBF7C2FF019B1BBAFE
:105330001A0DC3F30B23328020462B8001224B2110
:10534000FBF784FF00224B212046FBF77FFF02B0D2
:1053500070BD000010B50A4A1378984204460DD07B
:10536000517888420AD00BB141B90123D454FBF7DC
:105370006BFF2046BDE81040FFF78BBF10BD00BF9C
:10538000D02B002010B5C4B209212046FBF776FFD0
:1053900040F00102D2B220460921BDE81040FBF7DF
:1053A00055BF10B5C4B209212046FBF767FF09219C
:1053B00000F0FE022046BDE81040FBF747BF38B5BD
:1053C000C4B20D4620460A21FBF758FF40EA050209
:1053D000D2B220460A21BDE83840FBF737BF10B5EE
:1053E0000446FBF732FF20461F21FFF7E8FF204667
:1053F000BDE81040FFF7C6BF38B5C4B20D46204621
:105400000A21FBF73BFF20EA0502D2B220460A211F
:10541000BDE83840FBF71ABF10B50446FFF7C1FFDF
:1054200020461F21BDE81040FFF7E6BF10B5C0B20F
:105430000C460B21FBF722FF204010BD1F21FFF778
:10544000F5BF0A46C0B20B21FBF700BF1F21FFF7D3
:10545000F8BF38B5C4B20D4620461721FBF70EFF42
:1054600020EA0502D2B220461721BDE83840FBF7FA
:10547000EDBE70B5C4B2064604212046FBF7FEFE21
:10548000042100F0FB0205462046FBF7DFFE304614
:10549000F021FFF7DEFF05F0F80220460421FBF7BC
:1054A000D5FE492220212046FBF7D0FE0220FBF743
:1054B00015FF204601222121FBF7C8FE20469A2233
:1054C0004121FBF7C3FE204601224A21FBF7BEFE25
:1054D000204601224B21FBF7B9FE204600224B213A
:1054E000FBF7B4FE204601225621FBF7AFFE204613
:1054F00001225821FBF7AAFE204601224021FBF79A
:10550000A5FE2046FF220B21FBF7A0FEBDE8704060
:105510000220FBF7E3BE0000054BD3F8882042F4DD
:105520007002C3F888204FF000629A60704700BF95
:1055300000ED00E008B50B4B1A6842F400721A60E7
:105540001A6842F480621A601A6842F480721A6023
:10555000032000F02FF80020FCF7B4F9FBF748FF18
:10556000002008BD003C0240034A044B11681B7830
:105570000B441360704700BFD42B00207C00002038
:10558000014B1868704700BFD42B002038B5044683
:10559000FFF7F6FF631C1CBF054B1B78054618BFC1
:1055A000E418FFF7EDFF431BA342FAD338BD00BF59
:1055B0007C0000200749CA6822F4E062030212045A
:1055C00003F4E063120C134343F0BF6343F400336E
:1055D000CB60704700ED00E0164B30B5DC68C4F3DB
:1055E0000224C4F10703251D042B28BF0423062D24
:1055F0004FF0FF358CBF033C002405FA03F321EA8A
:105600000303A54022EA0502A340002843EA02035F
:10561000ACBF00F16040084A4FEA0313B8BF00F086
:105620000F00DBB2AABF00F56140135480F80033CD
:1056300030BD00BF00ED00E014ED00E0002807DB06
:10564000044A4109012300F01F00834042F8213041
:10565000704700BF00E100E010B5044650B1437947
:1056600003F0FF0213B90271FBF7E2FE012363713D
:10567000002010BD0120FCE710B5044620B390F8CF
:10568000393003F0FF021BB980F83820FBF7E8FE41
:10569000022384F83930236861681A6822F44032A2
:1056A0000A431A605A6BA16822F007020A435A6340
:1056B0001A6CE1686FF30D020A431A64002001239B
:1056C000E06384F8393010BD0120FCE77047704773
:1056D000036870B55E681D68F207044614D5E905D5
:1056E00012D51A6822F480721A60C26B42F001026D
:1056F000C26301229A60042380F83930002380F8C5
:105700003830436903B19847B20616D5AB0414D5B7
:1057100023681A6822F400521A6020229A60E36B10
:1057200043F00203E363042384F83930002384F850
:10573000383063690BB120469847300716D52905E4
:1057400014D523681A6822F400621A6008229A604D
:10575000E36B43F00403E363042384F8393000234C
:1057600084F8383063690BB12046984772070BD52F
:105770006B0509D523681A6822F480621A60042236
:105780009A602046FFF7A2FFB00714D5A90512D5ED
:1057900023681A6822F400721A6002229A60E36B8E
:1057A000E363012384F83930002384F83830236917
:1057B0000BB120469847F20613D5EB0411D52368A8
:1057C0001A6822F480521A6010229A60E36BE36335
:1057D000012384F83930002384F838302046FFF75D
:1057E00076FF70BDF0B590F83820012A03464FF0DF
:1057F00002002BD0012283F8382083F8390003EB14
:105800000112D2E90740556A174F44EA0040093CAB
:10581000012C9CBF05F07F4210434FEA01161A6825
:1058200088BF40EA056091B9516A3940014351622D
:10583000012C9969916103D8596A21F07F419162E5
:105840000122002083F8392083F83800F0BDD169A7
:1058500039400143D1619919012C896911619CBFBB
:1058600025F07F451562EBE7F0FFFC002DE9F74FCF
:10587000DFF8BC916C4A00230D6801249C4004EAC7
:105880000506AC4340F0B7804D68032705F00304DC
:105890004FEA430807FA08FC671E012F6FEA0C0C59
:1058A00034D8876807EA0C0ECF6807FA08F747EA8A
:1058B0000E078760476827EA060EC5F300179F406A
:1058C00047EA0E074760C76807EA0C0E8F6807FAB9
:1058D00008F747EA0E07022CC76019D14FEAD30A2E
:1058E00000EB8A0A03F0070BDAF820704FEA8B0B03
:1058F0004FF00F0E0EFA0BFE27EA0E0E0F6907FA95
:105900000BF747EA0E07CAF8207001E0032CDAD142
:10591000076804FA08F407EA0C073C4315F4403F13
:10592000046068D000240194D9F8444044F48044D1
:10593000C9F84440D9F8444023F0030707F18047F1
:1059400004F4804407F59C37019403F0030C019C98
:10595000D7F808E04FEA8C0C0F2404FA0CF42EEA76
:10596000040E324CA0424DD004F58064A0424BD0CE
:1059700004F58064A04249D004F58064A04247D079
:1059800004F58064A04245D004F58064A04243D071
:1059900004F58064A04241D004F58064A0423FD069
:1059A00004F58064A0423DD004F58064A04214BF99
:1059B0000A24092404FA0CF444EA0E04BC60946836
:1059C000F74315F4801F0CBF3C4034439460D46807
:1059D00015F4001F0CBF3C403443D460546815F4E8
:1059E000003F0CBF3C40344354601468ED0354BF87
:1059F0003C40344314600133102B7FF43DAF03B0BF
:105A0000BDE8F08F0024D5E70124D3E70224D1E7D5
:105A10000324CFE70424CDE70524CBE70624C9E718
:105A20000724C7E70824C5E7003C01400000024006
:105A3000003802400369194214BF0120002070475A
:105A40000AB1816170470904FBE7436901EA030277
:105A500021EA030141EA024181617047044A516928
:105A6000014208B502D05061FBF7A6FF08BD00BF98
:105A7000003C014001684B6913F480634FF0000261
:105A800010D06FF480634B612023026380F83D30B7
:105A900080F83E20036C80F83C2043F0040303644C
:105AA00001207047184670472DE9F84606460F4614
:105AB00091461D464FEA114A3368BAF1010F0CBFF7
:105AC0005C699C6927EA0404A4B2B4FA84F464090A
:105AD000A14501D0002025E06A1CEED0FFF750FD63
