:020000040800F2
:10000000000003205D060008E5140008E71400085E
:10001000E9140008EB140008ED14000800000000CB
:100020000000000000000000000000001172000845
:10003000EF14000800000000A1720008316B0008F6
:10004000AD060008AD060008AD060008AD060008C4
:10005000AD060008AD060008AD060008AD060008B4
:10006000AD060008AD060008AD060008AD060008A4
:10007000AD060008AD060008AD060008AD06000894
:10008000AD060008AD060008AD060008AD06000884
:10009000AD060008AD060008AD060008F114000822
:1000A000AD060008AD060008AD060008AD06000864
:1000B000AD060008AD060008AD060008AD06000854
:1000C000AD060008AD060008AD060008AD06000844
:1000D000AD060008AD060008AD060008AD06000834
:1000E000F9140008AD060008AD060008AD060008CA
:1000F000AD060008AD060008AD060008AD06000814
:10010000AD060008AD060008AD060008AD06000803
:10011000AD060008AD06000819150008AD06000878
:10012000AD060008AD060008AD060008AD060008E3
:10013000AD060008AD060008AD060008AD060008D3
:10014000AD060008AD060008AD060008AD060008C3
:10015000AD060008AD060008AD060008AD060008B3
:10016000AD060008AD060008AD060008AD060008A3
:10017000AD060008AD060008AD060008000000004E
:10018000AD060008AD060008AD060008AD06000883
:10019000AD060008AD060008AD060008AD06000873
:0C01A00025150008AD0600083115000808
:1001B00010B5054C237833B9044B13B10448AFF3A1
:1001C00000800123237010BD800300200000000088
:1001D000F44D020808B5034B1BB103490348AFF3C4
:1001E000008008BD0000000084030020F44D0208D8
:1001F00001F0FF01102A2BDB10F0070F08D010F8D8
:10020000013B013A8B422DD010F0070F42B3F6D1DB
:10021000F0B441EA012141EA014122F007047FF0F4
:1002200000070023F0E80256083C85EA010586EA4B
:10023000010685FA47F5A3FA87F586FA47F6A5FA87
:1002400087F68EB9EED1F0BC01F0FF0102F0070293
:1002500032B110F8013B013A83EA010313B1F8D13E
:100260000020704701387047002D06BF354603381F
:10027000073815F0010F07D1013015F4807F02BF58
:10028000013015F4C03F0130F0BC0138704700BFA9
:100290007BB972B90029BEBF00204FF0004106E0D3
:1002A00008BF00281CBF6FF000414FF0FF3000F086
:1002B000D3B9ADF1080C6DE904CE002909DB002BA0
:1002C0001ADB00F04DF8DDF804E0DDE9022304B0AC
:1002D0007047404261EB4101002B1BDB00F040F80E
:1002E000DDF804E0DDE9022304B0404261EB4101A6
:1002F000524263EB43037047524263EB430300F007
:100300002FF8DDF804E0DDE9022304B0404261EBA0
:1003100041017047524263EB430300F021F8DDF8DE
:1003200004E0DDE9022304B0524263EB430370476B
:1003300053B94AB9002908BF00281CBF4FF0FF314C
:100340004FF0FF3000F088B9ADF1080C6DE904CE34
:1003500000F006F8DDF804E0DDE9022304B07047A0
:100360002DE9F047089D8E4604468846002B4AD169
:100370008A42174662D9B2FA82F64EB1C6F120031C
:1003800001FA06F820FA03F3B74043EA0808B4403C
:100390004FEA174E1FFA87FCB8FBFEF1230C0EFB49
:1003A000118843EA084301FB0CF29A4209D9FB1871
:1003B00001F1FF3080F0EA809A4240F2E780023992
:1003C0003B449A1AA3B2B2FBFEF00EFB102243EAA2
:1003D000024300FB0CFC9C4509D9FB1800F1FF32DD
:1003E00080F0D6809C4540F2D3803B44023840EAFE
:1003F0000140A3EB0C0300211DB1F3400022C5E92D
:100400000032BDE8F0878B4205D90DB1C5E9000186
:1004100000210846F5E7B3FA83F1002946D1734578
:1004200002D3824200F20581841A6EEB030201209E
:100430009046002DE5D0C5E90048E2E7002A00F02B
:100440009080B2FA82F6002E40F0A4808A1A030C43
:100450004FEA174E80B2BCB20121B2FBFEFC0EFB8C
:100460001C2243EA024304FB0CF29A4207D9FB1810
:100470000CF1FF3802D29A4200F2E080C4469B1A87
:10048000B3FBFEF20EFB123340EA034302FB04F41B
:100490009C4207D9FB1802F1FF3002D29C4200F2C5
:1004A000CA8002461B1B42EA0C40A5E7C1F12006A8
:1004B0008B4022FA06F71F430EFA01F420FA06F3E6
:1004C0002EFA06FE4FEA1749234300FA01F81FFAF5
:1004D00087FCBEFBF9F01C0C09FB10EE44EA0E444D
:1004E00000FB0CFEA64502FA01F209D93C1900F105
:1004F000FF3A80F09C80A64540F2998002383C4447
:10050000A4EB0E041FFA83FEB4FBF9F309FB1344BA
:100510004EEA044403FB0CFCA44508D93C1903F142
:10052000FF3E80F08280A4457FD9023B3C4443EAF1
:100530000040A4EB0C04A0FB02EC64457346E146CA
:1005400062D35FD05DB1B8EB030264EB090404FA37
:1005500006F622FA01F31E43CC40C5E900640021EF
:100560004FE7B1FBF2FC010C41EA0E4180B240EAD8
:1005700001423B4638463C46B846BE462026B1FBC3
:10058000F7F1A2EB080241EA0C4166E7014618E7E1
:1005900010462CE7C6F120022EFA02F3B740B14014
:1005A00020FA02F24FEA174E0A43B3FBFEF8BCB240
:1005B0000EFB1833110C41EA034108FB04F9B0406B
:1005C00089454FEA104380B23ED9791808F1FF3CC3
:1005D00001D289451FD8A1EB0901B1FBFEF909FB46
:1005E00004F80EFB191192B242EA0142424529D2A7
:1005F000BA1809F1FF31C4D24245C2D2A9F10201B1
:100600003A44BEE7F0459DD2BEEB02036CEB070C0B
:100610000138E14696E7A7EB09094944A8F1020C25
:10062000B1FBFEF909FB04F8DBE773467FE75046B0
:1006300066E70846FDE63B44023A33E7ACF1020CBC
:100640003B441CE749469CE7A1EB0901C446B1FBCA
:10065000FEF909FB04F8C4E7704700BFDFF834D0A7
:10066000002103E00C4B5B58435004310B480C4B0A
:1006700042189A42F6D30B4A02E0002342F8043BA8
:10068000094B9A42F9D303F0EDFF23F045FE00F049
:10069000B1F970470000032064AC0F08000000208F
:1006A00064010020800300205C420120FEE72DE968
:1006B000F041054688B010222F1F0021684623F024
:1006C00082FD0C353B46002253F8041F29B108A8CF
:1006D00000EB8200013240F8201CAB42F4D16E46A0
:1006E000334603244FF0000853F8042B4AB119682D
:1006F0008A4206D1520043F8042C00221A604FF0BF
:100700000108013CF0D1102221460DEB020023F03C
:100710005AFD234656F8042B2AB108A901EB8301A0
:10072000013341F8102C0134042CF3D104AB57F8F9
:10073000041F53F8042B91421CBF3A604FF001088C
:10074000AF42F4D1404608B0BDE8F081044A1368D6
:10075000013313600A2293FBF2F002FB1030704762
:100760009C03002070B5044600F140060025204699
:10077000FFF79DFF1034002818BF0546B442F6D19C
:10078000284670BD2DE9F047044600F140060025DB
:10079000D4E9029AD4E900782046FFF788FFC4E93B
:1007A000029AC4F8048044F8107B002818BF05465C
:1007B000B442EDD12846BDE8F0877FB5041F00F1B3
:1007C0000C06002554F8043F009323690193236A23
:1007D00002936846236B0393FFF769FF009B236036
:1007E000019B2361029B2362002818BF0546039BDF
:1007F0002363B442E6D1284604B070BD7FB5041F20
:1008000000F10C060025636B0093636A0193636932
:100810000293684654F8043F0393FFF748FF009B98
:100820002363019B2362029B2361002818BF0546B6
:10083000039B2360A642E6D1284604B070BD0000A9
:1008400070B50021A0B004460D4604EB0110002352
:1008500050F823202AB920AA02EBC50242E920134E
:1008600001350133042BF3D101310429EDD1002DE1
:1008700019DDFFF76BFF20AA90FBF5F303FB1503CF
:1008800002EBC30353E92065FFF760FF04EB061496
:1008900008280648D8BF022144F8251020B0BDE83A
:1008A000704023F03BBC20B070BD00BF4C4E02082E
:1008B00008B500220A4B11460132042AC3E900118F
:1008C000C3E9021103F11003F6D10548FFF7B8FFA1
:1008D0000348FFF7B5FFBDE80840014803F078BBC7
:1008E000A003002008B503281BD8DFE800F0020EA3
:1008F00012160C48FFF736FF98B10A48FFF7A0FF21
:10090000BDE80840074803F063BB0648FFF73AFF1D
:10091000F2E70448FFF751FFEEE70248FFF76EFFEA
:10092000EAE708BDA003002007B5064BADF80600B6
:100930001B68054801220DF1060105F0BDFC03B05E
:100940005DF804FB040000202404002008B56420A6
:1009500006F06CF9FBE7000030B595B010220021DD
:100960000AA823F030FC1422002103A823F02BFC5A
:1009700000241E4B01941A6C42F080521A641B6CC6
:1009800003F080530193019B194B02941A6842F4BF
:1009900040421A601B6803F4404302930122029B09
:1009A0004FF48033CDE9082302254FF4800308215A
:1009B000CDE90E534FF4B473CDE9101308A8042306
:1009C0001393129504F030FF04F0F4FE0F23CDE9E9
:1009D00003354FF4A0504FF48053CDE906030521B1
:1009E00003A8059405F0FCF815B030BD00380240AE
:1009F0000070004080B59AB003F042FEFFF7ACFFF4
:100A0000142200210DA823F0DEFB0024CA4B009421
:100A10001A6BCA4842F010021A631A6B02F01002F5
:100A20000092009A01941A6B42F020021A631A6B2A
:100A300002F020020192019A02941A6B42F08002A5
:100A40001A631A6B02F080020292029A03941A6BE4
:100A500042F004021A631A6B02F004020392039A32
:100A600004941A6B42F001021A631A6B02F001023D
:100A70000492049A05941A6B42F002021A631A6BEC
:100A800002F002020592059A06941A6B42F04002A7
:100A90001A631A6B02F040020692069A07941A6BC8
:100AA00042F008021A631B6B03F008032246079307
:100AB0003C21079B04F06AF8A1480122022104F0BE
:100AC00065F822469E48042104F060F822469D48BD
:100AD0004FF4405104F05AF801263C23CDE90D367D
:100AE00096480F9403230DA90227109303F064FF87
:100AF00093480DA9CDE90D76CDE90F4403F05CFFD5
:100B000004238F480DA9CDE90D36CDE90F474FF4E9
:100B1000405803F051FF4FF488158B480F970DA9EB
:100B2000CDE90D8503F048FF86480DA9CDE90D8676
:100B3000CDE90F4703F040FF4FF4C06383480F97A0
:100B40000DA9CDE90D3503F037FF22460521172009
:100B500003F0E8FD172003F017FE224605212820A8
:100B600003F0E0FD282003F00FFE7948794B7A4D21
:100B7000036003F017FEDFF800E2784B2C62C5E952
:100B800000E328464FF48043C5E90434C5E9024434
:100B9000C5E9064404F014FA1021284604F058FC74
:100BA000DFF8D881214628466D4D04F070FC4FF4E3
:100BB0008273C5E900834FF400791823C5E90693D1
:100BC00028460A23C5E90244C5E90444C5E90844A6
:100BD000AC62EB6205F014FB8F232246394658487D
:100BE0008DF824308DF8344003F0D0FF32464FF4B6
:100BF0007A7309A9284605F05FFB4FF47A733246F1
:100C00000DA9284605F004FD324639464C48554D9D
:100C100003F0BCFF9DF83430D32B04BF524B1E7041
:100C2000524B0126C5E90036102240230024C5E9B5
:100C300004234FF4C073C5E906344FF40063C5E9DB
:100C400008344FF4005302274FF00409AB624FF011
:100C5000030A07230DA92846CDE90D73CDE90F93AB
:100C60004FF00808C5E90249CDE911A7139705F02F
:100C7000ABF94FF6FF7209A92846CDE90A86089418
:100C800009960C9405F0C0F9304603F025FD4FF6A7
:100C9000FF7209A92846CDE90978CDE90B6405F072
:100CA000B3F94FF6FF7209A92846CDE909A8CDE9A5
:100CB0000B9405F0A9F94FF40C730893089B0C935F
:100CC0004FF6FF7209A92846CDE909980B9605F061
:100CD0009BF940F26A51284605F0B4F934220DEB35
:100CE0000200214623F06FFA214D224B2C61C5E909
:100CF00000340923C5E905361D23C5E9073A40F24A
:100D00000D1140F24313C5E9091340F2171040F2E8
:100D10004713C5E90B032846C5E90244AC8685F8AC
:100D2000364004F047FCFF214FF4806CF022CDE9FF
:100D30001214052124E000BF0038024000100240D8
:100D400000080240000C0240000402400000024083
:100D5000B80500200030024024050020A0860100D4
:100D600024040020F0030020E4030020400100A040
:100D70007C04002000680140005C004000500140FD
:100D8000CDE914C14FF4A0730DA9CDE90E24CDE92E
:100D90001642284622461D4D1893CDE910370D9472
:100DA000ADF864408DF8664004F0B8FC184B2B6039
:100DB0001B6898472B68174DDB689847164B2846E9
:100DC000C5E90034C5E90274C5E90A47C5E90C4420
:100DD00003F0F8FC3146284603F0AAFD00F025FC9C
:100DE00000F022FC05F0B2FE0C4A0D48214605F049
:100DF000D9FE0C4B0C4A186021460C4805F0D2FE77
:100E00000B4B186005F0B4FEFEE700BFE0030020C6
:100E1000140000207805002000B002409459020818
:100E20004D090008EC03002070590208391600082B
:100E3000E8030020704770477FB5094B8DF81720F5
:100E40001B6802930DF117020123009201930A46D9
:100E50000146044804F05CF907B05DF804FB00BFEC
:100E600008000020240500207FB500238DF81730EE
:100E7000084B1B6802930A4601230DF117010091EC
:100E800001930146044804F0D3F99DF8170007B018
:100E90005DF804FB08000020240500201FB5084C65
:100EA00024680092CDE901340A4601230146054831
:100EB00004F0BEF9003818BF012004B010BD00BF17
:100EC000080000202405002003F006BC10B5064CE5
:100ED00000222046042103F059FE20460122BDE8ED
:100EE0001040042103F052BE0008024038B50B4DFB
:100EF000044601220A484FF4005103F047FE002245
:100F00000421284603F042FE2046FFF70DFD284647
:100F10000122BDE83840042103F038BE0008024039
:100F2000000C024038B50B4D044600220A484FF42D
:100F3000005103F02BFE00220421284603F026FE78
:100F40002046FFF7F1FC28460122BDE83840042185
:100F500003F01CBE00080240000C0240F7B5144E1E
:100F6000144F05460C4630460022042103F00EFEC5
:100F700000224FF40051384603F008FE2846FFF7E0
:100F8000D3FC0D4B0D481B68224601A905F040FB20
:100F9000384601224FF40051019C03F0F7FD304622
:100FA0000122042103F0F2FD204603B0F0BD00BF92
:100FB00000080240000C024004000020240400202D
:100FC00003F08ABB0268034B9A4201D103F072BB63
:100FD000704700BF001000407047000082B00E4B09
:100FE00000220092596C41F480415964596C01F41B
:100FF0008041009100990192196C41F0805119646F
:101000001B6C03F080530193019B0F216FF00100D3
:1010100002B003F087BB00BF003802400268094BF2
:101020009A4282B00BD100230193074B1A6B42F412
:1010300080521A631B6B03F480530193019B02B02F
:10104000704700BF003002400038024007B50F4B28
:1010500002689A4216D10022A3F5F0430192196B5F
:1010600041F4000119631B6B03F400030193052194
:101070005A20019B03F056FB5A2003B05DF804EBA5
:1010800003F082BB03B05DF804FB00BF00B0024078
:101090002DE9F043044689B01422002103A823F06F
:1010A00092F82268244B9A4243D1244C24480025CC
:1010B0000095236B43F004032363236B03F00403C5
:1010C0000093009B0195236B43F001032363236B83
:1010D00003F001030193019B4FF012094FF40073D9
:1010E0004FF001080327042603A9CDE90339CDE910
:1010F0000587079603F060FC4FF48073114807964C
:1011000003A9CDE90339CDE9058703F055FC029524
:10111000236C43F400032364236C03F40003029361
:10112000029B236A43F400032362236A23F400032F
:10113000236209B0BDE8F083005C00400038024043
:101140000008024000000240F0B599B004461422A5
:10115000002107A823F037F830220DEB0200002110
:1011600023F031F822685E4B9A4240F0B7800823A2
:101170000C93C0231093042312930CA84FF4003354
:10118000159304F0F5FD08B1FFF726FF554B5648BF
:10119000002400945A6C42F080625A645A6C02F047
:1011A00080620092009A01941A6B42F020021A6346
:1011B0001A6B02F020020192019A02941A6B42F01B
:1011C00001021A631A6B02F001020292029A03945E
:1011D0001A6B42F002021A631A6B02F002020392C7
:1011E000039A04941A6B42F040021A631A6B02F0DD
:1011F00040020492049A05941A6B42F004021A63A6
:101200001A6B02F004020592059A06941A6B42F0DA
:1012100008021A631B6B03F00803069302250E26CF
:10122000069B0B964FF4806307A9CDE90735CDE9FE
:10123000094503F0C1FB41F658032C480B9607A95A
:10124000CDE907350927CDE9094503F0B5FB0323AF
:1012500027480B9707A9CDE90735CDE9094503F0E4
:10126000ABFB4FF4706322480B9607A9CDE9073515
:10127000CDE9094503F0A0FB4FF40C631D480B9624
:1012800007A9CDE90735CDE9094503F095FBC02352
:1012900019480B9607A9CDE90735CDE9094503F0B3
:1012A0008BFB082315480B9607A9CDE90735CDE937
:1012B000094503F081FB4FF4A0530E480B9707A993
:1012C000CDE90735CDE9094503F076FB58202246E4
:1012D000052103F027FA582003F056FA19B0F0BDA3
:1012E0000068014000380240001402400000024043
:1012F000000402400018024000080240000C0240B6
:1013000010B5044688B01422002103A822F05BFF28
:101310002268144B9A4223D103F5684300210191BE
:101320005A6C114842F480125A645A6C02F48012CA
:101330000192019A02911A6B42F020021A631B6B10
:1013400003F020030293029B4FF4607202230321F7
:10135000CDE903230523CDE9061303A903F02CFBF4
:1013600008B010BD00500140001402402DE9F041CA
:1013700086B0002303932B4B1C68002C4FD14FF0F9
:101380000108C3F80080284B00949A6B274842EA72
:1013900008029A639B6B03EA080300930227032663
:1013A0000C25009B01A94FF63F03CDE90137CDE99C
:1013B000046503F001FB1E48059501A9CDE90187ED
:1013C000CDE9034603F0F8FA48F2331319480595BE
:1013D00001A9CDE90137CDE9034603F0EDFA4FF657
:1013E00083731548059501A9CDE90137CDE9034679
:1013F00003F0E2FA4CF203731048059501A9CDE918
:101400000137CDE9034603F0D7FA60230C48059570
:1014100001A9CDE90137CDE9034603F0CDFA06B0C5
:10142000BDE8F081C00500200038024000140240F1
:10143000000802400018024000100240000C024068
:101440000004024070B588B000230293204B1A6C50
:1014500042F010021A641B6C03F01003029305465D
:1014600001A903A8029B04F065FC069B4BBB04F09A
:1014700051FC184E184B336040F2E733F360174BC2
:10148000B0FBF3F3013B7360304600233361B3607C
:10149000B36105F087FA044680B9304605F05CF97F
:1014A000044658B9362003F06FF90F2D0DD82246A7
:1014B0002946362003F036F9094B1D60204608B056
:1014C00070BD04F027FC4000D3E70124F6E700BF1D
:1014D00000380240C40500200010004040420F00C8
:1014E0007C0000207047FEE7FEE7FEE7FEE770475E
:1014F0004FF4007003F058BB08B54FF4806003F060
:1015000053FB4FF4805003F04FFBBDE808404FF40D
:10151000005003F049BB0000014805F05BB900BF73
:10152000C4050020014804F09CB800BF7C040020E2
:10153000014803F073B900BF7805002070B5104E64
:10154000044603F0C3F83368C31A322B054606D9A4
:10155000B4F5805F04D10020FFF7C4F9356070BD99
:10156000B4F5005F01D10120F6E7B4F5007F01D1A9
:101570000220F1E7B4F5806FF0D10320ECE700BF63
:101580000C0600200120704708B522F0BFFE16238C
:1015900003604FF0FF3008BD08B522F0B7FE1623F8
:1015A0000360FEE770B50D4614460E46731B9C4261
:1015B00001DC204670BDAFF3008006F8010BF5E7B3
:1015C00070B50D4614460E46731B9C4201DC204646
:1015D00070BD16F8010BAFF30080F5E74FF0FF3058
:1015E00070474FF400534B60002070470120704754
:1015F000002070470A4A116808B5034609B909492D
:1016000011601068694603448B4206D922F07EFEC1
:101610000C2303604FF0FF3008BD1360FCE700BFF0
:101620001006002060420120704708B500F0BAFDA6
:10163000BDE8084000F03EBD00F0B6BD704710B5F3
:101640000421044621F069FC204610BD38B50C4B3E
:101650000C4C18800C4B822019806368984740F628
:10166000110398420AD1094D23682C6082209847C3
:101670002B688220DB689847002038BD0120FCE7FA
:101680001E0600204C0000201C0600202006002022
:101690004FF4A071F020FFF7D9BF0000F7B5394D26
:1016A0002B6804461B6982209847208000284ED072
:1016B0002B680DF106025B6901A982209847324B25
:1016C0001B78002B4BD0BDF8062040F674639A427D
:1016D0003FD9ADF80630BDF806209B1A9BB20A2B05
:1016E00042D90B22B3FBF2F3284A1288934201D964
:1016F000013A93B2BDF80420254840F6B8318A4239
:1017000034D8C2F571620E32016892B20F25B2FB75
:10171000F5F2204D2D88AA4284BF05F1FF35AAB20B
:101720008A4215468EB22AD9921B91B21A4E376858
:10173000BB42BAB28CBF9A1AD21A92B2114405298E
:10174000C4BF05603360036863803368A38003B05F
:10175000F0BDB32A9CBFB422ADF80620BBE7BDF8AC
:101760000630A3F5B473B9E70023C3E7C2F56D6291
:10177000083292B20E2A0168C8D800252A46891A72
:1017800089B2D3E720060020E40300201C060020D5
:10179000180600201E0600201406002037B56846F3
:1017A0000D461446FFF77AFFBDF8000030B1BDF8D2
:1017B00002302B60BDF804302360012003B030BD3F
:1017C000032821D8DFE800F0020B12190F4B1A682A
:1017D000B2FA82F2520904210D4803F0D7B90B4B3B
:1017E0005A68B2FA82F252090821F5E7074B9A6863
:1017F000B2FA82F252091021EEE7044BDA68B2FA2B
:1018000082F252092021E7E7704700BF240600203A
:1018100000100240032821D8DFE800F0020B121963
:101820000F4B1A68003A18BF012204210D4803F03B
:10183000ADB90B4B5A68003A18BF01220821F5E7F1
:10184000074B9A68003A18BF01221021EEE7044BBB
:10185000DA68003A18BF01222021E7E7704700BF8D
:10186000240600200010024003280DD8DFE800F015
:101870000206080A0421054803F08DB90821FAE799
:101880001021F8E72021F6E7704700BF0010024062
:1018900008B5032811D8DFE800F0020A0C0E042175
:1018A000074803F06DF9431E5842584108BD08210E
:1018B000F6E71021F4E72021F2E70020F3E700BF6C
:1018C0000010024070B5084D00240126E0B2FFF779
:1018D000DFFF18B12B68012B18BF2E600134052CD7
:1018E00005F10405F2D170BD24060020012380F823
:1018F000781080F8793070477047002070470000FA
:10190000034B4164003918BF01211970704700BFB3
:101910001B350120704700207047836B0BB10846D0
:10192000184770474FF6FF707047406803689B691F
:1019300018477047704770477047704710B50446A6
:1019400000F048FD23680349D3F890302046BDE8F5
:1019500010401847000000D008B503680446D3F8CB
:101960008430984723682046DB6F984700F0ECF8F6
:10197000236820465B6F98472920FFF7D3FA00F0D1
:10198000E3F8236820465B6F9847F8E710B50446F4
:1019900008F034FA23682046D3F8BC30BDE8104084
:1019A000184700F0FBBC00F0FFBC00F031BD00F0B8
:1019B000D1BC00F041BD00F049BD00F0D5BC07F03E
:1019C0004BBC10B58421044621F0A7FA204610BD77
:1019D00010B590F8341090F878400C4B8C421A787F
:1019E00009D03AB90A4A0B491488088810800C803B
:1019F00001221A7010BD002AFCD0054A054914883E
:101A0000088810800C800022F3E700BF1435012005
:101A1000103501201235012070B50D46194635B933
:101A2000094B0A4A0A4840F2FF2122F0B3F9C0E903
:101A30000F52084B003A18BF01221A700368BDE824
:101A40007040D3F890301847644E02089C4E02084C
:101A5000EA4E02081A35012008B5094B1B888B4253
:101A600003D8084B1B88934205D9074B074A0848FF
:101A7000A32122F08FF9074B1980074B1A8008BD6C
:101A800010350120123501202F4F0208924F020815
:101A9000EA4E02081635012018350120034690F859
:101AA0007A0018B1586803681B681847704700002F
:101AB000012108B50022084605F0C4F80A4B186059
:101AC00028B90A4B0A4A28210A4822F063F9002261
:101AD0000421012005F055F9074B186018B9074B90
:101AE000034A2C21F0E708BD38060020D54F020834
:101AF0001E5002084D500208340600209350020880
:101B0000024B4FF0FF31186805F0E6B838060020A8
:101B1000014B186805F00CB938060020024B002173
:101B2000186805F0D9B800BF38060020FFF7F0BFED
:101B300003480449006800231A4605F05DB900BF58
:101B4000340600200C00002013B5084C00231A4670
:101B500001A9206805F081F920684FF0FF330022C9
:101B600001A905F07AF902B010BD00BF34060020CB
:101B700003685B6C18470120704703689B6A18472D
:101B8000FEE740F2EF307047054B0360054B4FF026
:101B90008062C3F88820BFF34F8FBFF36F8F704709
:101BA000C45A020800E100E010B504464FF45A613F
:101BB000FFF7EAFF204621F0B0F9204610BD0000F3
:101BC00082B0002301930E4B1A6B42F400021A6399
:101BD0001A6B02F400020192019A1A6942F400029F
:101BE0001A611A6922F400021A61064B064A1A6148
:101BF000064A5A61064B4FF080629A6002B0704705
:101C00000038024078050020611E0008811B000892
:101C100000E100E008B50A2809D8DFE800F0061066
:101C20000E080808081010101000022008BD054B0F
:101C3000054A0648902122F0ADF80020F6E7012081
:101C4000F4E700BFD5500208F05002083B510208EB
:101C500038B50C46887FFFF7DDFFA58AE28A164B70
:101C60002169586342EA05425A64628BD963521B68
:101C70001A642568082D0ED19A611A615862207F76
:101C80000E4A42EA0062DA61E2681A620C4A59615D
:101C9000D9601A6038BD0022D8611A61E1680A0A69
:101CA000480902F4784200F4FC600243C1F3C40125
:101CB0000A439A63034AECE700B0024009000100BE
:101CC000012302000123030008B50B280BD8DFE82D
:101CD00000F00612100A0A0A0A080808080802207A
:101CE00008BD0520FCE7054B054A06486F2122F098
:101CF00051F80020F4E70120F2E700BFD5500208B8
:101D00007F5102083B5102082DE9F04191F81D80F6
:101D10000C464046FFF7D8FFA77F05463846FFF739
:101D2000D3FF06463846FFF775FFA18A628B444B06
:101D3000521A1A649A61228B521A1A61E28A586303
:101D400042EA01425A6421696268D963DA60206814
:101D5000802828D0227F0FD8202867D0402865D03F
:101D600004281AD0364B45EA026545F40035B845DB
:101D7000DD6161D0334A44E0B0F5807F04D0B0F536
:101D8000007FEFD1304800E0304840EA0262DA617B
:101D9000E2681A625E62596132E045EA026242F428
:101DA0000032DA61F6E7A068021DDA62227F45EAB6
:101DB000026545F40035DD615E625961017841B12B
:101DC000012921D0224B234A23484FF48D7121F061
:101DD000E1FFDA69418822F47F42013922F01002E2
:101DE00042EA0122DA610121154BDA6942F0200250
:101DF000DA61DA699206FCD410229A600029B9D01F
:101E0000164A1A60BDE8F081B2F1FF01DA69408834
:101E100022F47F4200F1FF3022F0100242EA002259
:101E200042F0100218BF0121DA61DDE745EA0262E3
:101E3000034B42F40032B4E742F20132E1E700BF63
:101E400000B0024001230100090002000A00020064
:101E5000C9510208E35102083B5102080123020064
:101E6000024B1B68586803685B6918471C350120E2
:101E700070B5044625460A4B0C3000266060267279
:101E8000667245F8203B6022294608F00DF904F5FA
:101E90005A63EE6024359D42FBD1204670BD00BFE1
:101EA000C45A0208034B1A68D207FCD423229A6052
:101EB000704700BF00B002407047000030B50F4CC3
:101EC0002568ED07FCD423250904A56041F0010134
:101ED0000225FF2B65636164E0630AD008496562EF
:101EE00041EA0363E361074B22626061E0602360C3
:101EF00030BDE561039BA363034BF8E700B00240EC
:101F000009000100010002000100030030B50E4C81
:101F10002568ED07FCD423251204A56042F00102D8
:101F20000225FF2B65636264E063E16008D01B0655
:101F300043F00213E361054B65626061236030BDCD
:101F4000034BE3610123F9E700B002400100020006
:101F5000020002FF30B50B4C2568ED07FCD42325A9
:101F600012041B06A56043F40033022542F001026F
:101F700065636264E063E160E361034B6562606135
:101F8000236030BD00B00240010002000120704714
:101F90000C2070470C2303FB0100083070470C2312
:101FA00003FB0100083070470120704740F6C46011
:101FB000704740F6C46303FB01000830704740F6E9
:101FC000C46303FB010008307047012070471020F4
:101FD000704700EB01100830704700EB011008302B
:101FE0007047084600F0B6BC10B5034B03600446CA
:101FF00006F089FE204610BD7C5B020810B5044641
:10200000FFF7F2FF2046142120F087FF204610BD85
:1020100010B5034B0360044606F075FE204610BD64
:10202000485B020810B50446FFF7F2FF204640F671
:10203000CC6120F072FF204610BD000010B5034BAC
:102040000360044606F05FFE204610BD145B0208E4
:1020500010B50446FFF7F2FF2046182120F05DFF7F
:10206000204610BD10B5084B0360044600F6F8602A
:10207000FFF7BAFF04F12C00FFF7CAFF04F11400C8
:10208000FFF7DCFF204610BDB05B020808B5024830
:10209000FFF7E8FF08BD00BF1415002010B5044687
:1020A000FFF7E0FF204641F26C0120F036FF2046AA
:1020B00010BD00002DE9F34100F0C2FA054600F022
:1020C000C3FA00240146234628462246009411F014
:1020D000C7FD274B274A1A60204601F0A3FE264D74
:1020E000264B274A27489A6011F022FD2B68BFF340
:1020F0005B8FDB0735D4284620F011FF88B3224CD4
:10210000224B236004F5716604F1140004F12C08DD
:1021100004F6F8676060C4F80880E760266106F09E
:10212000F3FD1B4B6361404606F0EEFD194BE36285
:10213000384606F0E9FD184BC4F8F83E04F60C707A
:1021400001F05CFF224604F60C71304601F0E4FE1B
:10215000304600F0FFFB114821F03AFE284620F0FF
:10216000EAFE0F4802B0BDE8F041FFF7E7BB00BF51
:1021700080350120C006002010150020E006002058
:10218000C40600201000002014150020B05B0208D7
:10219000145B0208485B02087C5B02088D20000883
:1021A0003C060020704700000148FFF7D5BB00BF88
:1021B0003C06002070B5264E264C274D274B236049
:1021C0003046FFF755FE284616F050FE24480EF024
:1021D000DBFD244B2448DC6000224FF48071C3E90E
:1021E000121222491A86C3E91A12214983F858208B
:1021F000C3E91E011F49C3F880101F491F480B6027
:10220000F021C3E90422C3E90622C3E90822C3E995
:102210000A22C3E90E22C3E91022C3E91422C3E94A
:1022200017225A6683F870205A67C3E90165018056
:102230001348018013484FF4A071018012480180B7
:1022400012490A70012283F83420114A1A6070BDC5
:102250006C0700200C150020E0060020C059020881
:10226000C40600203C06002000000101010000011E
:10227000000450001A0014001C3501201035012004
:1022800016350120123501201835012014350120A2
:10229000D85902080148FFF777BC00BF6C0700203F
:1022A0000020704781807047C1807047018170476E
:1022B000418170477047704770477047704710B44E
:1022C000C4880368121B84885B6D091B12B25DF819
:1022D000044B09B218474FF6FF7383814FF0FF3369
:1022E00003621368C36110607047002070478B88D9
:1022F000838001207047704780F82610704790F85F
:102300002600704710B50022B1F90840B1F90A1053
:10231000028042808480C18010BD00220280428001
:102320008280C28070470177704780ED080A70474D
:1023300080F82410704780F82510704701207047FE
:10234000983070478C3070478430704770477047C2
:1023500070470000034B902283F85A2383F85823D8
:10236000704700BF00E100E0094A0A49D3680A4803
:10237000C3F30A03013B9BB20B801169C1F30A014D
:10238000013901801364536B43F0010353637047B9
:10239000006801408225002080250020014BD3F8F1
:1023A000AC00704700680140024B0122C3F8AC103A
:1023B0005A6270470068014010B52C21044620F095
:1023C000ACFD204610BD10B5BC21044620F0A5FD93
:1023D000204610BD70B5044606F093FF23689D6E3D
:1023E0000DF074FA01462046A8472368054AD3F841
:1023F0008C502046AC460023BDE87040A2F5163153
:10240000604700BF00B004D006F062BF06F06CBFAA
:1024100006F028BF07F097B890F8252012B103689E
:102420005B691847704790F825201AB190F824206E
:1024300002B1186070470000034B4FF080629A6051
:102440004FF080729A60704700E100E0084B4FF057
:102450008062C3F88820BFF34F8FBFF36F8F4FF0B8
:102460008072C3F88820BFF34F8FBFF36F8F704720
:1024700000E100E070B50023124E8380124B036030
:10248000336893F8582005460AB1D86C00B99868AB
:102490000368DB6A98473368B0FA80F4D86C640943
:1024A00030B10368DB6A9847002808BF44F0010494
:1024B0002CB9064B064A07482C2121F06BFC284614
:1024C00070BD00BF1C350120C45B02082152020808
:1024D0007F520208B852020870B5254E3568BFF326
:1024E0005B8F15F0010540D1304620F018FD002823
:1024F0003BD0204C204B256104F13400C4E9003569
:10250000C4E90255E584A562A5850EF022FF04F119
:10251000580009F07DFA194BA3652046184B40F886
:10252000843BFFF7A7FF174BC4F884302433C4F86B
:102530008C304FF4C803C4E928350023C4F8AC300C
:10254000C4F8B030C4F8B430C4F8B8300E480F4BFB
:10255000C4F89050C4F89C50C4F8A850C4F89830FF
:1025600021F036FC304620F0E6FC024870BD00BF8A
:102570008425002088250020D0620208E45B020840
:102580005C5C02088462020851230008646202084D
:1025900038B5184C23685BB3174B184A1B6C11886D
:1025A0008B4216D1164B198803F0E6F8236893F88E
:1025B0006A200025013283F86A2083F87C50FFF7F7
:1025C000B7FA206807F01AFC2846BDE83840FFF744
:1025D000F7B803F0D1F82468236820461B6A9847AF
:1025E000012384F87C300020BDE83840FFF712B9A1
:1025F00038BD00BF1C350120006801408225002045
:1026000080250020704710B50421044620F085FC89
:10261000204610BD08B503290FD8DFE801F00602F7
:10262000060A01F04BFC406808BD01F047FC006859
:10263000FAE701F043FC8068F6E70020F4E70000C9
:1026400000487047B45C02080620704713B50024A8
:1026500051B1036801948DF8034001AA9C680DF103
:102660000303A04702B010BD0846FBE7C0897047CE
:10267000008A7047C088704780887047807A00F071
:102680007F007047807AC0097047002070470000C3
:102690009FED010A704700BF00000000704710B5B1
:1026A0000821044620F039FC204610BD70477047D1
:1026B00000F598730868496803C37047704770470E
:1026C0004160704770477047064BC0F84C3100239B
:1026D000C0F8503100F5A273C0F84801C0F840318D
:1026E000704700BF892700080123037270477047B5
:1026F00010B4C26841685410034601EB6200D2076F
:1027000048BF0A599B685DF8044B48BFD358184727
:102710000346406830B19A681AB9D86800F00100E1
:1027200070470120704710B50C21044620F0F5FBDE
:10273000204610BD10B51021044620F0EEFB2046C7
:1027400010BD10B54FF4AE71044620F0E6FB2046F4
:1027500010BD10B50DF0BAF80368BDE81040DB6B92
:10276000184710B50446D0F8400158B10368DB683B
:10277000984738B1D4F8400103689B689847002314
:10278000C4F8403110BD00002DE9F14FD0E9556A81
:102790000746B06803681B6A984740F6C3639842CF
:1027A00005D8444B444AA321444821F0F3FA706809
:1027B00003681B6A98470F2803D8414B3E4AA4215F
:1027C000F2E7F06803681B6A98470B2803D83D4B73
:1027D000394AA521E8E70DF079F8DFF8F0900430E8
:1027E0000DF0B2F8D9F8000010B10368DB68984723
:1027F000D9F8000010B103681B689847DFF8D08053
:10280000D8F8000010B103685B699847D7F83C011D
:1028100010B103685B689847D8F8000010B10368EE
:102820001B689847D7F83C0110B103689B6898472C
:10283000F068036800215B6A98474FF0000B224B59
:10284000C0F804B0044680F808B00360B0680368BC
:1028500059465B6A9847054601F098FB7068036823
:1028600059465B6A98472946064601F06DFB331DC1
:10287000C7F83C61C9F80040C8F80050CAF80030F9
:102880002B68C6F808A02846DB68EE6398473368D3
:1028900030461B689847214628460FF0DFF9236829
:1028A00020461B69984723685B69204601B0BDE854
:1028B000F04F18471A530208A85302088054020820
:1028C000C75402086A550208B05D02086435012049
:1028D00060350120044B1B6893F858200AB1D86C6E
:1028E00000B99868704700BF1C350120F8B517463D
:1028F00004460E460DF0C6F8124B1C60124B2360C6
:10290000124B0025C4E95135114BC4E953551868E1
:10291000036801219B68C4E94F55C4E9557698477F
:10292000284601F07FFAFFF7D5FF18F048F9FFF7C6
:10293000D1FF18F0BFF9FFF7CDFF18F0C7F9204617
:10294000F8BD00BF703501205C5D0208445D0208DF
:102950001C350120064BC0F84C310023C0F8503123
:1029600000F5A273C0F84801C0F84031704700BFBD
:102970008927000870477047704770477047983044
:1029800001F0CEBB10B5054B0360054B044640F883
:10299000983F00F0A9F9204610BD00BFD45D0208A1
:1029A000BC60020810B50446FFF7ECFF204640F675
:1029B000C46120F0B2FA204610BD70B50368044629
:1029C0001B6B154698472368294620465B6BBDE87C
:1029D0007040184770B504461D46BDF91060FFF7FA
:1029E000ECFF2368294620469B6B984723683146B5
:1029F0002046DB6BBDE87040184700002DE9F04F22
:102A0000044689B00EF07EFF614B2360614B0025C8
:102A1000C4E910354FF4807307AE04F16C0AA4F8D2
:102A20006430FF234FF6FF77314684F86630C4E9FF
:102A30001255C4E91455C4E91655E5632566A56623
:102A40005046ADF81C7009F04BF804F1980304F5FA
:102A500063691846029304F65C6801F0E9FA3146AE
:102A6000484604F6886BADF81C7009F039F8314619
:102A70004046ADF81C7009F033F8584609F0F6FEF0
:102A80004FF4A0732A4604F1400000932946F02336
:102A90000390FFF79FFF0398271D4FF07F43A36626
:102AA0000146384606F042F931465046ADF81C5012
:102AB00009F003FF4FF4A0732A4600932946F02340
:102AC0005046FFF787FF2946504608F0C4FF51469D
:102AD000384606F02BF9322202981421FFF76DFFD9
:102AE0000299384606F022F94FF0280A02233146AF
:102AF0004846ADF81C3009F0E0FE05226423484644
:102B0000CDF800A01021FFF765FF2946484608F0E0
:102B1000A2FF4946384606F009F9052331464046EA
:102B2000ADF81C3009F0C9FEC82340F20712404638
:102B3000CDF800A01421FFF74DFF2946404608F0CC
:102B40008AFF4146384606F0F1F8584640F2051231
:102B5000A521FFF732FF0323ADF81030ADF8143094
:102B60000123ADF81830ADF81C3005AA06AB04A956
:102B70005846009609F0D5FD61233846C4F8C03E9A
:102B8000594606F0D3F8204609B0BDE8F08F00BFE3
:102B9000D45D020898640208406A7047806A7047F2
:102BA00070478A880B8810B5D20A4C88C1699BB2DD
:102BB00051F8220043EA0443184410BD10B50446FE
:102BC000BAB1107B68B1537BD27A1B0203F4E06385
:102BD0001A43236A03EB82031A888A4202D193F9CB
:102BE000020010BD05D8013880B204330028F3D1AB
:102BF000F7E70020F5E710B52C21044620F08DF909
:102C0000204610BD30B58BB00446BDF86050089525
:102C1000BDF85C5007959DF8505006959DF84C50B6
:102C200005959DF8485004959DF8445003959DF8EE
:102C3000405002959DF83C500195BDF838500095E4
:102C40000EF044FC064B2360159BE361169B236248
:102C5000199B63621A9BA36220460BB030BD00BF74
:102C6000085E0208806A704730B5036885B06D461B
:102C70000181D3F88430014604462846984795E8F8
:102C800007003C3484E8070005B030BD30B5036868
:102C900085B06D464181D3F884300146044628460C
:102CA000984795E807003C3484E8070005B030BD3C
:102CB0000022028042808280C280704780F83610F5
:102CC000704770B5036804461B6B15469847236828
:102CD000294620465B6EBDE87040184700207047CB
:102CE000806C70477047704770477047A0F850106D
:102CF0007047B0F85000704701867047008E7047EB
:102D000010B56021044620F008F9204610BD10B52A
:102D10004821044620F001F9204610BD10B540F6C8
:102D20009851044620F0F9F8204610BD08B590F8F7
:102D300026300BB1FFF770FB08BD08B5FFF76CFB41
:102D400008BD0000036870B55E6B124B1B6804463B
:102D50008DB22BB9104B114A6C21114821F01AF891
:102D60001049828D0988914203D80F4B0B4A6D217F
:102D7000F3E713F812200D4B1B6853F82200036889
:102D80001B6B9847291A3346204609B2BDE87040AC
:102D9000184700BF743501200D5602084F5602082F
:102DA0008A56020878350120D15602087C35012068
:102DB00090F84C3070B50446002B4AD0B0F84E0065
:102DC000B4F85030013080B29842A4F84E0040D39D
:102DD000B4F85450B4F85620A66D521BC01A12B263
:102DE000B4F85230002180B2B04794F83620054440
:102DF000ABB22DB2AA4205D02DBB2046FFF70CFB8B
:102E000084F83650B4F85030B4F85210B4F84E206C
:102E10000B449A421DD3002384F84C30A4F852305E
:102E20000CF054FD214604300CF075FDE06D80B1CE
:102E30000368DB68984760B1E06D036821469B68D2
:102E4000BDE87040184784F836302046FFF7E4FAB2
:102E5000D8E770BD90F82C302DE9F0410446002BE6
:102E600041D0C38D028E01339BB29342C3853AD3C6
:102E70009B1A9DB2028F838EC66BD21A12B2438EFA
:102E800000212846B047E38E628F276CD21A06468F
:102E9000638E12B200212846B847E38EC218A38E73
:102EA000F11812B209B22046FFF709FA238E618E9B
:102EB000E28D0B449A4216D3002384F82C30E3852C
:102EC0000CF004FD214604300CF025FD606C50B17F
:102ED0000368DB68984730B1606C036821469B68E3
:102EE000BDE8F0411847BDE8F0810000074A0260E4
:102EF0000022C0E90122C0E90322C0E90522C0E99D
:102F000007224FF480728284704700BF486602082F
:102F100010B50446FFF7EAFF024B23600023A362CB
:102F2000204610BDA461020810B5262204460021E7
:102F300021F049F92046FFF7D9FF044B2360FF2316
:102F400084F826300023A362204610BD986402084E
:102F500000224FF0FF31C0E900218260704710B5B8
:102F60000446FFF7F5FF204610BD000010B50446EB
:102F7000FFF7DAFF064B23600023C4E90C33C4E9F2
:102F80000E33C4E9103384F82C30E385204610BD9D
:102F9000705E020838B526220446002121F013F99C
:102FA0002046FFF7A3FF0E4B23600E4BA3624FF6A4
:102FB000FF730025A3854FF47F03C4E90C532587D5
:102FC00004F13C00FFF7C4FF074BA564236084F8BD
:102FD0004C50A4F84E50A4F85050E565204638BD3A
:102FE00008640208345D0208E05E02082DE9F04F33
:102FF0000446B9B02646FFF78BFFDA4B46F82C3B68
:103000003046FFF791FF04F1580304F18405184698
:1030100004F1CC0A0693FFF77BFF2846FFF7A6FFD3
:103020005046FFF7B7FF04F5967318460793FFF76E
:103030006FFF04F5AC7318462193FFF797FF04F573
:10304000D07318460293FFF7A5FF04F500731846E6
:103050000893FFF75DFF04F50B7318462293FFF703
:1030600085FF04F51D7318460393FFF793FF04F5DE
:10307000357318460993FFF74BFF04F54073184664
:103080002393FFF773FF04F5527318460493FFF779
:1030900081FF04F56A7318460A93FFF739FF04F5B8
:1030A000757318462493FFF761FF04F21C4318461A
:1030B0000593FFF76FFF04F27C4318460B93FFF76D
:1030C00027FF04F5956318462593FFF74FFF04F596
:1030D0009E6318461693FFF75DFF04F5AA63184632
:1030E0000C93FFF715FF04F27C5318462693FFF765
:1030F0003DFF04F2C45318461793FFF74BFF04F249
:10310000246318460D93FFF703FF04F5CA631846BE
:103110002793FFF72BFF04F5D36318461893FFF7A7
:1031200039FF04F5DF6318460E93FFF7F1FE04F252
:10313000247318462893FFF719FF04F26C7318469E
:103140001993FFF727FF04F2CC7318460F93FFF78C
:10315000DFFE04F5FF6318462993FFF707FF04F528
:10316000046318461A93FFF715FF04F50A6318461F
:103170001093FFF7CDFE04F6CC0318462A93FFF711
:10318000F5FE04F6141318461B93FFF703FF04F62D
:10319000741318461193FFF7BBFE04F51A63184623
:1031A0002B93FFF7E3FE04F6E81318461C93FFF792
:1031B000F1FE04F6482318461293FFF7A9FE04F621
:1031C000742318462C93FFF7D1FE04F6BC2318464F
:1031D0001D93FFF7DFFE04F61C3318461393FFF729
:1031E00097FE04F6483318462D93FFF7BFFE04F50B
:1031F000396318461E93FFF7CDFE04F53F6318466A
:103200001493FFF785FE04F61C4318462E93FFF730
:10321000ADFE04F6644318461F93FFF7BBFE04F6A9
:10322000C44318461593FFF773FE04F54F63184621
:103230002F93FFF79BFE04F6385318462093FFF7B1
:10324000A9FE4FF0C813A3600022C82311460093C3
:103250003046FFF7BFFB444B6365314620462D26C1
:1032600005F064FD97220698009633461146FFF755
:10327000B1FB00221146009633462846FFF7AAFB11
:103280003A4B0698C4F8AC304FF00F09294605F0C8
:103290004DFD33464A465046CDF800900021FFF7D9
:1032A00099FBD4F8CC3000270DF1C0084FF07F42D5
:1032B000C4F8FC2051464046D3F88430A4F800718D
:1032C000984798E80700D4F8CC304FF0060B04F587
:1032D000847585E80700D3F8843084F805B1514639
:1032E0004046984798E8070085E8070035AD204A32
:1032F000359229465046ADF8D89009F043F9069822
:10330000514605F013FD0699204605F00FFD07987C
:103310000096334697226621FFF75CFB3A462198D8
:10332000009633463946FFF755FB104B2199079815
:10333000C4F8803105F0FAFC4A460298CDF80090B6
:1033400033463946FFF746FBD4F8A031A4F8D471D0
:103350004FF07F41C4F8D01140460299D3F8843031
:1033600008E000BF785F0208A0ADBBFFB4C1CDFF8D
:10337000345D0208984798E80700D4F8A03104F5B6
:10338000EE7A8AE80700D3F88430029984F8D9B13C
:103390004046984798E807000D238AE80700CF4A7F
:1033A000029835922946ADF8D83009F0EBF8029929
:1033B000079805F0BBFC0799204605F0B7FC089874
:1033C0000096334697223521FFF704FB3A462298B0
:1033D000009633463946FFF7FDFAC14B229908980B
:1033E000C4F8543205F0A2FC4A460398CDF8009088
:1033F00033463946FFF7EEFAD4F87432A4F8A872CF
:103400004FF07F41C4F8A41240460399D3F88430AA
:10341000984798E80700D4F8743204F52C7A8AE8C3
:103420000700D3F88430039984F8ADB2404698473A
:1034300098E807000C238AE80700A84A0398359209
:103440002946ADF8D83009F09DF80399089805F0A1
:103450006DFC0899204605F069FC099800963346F2
:1034600097220421FFF7B6FA3A462398009633468E
:103470003946FFF7AFFA9A4B23990998C4F82833D5
:1034800005F054FC4A460498CDF80090334639467E
:10349000FFF7A0FAD4F84833A4F87C734FF07F41CB
:1034A000C4F8781340460499D3F88430984798E8D4
:1034B0000700D4F8483304F5617A8AE80700D3F8A6
:1034C0008430049984F881B34046984798E807000F
:1034D0000B238AE80700814A049835922946ADF803
:1034E000D83009F04FF80499099805F01FFC0999A4
:1034F000204605F01BFC0A98009633466622972169
:10350000FFF768FA3A462498009633463946FFF7A3
:1035100061FA734B24990A98C4F8FC3305F006FC51
:103520004A460598CDF8009033463946FFF752FADF
:10353000D4F81C34A4F850744FF07F41C4F84C14F4
:1035400040460599D3F88430984798E80700D4F8A6
:103550001C3404F58B6A8AE80700D3F88430059997
:1035600084F855B44046984798E807000A238AE84B
:1035700007005A4A059835922946ADF8D83009F027
:1035800001F805990A9805F0D1FB0A99204605F043
:10359000CDFB66220B98009633461146FFF71AFAC8
:1035A0003A462598009633463946FFF713FA4C4BB6
:1035B00025990B98C4F8D03405F0B8FB33464A4639
:1035C0001698CDF800903946FFF704FA4FF07F4186
:1035D000C4F82015A4F824752846FFF7B9FC95E82F
:1035E000070004F22C5888E8070084F829B528461B
:1035F000FFF7AEFC95E80700092388E80700374A83
:10360000169835922946ADF8D83008F0BBFF1699C8
:103610000B9805F08BFB0B99204605F087FB0C9867
:103620000096334666223521FFF7D4F93A462698AC
:10363000009633463946FFF7CDF9294B26990C9869
:10364000C4F8A43505F072FB33464A461798CDF806
:1036500000903946FFF7BEF94FF07F41C4F8F415EA
:10366000A4F8F8752846FFF773FC95E8070004F501
:10367000C06888E8070084F8FDB52846FFF768FCB5
:1036800095E80700082388E80700144A1798359240
:103690002946ADF8D83008F075FF17990C9805F059
:1036A00045FB0C99204605F041FB0D9800963346EA
:1036B00066220521FFF78EF93A4627980096334691
:1036C0003946FFF787F9064B27990D98C4F87836E5
:1036D00005F02CFB33464A4604E000BF345D020887
:1036E000B4C1CDFF1898CDF800903946FFF772F9B4
:1036F0004FF07F41C4F8C816A4F8CC762846FFF7EF
:1037000027FC95E8070004F2D46888E8070084F8ED
:10371000D1B62846FFF71CFC95E80700072388E888
:103720000700D34A189835922946ADF8D83008F0EA
:1037300029FF18990D9805F0F9FA0D99204605F022
:10374000F5FA0E980096334635229721FFF742F995
:103750003A462898009633463946FFF73BF9C54B61
:1037600028990E98C4F84C3705F0E0FA33464A46DB
:103770001998CDF800903946FFF72CF94FF07F41AA
:10378000C4F89C17A4F8A0772846FFF7E1FB95E85A
:10379000070004F5F56888E8070084F8A5B728460F
:1037A000FFF7D6FB95E8070088E80700B04A1998AC
:1037B00035922946ADF8D8B008F0E4FE19990E9874
:1037C00005F0B4FA0E99204605F0B0FA0F9800966D
:1037D000334635226621FFF7FDF83A4629980096D0
:1037E00033463946FFF7F6F8A24B29990F98C4F8EB
:1037F000203805F09BFA33464A461A98CDF80090D7
:103800003946FFF7E7F84FF07F41C4F87018A4F885
:1038100074782846FFF79CFB95E8070004F67C08BF
:1038200088E8070084F879B82846FFF791FB95E807
:103830000700052388E807008D4A1A983592294623
:10384000ADF8D83008F09EFE1A990F9805F06EFA80
:103850000F99204605F06AFA3522109800963346F3
:103860001146FFF7B7F83A462A980096334639468C
:10387000FFF7B0F87F4B2A991098C4F8F43805F098
:1038800055FA33464A461B98CDF800903946FFF763
:10389000A1F84FF07F41C4F84419A4F848792846AC
:1038A000FFF756FB95E8070004F5156888E8070060
:1038B00084F84DB92846FFF74BFB95E8070088E8E8
:1038C00007004FF004086A4A1B9835922946ADF864
:1038D000D88008F057FE1B99109805F027FA109928
:1038E000204605F023FA11980096334641463522CA
:1038F000FFF770F83A462B98009633463946FFF7A3
:1039000069F85C4B2B991198C4F8C83905F00EFA88
:1039100033464A461C98CDF800903946FFF75AF8CE
:103920004FF07F41C4F8181AA4F81C7A2846FFF714
:103930000FFB95E8070004F6242A8AE8070084F8BC
:1039400021BA2846FFF704FB95E8070003238AE81D
:103950000700474A1C9835922946ADF8D83008F040
:1039600011FE1C99119805F0E1F91199204605F016
:10397000DDF912980096334642469721FFF72AF860
:103980003A462C98009633463946FFF723F8394BD0
:103990002C991298C4F89C3A05F0C8F933464A4667
:1039A0001D98CDF800903946FFF714F84FF07F418D
:1039B000C4F8EC1AA4F8F07A2846FFF7C9FA95E89B
:1039C000070004F6F82A8AE8070084F8F5BA2846C2
:1039D000FFF7BEFA95E8070002238AE80700244AA9
:1039E0001D9835922946ADF8D83008F0CBFD1D99C9
:1039F000129805F09BF91299204605F097F9139853
:103A00000096334642466621FEF7E4FF3A462D987B
:103A1000009633463946FEF7DDFF164B2D99139875
:103A2000C4F8703B05F082F933464A461E98CDF83B
:103A300000903946FEF7CEFF4FF07F41C4F8C01B1F
:103A4000A4F8C47B2846FFF783FA95E8070004F63C
:103A5000CC3A8AE8070084F8C9BB2846FFF778FA11
:103A600095E8070001238AE80700014A1E9803E051
:103A7000345D0208B4C1CDFF35922946ADF8D83087
:103A800008F080FD1E99139805F050F9139920460F
:103A900005F04CF914980096334642463521FEF75E
:103AA00099FF3A462E98009633463946FEF792FF24
:103AB000404B2E991498C4F8443C05F037F933462E
:103AC0004A461F98CDF800903946FEF783FF4FF025
:103AD0007F41C4F8941CA4F8987C2846FFF738FA74
:103AE00095E8070004F54A6A8AE8070084F89DBC57
:103AF0002846FFF72DFA95E807008AE807002E4AC6
:103B00001F9835922946ADF8D87008F03BFD1F99F3
:103B1000149805F00BF91499204605F007F915984B
:103B20000096334642464146FEF754FF3A462F98E8
:103B3000009633463946FEF74DFF1E4B2F991598D8
:103B4000C4F8183D05F0F2F84A4639462098CDF8F9
:103B500000903346FEF73EFF4FF07F43C4F8683DC8
:103B6000A4F86C7D2846FFF7F3F995E8070004F602
:103B7000745686E8070084F871BD2846FFF7E8F917
:103B800095E807000E2386E807000B4A2098359237
:103B90002946ADF8D83008F0F5FC2099159805F0C5
:103BA000C5F82046159905F0C1F8204639B0BDE8A2
:103BB000F08F00BFB4C1CDFF345D02087047000034
:103BC00030B5164D2C6814F001048FB0BFF35B8F35
:103BD00021D128461FF0A3F9E8B13F230993104BE8
:103BE0000893104B104911480A94CDE9064301226D
:103BF0000423CDE903320A2300932246CDE90B4486
:103C0000CDE901440594FEF7FDFF094820F0E0F8F6
:103C100028461FF090F905480FB030BD442600201B
:103C2000A86E0208B46E0208286F02084826002019
:103C3000BD3B00087047000030B5164D2C6814F0ED
:103C400001048FB0BFF35B8F21D128461FF067F9C5
:103C5000E8B13F230993104B0893104B10491148CA
:103C60000A94CDE9064301220423CDE90332282337
:103C700000932246CDE90B44CDE901440594FEF7BB
:103C8000C1FF094820F0A4F828461FF054F9054860
:103C90000FB030BD74260020AC6E0208B86E02086A
:103CA000386F020878260020353C00087047000075
:103CB00030B5164D2C6814F001048FB0BFF35B8F44
:103CC00021D128461FF02BF9E8B13F230993104B6F
:103CD0000893104B104911480A94CDE9064301227C
:103CE0000423CDE903320E2300932246CDE90B4491
:103CF000CDE901440594FEF785FF094820F068F8F6
:103D000028461FF018F905480FB030BDA426002042
:103D1000B06E0208BC6E0208486F0208A826002098
:103D2000AD3C000800207047002070470EB403B57A
:103D300003AB002153F8042B01930CF069FE02B091
:103D40005DF804EB03B070470CB407B504AB53F84F
:103D5000042B01930CF05CFE03B05DF804EB02B0A1
:103D60007047000010B504460EF004F8E38E04EB33
:103D700043035884636C5BB3238F2BB9174B184AEA
:103D8000C521184820F006F810B320460FF019F9A5
:103D9000238F012B03D8144B144ACB21F1E7E28E79
:103DA000531C9BB2092B194688BFA3F10A0104EBEF
:103DB000410140F63F10498C814209D10A2B04EBA6
:103DC000420228BF002304EB4303508C58845184E3
:103DD0002046BDE810400EF0F7BF00BF0F570208A5
:103DE00018570208C35702080D5802081B5802084A
:103DF00010B504460EF0AFFF2046BDE810400DF0B0
:103E0000B4BF10B586B002AC84E806001A460AAB0F
:103E100005930193099B00932146089B0BF0C0F882
:103E200006B010BD38B518BB124B13481C681349B7
:103E3000B4B1226822440260626822440A60A26827
:103E400014440F4B00221A8000F038F8054600F0A9
:103E500033F80C4B1C600C4B1D600C4B188007E0BA
:103E60000B4B03600B4B0B600B4B1C68002CE8D119
:103E700038BD00BFE0260020D8260020D426002030
:103E8000DC260020743501207C35012078350120A6
:103E9000006F0208C06E0208046F0208044B1B6822
:103EA00053F82100034B1B6803EB4000704700BF31
:103EB000D4260020D82600201020704700487047E4
:103EC000E426002010B5FFF77BFE044C2060FFF7CE
:103ED000B3FE6060FFF7ECFEA06010BDE42600209A
:103EE00010B5002404600C6014601C6010BD7047A5
:103EF00010B54FF4AE7104461FF00FF8204610BD08
:103F000010B50446D0F8580100F07BF82046BDE813
:103F100010400BF077BD000010B50446FEF7E6FC3C
:103F2000014B2360204610BD0C6002087047043826
:103F30007047704710B5102104461EF0EEFF204672
:103F400010BDA0F10400F5E700228260024A026081
:103F500018324260C160704760600208704700001C
:103F600010B5034B03600446FEF70CFD204610BD60
:103F70008860020810B50446FFF7F2FF204640F6BD
:103F8000C4611EF0CAFF204610BD000010B50446F3
:103F9000FEF734FD014B2360204610BD8860020807
:103FA0002DE9F0410E46002500F1980706EB0518B3
:103FB000002458F82430224629463846013400F0BF
:103FC00041F8042CF5D10135042DEFD1BDE8F08185
:103FD000034B0146186808B1FFF7E2BF704700BF06
:103FE000F026002010B50446FEF7C9FC024B1C6009
:103FF000BDE81040FCF75CBCF02600200022026007
:104000007047704710B5034B03600446FEF76CFE23
:10401000204610BDBC60020810B50446FFF7F2FF51
:10402000204640F698511EF078FF204610BD000053
:1040300010B50446FEF7DAFF014B2360204610BDA1
:10404000BC60020870B5044649BBCAB900F63854D2
:1040500073B1302000FB01F50C2101FB02552E4A03
:10406000154406212D4A28460FF054FDA56401236E
:1040700084F82530236820465B69BDE87040184706
:10408000012A02D100F66444E2E7022A02D100F5D7
:104090003964DDE7032A3DD100F6BC24D8E70129C5
:1040A00011D1032A36D8DFE802F00205080B04F626
:1040B000E814CDE704F61414CAE704F50464C7E76E
:1040C00004F26C74C4E7022911D1032A22D8DFE874
:1040D00002F00205080B04F5D364B9E704F2C454F6
:1040E000B6E704F59E64B3E704F21C44B0E7032985
:1040F00010D1032A0ED8DFE802F00205080B04F500
:104100005274A5E704F51D74A2E704F5D0749FE787
:10411000CC349DE770BD00BFF42600204C4E020851
:10412000FEF7E3BDF02070474FF4A07070472920E0
:10413000FCF7F8BE2820FCF7F5BE08B5FCF7C6FE74
:10414000CA20FCF7EFFEC320FCF7D0FE0820FCF7E6
:10415000CDFE5020FCF7CAFECF20FCF7E3FE002086
:10416000FCF7C4FEC120FCF7C1FE3020FCF7BEFE08
:10417000ED20FCF7D7FE6420FCF7B8FE0320FCF727
:10418000B5FE1220FCF7B2FE8120FCF7AFFEE8205E
:10419000FCF7C8FE8520FCF7A9FE0020FCF7A6FE70
:1041A0007820FCF7A3FECB20FCF7BCFE3920FCF7FF
:1041B0009DFE2C20FCF79AFE0020FCF797FE342091
:1041C000FCF794FE0220FCF791FEF720FCF7AAFE14
:1041D0002020FCF78BFEEA20FCF7A4FE0020FCF771
:1041E00085FE0020FCF782FEB120FCF79BFE00203C
:1041F000FCF77CFE1B20FCF779FEB620FCF792FE54
:104200000A20FCF773FEA220FCF770FEC020FCF72A
:1042100089FE1020FCF76AFEC120FCF783FE102007
:10422000FCF764FEC520FCF77DFE4520FCF75EFE32
:104230001520FCF75BFEC720FCF774FE9020FCF70E
:1042400055FE3620FCF76EFEC820FCF74FFEF2202C
:10425000FCF768FE0020FCF749FEB020FCF762FE88
:10426000C220FCF743FEB620FCF75CFE0A20FCF7F8
:104270003DFEA720FCF73AFE2720FCF737FE04207E
:10428000FCF734FE2A20FCF74DFE0020FCF72EFE42
:104290000020FCF72BFE0020FCF728FEEF20FCF7A7
:1042A00025FE2B20FCF73EFE0020FCF71FFE002021
:1042B000FCF71CFE0120FCF719FE3F20FCF716FE60
:1042C000F620FCF72FFE0120FCF710FE0020FCF783
:1042D0000DFE0620FCF70AFE2C20FCF723FEC8206A
:1042E000FCF76EFE2620FCF71DFE0120FCF7FEFD0C
:1042F000E020FCF717FE0F20FCF7F8FD2920FCF763
:10430000F5FD2420FCF7F2FD0C20FCF7EFFD0E205C
:10431000FCF7ECFD0920FCF7E9FD4E20FCF7E6FD7B
:104320007820FCF7E3FD3C20FCF7E0FD0920FCF7DA
:10433000DDFD1320FCF7DAFD0520FCF7D7FD172083
:10434000FCF7D4FD1120FCF7D1FD0020FCF7CEFDD9
:10435000E120FCF7E7FD0020FCF7C8FD1620FCF784
:10436000C5FD1B20FCF7C2FD0420FCF7BFFD11209A
:10437000FCF7BCFD0720FCF7B9FD3120FCF7B6FDCA
:104380003320FCF7B3FD4220FCF7B0FD0520FCF71D
:10439000ADFD0C20FCF7AAFD0A20FCF7A7FD2820A4
:1043A000FCF7A4FD2F20FCF7A1FD0F20FCF79EFDDC
:1043B0001120FCF7B7FDC820FCF702FE2920FCF70E
:1043C000B1FDBDE808402C20FCF7ACBD08B5FCF7FA
:1043D0007DFD0321D320FCF7C1FD80B208BD10B5DF
:1043E000C4B2022203212046FCF726FD0A20FCF776
:1043F0006BFD204600220321FCF71EFDBDE81040A6
:104400000220FCF761BD38B50446E4B2FCF712FDAA
:1044100000212046FCF728FD012105462046FCF737
:1044200023FD40EA052080B238BD10B5C4B240215A
:104430002046FCF719FD030607D54C212046FCF762
:1044400013FD003818BF012010BD01224B2120466A
:10445000FCF7F2FC204600224B21FCF7EDFC00208B
:10446000F2E773B50423C4B20E461546D7210DEB0F
:1044700003022046FCF712FD019B1BBA1A0DC3F381
:104480000B23328020462B8001224B21FCF7D4FCE9
:1044900000224B212046FCF7CFFC02B070BD00008B
:1044A00010B50A4A1378984204460DD051788842D4
:1044B0000AD00BB141B90123D454FCF7BBFC204610
:1044C000BDE81040FFF78BBF10BD00BFB427002030
:1044D00010B5C4B209212046FCF7C6FC40F0010229
:1044E000D2B220460921BDE81040FCF7A5BC10B5AA
:1044F000C4B209212046FCF7B7FC092100F0FE02F6
:104500002046BDE81040FCF797BC38B5C4B20D4654
:1045100020460A21FCF7A8FC40EA0502D2B2204658
:104520000A21BDE83840FCF787BC10B50446FCF70B
:1045300082FC20461F21FFF7E8FF2046BDE810401F
:10454000FFF7C6BF38B5C4B20D4620460A21FCF7B6
:104550008BFC20EA0502D2B220460A21BDE8384091
:10456000FCF76ABC10B50446FFF7C1FF20461F21C7
:10457000BDE81040FFF7E6BF10B5C0B20C460B21F6
:10458000FCF772FC204010BD1F21FFF7F5BF0A4663
:10459000C0B20B21FCF750BC1F21FFF7F8BF38B5A4
:1045A000C4B20D4620461721FCF75EFC20EA050246
:1045B000D2B220461721BDE83840FCF73DBC70B5AB
:1045C000C4B2064604212046FCF74EFC042100F04C
:1045D000FB0205462046FCF72FFC3046F021FFF792
:1045E000DEFF05F0F80220460421FCF725FC4922F5
:1045F00020212046FCF720FC0220FCF765FC204629
:1046000001222121FCF718FC20469A224121FCF7C7
:1046100013FC204601224A21FCF70EFC2046012211
:104620004B21FCF709FC204600224B21FCF704FC3F
:10463000204601225621FCF7FFFB2046012258218B
:10464000FCF7FAFB204601224021FCF7F5FB20464F
:10465000FF220B21FCF7F0FBBDE870400220FCF7C5
:1046600033BC0000054BD3F8882042F47002C3F835
:1046700088204FF000629A60704700BF00ED00E0B4
:1046800008B50B4B1A6842F400721A601A6842F4BB
:1046900080621A601A6842F480721A60032000F087
:1046A0002FF80020FCF7CEFEFCF798FC002008BD98
:1046B000003C0240034A044B11681B780B44136012
:1046C000704700BFB827002078000020014B186811
:1046D000704700BFB827002038B50446FFF7F6FF43
:1046E000631C1CBF054B1B78054618BFE418FFF779
:1046F000EDFF431BA342FAD338BD00BF7800002072
:104700000749CA6822F4E0620302120403F4E0637A
:10471000120C134343F0BF6343F40033CB60704784
:1047200000ED00E0164B30B5DC68C4F30224C4F1A0
:104730000703251D042B28BF0423062D4FF0FF354A
:104740008CBF033C002405FA03F321EA0303A540D0
:1047500022EA0502A340002843EA0203ACBF00F1AD
:104760006040084A4FEA0313B8BF00F00F00DBB205
:10477000AABF00F56140135480F8003330BD00BF7C
:1047800000ED00E014ED00E0002807DB044A4109D9
:10479000012300F01F00834042F82130704700BF22
:1047A00000E100E010B5044650B1437903F0FF0288
:1047B00013B90271FCF732FC01236371002010BDB4
:1047C0000120FCE710B5044620B390F8393003F01F
:1047D000FF021BB980F83820FCF738FC022384F86C
:1047E0003930236861681A6822F440320A431A603B
:1047F0005A6BA16822F007020A435A631A6CE168F7
:104800006FF30D020A431A6400200123E06384F869
:10481000393010BD0120FCE770477047036870B560
:104820005E681D68F207044614D5E90512D51A68BA
:1048300022F480721A60C26B42F00102C26301224C
:104840009A60042380F83930002380F838304369B7
:1048500003B19847B20616D5AB0414D523681A687D
:1048600022F400521A6020229A60E36B43F00203A4
:10487000E363042384F83930002384F83830636913
:104880000BB120469847300716D5290514D5236863
:104890001A6822F400621A6008229A60E36B43F0FF
:1048A0000403E363042384F83930002384F83830A8
:1048B00063690BB12046984772070BD56B0509D584
:1048C00023681A6822F480621A6004229A602046E3
:1048D000FFF7A2FFB00714D5A90512D523681A68FF
:1048E00022F400721A6002229A60E36BE3630123F0
:1048F00084F83930002384F8383023690BB120461E
:104900009847F20613D5EB0411D523681A6822F4F0
:1049100080521A6010229A60E36BE363012384F8EB
:104920003930002384F838302046FFF776FF70BD19
:10493000F0B590F83820012A03464FF002002BD042
:10494000012283F8382083F8390003EB0112D2E901
:104950000740556A174F44EA0040093C012C9CBFB0
:1049600005F07F4210434FEA01161A6888BF40EAFB
:10497000056091B9516A394001435162012C99692E
:10498000916103D8596A21F07F4191620122002090
:1049900083F8392083F83800F0BDD16939400143EC
:1049A000D1619919012C896911619CBF25F07F455E
:1049B0001562EBE7F0FFFC002DE9F74FDFF8BC9143
:1049C0006C4A00230D6801249C4004EA0506AC43B0
:1049D00040F0B7804D68032705F003044FEA430811
:1049E00007FA08FC671E012F6FEA0C0C34D88768A1
:1049F00007EA0C0ECF6807FA08F747EA0E07876048
:104A0000476827EA060EC5F300179F4047EA0E07DE
:104A10004760C76807EA0C0E8F6807FA08F747EA8D
:104A20000E07022CC76019D14FEAD30A00EB8A0A9D
:104A300003F0070BDAF820704FEA8B0B4FF00F0EE4
:104A40000EFA0BFE27EA0E0E0F6907FA0BF747EA7C
:104A50000E07CAF8207001E0032CDAD1076804FAC7
:104A600008F407EA0C073C4315F4403F046068D0A3
:104A700000240194D9F8444044F48044C9F84440E7
:104A8000D9F8444023F0030707F1804704F4804439
:104A900007F59C37019403F0030C019CD7F808E05C
:104AA0004FEA8C0C0F2404FA0CF42EEA040E324C5C
:104AB000A0424DD004F58064A0424BD004F5806440
:104AC000A04249D004F58064A04247D004F5806438
:104AD000A04245D004F58064A04243D004F5806430
:104AE000A04241D004F58064A0423FD004F5806428
:104AF000A0423DD004F58064A04214BF0A240924DA
:104B000004FA0CF444EA0E04BC609468F74315F40C
:104B1000801F0CBF3C4034439460D46815F4001FE0
:104B20000CBF3C403443D460546815F4003F0CBFC4
:104B30003C40344354601468ED0354BF3C4034435C
:104B400014600133102B7FF43DAF03B0BDE8F08F4C
:104B50000024D5E70124D3E70224D1E70324CFE7DB
:104B60000424CDE70524CBE70624C9E70724C7E7DB
:104B70000824C5E7003C0140000002400038024024
:104B80000369194214BF0120002070470AB18161F6
:104B900070470904FBE7436901EA030221EA0301C4
:104BA00041EA024181617047044A5169014208B5F6
:104BB00002D05061FCF7C2FC08BD00BF003C0140C0
:104BC00001684B6913F480634FF0000210D06FF45A
:104BD00080634B612023026380F83D3080F83E20E3
:104BE000036C80F83C2043F0040303640120704709
:104BF000184670472DE9F84606460F4691461D4671
:104C00004FEA114A3368BAF1010F0CBF5C699C6925
:104C100027EA0404A4B2B4FA84F46409A14501D0DB
:104C2000002025E06A1CEED0FFF750FD089BC01A5B
:104C3000A84201D8002DE5D13368BAF1010F0CBFAD
:104C40005B699B6927EA03039BB2B3FA83F35B09B1
:104C50009945D7D100232022336386F83D2086F87A
:104C60003E30326C86F83C3042F020023264012043
:104C7000BDE8F8862DE9F04104460F4616469846F1
:104C80002568686927EA000080B2C0B16B695A05DF
:104C900017D52B6843F400732B606FF480636B614E
:104CA00020220023236384F83D2084F83E30236CC7
:104CB00043F004032364002384F83C300120BDE862
:104CC000F081731CDDD0FFF701FDA0EB0800B042BE
:104CD00001D8002ED4D123685A6927EA020292B281
:104CE000002ACDD000232022236384F83D2084F8BD
:104CF0003E30236C1343DDE770B504460D4616467F
:104D000023685B691B0601D500201EE02046FFF7E3
:104D100057FFC8B96A1CF3D0FFF7D8FC801BA84224
:104D200001D8002DECD123685B6913F08003E7D133
:104D30002022236384F83D2084F83E30226C84F8DE
:104D40003C3042F020022264012070BD2DE9F04386
:104D50001546026885B0DDE90C789946136843F47E
:104D6000807313600E463B46CDF8008000224FF062
:104D700001110446FFF73EFF236838B11B68DB05CD
:104D800002D54FF400732364032620E006F0FE06EC
:104D90001E611A4943463A462046FFF76BFFA8B901
:104DA000236803905A6903929B69039342463946EC
:104DB0002046039BFFF7A0FF064660B1236C042B3F
:104DC00001BF2268136843F4007313600126304664
:104DD00005B0BDE8F083B9F1010F236802D1EDB24F
:104DE0001D61F4E72A0A1A61394642462046FFF758
:104DF00083FF0028E2D12368F1E700BF0200010031
:104E00002DE9FF479A46036815461A6842F4806206
:104E10001A601A68DDE90C7842F480721A600E4656
:104E20003B46CDF8008000224FF001110446FFF709
:104E3000E1FE236838B11B68DB0544BF4FF4007303
:104E40002364032021E05FFA86F906F0FE061E6166
:104E50002B4943463A462046FFF70CFFA0B923688A
:104E600003905A6903929B69039342463946204650
:104E7000039BFFF741FF58B1236C042B01BF22684D
:104E8000136843F400731360012004B0BDE8F08799
:104E9000BAF1010F23681AD1EDB242461D613946BD
:104EA0002046FFF729FF02460028E5D121680B685C
:104EB00043F480730B602046CDF800803B464FF0F2
:104EC0000111FFF797FE226860B11368B4E72A0A60
:104ED0001A61394642462046FFF70EFF0028CBD123
:104EE0002368D9E749F001031361054943463A466F
:104EF0002046FFF7BFFE003818BF0120C5E700BFFE
:104F00000200010070B504460D46164623685B6931
:104F10005B0701D500201EE02046FFF751FEC8B90F
:104F20006A1CF3D0FFF7D2FB801BA84201D8002DEA
:104F3000ECD123685B6913F00403E7D120222363DB
:104F400084F83D2084F83E30226C84F83C3042F0F6
:104F500020022264012070BD70B504460D4616463D
:104F600021684B6913F0400301D0002011E04A6929
:104F7000D2060FD56FF010024A612022236384F815
:104F80003D2084F83E30236C2364002384F83C30B9
:104F9000012070BDFFF79AFB801BA84201D8002DAD
:104FA000DED123685B6913F04003D9D1202223634B
:104FB00084F83D2084F83E30236C1343E4E700007E
:104FC00070B5044608B9012070BD90F83D3003F07B
:104FD000FF021BB980F83C20FCF75AF8242384F820
:104FE0003D3023681A6822F001021A601A6842F400
:104FF00000421A601A6822F400421A6000F08AFE29
:105000003F4B65689D4294BF3E4B3F4B98428CBFDF
:1050100000230123002BD6D12268394E51683B4B27
:10502000B0FBF3F321F03F011943B542516088BF53
:105030004FF49676116A88BF734321F03F0184BF15
:105040004FF47A76B3FBF6F301330B431362D16965
:10505000431E2B4821F44F41854221F0FF0132D8F5
:105060006D0040F6FC70B3FBF5F30133034242D010
:10507000C3F30B031943D161D4E90730116803432B
:1050800021F0C0010B4313609168D4E9030321F4BC
:105090000341034321F0FF010B439360D4E9053042
:1050A000D168034321F0FF010B43D360136843F041
:1050B0000103136000202023206484F83D30206326
:1050C00084F83E0080E7A06850B905EB4505B3FBC6
:1050D000F5F30133C3F30B037BB143F40043C9E79A
:1050E00019206843B3FBF0F30133C3F30B0323B17F
:1050F00043F44043BEE70423BCE70123BAE700BF03
:10510000A08601007F841E00FF083D0040420F0082
:105110002DE9F743044699460C9E0F469046FFF74B
:10512000D5FA94F83D30202B054603D0022003B079
:10513000BDE8F08300903C49192301222046FFF787
:1051400059FD0028F2D194F83C30012BEED02068B4
:10515000012384F83C300368D9075EBF036843F03D
:1051600001030360036823F400630360212384F8D0
:105170003D30402384F83E30002323640A9B636261
:10518000BDF82C306385638D2385284BE36242464E
:10519000CDE900654B4639462046FFF7D7FD00288C
:1051A0002AD00120C3E7FFF7A7FD40B1236C042BF1
:1051B00001BF2268136843F400731360F1E7636A68
:1051C00027681A4612F8011B39616262628D218DCF
:1051D000013A92B262857A69481E80B252072085F0
:1051E0000AD548B15A783A6102336362638D013B54
:1051F00002399BB221856385238D2A46314620469C
:10520000002BD0D1FFF77EFE0028CFD12268136893
:1052100043F400731360202384F83D3084F83C008D
:1052200084F83E0083E700BF020010000000FFFF8B
:105230002DE9F043044687B09946109F0D469046ED
:10524000FFF744FA94F83D30202B064604D002259F
:10525000284607B0BDE8F08300907A49192301225F
:105260002046FFF7C7FC0028F1D194F83C30012B11
:10527000EDD02068012384F83C300368DB075EBF73
:10528000036843F001030360036823F400630360D1
:10529000222384F83D30402384F83E3000232364E9
:1052A0000E9B6362BDF83C306385638D2385664B3E
:1052B000E3622946CDE900764B4642462046FFF799
:1052C0009FFD054608B10125C2E7228D2368B2B9CA
:1052D00002905A6902929A690292029A1A6842F4FA
:1052E00000721A60DFF86481238D002B2CD12022FC
:1052F00084F83D2084F83C3084F83E30A8E7012A49
:105300000AD11A6822F480621A6003905A690392E3
:105310009A690392039AE1E7022A0ED11A6822F4ED
:1053200080621A601A6842F400621A6004905A6936
:1053300004929B690493049BD4E705905A690592F3
:105340009B690593059BCDE7032B56D8012B15D1FF
:10535000324639462046FFF7FFFD0028B3D12368C7
:105360001A69636A1A70636A01336362238D013BB1
:105370002385638D013B9BB26385B5E7022B0096C5
:105380003B464FF000024146204619D1FFF732FC60
:10539000002898D123681A6842F400721A601A69CA
:1053A000636A1A70626A531C6362238D013B238512
:1053B000638D013B9BB2638523681B695370D2E701
:1053C000FFF718FC024600287FF47DAF23681968B8
:1053D00021F4806119601969636A1970636A013385
:1053E0006362238D013B2385638D013B9BB2638503
:1053F000414600963B462046C8E73246394620469D
:10540000FFF7AAFD00287FF45EAF23681A69636A7C
:105410001A70628D616A013A92B24B1C62852268F1
:105420006362238D5069013B9BB2400723857FF562
:105430005BAF032B02BF136823F48063136013690F
:105440004B7090E7020010000000FFFF0400010015
:1054500010B590F83D30202BDCB216D1242380F813
:105460003D3003681A6822F001021A605A6A22F07D
:1054700010025A625A6A114359621A6842F00102D4
:105480001A6080F83D40002010BD0220FCE730B5D6
:1054900090F83D30202BDCB216D10268242380F82E
:1054A0003D30136823F001031360556A4FF6F07323
:1054B0002B400B439BB25362136843F0010313600C
:1054C00080F83D40002030BD0220FCE70068D2019A
:1054D00084328318F0B5C7685D684C680E6805F4BF
:1054E00070455D60C56806F1010CC5F30B45C7F357
:1054F0000B472744654445EA07455D60C768CD68AA
:10550000C7F30A072F449D6805F470459D60D0F8E5
:105510000CC08D68CCF30A0C0135654445EA07459B
:105520009D601D69D1F810C08F6925F007051D61C8
:10553000C3F810C091F8305045EA076591F8317012
:1055400045EA072591F8327045EA07459D615D6996
:1055500025F0FF055D614D695D61DD6925F4E0655C
:1055600025F00705DD61D1E907573D43DD61BCF159
:10557000070F4D6A9D629CBF0D4D15F80C70DD6ADA
:1055800005F0E025DD6288BF01278D6AC96AA41B8A
:105590007C437D43033444EA0544DC621C6B6FF3B7
:1055A0000A041C631963835843F001038350F0BD60
:1055B0006061020838B5044600284ED090F8A1304A
:1055C00003F0FF021BB980F8A020FBF7BDFD02230A
:1055D00084F8A13023689A6922F070429A61D4E974
:1055E00001200243E06899690243206902430A43AB
:1055F0009A61D4E9051242EA01429A60D4E907129D
:1056000042EA0142DA60D4E9091242EA01421A612F
:10561000D4E90B1242EA01425A61DA6A94F8350081
:1056200094F8361002F07F42DA62DD6A94F8342092
:105630002A4342EA002242EA0142DA625A6B42F00D
:1056400006025A639A6942F001029A61002001231E
:10565000C4F8A40084F8A13038BD0120FCE77047ED
:105660007047036870B59E6B5D6B7207044614D576
:10567000690712D55A6B22F004025A630422DA63D6
:10568000D0F8A43043F00103C0F8A430002380F820
:10569000A12080F8A030FFF7E2FFB20716D5AB07D4
:1056A00014D523685A6B22F002025A630222DA638D
:1056B000D4F8A4301343C4F8A430042384F8A130F0
:1056C000002384F8A0302046FFF7C9FFF00710D56B
:1056D000E9070ED523685A6B22F001025A630122B2
:1056E000DA63002384F8A12084F8A0302046FCF778
:1056F0004FFF320711D52B070FD523685A6B22F0C5
:1057000008025A630822DA63012384F8A1300023D7
:1057100084F8A0302046FFF7A3FF70BD2DE9F041CB
:1057200090F8A030012B06460F4694464FF0020039
:105730001FD04FF0010886F8A08086F8A10034241D
:105740000D4604FB02640FCD38340FC40FCD0FC4D7
:105750000FCD0FC42B682360304662463946FFF7F1
:10576000B5FE33680020C3F8248086F8A18086F84F
:10577000A000BDE8F081000090F8A020012A0346B7
:105780004FF0020012D01A6883F8A100506B20F08D
:105790000100506306480164516B41F001015163FF
:1057A0000020012283F8A12083F8A000704700BFE9
:1057B0000068014037B500230193184B184D1A6C4F
:1057C00042F080521A641B6C03F080530193019BDA
:1057D000144B01221A64FEF779FF04466B68DA0362
:1057E0000BD5104B0E4D01225A64FEF76FFF044695
:1057F0006B689B030AD5002006E0FEF767FF001BDD
:10580000B0F57A7FEAD9032003B030BDFEF75EFF22
:10581000001BB0F57A7FEBD9F5E700BF00380240F6
:105820000070004000000E422DE9F341044640B3F1
:105830000368DE0710D423689D075BD4236819072B
:1058400000F19D8023685A0700F1BD80A369002BF9
:1058500040F0248100202CE08D4B9A6802F00C026D
:10586000042A07D09A6802F00C02082A0BD15B6860
:10587000590208D5864B1B689A03DCD56368002B58
:10588000D9D1012015E06368814DB3F5803F13D174
:105890002B6843F480332B60FEF718FF7C4E0546DF
:1058A00033689B03C7D4FEF711FF401B6428F7D968
:1058B000032002B0BDE8F081B3F5A02F04D12B681E
:1058C00043F480232B60E3E72A6822F480322A60C5
:1058D0002A6822F480222A60002BDDD1FEF7F6FE32
:1058E00006462B689F03A6D5FEF7F0FE801B6428B2
:1058F000F7D9DDE7664B9A6812F00C0F07D09A686B
:1059000002F00C02082A11D15B685D020ED4604AD5
:105910001368990702D5E368012BB2D11368216996
:1059200023F0F80343EAC103136087E7E268594BA9
:10593000B2B101221A60FEF7C9FE554D06462B682A
:105940009B0707D52B68226923F0F80343EAC203BB
:105950002B6073E7FEF7BAFE801B0228EFD9A7E79A
:105960001A60FEF7B3FE4A4E054633689F077FF57F
:1059700065AFFEF7ABFE401B0228F6D998E76269D7
:10598000444B82B10122C3F8802EFEF79FFE404EA9
:105990000546736F9B073FF555AFFEF797FE401B1B
:1059A0000228F6D984E7C3F8802EFEF78FFE384E22
:1059B0000546736F9F077FF545AFFEF787FE401BD7
:1059C0000228F6D974E7324B1A6C12F0805228D1B3
:1059D00001921A6C42F080521A641B6C03F08053DF
:1059E0000193019B01272C4D2B68D8051BD5A3687B
:1059F000274D012B27D12B6F43F001032B67FEF7B7
:105A000065FE234E054641F28838336F9A0739D533
:105A1000002F3FF41BAF1E4A136C23F08053136416
:105A200014E70027DFE72B6843F480732B60FEF751
:105A30004DFE06462B68D905D9D4FEF747FE801BDC
:105A40000228F7D934E7052B04D12B6F43F0040368
:105A50002B67D0E72A6F22F001022A672A6F22F013
:105A600004022A67002BCAD1FEF730FE41F28838C3
:105A700006462B6F9B07CBD5FEF728FE801B4045C3
:105A8000F7D915E7FEF722FE401B4045BDD90FE7C9
:105A9000003802400000474200700040374DAA68BD
:105AA00002F00C02082A3ED0022B354B4FF00002C8
:105AB0001A662BD1FEF70AFE06462B6899011FD401
:105AC000D4E907321343626A43EA8213E26A43EA83
:105AD0000263A26A5208013A43EA02436B60284B10
