:020000040800F2
:10000000000003206D060008011A0008031A00080A
:10001000051A0008071A0008091A00080000000065
:10002000000000000000000000000000B186000891
:100030000B1A00080000000041870008CB7F000871
:10004000BD060008BD060008BD060008BD06000884
:10005000BD060008BD060008BD0600080D1A000810
:10006000131A0008BD060008BD060008BD060008FA
:10007000BD060008BD060008BD060008BD06000854
:10008000BD060008BD060008BD060008BD06000844
:10009000BD060008BD060008BD060008BD06000834
:1000A000BD060008BD060008BD060008BD06000824
:1000B000BD060008BD060008BD060008BD06000814
:1000C000BD060008BD060008BD060008BD06000804
:1000D000BD060008BD060008BD060008BD060008F4
:1000E000191A0008BD060008BD060008BD06000874
:1000F000BD060008BD060008BD060008BD060008D4
:10010000BD060008BD060008BD060008BD060008C3
:10011000BD060008BD060008311A0008BD0600082B
:10012000BD060008BD060008BD060008BD060008A3
:10013000BD060008BD060008BD060008BD06000893
:10014000BD060008BD060008BD060008BD06000883
:10015000BD060008BD060008BD060008BD06000873
:10016000BD060008BD060008BD060008BD06000863
:10017000BD060008BD060008BD060008000000001E
:10018000BD060008BD060008BD060008BD06000843
:10019000BD060008BD060008BD060008BD06000833
:0C01A0003D1A0008BD060008491A0008BE
:1001B00010B5054C237833B9044B13B10448AFF3A1
:1001C00000800123237010BD800300200000000088
:1001D000EC67020808B5034B1BB103490348AFF3B2
:1001E000008008BD0000000084030020EC670208C6
:1001F000034613F8012B002AFBD1181A0138704767
:1002000001F0FF01102A2BDB10F0070F08D010F8C7
:10021000013B013A8B422DD010F0070F42B3F6D1CB
:10022000F0B441EA012141EA014122F007047FF0E4
:1002300000070023F0E80256083C85EA010586EA3B
:10024000010685FA47F5A3FA87F586FA47F6A5FA77
:1002500087F68EB9EED1F0BC01F0FF0102F0070283
:1002600032B110F8013B013A83EA010313B1F8D12E
:100270000020704701387047002D06BF354603380F
:10028000073815F0010F07D1013015F4807F02BF48
:10029000013015F4C03F0130F0BC0138704700BF99
:1002A0007BB972B90029BEBF00204FF0004106E0C3
:1002B00008BF00281CBF6FF000414FF0FF3000F076
:1002C000D3B9ADF1080C6DE904CE002909DB002B90
:1002D0001ADB00F04DF8DDF804E0DDE9022304B09C
:1002E0007047404261EB4101002B1BDB00F040F8FE
:1002F000DDF804E0DDE9022304B0404261EB410196
:10030000524263EB43037047524263EB430300F0F6
:100310002FF8DDF804E0DDE9022304B0404261EB90
:1003200041017047524263EB430300F021F8DDF8CE
:1003300004E0DDE9022304B0524263EB430370475B
:1003400053B94AB9002908BF00281CBF4FF0FF313C
:100350004FF0FF3000F088B9ADF1080C6DE904CE24
:1003600000F006F8DDF804E0DDE9022304B0704790
:100370002DE9F047089D8E4604468846002B4AD159
:100380008A42174662D9B2FA82F64EB1C6F120030C
:1003900001FA06F820FA03F3B74043EA0808B4402C
:1003A0004FEA174E1FFA87FCB8FBFEF1230C0EFB39
:1003B000118843EA084301FB0CF29A4209D9FB1861
:1003C00001F1FF3080F0EA809A4240F2E780023982
:1003D0003B449A1AA3B2B2FBFEF00EFB102243EA92
:1003E000024300FB0CFC9C4509D9FB1800F1FF32CD
:1003F00080F0D6809C4540F2D3803B44023840EAEE
:100400000140A3EB0C0300211DB1F3400022C5E91C
:100410000032BDE8F0878B4205D90DB1C5E9000176
:1004200000210846F5E7B3FA83F1002946D1734568
:1004300002D3824200F20581841A6EEB030201208E
:100440009046002DE5D0C5E90048E2E7002A00F01B
:100450009080B2FA82F6002E40F0A4808A1A030C33
:100460004FEA174E80B2BCB20121B2FBFEFC0EFB7C
:100470001C2243EA024304FB0CF29A4207D9FB1800
:100480000CF1FF3802D29A4200F2E080C4469B1A77
:10049000B3FBFEF20EFB123340EA034302FB04F40B
:1004A0009C4207D9FB1802F1FF3002D29C4200F2B5
:1004B000CA8002461B1B42EA0C40A5E7C1F1200698
:1004C0008B4022FA06F71F430EFA01F420FA06F3D6
:1004D0002EFA06FE4FEA1749234300FA01F81FFAE5
:1004E00087FCBEFBF9F01C0C09FB10EE44EA0E443D
:1004F00000FB0CFEA64502FA01F209D93C1900F1F5
:10050000FF3A80F09C80A64540F2998002383C4436
:10051000A4EB0E041FFA83FEB4FBF9F309FB1344AA
:100520004EEA044403FB0CFCA44508D93C1903F132
:10053000FF3E80F08280A4457FD9023B3C4443EAE1
:100540000040A4EB0C04A0FB02EC64457346E146BA
:1005500062D35FD05DB1B8EB030264EB090404FA27
:1005600006F622FA01F31E43CC40C5E900640021DF
:100570004FE7B1FBF2FC010C41EA0E4180B240EAC8
:1005800001423B4638463C46B846BE462026B1FBB3
:10059000F7F1A2EB080241EA0C4166E7014618E7D1
:1005A00010462CE7C6F120022EFA02F3B740B14004
:1005B00020FA02F24FEA174E0A43B3FBFEF8BCB230
:1005C0000EFB1833110C41EA034108FB04F9B0405B
:1005D00089454FEA104380B23ED9791808F1FF3CB3
:1005E00001D289451FD8A1EB0901B1FBFEF909FB36
:1005F00004F80EFB191192B242EA0142424529D297
:10060000BA1809F1FF31C4D24245C2D2A9F10201A0
:100610003A44BEE7F0459DD2BEEB02036CEB070CFB
:100620000138E14696E7A7EB09094944A8F1020C15
:10063000B1FBFEF909FB04F8DBE773467FE75046A0
:1006400066E70846FDE63B44023A33E7ACF1020CAC
:100650003B441CE749469CE7A1EB0901C446B1FBBA
:10066000FEF909FB04F8C4E7704700BFDFF834D097
:10067000002103E00C4B5B58435004310B480C4BFA
:1006800042189A42F6D30B4A02E0002342F8043B98
:10069000094B9A42F9D305F039F825F091F900F0A9
:1006A000A9FB704700000320E4910408000000202B
:1006B0006801002080030020B0460120FEE7000012
:1006C0002DE9F041054688B010222F1F0021684611
:1006D00025F0CDF80C353B46002253F8041F29B114
:1006E00008A800EB8200013240F8201CAB42F4D194
:1006F0006E46324603244FF0000852F8043B6BB1BB
:1007000011688B420AD1184801685B00194442F80D
:10071000043C0023016013604FF00108013CECD160
:10072000102221460DEB020025F0A1F8234656F8D1
:10073000042B2AB108A901EB8301013341F8102CE5
:100740000134042CF3D104AB57F8041F53F8042BE5
:1007500091421CBF3A604FF00108AF42F4D14046CD
:1007600008B0BDE8F08100BF9C030020034B0449A2
:100770001A68044801FB020018607047040000205A
:100780000D6619005FF36E3C10B50446FFF730FDAF
:10079000214682B2BDE8104002484FF0FF3307F017
:1007A0002EBB00BF280400201FB50246044968463E
:1007B00024F0F8FF6846FFF7E7FF05B05DF804FB9B
:1007C0004468020810B504F0D5FF084CA04214BFDD
:1007D0006040012020600648FFF7D6FF2068FFF741
:1007E000E3FFBDE810400348FFF7CEBF0400002040
:1007F000476802082A690208012805D0022805D0A6
:1008000030B90448FFF7C0BF0348FBE70348F9E7E6
:100810000348F7E761680208726802087F68020807
:10082000926802082DE9F34704461848DFF86C90F7
:10083000174FDFF86C80FFF7A7FF04F10C054C346D
:100840004846FFF7A1FFDFF85CA0A5F1100656F8B7
:10085000042FA2B94046FFF797FF5046FFF794FFD9
:10086000AE42F4D10B4806F11005FFF78DFFA5420B
:10087000E6D1094802B0BDE8F047FFF785BF394629
:10088000684624F08FFF6846E5E700BFA3680208CA
:10089000BF6802082A690208C7680208C46802081B
:1008A000BA680208C368020870B5044600F1400641
:1008B00000252046FFF704FF1034002818BF054626
:1008C000B442F6D1284670BD7FB5044600F140061B
:1008D0000025E3680093A368019363680293684668
:1008E00023680393FFF7ECFE009BE360019BA3608A
:1008F000029B6360039B44F8103B002818BF054629
:10090000B442E6D1284604B070BD7FB5041F00F1A3
:100910000C06002554F8043F009323690193236AD1
:1009200002936846236B0393FFF7CAFE009B236084
:10093000019B2361029B2362002818BF0546039B8D
:100940002363B442E6D1284604B070BD7FB5041FCE
:1009500000F10C060025636B0093636A01936369E1
:100960000293684654F8043F0393FFF7A9FE009BE7
:100970002363019B2362029B2361002818BF054665
:10098000039B2360A642E6D1284604B070BD000058
:10099000F0B50024A1B00546264605EB041100235E
:1009A00051F823202AB920AA02EBC60242E92043CB
:1009B00001360133042BF3D10134042CEDD1002E88
:1009C00034DDFFF7D3FEB0FBF6F303FB160020ABDC
:1009D00003EBC00050E92076FFF7C8FE6423B0FBAC
:1009E000F3F202FB1300592805EB0715104B1148D1
:1009F00098BF0224012245F826401A70FFF7C4FE72
:100A000055F82600FFF7D0FE0B48FFF7BDFE38462D
:100A1000FFF7CAFE0948FFF7B7FE3046FFF7C4FEEE
:100A2000074821B0BDE8F040FFF7AEBE0548F8E743
:100A30007C060020DC680208EF680208FE680208F5
:100A4000006902080469020810B51548FFF79CFE0A
:100A5000144B00241C60FFF7B5FE134A23462146C1
:100A60000133042BC2E90011C2E9021102F11002A4
:100A7000F6D10E4B0E481960FFF786FE0D48FFF7C2
:100A800083FE0948FFF784FF0748FFF781FF064808
:100A9000FFF7C8FEBDE810400748FFF775BE00BF6E
:100AA0002D6902089C030020A4030020A00300205D
:100AB00061680208486902086469020870B5002587
:100AC00000EB0516002456F82430B3F5006F17DB51
:100AD0000F48FFF759FE56F82400FFF765FE0D4852
:100AE000FFF752FE2846FFF75FFE0B48FFF74CFE6C
:100AF0002046FFF759FE0948FFF746FE012070BD6A
:100B00000134042CDFD10135042DD9D10020F6E7C2
:100B100085690208A0690208FE68020800690208E7
:100B200010B500F10C0200244C30A2F1100353F870
:100B3000041F01B901349342F9D103F1100282423A
:100B4000F3D10748FFF720FE2046FFF72DFE0548AA
:100B5000FFF71AFE002CD4BF0020012010BD00BFFB
:100B6000A66902082A69020870B500F10C0200F1BA
:100B70004C050024A2F10C03196853F8046FB1422C
:100B800001D101B101349342F6D103F11002AA421E
:100B9000F0D100F1300501460023103051F8232038
:100BA00050F82360B24201D102B101340133042B69
:100BB000F4D1A842EFD10748FFF7E6FD2046FFF742
:100BC000F3FD0548FFF7E0FD002CD4BF0020012015
:100BD00070BD00BFB46902082A69020810B5044656
:100BE000FFF79EFF20B10848FFF7CEFD002010BDA3
:100BF0002046FFF7B9FF08B10448F5E70448FFF7BE
:100C0000C3FD0120F3E700BFC6690208EE690208D0
:100C10000F6A020838B504462D48FFF7B5FD2D4888
:100C2000FFF7B2FD032C12D8DFE804F0020B0D0F22
:100C300029482A4DFFF7A8FD2B68022B0CD1284824
:100C400006E02848F5E72848F3E72848F1E7284870
:100C5000BDE83840FFF798BD012B02D12548FFF7CA
:100C600093FD022C24482BD0032C2CD0012C24D013
:100C7000FFF71AFE50B32148FFF786FD1E48FFF725
:100C800087FE2B6843B91C48FFF718FF20B10123EA
:100C90001B482B60FFF778FD1748FFF79FFF20B137
:100CA000022318482B60FFF76FFD2868FFF7A4FDAB
:100CB000BDE838401048FFF7B5BDFFF705FED9E79E
:100CC000FFF723FED6E7FFF741FED3E70E48BFE765
:100CD000426A02085B6A0208676A0208A0030020F1
:100CE0008C6A02086E6A0208766A02087B6A020849
:100CF000826A0208B86A0208A4030020DD6A0208BA
:100D0000056B0208326B02085E6B02080246002186
:100D1000014806F060BA00BFC80400200148002165
:100D200006F05EBAC804002000487047A403002003
:100D300007B5064BADF806001B68054801220DF10A
:100D4000060106F0CBFB03B05DF804FB08000020B1
:100D50007004002008B5642007F0B4F9FBE7000038
:100D600030B5002495B02146142203A8CDE90A44E9
:100D70000C9424F07CFD1D4B01941A6C42F08052BF
:100D80001A641B6C03F080530193019B184B02946F
:100D90001A6842F440421A601B6803F4404302930D
:100DA000029B09224FF48033CDE908230225012359
:100DB000B4224FF48001CDE90D3508A80423CDE914
:100DC0000F13CDE91125139305F090FD05F054FDA7
:100DD0000F23CDE9033505214FF4A05303A8CDE936
:100DE0000633059405F05EFF15B030BD00380240B3
:100DF0000070004080B59CB00024C64DDFF85493CD
:100E000004F092FCFFF7ACFF01942B6C43F080538D
:100E10002B642B6C03F080530193019B05F01EFDA6
:100E2000214614220FA824F022FD02942B6BBA480D
:100E300043F010032B632B6B03F010030293029B10
:100E400003942B6B43F004032B632B6B03F004031D
:100E50000393039B04942B6B43F020032B632B6BB6
:100E600003F020030493049B05942B6B43F0800351
:100E70002B632B6B03F080030593059B06942B6B70
:100E800043F001032B632B6B03F001030693069BD6
:100E900007942B6B43F002032B632B6B03F00203CD
:100EA0000793079B08942B6B43F040032B632B6B3A
:100EB00003F040030893089B09942B6B43F008034D
:100EC0002B632B6B03F00803224609933C21099BFB
:100ED00004F0B0FE91480122022104F0ABFE22464C
:100EE0008E48042104F0A6FE22468D484FF440515E
:100EF00004F0A0FE01263C23CDE90F36864811946C
:100F000003230FA90227129304F0AAFD83480FA917
:100F1000CDE90F76CDE9114404F0A2FD04237F480A
:100F20000FA9CDE90F36CDE911474FF4881804F029
:100F300097FD06237B4811970FA9CDE90F384FF491
:100F4000405504F08DFD784811970FA9CDE90F5851
:100F500004F086FD7248DFF800820FA9CDE90F5634
:100F6000CDE9114704F07CFD22460521072004F05D
:100F70002DFC072004F05CFC22460521082004F02B
:100F800025FC082004F054FC22460521282004F00A
:100F90001DFC282004F04CFC6448654B654D036043
:100FA00004F054FC644B2C62C5E9008328464FF4DE
:100FB0008043C5E90434C5E90244C5E9064405F0A7
:100FC00053F81021284605F097FA214628465B4D34
:100FD00005F0B1FA4FF48273C5E900934FF4007A3B
:100FE0001823C5E906A328460A23C5E90244C5E932
:100FF0000444C5E90844AC62EB6206F013FA8F239F
:101000002246394645488DF82C308DF83C4004F096
:1010100011FE32464FF47A730BA9284606F05EFAA9
:101020004FF47A7332460FA9284606F003FC324685
:1010300039463A48424D04F0FDFD9DF83C30D32B33
:1010400004BF404B1E70404B0126C5E900361022FC
:1010500040230024C5E904234FF4C073C5E90634D6
:101060004FF40063C5E908344FF4005302274FF0F2
:101070000409AB624FF0030A07230FA92846CDE904
:101080000F73CDE911934FF00808C5E90249CDE986
:1010900013A7159706F0A9F84FF6FF720BA928467B
:1010A000CDE90C860A940B960E9406F0BEF83046F5
:1010B00004F066FB4FF6FF720BA92846CDE90B78CA
:1010C000CDE90D6406F0B1F84FF6FF720BA9284682
:1010D000CDE90BA8CDE90D9406F0A7F84FF40C73F9
:1010E0000A930A9B0E934FF6FF720BA92846CDE98F
:1010F0000B980D9606F099F840F26A51284606F0D2
:10110000B2F8342221460FA824F0B1FB0F4D104B4A
:101110002C6123E000380240001002400008024029
:10112000000C02400000024000040240240600209F
:101130000030024090050020A086010070040020CD
:10114000F4030020E8030020400100A0E804002090
:101150000068014000500140005C0040C5E90034D7
:101160000923C5E905361D23C5E9073A40F20D11EB
:1011700040F24313C5E9091340F2171040F2471338
:10118000C5E90B032846C5E90244AC8685F836401C
:1011900005F064FA4FF4806CF0220521CDE916C108
:1011A0004FF4A0730FA9CDE91024CDE918424FF0F8
:1011B000FF0822462846CDE912372B4D1A93CDE978
:1011C00014840F94ADF86C408DF86E4005F0FAFA77
:1011D000264B2B601B6898472B68254DDB6898478A
:1011E000244B2846C5E90034C5E90274C5E90A471D
:1011F000C5E90C4404F03AFB3146284604F0ECFB08
:10120000DFF898E01C484FF4E133C0E900E30C2319
:10121000C0E90534C0E902440461C46106F0C0FDC0
:101220001648174B8461C0E900347F23C0E90238B7
:10123000C0E9044405F087FF00F085FC00F082FC63
:1012400006F0D0FE0F4A1048214606F0F7FE0F4B7D
:101250000F4A186021460F4806F0F0FE0E4B18604A
:1012600006F0D2FEFEE700BFE403002018000020D5
:10127000E405002000B0024028040020C80400203B
:101280000028004010770208550D0008F0030020E8
:10129000EC760208551B0008EC030020001001400A
:1012A000704770477FB5094B8DF817201B68029374
:1012B0000DF117020123009201930A4601460448EA
:1012C00004F07AFF07B05DF804FB00BF0C000020BB
:1012D000900500207FB500238DF81730084B1B6860
:1012E00002930A4601230DF1170100910193014673
:1012F000044804F0F1FF9DF8170007B05DF804FB07
:101300000C000020900500201FB5084C24680092B6
:10131000CDE901340A4601230146054804F0DCFF0B
:10132000003818BF012004B010BD00BF0C00002021
:101330009005002004F024BA10B5064C0022204687
:10134000042104F077FC20460122BDE8104004216E
:1013500004F070BC0008024038B50B4D0446012271
:101360000A484FF4005104F065FC0022042128468D
:1013700004F060FC2046FFF7DBFC28460122BDE8B4
:101380003840042104F056BC00080240000C024022
:1013900038B50B4D044600220A484FF4005104F0C2
:1013A00049FC00220421284604F044FC2046FFF7B3
:1013B000BFFC28460122BDE83840042104F03ABCB5
:1013C00000080240000C0240F7B5144E144F0546C9
:1013D0000C4630460022042104F02CFC00224FF47D
:1013E0000051384604F026FC2846FFF7A1FC0D4BBF
:1013F0000D481B68224601A906F01CFA3846012256
:101400004FF40051019C04F015FC304601220421E8
:1014100004F010FC204603B0F0BD00BF00080240FD
:10142000000C0240080000207004002004F0A8B95D
:101430000268034B9A4201D104F090B9704700BF93
:10144000001000407047000082B00E4B0022009256
:10145000596C41F480415964596C01F48041009108
:1014600000990192196C41F0805119641B6C03F0D2
:1014700080530193019B0F216FF0010002B004F033
:10148000A5B900BF003802400268094B9A4282B0F9
:101490000BD100230193074B1A6B42F480521A635D
:1014A0001B6B03F480530193019B02B0704700BF94
:1014B000003002400038024007B50F4B02689A42E4
:1014C00016D10022A3F5F0430192196B41F40001FB
:1014D00019631B6B03F40003019305215A20019B40
:1014E00004F074F95A2003B05DF804EB04F0A0B9DD
:1014F00003B05DF804FB00BF00B002402DE9F043EB
:10150000044689B01422002103A824F0B0F922680F
:10151000244B9A4243D1244C244800250095236B48
:1015200043F004032363236B03F004030093009B45
:101530000195236B43F001032363236B03F0010345
:101540000193019B4FF012094FF400734FF0010813
:101550000327042603A9CDE90339CDE905870796BA
:1015600004F07EFA4FF480731148079603A9CDE981
:101570000339CDE9058704F073FA0295236C43F42F
:1015800000032364236C03F400030293029B236A89
:1015900043F400032362236A23F40003236209B0A7
:1015A000BDE8F083005C00400038024000080240C3
:1015B00000000240F0B599B004461422002107A8AB
:1015C00024F055F930220DEB0200002124F04FF9F0
:1015D00022685E4B9A4240F0B78008230C93C023E8
:1015E0001093042312930CA84FF40033159305F0C5
:1015F00031FC08B1FFF726FF554B564800240094F4
:101600005A6C42F080625A645A6C02F08062009216
:10161000009A01941A6B42F020021A631A6B02F0CE
:1016200020020192019A02941A6B42F001021A639D
:101630001A6B02F001020292029A03941A6B42F0B2
:1016400002021A631A6B02F002020392039A0494D4
:101650001A6B42F040021A631A6B02F040020492C5
:10166000049A05941A6B42F004021A631A6B02F092
:1016700004020592059A06941A6B42F008021A6356
:101680001B6B03F00803069302250E26069B0B96A0
:101690004FF4806307A9CDE90735CDE9094504F08A
:1016A000DFF941F658032C480B9607A9CDE9073519
:1016B0000927CDE9094504F0D3F9032327480B97FF
:1016C00007A9CDE90735CDE9094504F0C9F94FF47B
:1016D000706322480B9607A9CDE90735CDE9094586
:1016E00004F0BEF94FF40C631D480B9607A9CDE931
:1016F0000735CDE9094504F0B3F9C02319480B9625
:1017000007A9CDE90735CDE9094504F0A9F9082372
:1017100015480B9607A9CDE90735CDE9094504F031
:101720009FF94FF4A0530E480B9707A9CDE9073551
:10173000CDE9094504F094F958202246052104F02A
:1017400045F8582004F074F819B0F0BD0068014065
:101750000038024000140240000002400004024031
:101760000018024000080240000C024010B5044678
:101770008CB030220021684624F079F822680A4BA8
:101780009A420ED12023009368464FF400730A93C7
:1017900005F060FB08B1FFF755FE044B0122C3F8CA
:1017A0003C2E0CB010BD00BF002800400000474296
:1017B00010B5044688B01422002103A824F057F87D
:1017C0002268144B9A4223D103F56843002101910A
:1017D0005A6C114842F480125A645A6C02F4801216
:1017E0000192019A02911A6B42F020021A631B6B5C
:1017F00003F020030293029B4FF460720223032143
:10180000CDE903230523CDE9061303A904F028F944
:1018100008B010BD005001400014024010B504464D
:1018200088B01422002103A824F021F82268144B68
:101830009A4223D103F59433002101915A6C114847
:1018400042F010025A645A6C02F010020192019A9E
:1018500002911A6B42F001021A631B6B03F0010341
:101860000293029B4FF4C06202230321CDE90323BC
:101870000723CDE9061303A904F0F2F808B010BD60
:1018800000100140000002402DE9F04186B0002325
:1018900003932B4B1C68002C4FD14FF00108C3F869
:1018A0000080284B00949A6B274842EA08029A630A
:1018B0009B6B03EA08030093022703260C25009B79
:1018C00001A94FF63F03CDE90137CDE9046504F0E6
:1018D000C7F81E48059501A9CDE90187CDE9034662
:1018E00004F0BEF848F233131948059501A9CDE973
:1018F0000137CDE9034604F0B3F84FF6837315487A
:10190000059501A9CDE90137CDE9034604F0A8F812
:101910004CF203731048059501A9CDE90137CDE9D3
:10192000034604F09DF860230C48059501A9CDE914
:101930000137CDE9034604F093F806B0BDE8F08125
:101940002C0600200038024000140240000802402B
:101950000018024000100240000C02400004024047
:1019600070B588B000230293204B1A6C42F010022D
:101970001A641B6C03F010030293054601A903A827
:10198000029B05F049FA069B4BBB05F025FA184E61
:10199000184B336040F2E733F360174BB0FBF3F3BF
:1019A000013B7360304600233361B360B36106F0DE
:1019B0000BF9044680B9304605F0E0FF044658B9FB
:1019C000362003F035FF0F2D0DD82246294636204C
:1019D00003F0FCFE094B1D60204608B070BD05F009
:1019E000FBF94000D3E70124F6E700BF00380240CE
:1019F000300600200010004040420F008000002010
:101A00007047FEE7FEE7FEE7FEE77047022004F0BE
:101A10001FB9042004F01CB908B54FF4805004F03D
:101A200017F9BDE808404FF4005004F011B9000068
:101A3000014805F0E1BF00BF30060020014804F076
:101A400064BE00BFE8040020014803F03BBF00BFB4
:101A5000E405002070B5104E044603F08BFE336899
:101A6000C31AC82B054609D9B4F5805F07D10020F9
:101A7000FFF7D0F8094B01221A70356070BDB4F53C
:101A8000005F01D10120F3E7022C01D12046EFE7EE
:101A9000042CF2D10320EBE7780600207C0600201E
:101AA0000120704708B523F085FF162303604FF02F
:101AB000FF3008BD08B523F07DFF16230360FEE765
:101AC00070B50D4614460E46731B9C4201DC204641
:101AD00070BDAFF3008006F8010BF5E770B50D4659
:101AE00014460E46731B9C4201DC204670BD16F85E
:101AF000010BAFF30080F5E74FF0FF3070474FF474
:101B000000534B6000207047012070470020704751
:101B10000A4A116808B5034609B9094911601068F5
:101B2000694603448B4206D923F044FF0C2303602B
:101B30004FF0FF3008BD1360FCE700BF80060020B7
:101B4000B0460120704708B500F0BCFDBDE8084074
:101B500000F03EBD00F0B8BD704710B5042104464A
:101B600022F020FD204610BD38B50C4B0C4C1880DF
:101B70000C4B822019806368984740F61103984205
:101B80000AD1094D23682C60822098472B68822057
:101B9000DB689847002038BD0120FCE78E06002056
:101BA000500000208C060020900600204FF4A07109
:101BB000F020FFF7D9BF0000F7B5394D2B68044678
:101BC0001B6982209847208000284ED02B680DF199
:101BD00006025B6901A982209847324B1B78002BD3
:101BE0004BD0BDF8062040F674639A423FD9ADF859
:101BF0000630BDF806209B1A9BB20A2B42D90B2255
:101C0000B3FBF2F3284A1288934201D9013A93B206
:101C1000BDF80420254840F6B8318A4234D8C2F5D0
:101C200071620E32016892B20F25B2FBF5F2204DBF
:101C30002D88AA4284BF05F1FF35AAB28A42154613
:101C40008EB22AD9921B91B21A4E3768BB42BAB2F1
:101C50008CBF9A1AD21A92B211440529C4BF0560EA
:101C60003360036863803368A38003B0F0BDB32A98
:101C70009CBFB422ADF80620BBE7BDF80630A3F543
:101C8000B473B9E70023C3E7C2F56D62083292B2BC
:101C90000E2A0168C8D800252A46891A89B2D3E7D6
:101CA00090060020E80300208C0600208806002013
:101CB0008E0600208406002037B568460D4614467F
:101CC000FFF77AFFBDF8000030B1BDF802302B609D
:101CD000BDF804302360012003B030BD032821D8B3
:101CE000DFE800F0020B12190F4B1A68B2FA82F209
:101CF000520904210D4803F09DBF0B4B5A68B2FAFC
:101D000082F252090821F5E7074B9A68B2FA82F28B
:101D100052091021EEE7044BDA68B2FA82F2520956
:101D20002021E7E7704700BF940600200010024022
:101D3000032821D8DFE800F0020B12190F4B1A68B4
:101D4000003A18BF012204210D4803F073BF0B4B6A
:101D50005A68003A18BF01220821F5E7074B9A6834
:101D6000003A18BF01221021EEE7044BDA68003A6E
:101D700018BF01222021E7E7704700BF940600202A
:101D80000010024003280DD8DFE800F00206080A20
:101D90000421054803F053BF0821FAE71021F8E7B2
:101DA0002021F6E7704700BF0010024008B5032865
:101DB00011D8DFE800F0020A0C0E0421074803F0F6
:101DC00033FF431E5842584108BD0821F6E7102151
:101DD000F4E72021F2E70020F3E700BF0010024003
:101DE00070B5084D00240126E0B2FFF7DFFF18B1FF
:101DF0002B68012B18BF2E600134052C05F104055A
:101E0000F2D170BD94060020012380F8781080F88C
:101E1000793070477047002070470000034B4164E1
:101E2000003918BF01211970704700BF6F390120B8
:101E3000704700207047836B0BB108461847704706
:101E40004FF6FF707047406803689B6918477047FA
:101E5000704770477047704710B5044600F04AFD60
:101E600023680349D3F890302046BDE81040184756
:101E7000000000D008B503680446D3F884309847C2
:101E800023682046DB6F984700F0ECF82368204673
:101E90005B6F98472920FFF77BFA00F0E3F823688F
:101EA00020465B6F9847F8E710B5044609F0F6F94D
:101EB00023682046D3F8BC30BDE81040184700F036
:101EC000FDBC00F001BD00F033BD00F0D3BC00F05C
:101ED00043BD00F04BBD00F0D7BC08F00DBC10B501
:101EE0008421044622F05EFB204610BD10B590F818
:101EF000341090F878400C4B8C421A7809D03AB9DB
:101F00000A4A0B491488088810800C8001221A7034
:101F100010BD002AFCD0054A0549148808881080A5
:101F20000C800022F3E700BF6839012064390120EA
:101F30006639012070B50D46194635B9094B0A4A74
:101F40000A4840F2FF2123F069FAC0E90F52084B1A
:101F5000003A18BF01221A700368BDE87040D3F838
:101F600090301847926B0208CA6B0208186C02087E
:101F70006E39012008B5094B1B888B4203D8084BEA
:101F80001B88934205D9074B074A0848A32123F031
:101F900045FA074B1980074B1A8008BD64390120A8
:101FA000663901205D6C0208C06C0208186C0208DA
:101FB0006A3901206C390120034690F87A0018B183
:101FC000586803681B68184770470000012108B56E
:101FD0000022084606F082F80A4B186028B90A4B1E
:101FE0000A4A28210A4823F019FA00220421012074
:101FF00006F013F9074B186018B9074B034A2C2158
:10200000F0E708BDA8060020036D02084C6D020829
:102010007B6D0208A4060020C16D0208024B4FF040
:10202000FF31186806F0A4B8A8060020014B186814
:1020300006F0CAB8A8060020024B0021186806F076
:1020400097B800BFA8060020FFF7F0BF0348044977
:10205000006800231A4606F01BB900BFA406002042
:102060001000002013B5084C00231A4601A920686F
:1020700006F03FF920684FF0FF33002201A906F077
:1020800038F902B010BD00BFA406002003685B6CE5
:1020900018470120704703689B6A1847FEE740F223
:1020A000EF307047054B0360054B4FF08062C3F87B
:1020B0008820BFF34F8FBFF36F8F704740780208BF
:1020C00000E100E010B504464FF45A61FFF7EAFF63
:1020D000204622F067FA204610BD000082B000239F
:1020E00001930E4B1A6B42F400021A631A6B02F44E
:1020F00000020192019A1A6942F400021A611A69F7
:1021000022F400021A61064B064A1A61064A5A6115
:10211000064B4FF080629A6002B070470038024070
:10212000E40500207D2300089D20000800E100E078
:1021300008B50A2809D8DFE800F006100E080808DC
:10214000081010101000022008BD054B054A064873
:10215000902123F063F90020F6E70120F4E700BFA7
:10216000036E02081E6E0208696E020838B50C463E
:10217000887FFFF7DDFFA58AE28A164B2169586345
:1021800042EA05425A64628BD963521B1A6425687D
:10219000082D0ED19A611A615862207F0E4A42EAD8
:1021A0000062DA61E2681A620C4A5961D9601A6009
:1021B00038BD0022D8611A61E1680A0A480902F4B0
:1021C000784200F4FC600243C1F3C4010A439A63FD
:1021D000034AECE700B002400900010001230200BD
:1021E0000123030008B50B280BD8DFE800F0061226
:1021F000100A0A0A0A0808080808022008BD052073
:10220000FCE7054B054A06486F2123F007F900203B
:10221000F4E70120F2E700BF036E0208AD6E02088A
:10222000696E02082DE9F04191F81D800C46404688
:10223000FFF7D8FFA77F05463846FFF7D3FF0646CE
:102240003846FFF775FFA18A628B444B521A1A6415
:102250009A61228B521A1A61E28A586342EA014259
:102260005A6421696268D963DA602068802828D0BE
:10227000227F0FD8202867D0402865D004281AD0A4
:10228000364B45EA026545F40035B845DD6161D05D
:10229000334A44E0B0F5807F04D0B0F5007FEFD141
:1022A000304800E0304840EA0262DA61E2681A62CF
:1022B0005E62596132E045EA026242F40032DA615C
:1022C000F6E7A068021DDA62227F45EA026545F45E
:1022D0000035DD615E625961017841B1012921D08B
:1022E000224B234A23484FF48D7123F097F8DA6983
:1022F000418822F47F42013922F0100242EA012291
:10230000DA610121154BDA6942F02002DA61DA69FB
:102310009206FCD410229A600029B9D0164A1A609D
:10232000BDE8F081B2F1FF01DA69408822F47F4212
:1023300000F1FF3022F0100242EA002242F01002C7
:1023400018BF0121DA61DDE745EA0262034B42F47E
:102350000032B4E742F20132E1E700BF00B00240D0
:1023600001230100090002000A000200F76E0208C2
:10237000116F0208696E020801230200024B1B68FC
:10238000586803685B6918477039012070B50446C6
:1023900025460A4B0C30002660602672667245F8AE
:1023A000203B6022294609F0CFF804F55A63EE601D
:1023B00024359D42FBD1204670BD00BF4078020805
:1023C000034B1A68D207FCD423229A60704700BFDF
:1023D00000B002407047000030B50F4C2568ED0793
:1023E000FCD423250904A56041F001010225FF2B3F
:1023F00065636164E0630AD00849656241EA03638A
:10240000E361074B22626061E060236030BDE561FB
:10241000039BA363034BF8E700B0024009000100EF
:10242000010002000100030030B50E4C2568ED07E5
:10243000FCD423251204A56042F001020225FF2BE3
:1024400065636264E063E16008D01B0643F0021339
:10245000E361054B65626061236030BD034BE3615E
:102460000123F9E700B0024001000200020002FF70
:1024700030B50B4C2568ED07FCD4232512041B0650
:10248000A56043F40033022542F0010265636264F3
:10249000E063E160E361034B65626061236030BD2E
:1024A00000B0024001000200012070470C2070477C
:1024B0000C2303FB0100083070470C2303FB0100D1
:1024C000083070470120704741F2CC20704741F23C
:1024D000CC2303FB01000830704741F2CC2303FBFF
:1024E000010008307047012070471020704700EB52
:1024F00001100830704700EB0110083070470846A3
:1025000000F0C6BC10B5034B0360044607F04BFE59
:10251000204610BDF878020810B50446FFF7F2FF18
:102520002046142122F03EF8204610BD10B5034B82
:102530000360044607F037FE204610BDC478020849
:1025400010B50446FFF7F2FF204641F2D42122F0F5
:1025500029F8204610BD000010B5034B0360044667
:1025600007F021FE204610BD9078020810B5044601
:10257000FFF7F2FF2046182122F014F8204610BD84
:1025800010B5084B0360044600F59850FFF7BAFFFA
:1025900004F12C00FFF7CAFF04F11400FFF7DCFF81
:1025A000204610BD2C79020808B50248FFF7E8FF65
:1025B00008BD00BF8415002010B50446FFF7E0FFFA
:1025C000204641F2744121F0EDFF204610BD00008D
:1025D0002DE9F34100F0D2FA054600F0D3FA0024C9
:1025E0000146234628462246009412F029FF284B34
:1025F000284A1A60204602F0F1F9274D274B284A55
:1026000028489A6012F084FE2B68BFF35B8FDB07CB
:1026100037D4284621F0C8FF98B3234C234B2360BE
:1026200004F5985707F1180604F1140004F12C087A
:102630006060C4F80880E760266107F0B5FD1C4BB8
:102640006361404607F0B0FD1A4BE362384607F07D
:10265000ABFD04F5805303F54570174AC3F800231A
:1026600002F05EFC224607F11401304602F022FB24
:10267000304600F00DFC114822F0EEFE284621F015
:102680009FFF0F4802B0BDE8F041FFF7E5BB00BF78
:10269000D439012030070020801500205007002089
:1026A0003407002014000020841500202C79020833
:1026B00090780208C4780208F8780208A925000872
:1026C000AC060020704700000148FFF7D3BB00BFF5
:1026D000AC06002070B5264E264C274D274B2360B4
:1026E0003046FFF753FE284617F0B0FF24480FF09E
:1026F0003BFF244B2448DC6000224FF48071C3E987
:10270000121222491A86C3E91A12214983F8582065
:10271000C3E91E011F49C3F880101F491F480B6001
:10272000F021C3E90422C3E90622C3E90822C3E970
:102730000A22C3E90E22C3E91022C3E91422C3E925
:1027400017225A6683F870205A67C3E90165018031
:102750001348018013484FF4A07101801248018092
:1027600012490A70012283F83420114A1A6070BDA0
:10277000DC0700207C150020500700203C77020871
:1027800034070020AC060020000001010100000118
:10279000000450001A00140070390120643901202F
:1027A0006A390120663901206C390120683901201D
:1027B000547702080148FFF775BC00BFDC07002012
:1027C0000020704781807047C18070470181704749
:1027D000418170477047704770477047704710B429
:1027E000C4880368121B84885B6D091B12B25DF8F4
:1027F000044B09B218474FF6FF7383814FF0FF3344
:1028000003621368C36110607047002070478B88B3
:10281000838001207047704780F82610704790F839
:102820002600704710B50022B1F90840B1F90A102E
:10283000028042808480C18010BD002202804280DC
:102840008280C28070470177704780ED080A704728
:1028500080F82410704780F82510704701207047D9
:10286000983070478C30704784307047704770479D
:1028700070470000034B902283F85A2383F85823B3
:10288000704700BF00E100E0094A0A49D3680A48DE
:10289000C3F30A03013B9BB20B801169C1F30A0128
:1028A000013901801364536B43F001035363704794
:1028B00000680140FA290020F8290020014BD3F8D4
:1028C000AC00704700680140024B0122C3F8AC1015
:1028D0005A6270470068014010B52C21044621F06F
:1028E00061FE204610BD10B5BC21044621F05AFE01
:1028F000204610BD70B5044607F053FF23689D6E57
:102900000EF0D4FB01462046A8472368054AD3F8B9
:102910008C502046AC460023BDE87040A2F516312D
:10292000604700BF00B004D007F022BF07F02CBF03
:1029300007F0E8BE08F057B890F8252012B10368F8
:102940005B691847704790F825201AB190F8242049
:1029500002B1186070470000034B4FF080629A602C
:102960004FF080729A60704700E100E0084B4FF032
:102970008062C3F88820BFF34F8FBFF36F8F4FF093
:102980008072C3F88820BFF34F8FBFF36F8F7047FB
:1029900000E100E070B50023124E8380124B03600B
:1029A000336893F8582005460AB1D86C00B9986886
:1029B0000368DB6A98473368B0FA80F4D86C64091E
:1029C00030B10368DB6A9847002808BF44F001046F
:1029D0002CB9064B064A07482C2122F01FFD284639
:1029E00070BD00BF70390120407902084F6F0208A6
:1029F000AD6F0208E66F020870B5254E3568BFF36B
:102A00005B8F15F0010540D1304621F0CDFD002847
:102A10003BD0204C204B256104F13400C4E9003543
:102A2000C4E90255E584A562A58510F082F804F199
:102A300058000AF03DFA194BA3652046184B40F8A0
:102A4000843BFFF7A7FF174BC4F884302433C4F846
:102A50008C304FF4C803C4E928350023C4F8AC30E7
:102A6000C4F8B030C4F8B430C4F8B8300E480F4BD6
:102A7000C4F89050C4F89C50C4F8A850C4F89830DA
:102A800022F0EAFC304621F09BFD024870BD00BFF9
:102A9000FC290020002A0020A08302086079020897
:102AA000D879020854830208712800083483020888
:102AB00038B5184C23685BB3174B184A1B6C118848
:102AC0008B4216D1164B198803F0AAFE236893F89F
:102AD0006A200025013283F86A2083F87C50FFF7D2
:102AE000B5FA206808F0DAFB2846BDE83840FFF761
:102AF000F5B803F095FE2468236820461B6A9847C2
:102B0000012384F87C300020BDE83840FFF710B97D
:102B100038BD00BF7039012000680140FA2900204B
:102B2000F8290020704708B506291DD8DFE801F014
:102B30000804080C1014180001F09CFF406808BD40
:102B400001F098FF0068FAE701F094FF8068F6E76B
:102B500001F090FFC068F2E701F08CFF0069EEE73A
:102B600001F088FF4069EAE70020E8E710B504219A
:102B7000044621F017FD204610BD000000487047B4
:102B8000307A02080720704713B5002451B103685A
:102B900001948DF8034001AA9C680DF10303A0473E
:102BA00002B010BD0846FBE7C0897047008A704735
:102BB000C088704780887047807A00F07F00704737
:102BC000807AC00970470020704700009FED010A1D
:102BD000704700BF00000000704710B50821044690
:102BE00021F0E0FC204610BD7047704700F5987357
:102BF0000868496803C37047704770474160704771
:102C000070477047064BC0F84C310023C0F8503174
:102C100000F5A273C0F84801C0F84031704700BF0A
:102C2000C52C0008012303727047704710B4C268B6
:102C300041685410034601EB6200D20748BF0A59AD
:102C40009B685DF8044B48BFD3581847034640685B
:102C500030B19A681AB9D86800F0010070470120B5
:102C6000704710B50C21044621F09CFC204610BD95
:102C700010B51021044621F095FC204610BD10B57A
:102C80004FF4AE71044621F08DFC204610BD10B506
:102C90000EF00CFA0368BDE81040DB6B184710B566
:102CA0000446D0F8400158B10368DB68984738B152
:102CB000D4F8400103689B6898470023C4F840316A
:102CC00010BD00002DE9F14FD0E9556A0746B06804
:102CD00003681B6A984741F2CB23984205D8444BBE
:102CE000444AA321444822F099FB706803681B6A98
:102CF00098470F2803D8414B3E4AA421F2E7F068D9
:102D000003681B6A98470B2803D83D4B394AA52115
:102D1000E8E70EF0CBF9DFF8F09004300EF004FA9B
:102D2000D9F8000010B10368DB689847D9F80000B3
:102D300010B103681B689847DFF8D080D8F800000E
:102D400010B103685B699847D7F83C0110B103687C
:102D50005B689847D8F8000010B103681B68984773
:102D6000D7F83C0110B103689B689847F068036886
:102D700000215B6A98474FF0000B224BC0F804B06B
:102D8000044680F808B00360B068036859465B6A7F
:102D90009847054601F0F2FF7068036859465B6A80
:102DA00098472946064601F0C7FF331DC7F83C6126
:102DB000C9F80040C8F80050CAF800302B68C6F8BF
:102DC00008A02846DB68EE639847336830461B68E6
:102DD00098472146284610F031FB236820461B699E
:102DE000984723685B69204601B0BDE8F04F18475B
:102DF00048700208D6700208AE710208F571020828
:102E000098720208407B0208B8390120B4390120C9
:102E1000044B1B6893F858200AB1D86C00B9986825
:102E2000704700BF70390120F8B5174604460E46BA
:102E30000EF018FA124B1C60124B2360124B002547
:102E4000C4E95135114BC4E9535518680368012191
:102E50009B68C4E94F55C4E955769847284601F068
:102E6000BDFDFFF7D5FF19F09AFAFFF7D1FF19F072
:102E700011FBFFF7CDFF19F019FB2046F8BD00BF8D
:102E8000C4390120EC7A0208D47A02087039012092
:102E9000064BC0F84C310023C0F8503100F5A27346
:102EA000C0F84801C0F84031704700BFC52C000889
:102EB000806A7047704770477047704730B4C26887
:102EC00044685510034604EB6200D20748BF6259BC
:102ED0009B6830BC48BFD35818470346406830B1A0
:102EE0009A681AB9D86800F001007047012070474D
:102EF00010B51021044621F055FB204610BD10B539
:102F0000F821044621F04EFB204610BD00F1A0023E
:102F10008A4203D10368D3F88C3018477047000009
:102F2000074A02600022C0E90122C0E90322C0E989
:102F30000522C0E907224FF480728284704700BFE7
:102F40008C87020870B5036804461B6B15469847CA
:102F50002368294620465B6BBDE870401847000097
:102F6000F8B5194B018F1B888B4206462AD9174B9F
:102F70001B682BB9164B174A17486C2122F04EFAE2
:102F800013F81120154B1B6853F82250144B186886
:102F900001F060FD2B6807469B6B284698472B681D
:102FA00004469B6C3946284698472B6814FB00F46E
:102FB0005B6A394628469847A4B223181BB2A6F884
:102FC0004630F8BD0023FAE7CC390120C83901208A
:102FD0003B7302087D730208B8730208D0390120E0
:102FE000D43901202DE9F047044688B02646002553
:102FF000FFF796FF4C4BA56246F82C3B4FF0260896
:1030000042462946304622F032FC3046FFF788FF20
:10301000464BE36204F15807FF234246294684F8F1
:1030200052306565384622F022FC3846FFF778FFBB
:103030003F4BA3654FF6FF7304F1A0084FF0FF3933
:10304000DFF8FCA0A4F884304FF47F03C4F88C3080
:10305000C4E92695C4F880A0C4F88850A4F890501C
:10306000C4F8945040460BF05DF8324BC4E93A3452
:10307000314BC4E93C354FF0C8132A46A3602946BA
:103080003046FFF75FFF3046C821FFF79FFB304611
:10309000C821FFF79DFB294B63653146204607F0A9
:1030A00095F86E46372238460B21FFF74BFF39461D
:1030B0003046C4F88890A4F88C500AF00BFA96E8D1
:1030C000070004F1940383E80700172306A9384694
:1030D000ADF81C30CDF818A00AF0A4FC3946204603
:1030E00007F074F8404678223221FFF72BFF06AA3A
:1030F00005A94046ADF81450ADF818500AF0E5FCAB
:103100001523A4F8D8304046FFF72AFF04F1E8035E
:103110002046C4E93799C4F8C830414607F056F84C
:10312000204608B0BDE8F0877C7B0208688502086D
:10313000D8840208647B02080D2F0008929296FF43
:10314000C47A02087047704770477047704730B5BF
:10315000036885B06D460181D3F88430014604468A
:103160002846984795E807003C3484E8070005B0F6
:1031700030BD30B5036885B06D464181D3F88430E9
:10318000014604462846984795E807003C3484E801
:10319000070005B030BD0022028042808280C280DC
:1031A000704780F83610704770B5036804461B6B93
:1031B000154698472368294620465B6EBDE8704057
:1031C000184700207047806C704770477047704701
:1031D00030B4C26844685510034604EB6200D2075D
:1031E00048BF62599B6830BC48BFD3581847034654
:1031F000406830B19A681AB9D86800F00100704789
:103200000120704710B54C21044621F0CBF920462F
:1032100010BD10B51021044621F0C4F9204610BDA0
:1032200010B5044600F5967001F020FF04F58050BB
:10323000043001F0C9FF04F587501C30BDE8104090
:1032400001F06ABD08B5FFF777FB08BD00F1F00299
:103250008A4202D10368DB6A18477047036870B579
:103260005E6B124B1B6804468DB22BB9104B114A92
:103270006C21114822F0D2F81049828D09889142C0
:1032800003D80F4B0B4A6D21F3E713F812200D4BB7
:103290001B6853F8220003681B6B9847291A3346B2
:1032A000204609B2BDE87040184700BFC839012068
:1032B0003B7302087D730208B8730208CC39012001
:1032C000FF730208D039012000224FF0FF31C0E91E
:1032D000002182607047000038B500F580550D4B25
:1032E000036004460C4BC5F8FC3000F587501C30D9
:1032F000FFF7E2FD094B6B602846043001F0DFFB6D
:10330000074BC4F82C3104F5967000F067FA20469C
:1033100038BD00BFBC7C0208FC7F0208888102081F
:10332000F480020810B50446FFF7D6FF204641F2AC
:10333000C42121F037F9204610BD70B504461D4662
:10334000BDF91060FFF7FEFD2368294620469B6B00
:103350009847236831462046DB6BBDE8704018472C
:103360004FF4807181840E4981624FF6FF7181852F
:103370004FF47F0141630B49016000224FF0FF31A0
:10338000C0E90122C0E90322C0E90522C0E9072201
:10339000C0E9101202630287C2638264704700BFF3
:1033A000C47A0208147C02082DE9F04F044693B059
:1033B0000FF098FEC84B2360C84B0025C4E91035B8
:1033C0004FF4807304F16C07A4F86430FF234FF6C8
:1033D000FF7684F8663010A93846C4E91255C4E96E
:1033E0001455C4E91655E5632566A566ADF8406039
:1033F00009F0C6FD04F1980310A918460393ADF82F
:10340000406009F0BDFD04F1C40310A918460493FF
:10341000ADF8406009F0B4FD04F1F00318460593DF
:1034200004F5805B0AF020FD04F5967318460BF155
:10343000040B04F58758069308F11C0801F08AFD77
:1034400004F58F5A584601F0B5FE0AF1140A4046B9
:1034500001F058FC5046FFF783FF04F592531846DD
:103460000293FFF77DFF9E4B04F58056C6E9AD340D
:103470009C4BC6E9AF354FF4A0732A4604F14000D7
:1034800000932946F0230790FFF757FF079804F1B0
:1034900004094FF07F430146A366484606F096FEB6
:1034A0000123384610A9ADF840300AF004FD4FF46E
:1034B000A0732A46384600932946F023FFF73DFFC4
:1034C0003846294609F017FD3946484606F07EFE83
:1034D000282703230398ADF8403010A90AF0EBFC2D
:1034E00005226423039800970F21FFF726FF039816
:1034F000294609F000FD0399484606F067FE0623B9
:103500000498ADF8403010A90AF0D5FCC82340F269
:103510000712049800971421FFF70FFF049829461B
:1035200009F0E9FC0499484606F050FE05984FF46E
:103530008272A521FFF706FD0423ADF83430ADF803
:1035400038300223ADF83C30ADF8403010AB0EAA55
:10355000059800930DA90FAB0AF0F1FB6123C4F8A5
:10356000283104F595531433C4F8183105994846A9
:1035700006F02CFE322206981421FFF7E3FC069990
:10358000484606F023FE322258461421FFF7DAFCA3
:103590005946484686F8295006F018FE3222404621
:1035A0001421FFF7CFFC4146484686F8215106F02A
:1035B0000DFE1E2278215046FFF7C4FC4FF07F43DA
:1035C000C6F82432D6F8F431A6F8285208AFD3F85A
:1035D0008430DFF830B151463846984797E8070005
:1035E0000AF13C0383E80700DBF8003004F5945847
:1035F00008F10C082BB93C4B3C4A60213C4821F0B7
:103600000DFF3C4B1B88102B03D83B4B374A6121E5
:10361000F4E73A4B1021186801F01CFA384A0346C7
:103620000A21404611F066FEC6F83C8250460AF078
:10363000D9F9DFF8D480CDF84080132310A9504683
:10364000ADF844300AF0EEF95146484606F0BEFDAA
:1036500002980F227821FFF775FCD6F840320299C4
:10366000D3F88430A6F874524FF07F42C6F8702227
:1036700038469847029A02F13C0397E8070083E82E
:103680000700DBF8003004F59555002BB3D0194A3C
:103690001388112BB9D9194B1121186801F0DAF9E7
:1036A000174A03460A21284611F024FE0298C6F85C
:1036B00088520AF097F914230298ADF8443010A903
:1036C000CDF840800AF0AEF94846029906F07EFD3A
:1036D000204613B0BDE8F08FBC7C02086885020864
:1036E000A47C02084D3200083B7302083D740208B6
:1036F000B8730208CC390120FF730208D4390120C5
:1037000088740208C8390120C47A0208406A7047E8
:10371000806A704770478A880B8810B5D20A4C8837
:10372000C1699BB251F8220043EA0443184410BD1A
:1037300010B50446BAB1107B68B1537BD27A1B0234
:1037400003F4E0631A43236A03EB82031A888A4274
:1037500002D193F9020010BD05D8013880B20433BC
:103760000028F3D1F7E70020F5E710B52C21044637
:1037700020F018FF204610BD30B58BB00446BDF8D0
:1037800060500895BDF85C5007959DF8505006951F
:103790009DF84C5005959DF8485004959DF844506F
:1037A00003959DF8405002959DF83C500195BDF859
:1037B000385000950FF07AFA064B2360159BE361B1
:1037C000169B2362199B63621A9BA36220460BB06F
:1037D00030BD00BFF47C02087047704770477047E7
:1037E000A0F850107047B0F850007047018670473D
:1037F000008E704710B56021044620F0D3FE2046AD
:1038000010BD10B54821044620F0CCFE204610BD66
:1038100010B540F69851044620F0C4FE204610BD75
:1038200008B590F826300BB1FFF786F808BD90F880
:103830004C3070B50446002B4AD0B0F84E00B4F8B6
:103840005030013080B29842A4F84E0040D3B4F812
:103850005450B4F85620A66D521BC01A12B2B4F8D8
:103860005230002180B2B04794F836200544ABB204
:103870002DB2AA4205D02DBB2046FFF75DF884F893
:103880003650B4F85030B4F85210B4F84E200B440F
:103890009A421DD3002384F84C30A4F852300DF026
:1038A00005FC214604300DF026FCE06D80B1036874
:1038B000DB68984760B1E06D036821469B68BDE80E
:1038C0007040184784F836302046FFF735F8D8E7BF
:1038D00070BD90F82C302DE9F0410446002B41D00A
:1038E000C38D028E01339BB29342C3853AD39B1A98
:1038F0009DB2028F838EC66BD21A12B2438E002104
:103900002846B047E38E628F276CD21A0646638E34
:1039100012B200212846B847E38EC218A38EF118D0
:1039200012B209B22046FEF75AFF238E618EE28D55
:103930000B449A4216D3002384F82C30E3850DF013
:10394000B5FB214604300DF0D6FB606C50B1036826
:10395000DB68984730B1606C036821469B68BDE81E
:10396000F0411847BDE8F08110B50446FFF7D8FADA
:10397000024B23600023A362204610BD748202081C
:1039800010B526220446002121F071FF2046FFF7E2
:10399000C7FA044B2360FF2384F826300023A36278
:1039A000204610BD6885020800224FF0FF31C0E9B3
:1039B000002182607047000010B50446FFF7E0FF69
:1039C000064B23600023C4E90C33C4E90E33C4E979
:1039D000103384F82C30E385204610BD5C7D02084E
:1039E00038B526220446002121F041FF2046FFF78A
:1039F00097FA0E4B23600E4BA3624FF6FF73002520
:103A0000A3854FF47F03C4E90C53258704F13C00E0
:103A1000FFF7CAFF074BA564236084F84C50A4F855
:103A20004E50A4F85050E565204638BDD8840208B1
:103A3000C47A0208CC7D02082DE9F04F0446B9B0E3
:103A40002646FFF791FFDA4B46F82C3B3046FFF74E
:103A500097FF04F1580304F18405184604F1CC0AD9
:103A60000693FFF781FF2846FFF7A6FF5046FFF7B2
:103A7000B7FF04F5967318460793FFF775FF04F533
:103A8000AC7318462193FFF797FF04F5D0731846DF
:103A90000293FFF7A5FF04F5007318460893FFF79C
:103AA00063FF04F50B7318462293FFF785FF04F5B7
:103AB0001D7318460393FFF793FF04F535731846FB
:103AC0000993FFF751FF04F5407318462393FFF75E
:103AD00073FF04F5527318460493FFF781FF04F552
:103AE0006A7318460A93FFF73FFF04F5757318468B
:103AF0002493FFF761FF04F21C4318460593FFF778
:103B00006FFF04F27C4318460B93FFF72DFF04F57B
:103B1000956318462593FFF74FFF04F59E631846FB
:103B20001693FFF75DFF04F5AA6318460C93FFF7A1
:103B30001BFF04F27C5318462693FFF73DFF04F267
:103B4000C45318461793FFF74BFF04F2246318463B
:103B50000D93FFF709FF04F5CA6318462793FFF793
:103B60002BFF04F5D36318461893FFF739FF04F5CC
:103B7000DF6318460E93FFF7F7FE04F2247318462E
:103B80002893FFF719FF04F26C7318461993FFF797
:103B900027FF04F2CC7318460F93FFF7E5FE04F5F8
:103BA000FF6318462993FFF707FF04F504631846DF
:103BB0001A93FFF715FF04F50A6318461093FFF7F1
:103BC000D3FE04F6CC0318462A93FFF7F5FE04F65D
:103BD000141318461B93FFF703FF04F674131846DB
:103BE0001193FFF7C1FE04F51A6318462B93FFF7F4
:103BF000E3FE04F6E81318461C93FFF7F1FE04F603
:103C0000482318461293FFF7AFFE04F674231846B4
:103C10002C93FFF7D1FE04F6BC2318461D93FFF743
:103C2000DFFE04F61C3318461393FFF79DFE04F6DF
:103C3000483318462D93FFF7BFFE04F53963184645
:103C40001E93FFF7CDFE04F53F6318461493FFF76C
:103C50008BFE04F61C4318462E93FFF7ADFE04F6C8
:103C6000644318461F93FFF7BBFE04F6C44318468F
:103C70001593FFF779FE04F54F6318462F93FFF76E
:103C80009BFE04F6385318462093FFF7A9FE4FF029
:103C9000C813A3600022C823114600933046FFF7E3
:103CA0004CFB444B6365314620462D2606F08EFAC8
:103CB00097220698009633461146FFF73EFB0022F6
:103CC0001146009633462846FFF737FB3A4B0698D5
:103CD000C4F8AC304FF00F09294606F077FA3346A6
:103CE0004A465046CDF800900021FFF726FBD4F855
:103CF000CC3000270DF1C0084FF07F42C4F8FC2003
:103D000051464046D3F88430A4F80071984798E8AB
:103D10000700D4F8CC304FF0060B04F5847585E825
:103D20000700D3F8843084F805B1514640469847DF
:103D300098E8070085E8070035AD204A3592294606
:103D40005046ADF8D89009F06DFE0698514606F041
:103D50003DFA0699204606F039FA07980096334650
:103D600097226621FFF7E9FA3A46219800963346F2
:103D70003946FFF7E2FA104B21990798C4F88031D1
:103D800006F024FA4A460298CDF8009033463946A8
:103D9000FFF7D3FAD4F8A031A4F8D4714FF07F41E3
:103DA000C4F8D01140460299D3F8843008E000BF2F
:103DB000647E0208A0ADBBFFB4C1CDFFC47A020887
:103DC000984798E80700D4F8A03104F5EE7A8AE81D
:103DD0000700D3F88430029984F8D9B14046984757
:103DE00098E807000D238AE80700CF4A0298359229
:103DF0002946ADF8D83009F015FE0299079806F06B
:103E0000E5F90799204606F0E1F90898009633464F
:103E100097223521FFF791FA3A46229800963346C9
:103E20003946FFF78AFAC14B22990898C4F85432F0
:103E300006F0CCF94A460398CDF80090334639464F
:103E4000FFF77BFAD4F87432A4F8A8724FF07F41E0
:103E5000C4F8A41240460399D3F88430984798E8F0
:103E60000700D4F8743204F52C7A8AE80700D3F8F6
:103E70008430039984F8ADB24046984798E807002B
:103E80000C238AE80700A84A039835922946ADF822
:103E9000D83009F0C7FD0399089806F097F90899FA
:103EA000204606F093F9099800963346972204219C
:103EB000FFF743FA3A462398009633463946FFF710
:103EC0003CFA9A4B23990998C4F8283306F07EF9F6
:103ED0004A460498CDF8009033463946FFF72DFA4C
:103EE000D4F84833A4F87C734FF07F41C4F87813BA
:103EF00040460499D3F88430984798E80700D4F8EE
:103F0000483304F5617A8AE80700D3F884300499CD
:103F100084F881B34046984798E807000B238AE865
:103F20000700814A049835922946ADF8D83009F047
:103F300079FD0499099806F049F90999204606F097
:103F400045F90A980096334666229721FFF7F5F95E
:103F50003A462498009633463946FFF7EEF9734BFC
:103F600024990A98C4F8FC3306F030F94A460598BB
:103F7000CDF8009033463946FFF7DFF9D4F81C340A
:103F8000A4F850744FF07F41C4F84C144046059992
:103F9000D3F88430984798E80700D4F81C3404F527
:103FA0008B6A8AE80700D3F88430059984F855B401
:103FB0004046984798E807000A238AE807005A4ACB
:103FC000059835922946ADF8D83009F02BFD0599B2
:103FD0000A9806F0FBF80A99204606F0F7F86622E0
:103FE0000B98009633461146FFF7A7F93A462598F5
:103FF000009633463946FFF7A0F94C4B25990B98AC
:10400000C4F8D03406F0E2F833464A461698CDF8A4
:1040100000903946FFF791F94FF07F41C4F8201521
:10402000A4F824752846FFF7BFFC95E8070004F2C2
:104030002C5888E8070084F829B52846FFF7B4FC17
:1040400095E80700092388E80700374A1698359253
:104050002946ADF8D83009F0E5FC16990B9806F022
:10406000B5F80B99204606F0B1F80C980096334647
:1040700066223521FFF761F93A46269800963346C5
:104080003946FFF75AF9294B26990C98C4F8A435FC
:1040900006F09CF833464A461798CDF8009039460A
:1040A000FFF74BF94FF07F41C4F8F415A4F8F87509
:1040B0002846FFF779FC95E8070004F5C06888E812
:1040C000070084F8FDB52846FFF76EFC95E8070069
:1040D000082388E80700144A179835922946ADF856
:1040E000D83009F09FFC17990C9806F06FF80C99DE
:1040F000204606F06BF80D9800963346662205219F
:10410000FFF71BF93A462798009633463946FFF7E2
:1041100014F9064B27990D98C4F8783606F056F82E
:1041200033464A4604E000BFC47A0208B4C1CDFF5A
:104130001898CDF800903946FFF7FFF84FF07F410F
:10414000C4F8C816A4F8CC762846FFF72DFC95E8ED
:10415000070004F2D46888E8070084F8D1B628463E
:10416000FFF722FC95E80700072388E80700D34AF9
:10417000189835922946ADF8D83009F053FC1899B3
:104180000D9806F023F80D99204606F01FF80E98BA
:104190000096334635229721FFF7CFF83A46289804
:1041A000009633463946FFF7C8F8C54B28990E9854
:1041B000C4F84C3706F00AF833464A461998CDF849
:1041C00000903946FFF7B9F84FF07F41C4F89C17CB
:1041D000A4F8A0772846FFF7E7FB95E8070004F569
:1041E000F56888E8070084F8A5B72846FFF7DCFBE8
:1041F00095E8070088E80700B04A199835922946E3
:10420000ADF8D8B009F00EFC19990E9805F0DEFF54
:104210000E99204605F0DAFF0F98009633463522B6
:104220006621FFF78AF83A462998009633463946C0
:10423000FFF783F8A24B29990F98C4F8203805F0AE
:10424000C5FF33464A461A98CDF800903946FFF725
:1042500074F84FF07F41C4F87018A4F874782846B9
:10426000FFF7A2FB95E8070004F67C0888E8070042
:1042700084F879B82846FFF797FB95E807000523EF
:1042800088E807008D4A1A9835922946ADF8D8304B
:1042900009F0C8FB1A990F9805F098FF0F9920466E
:1042A00005F094FF35221098009633461146FFF72B
:1042B00044F83A462A98009633463946FFF73DF8C7
:1042C0007F4B2A991098C4F8F43805F07FFF3346E5
:1042D0004A461B98CDF800903946FFF72EF84FF06C
:1042E0007F41C4F84419A4F848792846FFF75CFBDD
:1042F00095E8070004F5156888E8070084F84DB9CB
:104300002846FFF751FB95E8070088E807004FF0C3
:1043100004086A4A1B9835922946ADF8D88009F0FE
:1043200081FB1B99109805F051FF1099204605F06C
:104330004DFF11980096334641463522FEF7FDFFAA
:104340003A462B98009633463946FEF7F6FF5C4B0B
:104350002B991198C4F8C83905F038FF33464A46FE
:104360001C98CDF800903946FEF7E7FF4FF07F41EB
:10437000C4F8181AA4F81C7A2846FFF715FB95E82C
:10438000070004F6242A8AE8070084F821BA2846A0
:10439000FFF70AFB95E8070003238AE80700474A6E
:1043A0001C9835922946ADF8D83009F03BFB1C9992
:1043B000119805F00BFF1199204605F007FF1298A0
:1043C0000096334642469721FEF7B7FF3A462C98AF
:1043D000009633463946FEF7B0FF394B2C991298B8
:1043E000C4F89C3A05F0F2FE33464A461D98CDF8D3
:1043F00000903946FEF7A1FF4FF07F41C4F8EC1A58
:10440000A4F8F07A2846FFF7CFFA95E8070004F6FB
:10441000F82A8AE8070084F8F5BA2846FFF7C4FAB4
:1044200095E8070002238AE80700244A1D98359280
:104430002946ADF8D83009F0F5FA1D99129805F023
:10444000C5FE1299204605F0C1FE1398009633462A
:1044500042466621FEF771FF3A462D980096334694
:104460003946FEF76AFF164B2D991398C4F8703B36
:1044700005F0ACFE33464A461E98CDF8009039460A
:10448000FEF75BFF4FF07F41C4F8C01BA4F8C47B6C
:104490002846FFF789FA95E8070004F6CC3A8AE83F
:1044A000070084F8C9BB2846FFF77EFA95E80700A5
:1044B0008AE80700014A1E9804E000BFC47A020897
:1044C000B4C1CDFF35924FF0010A2946ADF8D8A00E
:1044D00009F0A8FA1E99139805F078FE1399204662
:1044E00005F074FE14980096334642463521FEF7D7
:1044F00024FF3A462E98009633463946FEF71DFFB4
:10450000404B2E991498C4F8443C05F05FFE3346A6
:104510004A461F98CDF800903946FEF70EFF4FF03F
:104520007F41C4F8941CA4F8987C2846FFF73CFA15
:1045300095E8070004F54A6383E8070084F89DBC0A
:1045400028460293FFF730FA95E80700029BADF882
:10455000D87083E807002C4A1F983592294609F045
:1045600061FA1F99149805F031FE1499204605F060
:104570002DFE15980096334642464146FEF7DDFE75
:104580003A462F98009633463946FEF7D6FE1D4B25
:104590002F991598C4F8183D05F018FE4A4639467B
:1045A0002098CDF800903346FEF7C7FE4FF07F43CA
:1045B000C4F8683DA4F86C7D2846FFF7F5F995E846
:1045C000070004F6745686E8070084F871BD284693
:1045D000FFF7EAF995E8070086E807000A4A2098FD
:1045E00035922946ADF8D8A009F01CFA2099159803
:1045F00005F0ECFD2046159905F0E8FD204639B0A0
:10460000BDE8F08FB4C1CDFFC47A02087047000046
:1046100030B5164D2C6814F001048FB0BFF35B8FDA
:1046200020D128461FF0C0FFE0B13F230993104B73
:104630000893104B104911480A94CDE9064304230E
:10464000CDE902430A2300930122CDE90B44CDE9D1
:1046500004440194FFF790F8094820F0FDFE284635
:104660001FF0AEFF05480FB030BD00BFBC2A0020D0
:1046700000A5020818A50208B0A10208C02A00205F
:104680000D4600087047000030B5164D2C6814F038
:1046900001048FB0BFF35B8F20D128461FF084FF49
:1046A000E0B13F230993104B0893104B1049114878
:1046B0000A94CDE906430423CDE902430A2300937B
:1046C0001522CDE90B44CDE904440194FFF754F8D9
:1046D000094820F0C1FE28461FF072FF05480FB0C0
:1046E00030BD00BFEC2A002004A502081CA502086A
:1046F000C0A10208F02A002085460008704700008B
:1047000030B5164D2C6814F001048FB0BFF35B8FE9
:1047100020D128461FF048FFE0B13F230993104BFA
:104720000893104B104911480A94CDE9064304231D
:10473000CDE902430E2300930B22CDE90B44CDE9D2
:1047400004440194FFF718F8094820F085FE284634
:104750001FF036FF05480FB030BD00BF1C2B0020F6
:1047600008A5020820A50208E8A20208202B0020C4
:10477000FD4600087047000030B5164D2C6814F057
:1047800001048FB0BFF35B8F20D128461FF00CFFD0
:10479000E0B13F230993104B0893104B1049114887
:1047A0000A94CDE906430423CDE902430F23009385
:1047B0000822CDE90B44CDE904440194FEF7DCFF67
:1047C000094820F049FE28461FF0FAFE05480FB0C0
:1047D00030BD00BF4C2B00200CA5020824A5020808
:1047E00084A30208502B0020754700087047000082
:1047F00030B5164D2C6814F001048FB0BFF35B8FF9
:1048000020D128461FF0D0FEE0B13F230993104B82
:104810000893104B104911480A94CDE9064304232C
:10482000CDE902431B2300930A22CDE90B44CDE9D5
:1048300004440194FEF7A0FF094820F00DFE28462D
:104840001FF0BEFE05480FB030BD00BF7C2B00201E
:1048500010A5020828A50208F4A30208802B002056
:10486000ED4700087047000030B5164D2C6814F075
:1048700001048FB0BFF35B8F21D128461FF094FE57
:10488000E8B13F230993104B0893104B104911488E
:104890000A94CDE906430423CDE902432323009380
:1048A00009222423CDE90B44CDE904440194FEF709
:1048B00063FF094820F0D0FD28461FF081FE05481F
:1048C0000FB030BDAC2B002014A502082CA50208A7
:1048D00080A40208B02B0020654800080020704723
:1048E000002070470EB403B503AB002153F8042B2E
:1048F00001930DF07DFC02B05DF804EB03B070474E
:104900000CB407B504AB53F8042B01930DF070FC05
:1049100003B05DF804EB02B07047000010B5044628
:104920000EF018FEE38E04EB43035884636C5BB314
:10493000238F2BB9174B184AC521184820F06EFD5C
:1049400010B320460FF02DFF238F012B03D8144BFB
:10495000144ACB21F1E7E28E531C9BB2092B194676
:1049600088BFA3F10A0104EB410140F63F10498CD6
:10497000814209D10A2B04EB420228BF002304EB39
:104980004303508C588451842046BDE810400FF0FA
:104990000BBE00BF8B740208947402083F750208B6
:1049A000897502089775020810B504460FF0C3FD1B
:1049B0002046BDE810400EF0C8BD10B586B002AC70
:1049C00084E806001A460AAB05930193099B0093FD
:1049D0002146089B0BF0D4FE06B010BD38B518BBBD
:1049E000124B13481C681349B4B122682244026078
:1049F000626822440A60A26814440F4B00221A80A5
:104A000000F038F8054600F033F80C4B1C600C4BF6
:104A10001D600C4B188007E00B4B03600B4B0B60C9
:104A20000B4B1C68002CE8D138BD00BFE82B0020E0
:104A3000E02B0020DC2B0020E42B0020C8390120D3
:104A4000D0390120CC39012030A502089CA50208EC
:104A500000A60208044B1B6853F82100034B1B6897
:104A600003EB4000704700BFDC2B0020E02B002050
:104A70001920704700487047EC2B002010B5FFF755
:104A8000C7FD094C2060FFF7EFFE6060FFF738FEBE
:104A9000A060FFF7ADFEE060FFF76EFE2061FFF75C
:104AA000F3FD606110BD00BFEC2B002010B50024A9
:104AB00004600C6014601C6010BD70477047704744
:104AC000704730B4C26844685510034604EB620076
:104AD000D20748BF62599B6830BC48BFD3581847BB
:104AE0000346406830B19A681AB9D86800F00100EE
:104AF00070470120704710B5102104461FF052FD89
:104B0000204610BD10B5F82104461FF04BFD20468D
:104B100010BD00F1A0028A4203D10368D3F88C30A3
:104B2000184770472DE9F047044688B0264600250F
:104B3000FEF7F6F94D4BA56246F82C3B4FF02608E0
:104B400042462946304620F092FE3046FEF7E8F90C
:104B5000474BE36204F15807FF234246294684F895
:104B600052306565384620F082FE3846FEF7D8F9A7
:104B7000404BA3654FF6FF7304F1A008DFF808A1CE
:104B8000A4F884304FF0FF394FF47F03C4F88C3021
:104B9000C4E92695C4F880A0C4F88850A4F89050C1
:104BA000C4F89450404609F0BDFA334BC4E93A3496
:104BB000324BC4E93C354FF0C8132A46A36029465E
:104BC0003046FEF7BFF93046C821FDF7FFFD3046FD
:104BD000C821FDF7FDFD2A4B63653146204605F0EF
:104BE000F5FA382238460B21FEF7ACF96E46254B14
:104BF000C4F8883039463046A4F88C5008F06AFC76
:104C000096E8070004F1940383E8070018230DEBEE
:104C100003013846ADF81C30CDF818A008F002FFAB
:104C20003946204605F0D2FA404678223221FEF776
:104C300089F906AA05A94046ADF81450ADF81850F8
:104C400008F043FF1623A4F8D8304046FEF788F951
:104C500004F1E8032046C4E93799C4F8C830414656
:104C600005F0B4FA204608B0BDE8F087107F0208CE
:104C700068850208D8840208F87E0208134B0008F1
:104C80008C8CFFFFF7F7FFFFC47A0208704710B55E
:104C90004FF4AE7104461FF085FC204610BD10B5E0
:104CA0000446D0F8580100F03EF92046BDE8104017
:104CB0000CF098BA10B50446FEF7B6F8014B236025
:104CC000204610BDA87F0208034B186810B1036886
:104CD000DB6A1847704700BF042C002010B5034B57
:104CE00003600446FEF7E8F8204610BDFC7F02088A
:104CF00010B50446FFF7F2FF2046F8211FF052FCE2
:104D0000204610BD10B50446FEF76CF9014B236038
:104D1000204610BDFC7F0208FEF7CFB8704704386C
:104D20007047704710B5102104461FF03BFC204629
:104D300010BDA0F10400F5E700228260024A026083
:104D400018324260C16070479480020870470000CA
:104D500010B5034B03600446FEF7BEFA204610BDB3
:104D6000BC80020810B50446FFF7F2FF204641F26E
:104D7000CC211FF017FC204610BD000010B50446E2
:104D8000FEF712FB014B2360204610BDBC800208D9
:104D900070B50446FEF744FA04F5967000F066F923
:104DA0000F4B1C60FBF7BAFF04F5805604F59455D1
:104DB0000C350346C6F8C4020A4A0A21284610F0F8
:104DC00099FA04F58F50C6F83C5214300DF017FBD9
:104DD0004FF0FF33C6F8C832BDE87040FBF734BE71
:104DE000042C00204468020870B500F580550026A8
:104DF00000F5875085F821611C300DF000FB284636
:104E000085F8296004300DF0FAFABDE87040FBF730
:104E10001BBE00F580530122184683F82920043078
:104E20000DF0EDBA00F58053012200F5875083F8AC
:104E300021211C300DF0E3BAF8B500F58054064688
:104E4000D4F8C8328B420D462FD000F595570B464B
:104E5000164AC4F8C81238460A2110F04BFAC4F8B2
:104E6000887206F592500DF0CAFAD4F8C4329D4209
:104E700015DD06F594570C370C4AC4F8C4522B467E
:104E80000A21384610F036FA06F58F501430C4F86F
:104E90003C720DF0B4FAD4F8C402FBF737FFD4F833
:104EA000C402BDE8F840FBF77FBCF8BD44680208C7
:104EB000184B1A782DE9F04104460AB300221A7003
:104EC000154B1968FFF7B8FF144B1B68012B19D05D
:104ED000022B1BD0FBF728FF0026074604F596742B
:104EE00007EB0618002558F825302A46314620469B
:104EF000013500F039F8042DF5D10136042EEFD13B
:104F0000BDE8F0812046FFF784FFE3E72046FFF786
:104F100089FFDFE77C0600209C030020A00300201F
:104F2000002202607047704710B5034B03600446CF
:104F3000FEF754FC204610BDF480020810B504466C
:104F4000FFF7F2FF204640F6D8611FF02BFB20460A
:104F500010BD000010B50446FEF76EFD014B236046
:104F6000204610BDF48002082DE9F04102EB8105D6
:104F700000EB85051C46D5F8986E002E5AD0D5F862
:104F8000585E6BB986F825302B4BAB622B682846F0
:104F90005B699847336830465B69BDE8F041184764
:104FA0000C277A4302F69852302707FB0121471855
:104FB000224A0621384610F09DF90123B76486F88D
:104FC0002530002DE6D0402C28D013DC082C27D02B
:104FD00008DC022C26D01A4A1A4B042C08BF1A46A9
:104FE000AA62D3E7102C1FD0154A174B202C08BFFC
:104FF0001A46F5E7B4F5007F18D008DC802C17D0EE
:105000000F4A124BB4F5807F08BF1A46E8E70C4AF6
:105010000F4BB4F5806F08BF1A46E1E70D4ADFE792
:105020000D4ADDE70D4ADBE70D4AD9E70D4AD7E720
:105030000D4AD5E7BDE8F081B4C1CDFF4468020850
:10504000C8C8C8FF5A14F0FFD69500FFA5D729FF9E
:105050009B065FFF7B00CEFF1BC9FFFFFF0096FF93
:105060006395F5FF2400FFFF1855FFFF10B50446B8
:10507000FEF7B5FB04F63853C4F8983E04F54F63C9
:10508000C4F8583E04F66443C4F89C3E04F61C433E
:10509000C4F85C3E04F53963C4F8A03E04F6483316
:1050A000C4F8603E04F6BC23C4F8A43E04F674239E
:1050B000C4F8643E04F6E813C4F8A83E04F51A6385
:1050C000C4F8683E04F61413C4F8AC3E04F6CC03EE
:1050D000C4F86C3E04F50463C4F8B03E04F5FF6305
:1050E000C4F8703E04F26C73C4F8B43E04F2247346
:1050F000C4F8743E04F5D363C4F8B83E04F5CA633B
:10510000C4F8783E04F2C453C4F8BC3E04F27C53A5
:10511000C4F87C3E04F59E63C4F8C03E04F5956374
:10512000C4F8803E04F21C43C4F8C43E04F5757311
:10513000C4F8843E04F55273C4F8C83E04F54073C5
:10514000C4F8883E04F51D73C4F8CC3E04F50B7317
:10515000C4F88C3E04F5D073C4F8D03E04F5AC73AB
:10516000C4F8903E04F1CC03C4F8D43E04F18403A7
:10517000C4F8943E10BD0000034B186810B10368DA
:10518000DB6A1847704700BF042C002010B5034BA2
:1051900003600446FFF793FC204610BD8881020897
:1051A00010B50446FFF7F2FF2046F8211FF0FAF988
:1051B000204610BD10B50446FFF7B4FC014B236038
:1051C000204610BD88810208FFF77ABCF0207047A6
:1051D0004FF4A07070472920FCF7DAB82820FCF7BC
:1051E000D7B808B5FCF7A8F8CA20FCF7D1F8C32057
:1051F000FCF7B2F80820FCF7AFF85020FCF7ACF849
:10520000CF20FCF7C5F80020FCF7A6F8C120FCF77A
:10521000A3F83020FCF7A0F8ED20FCF7B9F86420E3
:10522000FCF79AF80320FCF797F81220FCF794F8A3
:105230008120FCF791F8E820FCF7AAF88520FCF71C
:105240008BF80020FCF788F87820FCF785F8CB2055
:10525000FCF79EF83920FCF77FF82C20FCF77CF84F
:105260000020FCF779F83420FCF776F80220FCF7F0
:1052700073F8F720FCF78CF82020FCF76DF8EA2093
:10528000FCF786F80020FCF767F80020FCF764F8CC
:10529000B120FCF77DF80020FCF75EF81B20FCF73E
:1052A0005BF8B620FCF774F80A20FCF755F8A2204A
:1052B000FCF752F8C020FCF76BF81020FCF74CF814
:1052C000C120FCF765F81020FCF746F8C520FCF774
:1052D0005FF84520FCF740F81520FCF73DF8C720A3
:1052E000FCF756F89020FCF737F83620FCF750F81A
:1052F000C820FCF731F8F220FCF74AF80020FCF750
:105300002BF8B020FCF744F8C220FCF725F8B620B3
:10531000FCF73EF80A20FCF71FF8A720FCF71CF862
:105320002720FCF719F80420FCF716F82A20FCF7D0
:105330002FF80020FCF710F80020FCF70DF80020F3
:10534000FCF70AF8EF20FCF707F82B20FCF720F811
:105350000020FCF701F80020FBF7FEFF0120FBF71F
:10536000FBFF3F20FBF7F8FFF620FCF711F80120C8
:10537000FBF7F2FF0020FBF7EFFF0620FBF7ECFF47
:105380002C20FCF705F8C820FCF750F82620FBF786
:10539000FFFF0120FBF7E0FFE020FBF7F9FF0F2004
:1053A000FBF7DAFF2920FBF7D7FF2420FBF7D4FF18
:1053B0000C20FBF7D1FF0E20FBF7CEFF0920FBF7F7
:1053C000CBFF4E20FBF7C8FF7820FBF7C5FF3C2042
:1053D000FBF7C2FF0920FBF7BFFF1320FBF7BCFF61
:1053E0000520FBF7B9FF1720FBF7B6FF1120FBF7ED
:1053F000B3FF0020FBF7B0FFE120FBF7C9FF00205F
:10540000FBF7AAFF1620FBF7A7FF1B20FBF7A4FF63
:105410000420FBF7A1FF1120FBF79EFF0720FBF7FD
:105420009BFF3120FBF798FF3320FBF795FF4220CD
:10543000FBF792FF0520FBF78FFF0C20FBF78CFF9B
:105440000A20FBF789FF2820FBF786FF2F20FBF7B8
:1054500083FF0F20FBF780FF1120FBF799FFC82087
:10546000FBF7E4FF2920FBF793FFBDE808402C2061
:10547000FBF78EBF08B5FBF75FFF0321D320FBF7D7
:10548000A3FF80B208BD10B5C4B20222032120469A
:10549000FBF708FF0A20FBF74DFF204600220321FF
:1054A000FBF700FFBDE810400220FBF743BF38B513
:1054B0000446E4B2FBF7F4FE00212046FBF70AFFA6
:1054C000012105462046FBF705FF40EA052080B292
:1054D00038BD10B5C4B240212046FBF7FBFE0306E1
:1054E00007D54C212046FBF7F5FE003818BF0120F8
:1054F00010BD01224B212046FBF7D4FE204600229E
:105500004B21FBF7CFFE0020F2E773B50423C4B2B2
:105510000E461546D7210DEB03022046FBF7F4FE9D
:10552000019B1BBA1A0DC3F30B23328020462B803C
:1055300001224B21FBF7B6FE00224B212046FBF750
:10554000B1FE02B070BD000010B50A4A137898424F
:1055500004460DD0517888420AD00BB141B90123DD
:10556000D454FBF79DFE2046BDE81040FFF78BBFEB
:1055700010BD00BF082C002010B5C4B20921204680
:10558000FBF7A8FE40F00102D2B220460921BDE897
:105590001040FBF787BE10B5C4B209212046FBF7C7
:1055A00099FE092100F0FE022046BDE81040FBF7FD
:1055B00079BE38B5C4B20D4620460A21FBF78AFEF3
:1055C00040EA0502D2B220460A21BDE83840FBF786
:1055D00069BE10B50446FBF764FE20461F21FFF7A5
:1055E000E8FF2046BDE81040FFF7C6BF38B5C4B29B
:1055F0000D4620460A21FBF76DFE20EA0502D2B2D5
:1056000020460A21BDE83840FBF74CBE10B50446E1
:10561000FFF7C1FF20461F21BDE81040FFF7E6BF9E
:1056200010B5C0B20C460B21FBF754FE204010BD54
:105630001F21FFF7F5BF0A46C0B20B21FBF732BEB0
:105640001F21FFF7F8BF38B5C4B20D462046172119
:10565000FBF740FE20EA0502D2B220461721BDE842
:105660003840FBF71FBE70B5C4B206460421204681
:10567000FBF730FE042100F0FB0205462046FBF755
:1056800011FE3046F021FFF7DEFF05F0F80220465C
:105690000421FBF707FE492220212046FBF702FEEA
:1056A0000220FBF747FE204601222121FBF7FAFDED
:1056B00020469A224121FBF7F5FD204601224A218E
:1056C000FBF7F0FD204601224B21FBF7EBFD2046C6
:1056D00000224B21FBF7E6FD204601225621FBF775
:1056E000E1FD204601225821FBF7DCFD2046012286
:1056F0004021FBF7D7FD2046FF220B21FBF7D2FD0F
:10570000BDE870400220FBF715BE0000054BD3F842
:10571000882042F47002C3F888204FF000629A603B
:10572000704700BF00ED00E008B50B4B1A6842F46B
:1057300000721A601A6842F480621A601A6842F4B1
:1057400080721A60032000F02FF80020FCF708F99F
:10575000FBF77AFE002008BD003C0240034A044BE0
:1057600011681B780B441360704700BF0C2C00209D
:105770007C000020014B1868704700BF0C2C0020F3
:1057800038B50446FFF7F6FF631C1CBF054B1B78BA
:10579000054618BFE418FFF7EDFF431BA342FAD3F9
:1057A00038BD00BF7C0000200749CA6822F4E062CF
:1057B0000302120403F4E063120C134343F0BF63CB
:1057C00043F40033CB60704700ED00E0164B30B57A
:1057D000DC68C4F30224C4F10703251D042B28BF91
:1057E0000423062D4FF0FF358CBF033C002405FA3F
:1057F00003F321EA0303A54022EA0502A34000289F
:1058000043EA0203ACBF00F16040084A4FEA0313C9
:10581000B8BF00F00F00DBB2AABF00F5614013541F
:1058200080F8003330BD00BF00ED00E014ED00E073
:10583000002807DB044A4109012300F01F008340D0
:1058400042F82130704700BF00E100E010B5044687
:1058500050B1437903F0FF0213B90271FBF714FE54
:1058600001236371002010BD0120FCE710B5044640
:1058700020B390F8393003F0FF021BB980F83820CC
:10588000FBF71AFE022384F83930236861681A682E
:1058900022F440320A431A605A6BA16822F00702D0
:1058A0000A435A631A6CE1686FF30D020A431A64E3
:1058B00000200123E06384F8393010BD0120FCE7AB
:1058C00070477047036870B55E681D68F20704464C
:1058D00014D5E90512D51A6822F480721A60C26BD9
:1058E00042F00102C26301229A60042380F8393039
:1058F000002380F83830436903B19847B20616D5C3
:10590000AB0414D523681A6822F400521A602022CE
:105910009A60E36B43F00203E363042384F83930B5
:10592000002384F8383063690BB12046984730076C
:1059300016D5290514D523681A6822F400621A6066
:1059400008229A60E36B43F00403E363042384F8C2
:105950003930002384F8383063690BB1204698470A
:1059600072070BD56B0509D523681A6822F480628B
:105970001A6004229A602046FFF7A2FFB00714D5F0
:10598000A90512D523681A6822F400721A6002224F
:105990009A60E36BE363012384F83930002384F8D1
:1059A000383023690BB120469847F20613D5EB0433
:1059B00011D523681A6822F480521A6010229A6066
:1059C000E36BE363012384F83930002384F8383033
:1059D0002046FFF776FF70BDF0B590F83820012A19
:1059E00003464FF002002BD0012283F8382083F8C1
:1059F000390003EB0112D2E90740556A174F44EA18
:105A00000040093C012C9CBF05F07F4210434FEA47
:105A100001161A6888BF40EA056091B9516A394099
:105A200001435162012C9969916103D8596A21F0AF
:105A30007F4191620122002083F8392083F83800E9
:105A4000F0BDD16939400143D1619919012C8969AF
:105A500011619CBF25F07F451562EBE7F0FFFC006C
:105A60002DE9F74FDFF8BC916C4A00230D68012443
:105A70009C4004EA0506AC4340F0B7804D6803271C
:105A800005F003044FEA430807FA08FC671E012FDC
:105A90006FEA0C0C34D8876807EA0C0ECF6807FA57
:105AA00008F747EA0E078760476827EA060EC5F33E
:105AB00000179F4047EA0E074760C76807EA0C0EC9
:105AC0008F6807FA08F747EA0E07022CC76019D15A
:105AD0004FEAD30A00EB8A0A03F0070BDAF82070CA
