:020000040800F2
:10000000000003206D0600080D1900080F190008F4
:100010001119000813190008151900080000000044
:10002000000000000000000000000000E17900086E
:100030001719000800000000717A00080773000813
:10004000BD060008BD060008BD060008BD06000884
:10005000BD060008BD060008BD0600081919000805
:100060001F190008BD060008BD060008BD060008EF
:10007000BD060008BD060008BD060008BD06000854
:10008000BD060008BD060008BD060008BD06000844
:10009000BD060008BD060008BD060008BD06000834
:1000A000BD060008BD060008BD060008BD06000824
:1000B000BD060008BD060008BD060008BD06000814
:1000C000BD060008BD060008BD060008BD06000804
:1000D000BD060008BD060008BD060008BD060008F4
:1000E00025190008BD060008BD060008BD06000869
:1000F000BD060008BD060008BD060008BD060008D4
:10010000BD060008BD060008BD060008BD060008C3
:10011000BD060008BD0600083D190008BD06000820
:10012000BD060008BD060008BD060008BD060008A3
:10013000BD060008BD060008BD060008BD06000893
:10014000BD060008BD060008BD060008BD06000883
:10015000BD060008BD060008BD060008BD06000873
:10016000BD060008BD060008BD060008BD06000863
:10017000BD060008BD060008BD060008000000001E
:10018000BD060008BD060008BD060008BD06000843
:10019000BD060008BD060008BD060008BD06000833
:0C01A00049190008BD06000855190008A8
:1001B00010B5054C237833B9044B13B10448AFF3A1
:1001C00000800123237010BD800300200000000088
:1001D000C449020808B5034B1BB103490348AFF3F8
:1001E000008008BD0000000084030020C44902080C
:1001F000034613F8012B002AFBD1181A0138704767
:1002000001F0FF01102A2BDB10F0070F08D010F8C7
:10021000013B013A8B422DD010F0070F42B3F6D1CB
:10022000F0B441EA012141EA014122F007047FF0E4
:1002300000070023F0E80256083C85EA010586EA3B
:10024000010685FA47F5A3FA87F586FA47F6A5FA77
:1002500087F68EB9EED1F0BC01F0FF0102F0070283
:1002600032B110F8013B013A83EA010313B1F8D12E
:100270000020704701387047002D06BF354603380F
:10028000073815F0010F07D1013015F4807F02BF48
:10029000013015F4C03F0130F0BC0138704700BF99
:1002A0007BB972B90029BEBF00204FF0004106E0C3
:1002B00008BF00281CBF6FF000414FF0FF3000F076
:1002C000D3B9ADF1080C6DE904CE002909DB002B90
:1002D0001ADB00F04DF8DDF804E0DDE9022304B09C
:1002E0007047404261EB4101002B1BDB00F040F8FE
:1002F000DDF804E0DDE9022304B0404261EB410196
:10030000524263EB43037047524263EB430300F0F6
:100310002FF8DDF804E0DDE9022304B0404261EB90
:1003200041017047524263EB430300F021F8DDF8CE
:1003300004E0DDE9022304B0524263EB430370475B
:1003400053B94AB9002908BF00281CBF4FF0FF313C
:100350004FF0FF3000F088B9ADF1080C6DE904CE24
:1003600000F006F8DDF804E0DDE9022304B0704790
:100370002DE9F047089D8E4604468846002B4AD159
:100380008A42174662D9B2FA82F64EB1C6F120030C
:1003900001FA06F820FA03F3B74043EA0808B4402C
:1003A0004FEA174E1FFA87FCB8FBFEF1230C0EFB39
:1003B000118843EA084301FB0CF29A4209D9FB1861
:1003C00001F1FF3080F0EA809A4240F2E780023982
:1003D0003B449A1AA3B2B2FBFEF00EFB102243EA92
:1003E000024300FB0CFC9C4509D9FB1800F1FF32CD
:1003F00080F0D6809C4540F2D3803B44023840EAEE
:100400000140A3EB0C0300211DB1F3400022C5E91C
:100410000032BDE8F0878B4205D90DB1C5E9000176
:1004200000210846F5E7B3FA83F1002946D1734568
:1004300002D3824200F20581841A6EEB030201208E
:100440009046002DE5D0C5E90048E2E7002A00F01B
:100450009080B2FA82F6002E40F0A4808A1A030C33
:100460004FEA174E80B2BCB20121B2FBFEFC0EFB7C
:100470001C2243EA024304FB0CF29A4207D9FB1800
:100480000CF1FF3802D29A4200F2E080C4469B1A77
:10049000B3FBFEF20EFB123340EA034302FB04F40B
:1004A0009C4207D9FB1802F1FF3002D29C4200F2B5
:1004B000CA8002461B1B42EA0C40A5E7C1F1200698
:1004C0008B4022FA06F71F430EFA01F420FA06F3D6
:1004D0002EFA06FE4FEA1749234300FA01F81FFAE5
:1004E00087FCBEFBF9F01C0C09FB10EE44EA0E443D
:1004F00000FB0CFEA64502FA01F209D93C1900F1F5
:10050000FF3A80F09C80A64540F2998002383C4436
:10051000A4EB0E041FFA83FEB4FBF9F309FB1344AA
:100520004EEA044403FB0CFCA44508D93C1903F132
:10053000FF3E80F08280A4457FD9023B3C4443EAE1
:100540000040A4EB0C04A0FB02EC64457346E146BA
:1005500062D35FD05DB1B8EB030264EB090404FA27
:1005600006F622FA01F31E43CC40C5E900640021DF
:100570004FE7B1FBF2FC010C41EA0E4180B240EAC8
:1005800001423B4638463C46B846BE462026B1FBB3
:10059000F7F1A2EB080241EA0C4166E7014618E7D1
:1005A00010462CE7C6F120022EFA02F3B740B14004
:1005B00020FA02F24FEA174E0A43B3FBFEF8BCB230
:1005C0000EFB1833110C41EA034108FB04F9B0405B
:1005D00089454FEA104380B23ED9791808F1FF3CB3
:1005E00001D289451FD8A1EB0901B1FBFEF909FB36
:1005F00004F80EFB191192B242EA0142424529D297
:10060000BA1809F1FF31C4D24245C2D2A9F10201A0
:100610003A44BEE7F0459DD2BEEB02036CEB070CFB
:100620000138E14696E7A7EB09094944A8F1020C15
:10063000B1FBFEF909FB04F8DBE773467FE75046A0
:1006400066E70846FDE63B44023A33E7ACF1020CAC
:100650003B441CE749469CE7A1EB0901C446B1FBBA
:10066000FEF909FB04F8C4E7704700BFDFF834D097
:10067000002103E00C4B5B58435004310B480C4BFA
:1006800042189A42F6D30B4A02E0002342F8043B98
:10069000094B9A42F9D304F085FA23F07DFA00F071
:1006A0006DFB70470000032058270408000000205D
:1006B0006401002080030020E8420120FEE72DE9CC
:1006C000F041054688B010222F1F0021684623F014
:1006D000BBF90C353B46002253F8041F29B108A88A
:1006E00000EB8200013240F8201CAB42F4D16E4690
:1006F000334603244FF0000853F8042B4AB119681D
:100700008A4206D1520043F8042C00221A604FF0AE
:100710000108013CF0D1102221460DEB020023F02C
:1007200093F9234656F8042B2AB108A901EB83015B
:10073000013341F8102C0134042CF3D104AB57F8E9
:10074000041F53F8042B91421CBF3A604FF001087C
:10075000AF42F4D1404608B0BDE8F081044A1368C6
:10076000013313600A2293FBF2F002FB1030704752
:100770009C03002010B50446FFF73AFD214682B2E3
:10078000BDE8104002484FF0FF3306F0D6BC00BF72
:10079000280400201FB502460449684623F0B2F839
:1007A0006846FFF7E7FF05B05DF804FB1C4A020846
:1007B000012805D0022805D030B90448FFF7DABF78
:1007C0000348FBE70348F9E70348F7E71F4A020835
:1007D000304A02083D4A0208504A02082DE9F34710
:1007E00004461848DFF86C90174FDFF86C80FFF76D
:1007F000C1FF04F10C054C344846FFF7BBFFDFF89E
:100800005CA0A5F1100656F8042FA2B94046FFF7E8
:10081000B1FF5046FFF7AEFFAE42F4D10B4806F1F0
:100820001005FFF7A7FFA542E6D1094802B0BDE8D1
:10083000F047FFF79FBF3946684623F063F86846E4
:10084000E5E700BF614A02087D4A02081C59020818
:10085000854A0208824A0208784A0208814A020848
:1008600070B5044600F1400600252046FFF727FF3B
:100870001034002818BF0546B442F6D1284670BD92
:100880007FB5044600F140060025E3680093A368A5
:10089000019363680293684623680393FFF70FFF91
:1008A000009BE360019BA360029B6360039B44F891
:1008B000103B002818BF0546B442E6D1284604B0D4
:1008C00070BD7FB5041F00F10C06002554F8043FED
:1008D000009323690193236A02936846236B039371
:1008E000FFF7EDFE009B2360019B2361029B2362C7
:1008F000002818BF0546039B2363B442E6D128466F
:1009000004B070BD7FB5041F00F10C060025636BB9
:100910000093636A019363690293684654F8043F45
:100920000393FFF7CCFE009B2363019B2362029B92
:100930002361002818BF0546039B2360A642E6D129
:10094000284604B070BD000070B50021A0B0044678
:100950000D4604EB0110002350F823202AB920AAE9
:1009600002EBC50242E9201301350133042BF3D118
:1009700001310429EDD1002D2CDDFFF7EFFE90FBB6
:10098000F5F303FB150020AB03EBC00050E9206535
:10099000FFF7E4FE04EB06140828D8BF022144F850
:1009A00025100D48FFF7E6FE54F82500FFF7F2FE8C
:1009B0000A48FFF7DFFE3046FFF7ECFE0848FFF776
:1009C000D9FE2846FFF7E6FE064820B0BDE8704095
:1009D000FFF7D0BE0448F8E79A4A0208AD4A020879
:1009E000BC4A020862590208BE4A020808B5144807
:1009F000FFF7C0FE0021134B0A4601310429C3E969
:100A00000022C3E9022203F11003F6D10E4B0F4876
:100A10001A70FFF7AFFE0E48FFF7ACFE0948FFF76C
:100A200093FF0848FFF790FF0648FFF7D7FE0548F9
:100A300003F008FDBDE808400648FFF79BBE00BF75
:100A4000E74A0208A4030020A00300201F4A02086E
:100A5000024B02081E4B020870B5002500EB05167C
:100A6000002456F82430B3F5006F17DB0F48FFF76A
:100A700081FE56F82400FFF78DFE0D48FFF77AFE41
:100A80002846FFF787FE0B48FFF774FE2046FFF766
:100A900081FE0948FFF76EFE012070BD0134042C71
:100AA000DFD10135042DD9D10020F6E73F4B0208F4
:100AB0005A4B0208BC4A02086259020810B500F1FC
:100AC0000C0200244C30A2F1100353F8041F01B9AA
:100AD00001349342F9D103F110028242F3D1074865
:100AE000FFF748FE2046FFF755FE0548FFF742FE98
:100AF000002CD4BF0020012010BD00BF604B0208B5
:100B00001C59020870B500F10C0200F14C050024DC
:100B1000A2F10C03196853F8046FB14201D101B17D
:100B200001349342F6D103F11002AA42F0D100F150
:100B3000300501460023103051F8232050F823607F
:100B4000B24201D102B101340133042BF4D1A842E5
:100B5000EFD10748FFF70EFE2046FFF71BFE0548C2
:100B6000FFF708FE002CD4BF0020012070BD00BF9D
:100B70006E4B02081C59020810B50446FFF79EFF91
:100B800020B10848FFF7F6FD002010BD2046FFF712
:100B9000B9FF08B10448F5E70448FFF7EBFD012071
:100BA000F3E700BF804B0208A84B0208C94B0208BC
:100BB00038B504462F48FFF7DDFD2F48FFF7DAFD73
:100BC000032C12D8DFE804F0020B0D0F2B482C4D3C
:100BD000FFF7D0FD2B78022B0CD12A4806E02A48DB
:100BE000F5E72A48F3E72A48F1E72A48BDE8384004
:100BF000FFF7C0BD012B02D12748FFF7BBFD022C38
:100C000026482ED0032C2FD0012C27D0FFF728FE0A
:100C100068B32348FFF7AEFD2048FFF795FE2B7819
:100C200043B91E48FFF718FF20B101231D482B7060
:100C3000FFF7A0FD1948FFF79FFF20B102231A48D4
:100C40002B70FFF797FD2878FFF7B2FD1348FFF7E9
:100C5000C5FDBDE83840114803F0F4BBFFF710FEB6
:100C6000D6E7FFF72EFED3E7FFF74CFED0E70F489D
:100C7000BCE700BFFC4B0208154C0208214C0208DF
:100C8000A0030020464C0208284C0208304C020801
:100C9000354C02083C4C0208724C0208A4030020A8
:100CA000974C0208BF4C0208EC4C0208184D020891
:100CB00007B5064BADF806001B68054801220DF18B
:100CC000060105F0A9FD03B05DF804FB0400002057
:100CD0007004002008B5642006F092FBFBE70000DA
:100CE00030B595B0102200210AA822F0ADFE1422E2
:100CF000002103A822F0A8FE00241E4B01941A6CC8
:100D000042F080521A641B6C03F080530193019BE4
:100D1000194B02941A6842F440421A601B6803F4AB
:100D2000404302930122029B4FF48033CDE9082314
:100D300002254FF480030821CDE90E534FF4B4731C
:100D4000CDE9101308A804231393129505F00CF8AD
:100D500004F0D0FF0F23CDE903354FF4A0504FF43A
:100D60008053CDE90603052103A8059405F0D8F9C1
:100D700015B030BD003802400070004080B59AB018
:100D800003F01EFFFFF7ACFF142200210DA822F094
:100D90005BFE0024CA4B00941A6BCA48DFF86093CC
:100DA00042F010021A631A6B02F010020092009ACD
:100DB00001941A6B42F020021A631A6B02F02002AF
:100DC0000192019A02941A6B42F080021A631A6B24
:100DD00002F080020292029A03941A6B42F004021B
:100DE0001A631A6B02F004020392039A04941A6BBA
:100DF00042F001021A631A6B02F001020492049A93
:100E000005941A6B42F002021A631A6B02F0020296
:100E10000592059A06941A6B42F040021A631A6B07
:100E200002F040020692069A07941A6B42F00802FA
:100E30001A631B6B03F00803224607933C21079BB0
:100E400004F044F9A0480122022104F03FF92246AF
:100E50009D48042104F03AF922469C484FF4405141
:100E600004F034F901263C23CDE90D3695480F9462
:100E700003230DA90227109304F03EF892480DA910
:100E8000CDE90D76CDE90F4404F036F804238E4801
:100E90000DA9CDE90D36CDE90F474FF4881804F0C0
:100EA0002BF806238A480F970DA9CDE90D384FF48A
:100EB000405504F021F887480F970DA9CDE90D584A
:100EC00004F01AF88148DFF83C820DA9CDE90D56EF
:100ED000CDE90F4704F010F822460521072003F062
:100EE000C1FE072003F0F0FE22460521082003F092
:100EF000B9FE082003F0E8FE22460521282003F071
:100F0000B1FE282003F0E0FE7348744B744D03607B
:100F100003F0E8FE734B2C62C5E9008328464FF4CA
:100F20008043C5E90434C5E90244C5E9064404F038
:100F3000E7FA1021284604F02BFD214628466A4D89
:100F400004F045FD4FF48273C5E900934FF4007A35
:100F50001823C5E906A328460A23C5E90244C5E9C2
:100F60000444C5E90844AC62EB6205F0F9FB8F2349
:100F70002246394654488DF824308DF8344004F028
:100F8000A5F832464FF47A7309A9284605F044FCC7
:100F90004FF47A7332460DA9284605F0E9FD324632
:100FA00039464948514D04F091F89DF83430D32B1F
:100FB00004BF4F4B1E704F4B0126C5E9003610226F
:100FC00040230024C5E904234FF4C073C5E9063467
:100FD0004FF40063C5E908344FF4005302274FF083
:100FE0000409AB624FF0030A07230DA92846CDE997
:100FF0000D73CDE90F934FF00808C5E90249CDE91B
:1010000011A7139705F090FA4FF6FF7209A9284629
:10101000CDE90A86089409960C9405F0A5FA3046A5
:1010200003F0FAFD4FF6FF7209A92846CDE90978C9
:10103000CDE90B6405F098FA4FF6FF7209A928462E
:10104000CDE909A8CDE90B9405F08EFA4FF40C73A5
:101050000893089B0C934FF6FF7209A92846CDE927
:1010600009980B9605F080FA40F26A51284605F07F
:1010700099FA34220DEB0200214622F0E5FC1E4DC8
:101080001E4B2C61C5E900340923C5E905361D2333
:10109000C5E9073A40F20D1140F24313C5E90913BF
:1010A00040F2171040F24713C5E90B032846C5E983
:1010B0000244AC8685F8364004F01CFD24E000BFF5
:1010C000003802400010024000080240000C0240BC
:1010D00000000240000402400406002000300240EC
:1010E00070050020A086010070040020F403002099
:1010F000E8030020400100A0C8040020006801406F
:1011000000500140005C0040FF214FF4806CF02251
:10111000CDE912140521CDE914C14FF4A0730DA936
:10112000CDE90E24CDE9164228462246244D1893D7
:10113000CDE910370D94ADF864408DF8664004F0A9
:101140008DFD204B2B601B6898472B681E4DDB687C
:1011500098471E4B2846C5E90034C5E90274C5E925
:101160000A47C5E90C4403F0CDFD3146284603F09B
:101170007FFEDFF878E016484FF4E133C0E900E382
:101180000C23C0E90534C0E902440461C46105F0E0
:10119000A5FF00F05AFC00F057FC06F0C1F80D4A1C
:1011A0000D48214606F0E8F80C4B0D4A1860214620
:1011B0000C4806F0E1F80C4B186006F0C3F8FEE7A7
:1011C000E403002014000020C405002000B0024009
:1011D00028040020645A0208D50C0008F0030020FF
:1011E000405A0208591A0008EC0300200010014080
:1011F000704770477FB5094B8DF817201B68029325
:101200000DF117020123009201930A46014604489A
:1012100004F01EFA07B05DF804FB00BF08000020D0
:10122000700500207FB500238DF81730084B1B6830
:1012300002930A4601230DF1170100910193014623
:10124000044804F095FA9DF8170007B05DF804FB18
:1012500008000020700500201FB5084C246800928B
:10126000CDE901340A4601230146054804F080FA1D
:10127000003818BF012004B010BD00BF08000020D6
:101280007005002003F0C8BC10B5064C00222046B3
:10129000042103F01BFF20460122BDE81040042179
:1012A00003F014BF0008024038B50B4D044601227C
:1012B0000A484FF4005103F009FF00220421284698
:1012C00003F004FF2046FFF7F3FC28460122BDE8A7
:1012D0003840042103F0FABE00080240000C02402E
:1012E00038B50B4D044600220A484FF4005103F074
:1012F000EDFE00220421284603F0E8FE2046FFF719
:10130000D7FC28460122BDE83840042103F0DEBEA8
:1013100000080240000C0240F7B5144E144F054679
:101320000C4630460022042103F0D0FE00224FF488
:101330000051384603F0CAFE2846FFF7B9FC0D4BB2
:101340000D481B68224601A905F012FC384601220F
:101350004FF40051019C03F0B9FE304601220421F4
:1013600003F0B4FE204603B0F0BD00BF0008024009
:10137000000C0240040000207004002003F04CBC6C
:101380000268034B9A4201D103F034BC704700BF9E
:10139000001000407047000082B00E4B0022009207
:1013A000596C41F480415964596C01F480410091B9
:1013B00000990192196C41F0805119641B6C03F083
:1013C00080530193019B0F216FF0010002B003F0E5
:1013D00049BC00BF003802400268094B9A4282B003
:1013E0000BD100230193074B1A6B42F480521A630E
:1013F0001B6B03F480530193019B02B0704700BF45
:10140000003002400038024007B50F4B02689A4294
:1014100016D10022A3F5F0430192196B41F40001AB
:1014200019631B6B03F40003019305215A20019BF0
:1014300003F018FC5A2003B05DF804EB03F044BC41
:1014400003B05DF804FB00BF00B002402DE9F0439B
:10145000044689B01422002103A822F0F5FA22687C
:10146000244B9A4243D1244C244800250095236BF9
:1014700043F004032363236B03F004030093009BF6
:101480000195236B43F001032363236B03F00103F6
:101490000193019B4FF012094FF400734FF00108C4
:1014A0000327042603A9CDE90339CDE9058707966B
:1014B00003F022FD4FF480731148079603A9CDE98C
:1014C0000339CDE9058703F017FD0295236C43F43A
:1014D00000032364236C03F400030293029B236A3A
:1014E00043F400032362236A23F40003236209B058
:1014F000BDE8F083005C0040003802400008024074
:1015000000000240F0B599B004461422002107A85B
:1015100022F09AFA30220DEB0200002122F094FA18
:1015200022685E4B9A4240F0B78008230C93C02398
:101530001093042312930CA84FF40033159304F076
:10154000C7FE08B1FFF726FF554B5648002400940C
:101550005A6C42F080625A645A6C02F080620092C7
:10156000009A01941A6B42F020021A631A6B02F07F
:1015700020020192019A02941A6B42F001021A634E
:101580001A6B02F001020292029A03941A6B42F063
:1015900002021A631A6B02F002020392039A049485
:1015A0001A6B42F040021A631A6B02F04002049276
:1015B000049A05941A6B42F004021A631A6B02F043
:1015C00004020592059A06941A6B42F008021A6307
:1015D0001B6B03F00803069302250E26069B0B9651
:1015E0004FF4806307A9CDE90735CDE9094503F03C
:1015F00083FC41F658032C480B9607A9CDE9073523
:101600000927CDE9094503F077FC032327480B9709
:1016100007A9CDE90735CDE9094503F06DFC4FF485
:10162000706322480B9607A9CDE90735CDE9094536
:1016300003F062FC4FF40C631D480B9607A9CDE93B
:101640000735CDE9094503F057FCC02319480B962F
:1016500007A9CDE90735CDE9094503F04DFC08237D
:1016600015480B9607A9CDE90735CDE9094503F0E3
:1016700043FC4FF4A0530E480B9707A9CDE907355B
:10168000CDE9094503F038FC58202246052103F036
:10169000E9FA582003F018FB19B0F0BD00680140CA
:1016A00000380240001402400000024000040240E2
:1016B0000018024000080240000C024010B5044629
:1016C00088B01422002103A822F0BEF92268144B2E
:1016D0009A4223D103F56843002101915A6C1148C5
:1016E00042F480125A645A6C02F480120192019AF8
:1016F00002911A6B42F020021A631B6B03F0200365
:101700000293029B4FF4607202230321CDE903236D
:101710000523CDE9061303A903F0EEFB08B010BDC5
:10172000005001400014024010B5044688B0142255
:10173000002103A822F088F92268144B9A4223D191
:1017400003F59433002101915A6C114842F01002C4
:101750005A645A6C02F010020192019A02911A6BBB
:1017600042F001021A631B6B03F001030293029B18
:101770004FF4C06202230321CDE903230723CDE9FF
:10178000061303A903F0B8FB08B010BD0010014018
:10179000000002402DE9F04186B0002303932B4B5B
:1017A0001C68002C4FD14FF00108C3F80080284B73
:1017B00000949A6B274842EA08029A639B6B03EAFB
:1017C00008030093022703260C25009B01A94FF66E
:1017D0003F03CDE90137CDE9046503F08DFB1E48D9
:1017E000059501A9CDE90187CDE9034603F084FB06
:1017F00048F233131948059501A9CDE90137CDE920
:10180000034603F079FB4FF683731548059501A94C
:10181000CDE90137CDE9034603F06EFB4CF20373CB
:101820001048059501A9CDE90137CDE9034603F03C
:1018300063FB60230C48059501A9CDE90137CDE98B
:10184000034603F059FB06B0BDE8F0810C0600200A
:101850000038024000140240000802400018024014
:1018600000100240000C02400004024070B588B035
:1018700000230293204B1A6C42F010021A641B6C76
:1018800003F010030293054601A903A8029B04F08C
:1018900001FD069B4BBB04F0DDFC184E184B33607A
:1018A00040F2E733F360174BB0FBF3F3013B736097
:1018B000304600233361B360B36105F023FB044677
:1018C00080B9304605F0F8F9044658B9362003F0DF
:1018D000FBF90F2D0DD822462946362003F0C2F918
:1018E000094B1D60204608B070BD04F0B3FC4000F9
:1018F000D3E70124F6E700BF0038024010060020BD
:101900000010004040420F007C0000207047FEE7BE
:10191000FEE7FEE7FEE77047022003F0E5BB042088
:1019200003F0E2BB08B54FF4805003F0DDFBBDE8E7
:1019300008404FF4005003F0D7BB0000014805F009
:10194000F9B900BF10060020014804F02AB900BF11
:10195000C8040020014803F001BA00BFC4050020FC
:1019600070B50F4E044603F051F93368C31AC82B03
:10197000054606D9B4F5805F04D10020FFF718F9B9
:10198000356070BDB4F5005F01D10120F6E7022C8F
:1019900001D12046F2E7042CF2D10320EEE700BF8C
:1019A000580600200120704708B522F0EFF81623F2
:1019B00003604FF0FF3008BD08B522F0E7F81623AA
:1019C0000360FEE770B50D4614460E46731B9C423D
:1019D00001DC204670BDAFF3008006F8010BF5E78F
:1019E00070B50D4614460E46731B9C4201DC204622
:1019F00070BD16F8010BAFF30080F5E74FF0FF3034
:101A000070474FF400534B6000207047012070472F
:101A1000002070470A4A116808B5034609B9094908
:101A200011601068694603448B4206D922F0AEF873
:101A30000C2303604FF0FF3008BD1360FCE700BFCC
:101A40005C060020E8420120704708B500F0B8FDB0
:101A5000BDE8084000F03EBD00F0B4BD704710B5D1
:101A60000421044620F04DFE204610BD38B50C4B35
:101A70000C4C18800C4B822019806368984740F604
:101A8000110398420AD1094D23682C60822098479F
:101A90002B688220DB689847002038BD0120FCE7D6
:101AA0006A0600204C000020680600206C0600201A
:101AB0004FF4A071F020FFF7D9BF0000F7B5394D02
:101AC0002B6804461B6982209847208000284ED04E
:101AD0002B680DF106025B6901A982209847324B01
:101AE0001B78002B4BD0BDF8062040F674639A4259
:101AF0003FD9ADF80630BDF806209B1A9BB20A2BE1
:101B000042D90B22B3FBF2F3284A1288934201D93F
:101B1000013A93B2BDF80420254840F6B8318A4214
:101B200034D8C2F571620E32016892B20F25B2FB51
:101B3000F5F2204D2D88AA4284BF05F1FF35AAB2E7
:101B40008A4215468EB22AD9921B91B21A4E376834
:101B5000BB42BAB28CBF9A1AD21A92B2114405296A
:101B6000C4BF05603360036863803368A38003B03B
:101B7000F0BDB32A9CBFB422ADF80620BBE7BDF888
:101B80000630A3F5B473B9E70023C3E7C2F56D626D
:101B9000083292B20E2A0168C8D800252A46891A4E
:101BA00089B2D3E76C060020E80300206806002015
:101BB000640600206A0600206006002037B56846EB
:101BC0000D461446FFF77AFFBDF8000030B1BDF8AE
:101BD00002302B60BDF804302360012003B030BD1B
:101BE000032821D8DFE800F0020B12190F4B1A6806
:101BF000B2FA82F2520904210D4803F067BA0B4B86
:101C00005A68B2FA82F252090821F5E7074B9A683E
:101C1000B2FA82F252091021EEE7044BDA68B2FA06
:101C200082F252092021E7E7704700BF70060020CA
:101C300000100240032821D8DFE800F0020B12193F
:101C40000F4B1A68003A18BF012204210D4803F017
:101C50003DBA0B4B5A68003A18BF01220821F5E73C
:101C6000074B9A68003A18BF01221021EEE7044B97
:101C7000DA68003A18BF01222021E7E7704700BF69
:101C8000700600200010024003280DD8DFE800F0A5
:101C90000206080A0421054803F01DBA0821FAE7E4
:101CA0001021F8E72021F6E7704700BF001002403E
:101CB00008B5032811D8DFE800F0020A0C0E042151
:101CC000074803F0FDF9431E5842584108BD08215A
:101CD000F6E71021F4E72021F2E70020F3E700BF48
:101CE0000010024070B5084D00240126E0B2FFF755
:101CF000DFFF18B12B68012B18BF2E600134052CB3
:101D000005F10405F2D170BD70060020012380F8B2
:101D1000781080F8793070477047002070470000D5
:101D2000034B4164003918BF01211970704700BF8F
:101D3000A7350120704700207047836B0BB1084620
:101D4000184770474FF6FF707047406803689B69FB
:101D500018477047704770477047704710B5044682
:101D600000F046FD23680349D3F890302046BDE8D3
:101D700010401847000000D008B503680446D3F8A7
:101D80008430984723682046DB6F984700F0ECF8D2
:101D9000236820465B6F98472920FFF7A1FA00F0DF
:101DA000E3F8236820465B6F9847F8E710B50446D0
:101DB00008F00CFC23682046D3F8BC30BDE8104086
:101DC000184700F0F9BC00F0FDBC00F02FBD00F09A
:101DD000CFBC00F03FBD00F047BD00F0D3BC07F022
:101DE00023BE10B58421044620F08BFC204610BD94
:101DF00010B590F8341090F878400C4B8C421A785B
:101E000009D03AB90A4A0B491488088810800C8016
:101E100001221A7010BD002AFCD0054A0549148819
:101E2000088810800C800022F3E700BFA035012055
:101E30009C3501209E35012070B50D46194635B9F7
:101E4000094B0A4A0A4840F2FF2121F097FBC0E9FA
:101E50000F52084B003A18BF01221A700368BDE800
:101E60007040D3F8903018474C4D0208844D02085A
:101E7000D24D0208A635012008B5094B1B888B42BC
:101E800003D8084B1B88934205D9074B074A0848DB
:101E9000A32121F073FB074B1980074B1A8008BD63
:101EA0009C3501209E350120174E02087A4E02080B
:101EB000D24D0208A2350120A4350120034690F836
:101EC0007A0018B1586803681B681847704700000B
:101ED000012108B50022084605F09EFA0A4B186059
:101EE00028B90A4B0A4A28210A4821F047FB002258
:101EF0000421012005F02FFB074B186018B9074B90
:101F0000034A2C21F0E708BD84060020BD4E0208DC
:101F1000064F0208354F0208800600207B4F02085A
:101F2000024B4FF0FF31186805F0C0BA840600205C
:101F3000014B186805F0E6BA84060020024B002128
:101F4000186805F0B3BA00BF84060020FFF7F0BFA1
:101F500003480449006800231A4605F037BB00BF58
:101F6000800600200C00002013B5084C00231A4600
:101F700001A9206805F05BFB20684FF0FF330022C9
:101F800001A905F054FB02B010BD00BF800600207F
:101F900003685B6C18470120704703689B6A184709
:101FA000FEE740F2EF307047054B0360054B4FF002
:101FB0008062C3F88820BFF34F8FBFF36F8F7047E5
:101FC000945B020800E100E010B504464FF45A614A
:101FD000FFF7EAFF204620F094FB204610BD0000EA
:101FE00082B0002301930E4B1A6B42F400021A6375
:101FF0001A6B02F400020192019A1A6942F400027B
:102000001A611A6922F400021A61064B064A1A6123
:10201000064A5A61064B4FF080629A6002B07047E0
:1020200000380240C405002081220008A11F0008DA
:1020300000E100E008B50A2809D8DFE800F0061042
:102040000E080808081010101000022008BD054BEB
:10205000054A0648902121F091FA0020F6E7012078
:10206000F4E700BFBD4F0208D84F02082350020812
:1020700038B50C46887FFFF7DDFFA58AE28A164B4C
:102080002169586342EA05425A64628BD963521B44
:102090001A642568082D0ED19A611A615862207F52
:1020A0000E4A42EA0062DA61E2681A620C4A596139
:1020B000D9601A6038BD0022D8611A61E1680A0A45
:1020C000480902F4784200F4FC600243C1F3C40101
:1020D0000A439A63034AECE700B00240090001009A
:1020E000012302000123030008B50B280BD8DFE809
:1020F00000F00612100A0A0A0A0808080808022056
:1021000008BD0520FCE7054B054A06486F2121F074
:1021100035FA0020F4E70120F2E700BFBD4F0208C6
:1021200067500208235002082DE9F04191F81D8004
:102130000C464046FFF7D8FFA77F05463846FFF715
:10214000D3FF06463846FFF775FFA18A628B444BE2
:10215000521A1A649A61228B521A1A61E28A5863DF
:1021600042EA01425A6421696268D963DA602068F0
:10217000802828D0227F0FD8202867D0402865D01B
:1021800004281AD0364B45EA026545F40035B845B7
:10219000DD6161D0334A44E0B0F5807F04D0B0F512
:1021A000007FEFD1304800E0304840EA0262DA6157
:1021B000E2681A625E62596132E045EA026242F404
:1021C0000032DA61F6E7A068021DDA62227F45EA92
:1021D000026545F40035DD615E625961017841B107
:1021E000012921D0224B234A23484FF48D7121F03D
:1021F000C5F9DA69418822F47F42013922F01002E0
:1022000042EA0122DA610121154BDA6942F020022B
:10221000DA61DA699206FCD410229A600029B9D0FA
:10222000164A1A60BDE8F081B2F1FF01DA69408810
:1022300022F47F4200F1FF3022F0100242EA002235
:1022400042F0100218BF0121DA61DDE745EA0262BF
:10225000034B42F40032B4E742F20132E1E700BF3F
:1022600000B0024001230100090002000A00020040
:10227000B1500208CB50020823500208012302008B
:10228000024B1B68586803685B691847A835012032
:1022900070B5044625460A4B0C3000266060267255
:1022A000667245F8203B6022294608F0E5FA04F5FD
:1022B0005A63EE6024359D42FBD1204670BD00BFBD
:1022C000945B0208034B1A68D207FCD423229A605D
:1022D000704700BF00B002407047000030B50F4C9F
:1022E0002568ED07FCD423250904A56041F0010110
:1022F0000225FF2B65636164E0630AD008496562CB
:1023000041EA0363E361074B22626061E06023609E
:1023100030BDE561039BA363034BF8E700B00240C7
:1023200009000100010002000100030030B50E4C5D
:102330002568ED07FCD423251204A56042F00102B4
:102340000225FF2B65636264E063E16008D01B0631
:1023500043F00213E361054B65626061236030BDA9
:10236000034BE3610123F9E700B0024001000200E2
:10237000020002FF30B50B4C2568ED07FCD4232585
:1023800012041B06A56043F40033022542F001024B
:1023900065636264E063E160E361034B6562606111
:1023A000236030BD00B002400100020001207047F0
:1023B0000C2070470C2303FB0100083070470C23EE
:1023C00003FB0100083070470120704740F6C470DD
:1023D000704740F6C47303FB01000830704740F6B5
:1023E000C47303FB010008307047012070471020C0
:1023F000704700EB01100830704700EB0110083007
:102400007047084600F0B4BC10B5034B03600446A7
:1024100007F061F8204610BD4C5C020810B5044678
:10242000FFF7F2FF2046142120F06BF9204610BD83
:1024300010B5034B0360044607F04DF8204610BD6D
:10244000185C020810B50446FFF7F2FF204640F67C
:10245000CC7120F056F9204610BD000010B5034B9A
:102460000360044607F037F8204610BDE45B02081D
:1024700010B50446FFF7F2FF2046182120F041F97D
:10248000204610BD10B5084B0360044600F6F870F6
:10249000FFF7BAFF04F12C00FFF7CAFF04F11400A4
:1024A000FFF7DCFF204610BD805C020808B502483B
:1024B000FFF7E8FF08BD00BF6015002010B5044617
:1024C000FFF7E0FF204641F26C1120F01AF9204698
:1024D00010BD00002DE9F34100F0C0FA054600F000
:1024E000C1FA00240146234628462246009410F0F3
:1024F000ABFF264B264A1A60204601F09DFE254D73
:10250000254B264A26489A6010F006FF2B68BFF339
:102510005B8FDB0733D4284620F0F5F878B3214CE5
:10252000214B236004F1140000F6FC7604F12C0822
:1025300004F6F8776060C4F80880E760266106F06A
:10254000CBFF1A4B6361404606F0C6FF184BE362AF
:10255000384606F0C1FF174BC4F8F83F301F01F0B2
:10256000B5FF2246311F304601F0E0FE304600F054
:10257000FFFB114821F020F8284620F0D0F80F4842
:1025800002B0BDE8F041FFF7E9BB00BF0C36012007
:102590000C0700205C1500202C07002010070020ED
:1025A0001000002060150020805C0208E45B020837
:1025B000185C02084C5C0208AD2400088806002064
:1025C000704700000148FFF7D7BB00BF8806002016
:1025D00070B5264E264C274D274B23603046FFF71B
:1025E00057FE284616F036F824480EF0DDFB244B43
:1025F0002448DC6000224FF48071C3E912122249A2
:102600001A86C3E91A12214983F85820C3E91E012A
:102610001F49C3F880101F491F480B60F021C3E910
:102620000422C3E90622C3E90822C3E90A22C3E956
:102630000E22C3E91022C3E91422C3E917225A6605
:1026400083F870205A67C3E901650180134801804F
:1026500013484FF4A07101801248018012490A709A
:10266000012283F83420114A1A6070BDB807002097
:10267000581500202C070020905A0208100700204F
:102680008806002000000101010000010004500044
:102690001A001400A83501209C350120A235012024
:1026A0009E350120A4350120A0350120A85A02083A
:1026B0000148FFF779BC00BFB80700200020704731
:1026C00081807047C18070470181704741817047A8
:1026D0007047704770477047704710B4C4880368EC
:1026E000121B84885B6D091B12B25DF8044B09B2A2
:1026F00018474FF6FF7383814FF0FF33036213686F
:10270000C36110607047002070478B888380012070
:102710007047704780F82610704790F82600704781
:1027200010B50022B1F90840B1F90A1002804280C8
:102730008480C18010BD0022028042808280C280DD
:1027400070470177704780ED080A704780F82410C1
:10275000704780F825107047012070479830704707
:102760008C30704784307047704770477047000066
:10277000034B902283F85A2383F85823704700BFF5
:1027800000E100E0094A0A49D3680A48C3F30A0392
:10279000013B9BB20B801169C1F30A010139018031
:1027A0001364536B43F001035363704700680140A7
:1027B000CE260020CC260020014BD3F8AC00704779
:1027C00000680140024B0122C3F8AC105A62704706
:1027D0000068014010B52C2104461FF092FF2046EE
:1027E00010BD10B5BC2104461FF08BFF204610BD64
:1027F00070B5044607F06DF923689D6E0DF052F830
:1028000001462046A8472368054AD3F88C50204645
:10281000AC460023BDE87040A2F51631604700BF0A
:1028200000B004D007F03CB907F046B907F002B990
:1028300007F071BA90F8252012B103685B69184758
:10284000704790F825201AB190F8242002B1186042
:1028500070470000034B4FF080629A604FF0807227
:102860009A60704700E100E0084B4FF08062C3F8C7
:102870008820BFF34F8FBFF36F8F4FF08072C3F884
:102880008820BFF34F8FBFF36F8F704700E100E0E8
:1028900070B50023124E8380124B0360336893F8A7
:1028A000582005460AB1D86C00B998680368DB6AFD
:1028B00098473368B0FA80F4D86C640930B1036883
:1028C000DB6A9847002808BF44F001042CB9064B86
:1028D000064A07482C2120F051FE284670BD00BF53
:1028E000A8350120945C02080951020867510208CA
:1028F000A051020870B5254E3568BFF35B8F15F007
:10290000010540D130461FF0FEFE00283BD0204C90
:10291000204B256104F13400C4E90035C4E90255B7
:10292000E584A562A5850EF024FD04F1580009F0A8
:1029300057FC194BA3652046184B40F8843BFFF722
:10294000A7FF174BC4F884302433C4F88C304FF4FD
:10295000C803C4E928350023C4F8AC30C4F8B0304B
:10296000C4F8B430C4F8B8300E480F4BC4F89050D7
:10297000C4F89C50C4F8A850C4F8983020F01CFE4D
:1029800030461FF0CCFE024870BD00BFD0260020AC
:10299000D4260020A0630208B45C02082C5D020863
:1029A000546302086D2700083463020838B5184CD8
:1029B00023685BB3174B184A1B6C11888B4216D1E6
:1029C000164B198803F078F9236893F86A200025DC
:1029D000013283F86A2083F87C50FFF7B9FA206847
:1029E00007F0F4FD2846BDE83840FFF7F9B803F0DA
:1029F00063F92468236820461B6A9847012384F8FA
:102A00007C300020BDE83840FFF714B938BD00BF66
:102A1000A835012000680140CE260020CC260020E9
:102A2000704710B5042104461FF06BFE204610BD10
:102A300008B503290FD8DFE801F00602060A01F005
:102A400047FC406808BD01F043FC0068FAE701F06C
:102A50003FFC8068F6E70020F4E70000004870477C
:102A6000845D02080620704713B5002451B1036845
:102A700001948DF8034001AA9C680DF10303A0475F
:102A800002B010BD0846FBE7C0897047008A704756
:102A9000C088704780887047807A00F07F00704758
:102AA000807AC00970470020704700009FED010A3E
:102AB000704700BF00000000704710B508210446B1
:102AC0001FF01FFE204610BD7047704700F5987339
:102AD0000868496803C37047704770474160704792
:102AE00070477047064BC0F84C310023C0F8503196
:102AF00000F5A273C0F84801C0F84031704700BF2C
:102B0000A52B0008012303727047704710B4C268F8
:102B100041685410034601EB6200D20748BF0A59CE
:102B20009B685DF8044B48BFD3581847034640687C
:102B300030B19A681AB9D86800F0010070470120D6
:102B4000704710B50C2104461FF0DBFD204610BD78
:102B500010B5102104461FF0D4FD204610BD10B55D
:102B60004FF4AE7104461FF0CCFD204610BD10B5E9
:102B70000CF098FE0368BDE81040DB6B184710B5F9
:102B80000446D0F8400158B10368DB68984738B173
:102B9000D4F8400103689B6898470023C4F840318B
:102BA00010BD00002DE9F14FD0E9556A0746B06825
:102BB00003681B6A984740F6C373984205D8444B94
:102BC000444AA321444820F0D9FC706803681B6A7A
:102BD00098470F2803D8414B3E4AA421F2E7F068FA
:102BE00003681B6A98470B2803D83D4B394AA52137
:102BF000E8E70CF057FEDFF8F09004300CF090FEA0
:102C0000D9F8000010B10368DB689847D9F80000D4
:102C100010B103681B689847DFF8D080D8F800002F
:102C200010B103685B699847D7F83C0110B103689D
:102C30005B689847D8F8000010B103681B68984794
:102C4000D7F83C0110B103689B689847F0680368A7
:102C500000215B6A98474FF0000B224BC0F804B08C
:102C6000044680F808B00360B068036859465B6AA0
:102C70009847054601F0B0FB7068036859465B6AE7
:102C800098472946064601F069FB331DC7F83C61A9
:102C9000C9F80040C8F80050CAF800302B68C6F8E0
:102CA00008A02846DB68EE639847336830461B6807
:102CB0009847214628460EF0E1FF236820461B690D
:102CC000984723685B69204601B0BDE8F04F18477C
:102CD000025202089052020868530208AF530208D9
:102CE00052540208805E0208F0350120EC350120C4
:102CF000044B1B6893F858200AB1D86C00B9986847
:102D0000704700BFA8350120F8B5174604460E46A7
:102D10000CF0A4FE124B1C60124B2360124B0025DA
:102D2000C4E95135114BC4E95355186803680121B2
:102D30009B68C4E94F55C4E955769847284601F089
:102D40007BFAFFF7D5FF17F02EFBFFF7D1FF17F047
:102D5000A5FBFFF7CDFF17F0ADFB2046F8BD00BF88
:102D6000FC3501202C5E0208145E0208A835012003
:102D7000064BC0F84C310023C0F8503100F5A27367
:102D8000C0F84801C0F84031704700BFA52B0008CB
:102D90007047704770477047704700F5967001F0B4
:102DA00011BC000010B5064B0360064BC0F82C3177
:102DB000044600F5967000F0A9F9204610BD00BF4A
:102DC000A45E02088C61020810B50446FFF7EAFF12
:102DD000204640F6C4711FF094FC204610BD70B52B
:102DE000036804461B6B154698472368294620460E
:102DF0005B6BBDE87040184770B504461D46BDF9D1
:102E00001060FFF7ECFF2368294620469B6B98472C
:102E1000236831462046DB6BBDE870401847000050
:102E20002DE9F04F044689B00EF07CFD614B236024
:102E3000614B0025C4E910354FF4807307AE04F1EF
:102E40006C0AA4F86430FF2384F8663004F1980912
:102E50004FF6FF773146C4E91255C4E91455C4E969
:102E60001655E5632566A566504604F1C408ADF81D
:102E70001C7009F01DFA3146484604F1F00BADF81C
:102E80001C7009F015FA31464046ADF81C7009F087
:102E90000FFA58460AF0D2F804F5967318460293D2
:102EA00001F02EFB4FF4A0732A4604F1400000937A
:102EB0002946F0230390FFF79FFF0398271D4FF04B
:102EC0007F43A3660146384606F018FB314650465C
:102ED000ADF81C500AF0D9F84FF4A0732A460093BD
:102EE0002946F0235046FFF787FF2946504609F050
:102EF0009AF95146384606F001FB4FF0280A0223A2
:102F000031464846ADF81C300AF0BFF8052264236C
:102F10004846CDF800A01021FFF76EFF294648462D
:102F200009F081F94946384606F0E8FA05233146AA
:102F30004046ADF81C300AF0A8F8C82340F207124A
:102F40004046CDF800A01421FFF756FF2946404621
:102F500009F069F94146384606F0D0FA584640F281
:102F60000512A521FFF73BFF0323ADF81030ADF8A4
:102F70001430012305AAADF81830ADF81C3004A9AF
:102F800006AB5846009609F0B4FF6123C4F8283117
:102F90005946384606F0B2FA029832221421FFF759
:102FA0001EFF3846029906F0A9FA204609B0BDE88E
:102FB000F08F00BFA45E020868650208406A70478F
:102FC000806A704770478A880B8810B5D20A4C888F
:102FD000C1699BB251F8220043EA0443184410BD72
:102FE00010B50446BAB1107B68B1537BD27A1B028C
:102FF00003F4E0631A43236A03EB82031A888A42CC
:1030000002D193F9020010BD05D8013880B2043313
:103010000028F3D1F7E70020F5E710B52C2104468E
:103020001FF06FFB204610BD30B58BB00446BDF8D5
:1030300060500895BDF85C5007959DF85050069576
:103040009DF84C5005959DF8485004959DF84450C6
:1030500003959DF8405002959DF83C500195BDF8B0
:10306000385000950EF042FA064B2360159BE36141
:10307000169B2362199B63621A9BA36220460BB0C6
:1030800030BD00BFD85E0208806A704730B5036863
:1030900085B06D460181D3F8843001460446284648
:1030A000984795E807003C3484E8070005B030BD38
:1030B00030B5036885B06D464181D3F88430014650
:1030C00004462846984795E807003C3484E8070002
:1030D00005B030BD0022028042808280C2807047ED
:1030E00080F83610704770B5036804461B6B1546B0
:1030F00098472368294620465B6EBDE87040184714
:1031000000207047806C7047704770477047704769
:10311000A0F850107047B0F8500070470186704713
:10312000008E704710B5602104461FF0EAFA204671
:1031300010BD10B5482104461FF0E3FA204610BD2B
:1031400010B540F6985104461FF0DBFA204610BD3A
:1031500008B590F826300BB1FFF76CFB08BD08B539
:10316000FFF768FB08BD0000036870B55E6B124B8B
:103170001B6804468DB22BB9104B114A6C211148C3
:1031800020F0FCF91049828D0988914203D80F4B39
:103190000B4A6D21F3E713F812200D4B1B6853F80F
:1031A000220003681B6B9847291A3346204609B250
:1031B000BDE87040184700BF00360120F5540208F2
:1031C000375502087255020804360120B955020825
:1031D0000836012090F84C3070B50446002B4AD0D8
:1031E000B0F84E00B4F85030013080B29842A4F8E4
:1031F0004E0040D3B4F85450B4F85620A66D521B7C
:10320000C01A12B2B4F85230002180B2B04794F81C
:1032100036200544ABB22DB2AA4205D02DBB2046C4
:10322000FFF708FB84F83650B4F85030B4F8521069
:10323000B4F84E200B449A421DD3002384F84C303E
:10324000A4F852300CF02EFB214604300CF04FFB5A
:10325000E06D80B10368DB68984760B1E06D03689A
:1032600021469B68BDE87040184784F836302046F8
:10327000FFF7E0FAD8E770BD90F82C302DE9F04167
:103280000446002B41D0C38D028E01339BB2934282
:10329000C3853AD39B1A9DB2028F838EC66BD21A16
:1032A00012B2438E00212846B047E38E628F276C0E
:1032B000D21A0646638E12B200212846B847E38E22
:1032C000C218A38EF11812B209B22046FFF705FA10
:1032D000238E618EE28D0B449A4216D3002384F82C
:1032E0002C30E3850CF0DEFA214604300CF0FFFAB6
:1032F000606C50B10368DB68984730B1606C03685C
:1033000021469B68BDE8F0411847BDE8F081000008
:10331000074A02600022C0E90122C0E90322C0E995
:103320000522C0E907224FF480728284704700BFF3
:103330001867020810B50446FFF7EAFF024B236046
:103340000023A362204610BD7462020810B5262235
:103350000446002120F078FB2046FFF7D9FF044BFC
:103360002360FF2384F826300023A362204610BD8B
:103370006865020800224FF0FF31C0E90021826039
:10338000704710B50446FFF7F5FF204610BD00005A
:1033900010B50446FFF7DAFF064B23600023C4E9AB
:1033A0000C33C4E90E33C4E9103384F82C30E385C0
:1033B000204610BD405F020838B526220446002191
:1033C00020F042FB2046FFF7A3FF0E4B23600E4B7D
:1033D000A3624FF6FF730025A3854FF47F03C4E972
:1033E0000C53258704F13C00FFF7C4FF074BA5648D
:1033F000236084F84C50A4F84E50A4F85050E56572
:10340000204638BDD8640208045E0208B05F020896
:103410002DE9F04F0446B9B02646FFF78BFFDA4B93
:1034200046F82C3B3046FFF791FF04F1580304F1B6
:103430008405184604F1CC0A0693FFF77BFF284663
:10344000FFF7A6FF5046FFF7B7FF04F5967318463F
:103450000793FFF76FFF04F5AC7318462193FFF74E
:1034600097FF04F5D07318460293FFF7A5FF04F504
:10347000007318460893FFF75DFF04F50B731846B9
:103480002293FFF785FF04F51D7318460393FFF79A
:1034900093FF04F5357318460993FFF74BFF04F5C6
:1034A000407318462393FFF773FF04F552731846D1
:1034B0000493FFF781FF04F56A7318460A93FFF738
:1034C00039FF04F5757318462493FFF761FF04F282
:1034D0001C4318460593FFF76FFF04F27C43184620
:1034E0000B93FFF727FF04F5956318462593FFF725
:1034F0004FFF04F59E6318461693FFF75DFF04F532
:10350000AA6318460C93FFF715FF04F27C53184684
:103510002693FFF73DFF04F2C45318461793FFF7B5
:103520004BFF04F2246318460D93FFF703FF04F5E5
:10353000CA6318462793FFF72BFF04F5D363184699
:103540001893FFF739FF04F5DF6318460E93FFF772
:10355000F1FE04F2247318462893FFF719FF04F2D2
:103560006C7318461993FFF727FF04F2CC731846C3
:103570000F93FFF7DFFE04F5FF6318462993FFF76B
:1035800007FF04F5046318461A93FFF715FF04F5C7
:103590000A6318461093FFF7CDFE04F6CC031846D5
:1035A0002A93FFF7F5FE04F6141318461B93FFF752
:1035B00003FF04F6741318461193FFF7BBFE04F5DE
:1035C0001A6318462B93FFF7E3FE04F6E813184638
:1035D0001C93FFF7F1FE04F6482318461293FFF7F9
:1035E000A9FE04F6742318462C93FFF7D1FE04F6C7
:1035F000BC2318461D93FFF7DFFE04F61C33184664
:103600001393FFF797FE04F6483318462D93FFF700
:10361000BFFE04F5396318461E93FFF7CDFE04F58F
:103620003F6318461493FFF785FE04F61C431846C3
:103630002E93FFF7ADFE04F6644318461F93FFF781
:10364000BBFE04F6C44318461593FFF773FE04F55A
:103650004F6318462F93FFF79BFE04F63853184626
:103660002093FFF7A9FE4FF0C813A3600022C823E0
:10367000114600933046FFF7BFFB444B636531466C
:1036800020462D2605F03AFF9722069800963346ED
:103690001146FFF7B1FB002211460096334628463B
:1036A000FFF7AAFB3A4B0698C4F8AC304FF00F096D
:1036B000294605F023FF33464A465046CDF8009090
:1036C0000021FFF799FBD4F8CC3000270DF1C0089A
:1036D0004FF07F42C4F8FC2051464046D3F8843076
:1036E000A4F80071984798E80700D4F8CC304FF060
:1036F000060B04F5847585E80700D3F8843084F858
:1037000005B151464046984798E8070085E807000C
:1037100035AD204A359229465046ADF8D89009F08B
:1037200019FB0698514605F0E9FE0699204605F07A
:10373000E5FE07980096334697226621FFF75CFB6B
:103740003A462198009633463946FFF755FB104B11
:1037500021990798C4F8803105F0D0FE4A460298B6
:10376000CDF8009033463946FFF746FBD4F8A03138
:10377000A4F8D4714FF07F41C4F8D01140460299AB
:10378000D3F8843008E000BF48600208A0ADBBFF5A
:10379000B4C1CDFF045E0208984798E80700D4F84A
:1037A000A03104F5EE7A8AE80700D3F88430029954
:1037B00084F8D9B14046984798E807000D238AE875
:1037C0000700CF4A029835922946ADF8D83009F063
:1037D000C1FA0299079805F091FE0799204605F075
:1037E0008DFE08980096334697223521FFF704FB9B
:1037F0003A462298009633463946FFF7FDFAC14B08
:1038000022990898C4F8543205F078FE4A46039885
:10381000CDF8009033463946FFF7EEFAD4F874320B
:10382000A4F8A8724FF07F41C4F8A412404603994F
:10383000D3F88430984798E80700D4F8743204F538
:103840002C7A8AE80700D3F88430039984F8ADB263
:103850004046984798E807000C238AE80700A84AE2
:10386000039835922946ADF8D83009F073FA0399D8
:10387000089805F043FE0899204605F03FFE099898
:103880000096334697220421FFF7B6FA3A4623986A
:10389000009633463946FFF7AFFA9A4B23990998B9
:1038A000C4F8283305F02AFE4A460498CDF8009063
:1038B00033463946FFF7A0FAD4F84833A4F87C73AE
:1038C0004FF07F41C4F8781340460499D3F8843010
:1038D000984798E80700D4F8483304F5617A8AE8F5
:1038E0000700D3F88430049984F881B340469847A0
:1038F00098E807000B238AE80700814A049835926C
:103900002946ADF8D83009F025FA0499099805F050
:10391000F5FD0999204605F0F1FD0A980096334619
:1039200066229721FFF768FA3A46249800963346B4
:103930003946FFF761FA734B24990A98C4F8FC33AF
:1039400005F0DCFD4A460598CDF80090334639462F
:10395000FFF752FAD4F81C34A4F850744FF07F41AA
:10396000C4F84C1440460599D3F88430984798E839
:103970000700D4F81C3404F58B6A8AE80700D3F8F2
:103980008430059984F855B44046984798E8070074
:103990000A238AE807005A4A059835922946ADF865
:1039A000D83009F0D7F905990A9805F0A7FD0A99CA
:1039B000204605F0A3FD66220B980096334611467B
:1039C000FFF71AFA3A462598009633463946FFF72C
:1039D00013FA4C4B25990B98C4F8D03405F08EFDA2
:1039E00033464A461698CDF800903946FFF704FA58
:1039F0004FF07F41C4F82015A4F824752846FFF73E
:103A0000B9FC95E8070004F22C5888E8070084F810
:103A100029B52846FFF7AEFC95E80700092388E89A
:103A20000700374A169835922946ADF8D83009F084
:103A300091F916990B9805F061FD0B99204605F058
:103A40005DFD0C980096334666223521FFF7D4F9C8
:103A50003A462698009633463946FFF7CDF9294B6A
:103A600026990C98C4F8A43505F048FD33464A461B
:103A70001798CDF800903946FFF7BEF94FF07F4117
:103A8000C4F8F415A4F8F8752846FFF773FC95E818
:103A9000070004F5C06888E8070084F8FDB52846EB
:103AA000FFF768FC95E80700082388E80700144A38
:103AB000179835922946ADF8D83009F04BF9179987
:103AC0000C9805F01BFD0C99204605F017FD0D988C
:103AD0000096334666220521FFF78EF93A4627986D
:103AE000009633463946FFF787F9064B27990D981C
:103AF000C4F8783605F002FD33464A4604E000BFBC
:103B0000045E0208B4C1CDFF1898CDF80090394684
:103B1000FFF772F94FF07F41C4F8C816A4F8CC76CD
:103B20002846FFF727FC95E8070004F2D46888E8E8
:103B3000070084F8D1B62846FFF71CFC95E807007B
:103B4000072388E80700D34A189835922946ADF82C
:103B5000D83009F0FFF818990D9805F0CFFC0D99B1
:103B6000204605F0CBFC0E9800963346352297216F
:103B7000FFF742F93A462898009633463946FFF750
:103B80003BF9C54B28990E98C4F84C3705F0B6FCA4
:103B900033464A461998CDF800903946FFF72CF97C
:103BA0004FF07F41C4F89C17A4F8A0772846FFF790
:103BB000E1FB95E8070004F5F56888E8070084F85C
:103BC000A5B72846FFF7D6FB95E8070088E8070069
:103BD000B04A199835922946ADF8D8B009F0BAF82C
:103BE00019990E9805F08AFC0E99204605F086FC7E
:103BF0000F980096334635226621FFF7FDF83A46C6
:103C00002998009633463946FFF7F6F8A24B2999D2
:103C10000F98C4F8203805F071FC33464A461A98CC
:103C2000CDF800903946FFF7E7F84FF07F41C4F830
:103C30007018A4F874782846FFF79CFB95E80700F5
:103C400004F67C0888E8070084F879B82846FFF76E
:103C500091FB95E80700052388E807008D4A1A982C
:103C600035922946ADF8D83009F074F81A990F98B2
:103C700005F044FC0F99204605F040FC35221098D1
:103C8000009633461146FFF7B7F83A462A98009651
:103C900033463946FFF7B0F87F4B2A991098C4F89D
:103CA000F43805F02BFC33464A461B98CDF80090BB
:103CB0003946FFF7A1F84FF07F41C4F84419A4F842
:103CC00048792846FFF756FB95E8070004F5156884
:103CD00088E8070084F84DB92846FFF74BFB95E8C4
:103CE000070088E807004FF004086A4A1B983592DD
:103CF0002946ADF8D88009F02DF81B99109805F0E9
:103D0000FDFB1099204605F0F9FB1198009633460B
:103D100041463522FFF770F83A462B980096334615
:103D20003946FFF769F85C4B2B991198C4F8C839EC
:103D300005F0E4FB33464A461C98CDF8009039461E
:103D4000FFF75AF84FF07F41C4F8181AA4F81C7A0C
:103D50002846FFF70FFB95E8070004F6242A8AE8B7
:103D6000070084F821BA2846FFF704FB95E807000E
:103D700003238AE80700474A1C9835922946ADF884
:103D8000D83008F0E7FF1C99119805F0B7FB11999E
:103D9000204605F0B3FB1298009633464246972121
:103DA000FFF72AF83A462C98009633463946FFF733
:103DB00023F8394B2C991298C4F89C3A05F09EFBD5
:103DC00033464A461D98CDF800903946FFF714F85F
:103DD0004FF07F41C4F8EC1AA4F8F07A2846FFF7B8
:103DE000C9FA95E8070004F6F82A8AE8070084F87B
:103DF000F5BA2846FFF7BEFA95E8070002238AE8DD
:103E00000700244A1D9835922946ADF8D83008F0AD
:103E1000A1FF1D99129805F071FB1299204605F03B
:103E20006DFB13980096334642466621FEF7E4FF89
:103E30003A462D98009633463946FEF7DDFF164B7D
:103E40002D991398C4F8703B05F058FB33464A4649
:103E50001E98CDF800903946FEF7CEFF4FF07F4117
:103E6000C4F8C01BA4F8C47B2846FFF783FA95E882
:103E7000070004F6CC3A8AE8070084F8C9BB284654
:103E8000FFF778FA95E807008AE80700014A1E98CC
:103E900004E000BF045E0208B4C1CDFF35924FF0CC
:103EA000010A2946ADF8D8A008F054FF1E991398CE
:103EB00005F024FB1399204605F020FB149800968A
:103EC000334642463521FEF797FF3A462E98009634
:103ED00033463946FEF790FF404B2E991498C4F8AC
:103EE000443C05F00BFB33464A461F98CDF8009042
:103EF0003946FEF781FF4FF07F41C4F8941CA4F8C7
:103F0000987C2846FFF736FA95E8070004F54A63DF
:103F100083E8070084F89DBC28460293FFF72AFA3D
:103F200095E80700029BADF8D87083E807002C4A9B
:103F30001F983592294608F00DFF1F99149805F037
:103F4000DDFA1499204605F0D9FA15980096334603
:103F500042464146FEF750FF3A462F9800963346B8
:103F60003946FEF749FF1D4B2F991598C4F8183DA7
:103F700005F0C4FA4A4639462098CDF800903346F9
:103F8000FEF73AFF4FF07F43C4F8683DA4F86C7D1C
:103F90002846FFF7EFF995E8070004F6745686E81F
:103FA000070084F871BD2846FFF7E4F995E807009B
:103FB00086E807000A4A209835922946ADF8D8A02D
:103FC00008F0C8FE2099159805F098FA2046159932
:103FD00005F094FA204639B0BDE8F08FB4C1CDFFAA
:103FE000045E02087047000030B5164D2C6814F0CE
:103FF00001048FB0BFF35B8F20D128461EF083FBF6
:10400000E0B13F230993104B0893104B104911481E
:104010000A940122CDE906430423CDE903320A23A1
:104020000093CDE90B44CDE901440594FEF7FCFF74
:1040300009481FF0C1FA28461EF071FB05480FB071
:1040400030BD00BF902700206C730208787302080F
:10405000B072020894270020E53F00087047000076
:1040600030B5164D2C6814F001048FB0BFF35B8F90
:1040700020D128461EF047FBE0B13F230993104BA7
:104080000893104B104911480A940122CDE90643C8
:104090000423CDE9033228230093CDE90B44CDE975
:1040A00001440594FEF7C0FF09481FF085FA284631
:1040B0001EF035FB05480FB030BD00BFC027002003
:1040C000707302087C730208C0720208C4270020C3
:1040D0005D4000087047000030B5164D2C6814F0A4
:1040E00001048FB0BFF35B8F21D128461EF00BFB7C
:1040F000E8B13F230993104B0893104B1049114826
:104100000A94CDE9064301220423CDE903320E23AC
:1041100000930B22CDE90B44CDE901440594FEF751
:1041200083FF09481FF048FA28461EF0F8FA0548B0
:104130000FB030BDF02700207473020880730208AE
:10414000D0720208F4270020D540000800207047F4
:10415000002070470EB403B503AB002153F8042BC5
:1041600001930CF041FC02B05DF804EB03B0704722
:104170000CB407B504AB53F8042B01930CF034FCDA
:1041800003B05DF804EB02B070470000436C10B55B
:10419000044673B3038F2BB9184B194AC52119482C
:1041A0001FF0ECF9C38E00EB43035B8C0BB30EF0F6
:1041B000BEFA238F012B03D8134B144ACB21EEE711
:1041C000E28E531C9BB2092B194688BFA3F10A014A
:1041D00004EB410140F63F10498C814209D10A2B82
:1041E00004EB420228BF002304EB4303508C5884A5
:1041F00051842046BDE810400EF09CB9F7550208E6
:1042000000560208AB560208F5560208035702088A
:104210000EF057B910B586B002AC84E806001A4615
:104220000AAB05930193099B00932146089B0AF072
:10423000BBFE06B010BD000038B518BB124B1348CA
:104240001C681349B4B122682244026062682244A7
:104250000A60A26814440F4B00221A8000F038F85C
:10426000054600F033F80C4B1C600C4B1D600C4BEA
:10427000188007E00B4B03600B4B0B600B4B1C686B
:10428000002CE8D138BD00BF2C28002024280020B5
:104290002028002028280020003601200836012090
:1042A00004360120C473020884730208C87302082C
:1042B000044B1B6853F82100034B1B6803EB4000C1
:1042C000704700BF202800202428002010207047BD
:1042D000004870473028002010B5FFF785FE044CD9
:1042E0002060FFF7BDFE6060FFF7F6FEA06010BD26
:1042F0003028002010B5002404600C6014601C609D
:1043000010BD704710B54FF4AE7104461EF0F9F9B8
:10431000204610BD10B50446D0F8580100F0D9F879
:104320002046BDE810400BF059BB000010B5044614
:10433000FEF7EAFC014B2360204610BDDC6002085A
:10434000704704387047704710B5102104461EF0BE
:10435000D8F9204610BDA0F10400F5E700228260E4
:10436000024A026018324260C16070473061020840
:104370007047000010B5034B03600446FEF712FDC2
:10438000204610BD5861020810B50446FFF7F2FF41
:10439000204640F6C4711EF0B4F9204610BD00005E
:1043A0000FB400B5A3B024AB802153F8042B0193C4
:1043B00002A81FF03BFB02A8FBF71AFF4FF0FF33E8
:1043C00082B202A9034802F0B8FE23B05DF804EB04
:1043D00004B070472804002010B50446FEF720FD05
:1043E000014B2360204610BD586102082DE9F843B7
:1043F00007461248DFF848900C46FFF7D1FF043C0F
:10440000002607F59677A046002558F8043F2A466F
:1044100031464846FFF7C4FF2A46D8F800303146F7
:104420003846013500F07CF8042DEED10136042E1B
:1044300004F11004E7D1BDE8F88300BFD5570208A6
:10444000EC57020838B50A4D04460A48FFF7A8FFA2
:104450002B6843B10848FFF7A3FF28682146BDE851
:104460003840FFF7C3BFBDE838400448FFF798BFA6
:104470003C28002006580208205802083C58020830
:1044800010B504460C48FFF78BFF2046FEF785FC6D
:1044900004F5967000F096F80848FFF781FF084B86
:1044A00008481C60FFF77CFFFCF7A0FABDE810404D
:1044B0000548FFF775BF00BF585802086858020842
:1044C0003C2800207D58020899580208002202600A
:1044D0007047704710B5034B03600446FEF716FEA5
:1044E000204610BD8C61020810B50446FFF7F2FFAC
:1044F000204640F698611EF004F9204610BD0000E9
:1045000010B50446FEF784FF034B04482360FFF711
:1045100047FF204610BD00BF8C610208AD5802085D
:104520002DE9F04341EA0204032C87B00E461746FA
:10453000984608D802EB810404F2963450F82450CF
:104540003DB91B4800E01B4807B0BDE8F043FFF74A
:1045500027BF5BB9184885F82530FFF721FF2B6886
:104560005B69284607B0BDE8F04318470C24544364
:1045700004F69854302202FB014404440F4A0621F9
:1045800020460EF07DFE0DF10C09012385F8253043
:104590004946AC640A2220460EF07FFE0848CDF85A
:1045A000009043463A463146FFF7FAFED7E700BF90
:1045B000F7580208D25802081F5902081C4A02087C
:1045C0004259020810B50446FEF7A1FD2348FFF743
:1045D000E7FE04F63853C4F8583E04F66443C4F8C2
:1045E0005C3E04F53963C4F8603E04F6BC23C4F8AD
:1045F000643E04F6E813C4F8683E04F61413C4F8E5
:104600006C3E04F50463C4F8703E04F26C73C4F8A5
:10461000743E04F5D363C4F8783E04F2C453C4F87E
:104620007C3E04F59E63C4F8803E04F21C43C4F84B
:10463000843E04F55273C4F8883E04F51D73C4F833
:104640008C3E04F5D073C4F8903E04F1CC03C4F85A
:10465000943E0348BDE81040FFF7A2BE6659020829
:104660008D590208F02070474FF4A0707047292040
:10467000FCF736BE2820FCF733BE08B5FCF704FE75
:10468000CA20FCF72DFEC320FCF70EFE0820FCF725
:104690000BFE5020FCF708FECF20FCF721FE002087
:1046A000FCF702FEC120FCF7FFFD3020FCF7FCFD0B
:1046B000ED20FCF715FE6420FCF7F6FD0320FCF767
:1046C000F3FD1220FCF7F0FD8120FCF7EDFDE82062
:1046D000FCF706FE8520FCF7E7FD0020FCF7E4FD73
:1046E0007820FCF7E1FDCB20FCF7FAFD3920FCF740
:1046F000DBFD2C20FCF7D8FD0020FCF7D5FD342095
:10470000FCF7D2FD0220FCF7CFFDF720FCF7E8FD17
:104710002020FCF7C9FDEA20FCF7E2FD0020FCF7B1
:10472000C3FD0020FCF7C0FDB120FCF7D9FD00203F
:10473000FCF7BAFD1B20FCF7B7FDB620FCF7D0FD57
:104740000A20FCF7B1FDA220FCF7AEFDC020FCF76B
:10475000C7FD1020FCF7A8FDC120FCF7C1FD10200B
:10476000FCF7A2FDC520FCF7BBFD4520FCF79CFD36
:104770001520FCF799FDC720FCF7B2FD9020FCF74F
:1047800093FD3620FCF7ACFDC820FCF78DFDF22030
:10479000FCF7A6FD0020FCF787FDB020FCF7A0FD8C
:1047A000C220FCF781FDB620FCF79AFD0A20FCF739
:1047B0007BFDA720FCF778FD2720FCF775FD042082
:1047C000FCF772FD2A20FCF78BFD0020FCF76CFD46
:1047D0000020FCF769FD0020FCF766FDEF20FCF7E8
:1047E00063FD2B20FCF77CFD0020FCF75DFD002025
:1047F000FCF75AFD0120FCF757FD3F20FCF754FD64
:10480000F620FCF76DFD0120FCF74EFD0020FCF7C3
:104810004BFD0620FCF748FD2C20FCF761FDC8206D
:10482000FCF7ACFD2620FCF75BFD0120FCF73CFD0E
:10483000E020FCF755FD0F20FCF736FD2920FCF7A2
:1048400033FD2420FCF730FD0C20FCF72DFD0E205D
:10485000FCF72AFD0920FCF727FD4E20FCF724FD7C
:104860007820FCF721FD3C20FCF71EFD0920FCF719
:104870001BFD1320FCF718FD0520FCF715FD172084
:10488000FCF712FD1120FCF70FFD0020FCF70CFDDA
:10489000E120FCF725FD0020FCF706FD1620FCF7C3
:1048A00003FD1B20FCF700FD0420FCF7FDFC11209C
:1048B000FCF7FAFC0720FCF7F7FC3120FCF7F4FCCE
:1048C0003320FCF7F1FC4220FCF7EEFC0520FCF75E
:1048D000EBFC0C20FCF7E8FC0A20FCF7E5FC2820A8
:1048E000FCF7E2FC2F20FCF7DFFC0F20FCF7DCFCE0
:1048F0001120FCF7F5FCC820FCF740FD2920FCF74F
:10490000EFFCBDE808402C20FCF7EABC08B5FCF73A
:10491000BBFC0321D320FCF7FFFC80B208BD10B51F
:10492000C4B2022203212046FCF764FC0A20FCF7F3
:10493000A9FC204600220321FCF75CFCBDE81040E6
:104940000220FCF79FBC38B50446E4B2FCF750FCEB
:1049500000212046FCF766FC012105462046FCF7B5
:1049600061FC40EA052080B238BD10B5C4B24021D8
:104970002046FCF757FC030607D54C212046FCF7E0
:1049800051FC003818BF012010BD01224B212046E8
:10499000FCF730FC204600224B21FCF72BFC0020CA
:1049A000F2E773B50423C4B20E461546D7210DEBCA
:1049B00003022046FCF750FC019B1BBA1A0DC3F3FF
:1049C0000B23328020462B8001224B21FCF712FC66
:1049D00000224B212046FCF70DFC02B070BD000008
:1049E00010B50A4A1378984204460DD0517888428F
:1049F0000AD00BB141B90123D454FCF7F9FB20468E
:104A0000BDE81040FFF78BBF10BD00BF402800205D
:104A100010B5C4B209212046FCF704FC40F00102A5
:104A2000D2B220460921BDE81040FCF7E3BB10B527
:104A3000C4B209212046FCF7F5FB092100F0FE0273
:104A40002046BDE81040FCF7D5BB38B5C4B20D46D2
:104A500020460A21FCF7E6FB40EA0502D2B22046D6
:104A60000A21BDE83840FCF7C5BB10B50446FCF789
:104A7000C0FB20461F21FFF7E8FF2046BDE810409D
:104A8000FFF7C6BF38B5C4B20D4620460A21FCF771
:104A9000C9FB20EA0502D2B220460A21BDE838400F
:104AA000FCF7A8BB10B50446FFF7C1FF20461F2145
:104AB000BDE81040FFF7E6BF10B5C0B20C460B21B1
:104AC000FCF7B0FB204010BD1F21FFF7F5BF0A46E1
:104AD000C0B20B21FCF78EBB1F21FFF7F8BF38B522
:104AE000C4B20D4620461721FCF79CFB20EA0502C4
:104AF000D2B220461721BDE83840FCF77BBB70B529
:104B0000C4B2064604212046FCF78CFB042100F0C9
:104B1000FB0205462046FCF76DFB3046F021FFF70F
:104B2000DEFF05F0F80220460421FCF763FB492272
:104B300020212046FCF75EFB0220FCF7A3FB204669
:104B400001222121FCF756FB20469A224121FCF745
:104B500051FB204601224A21FCF74CFB2046012252
:104B60004B21FCF747FB204600224B21FCF742FB80
:104B7000204601225621FCF73DFB20460122582108
:104B8000FCF738FB204601224021FCF733FB20468E
:104B9000FF220B21FCF72EFBBDE870400220FCF742
:104BA00071BB0000054BD3F8882042F47002C3F8B3
:104BB00088204FF000629A60704700BF00ED00E06F
:104BC00008B50B4B1A6842F400721A601A6842F476
:104BD00080621A601A6842F480721A60032000F042
:104BE0002FF80020FCF742FEFCF7D6FB002008BDA2
:104BF000003C0240034A044B11681B780B441360CD
:104C0000704700BF4428002078000020014B18683E
:104C1000704700BF4428002038B50446FFF7F6FF70
:104C2000631C1CBF054B1B78054618BFE418FFF733
:104C3000EDFF431BA342FAD338BD00BF780000202C
:104C40000749CA6822F4E0620302120403F4E06335
:104C5000120C134343F0BF6343F40033CB6070473F
:104C600000ED00E0164B30B5DC68C4F30224C4F15B
:104C70000703251D042B28BF0423062D4FF0FF3505
:104C80008CBF033C002405FA03F321EA0303A5408B
:104C900022EA0502A340002843EA0203ACBF00F168
:104CA0006040084A4FEA0313B8BF00F00F00DBB2C0
:104CB000AABF00F56140135480F8003330BD00BF37
:104CC00000ED00E014ED00E0002807DB044A410994
:104CD000012300F01F00834042F82130704700BFDD
:104CE00000E100E010B5044650B1437903F0FF0243
:104CF00013B90271FCF770FB01236371002010BD32
:104D00000120FCE710B5044620B390F8393003F0D9
:104D1000FF021BB980F83820FCF776FB022384F8E9
:104D20003930236861681A6822F440320A431A60F5
:104D30005A6BA16822F007020A435A631A6CE168B1
:104D40006FF30D020A431A6400200123E06384F824
:104D5000393010BD0120FCE770477047036870B51B
:104D60005E681D68F207044614D5E90512D51A6875
:104D700022F480721A60C26B42F00102C263012207
:104D80009A60042380F83930002380F83830436972
:104D900003B19847B20616D5AB0414D523681A6838
:104DA00022F400521A6020229A60E36B43F002035F
:104DB000E363042384F83930002384F838306369CE
:104DC0000BB120469847300716D5290514D523681E
:104DD0001A6822F400621A6008229A60E36B43F0BA
:104DE0000403E363042384F83930002384F8383063
:104DF00063690BB12046984772070BD56B0509D53F
:104E000023681A6822F480621A6004229A6020469D
:104E1000FFF7A2FFB00714D5A90512D523681A68B9
:104E200022F400721A6002229A60E36BE3630123AA
:104E300084F83930002384F8383023690BB12046D8
:104E40009847F20613D5EB0411D523681A6822F4AB
:104E500080521A6010229A60E36BE363012384F8A6
:104E60003930002384F838302046FFF776FF70BDD4
:104E7000F0B590F83820012A03464FF002002BD0FD
:104E8000012283F8382083F8390003EB0112D2E9BC
:104E90000740556A174F44EA0040093C012C9CBF6B
:104EA00005F07F4210434FEA01161A6888BF40EAB6
:104EB000056091B9516A394001435162012C9969E9
:104EC000916103D8596A21F07F419162012200204B
:104ED00083F8392083F83800F0BDD16939400143A7
:104EE000D1619919012C896911619CBF25F07F4519
:104EF0001562EBE7F0FFFC002DE9F74FDFF8BC91FE
:104F00006C4A00230D6801249C4004EA0506AC436A
:104F100040F0B7804D68032705F003044FEA4308CB
:104F200007FA08FC671E012F6FEA0C0C34D887685B
:104F300007EA0C0ECF6807FA08F747EA0E07876002
:104F4000476827EA060EC5F300179F4047EA0E0799
:104F50004760C76807EA0C0E8F6807FA08F747EA48
:104F60000E07022CC76019D14FEAD30A00EB8A0A58
:104F700003F0070BDAF820704FEA8B0B4FF00F0E9F
:104F80000EFA0BFE27EA0E0E0F6907FA0BF747EA37
:104F90000E07CAF8207001E0032CDAD1076804FA82
:104FA00008F407EA0C073C4315F4403F046068D05E
:104FB00000240194D9F8444044F48044C9F84440A2
:104FC000D9F8444023F0030707F1804704F48044F4
:104FD00007F59C37019403F0030C019CD7F808E017
:104FE0004FEA8C0C0F2404FA0CF42EEA040E324C17
:104FF000A0424DD004F58064A0424BD004F58064FB
:10500000A04249D004F58064A04247D004F58064F2
:10501000A04245D004F58064A04243D004F58064EA
:10502000A04241D004F58064A0423FD004F58064E2
:10503000A0423DD004F58064A04214BF0A24092494
:1050400004FA0CF444EA0E04BC609468F74315F4C7
:10505000801F0CBF3C4034439460D46815F4001F9B
:105060000CBF3C403443D460546815F4003F0CBF7F
:105070003C40344354601468ED0354BF3C40344317
:1050800014600133102B7FF43DAF03B0BDE8F08F07
:105090000024D5E70124D3E70224D1E70324CFE796
:1050A0000424CDE70524CBE70624C9E70724C7E796
:1050B0000824C5E7003C01400000024000380240DF
:1050C0000369194214BF0120002070470AB18161B1
:1050D00070470904FBE7436901EA030221EA03017F
:1050E00041EA024181617047044A5169014208B5B1
:1050F00002D05061FCF734FC08BD00BF003C014009
:1051000001684B6913F480634FF0000210D06FF414
:1051100080634B612023026380F83D3080F83E209D
:10512000036C80F83C2043F00403036401207047C3
:10513000184670472DE9F84606460F4691461D462B
:105140004FEA114A3368BAF1010F0CBF5C699C69E0
:1051500027EA0404A4B2B4FA84F46409A14501D096
:10516000002025E06A1CEED0FFF750FD089BC01A16
:10517000A84201D8002DE5D13368BAF1010F0CBF68
:105180005B699B6927EA03039BB2B3FA83F35B096C
:105190009945D7D100232022336386F83D2086F835
:1051A0003E30326C86F83C3042F0200232640120FE
:1051B000BDE8F8862DE9F04104460F4616469846AC
:1051C0002568686927EA000080B2C0B16B695A059A
:1051D00017D52B6843F400732B606FF480636B6109
:1051E00020220023236384F83D2084F83E30236C82
:1051F00043F004032364002384F83C300120BDE81D
:10520000F081731CDDD0FFF701FDA0EB0800B04278
:1052100001D8002ED4D123685A6927EA020292B23B
:10522000002ACDD000232022236384F83D2084F877
:105230003E30236C1343DDE770B504460D46164639
:1052400023685B691B0601D500201EE02046FFF79E
:1052500057FFC8B96A1CF3D0FFF7D8FC801BA842DF
:1052600001D8002DECD123685B6913F08003E7D1EE
:105270002022236384F83D2084F83E30226C84F899
:105280003C3042F020022264012070BD2DE9F04341
:105290001546026885B0DDE90C789946136843F439
:1052A000807313600E463B46CDF8008000224FF01D
:1052B00001110446FFF73EFF236838B11B68DB0588
:1052C00002D54FF400732364032620E006F0FE06A7
:1052D0001E611A4943463A462046FFF76BFFA8B9BC
:1052E000236803905A6903929B69039342463946A7
:1052F0002046039BFFF7A0FF064660B1236C042BFA
:1053000001BF2268136843F400731360012630461E
:1053100005B0BDE8F083B9F1010F236802D1EDB209
:105320001D61F4E72A0A1A61394642462046FFF712
:1053300083FF0028E2D12368F1E700BF02000100EB
:105340002DE9FF479A46036815461A6842F48062C1
:105350001A601A68DDE90C7842F480721A600E4611
:105360003B46CDF8008000224FF001110446FFF7C4
:10537000E1FE236838B11B68DB0544BF4FF40073BE
:105380002364032021E05FFA86F906F0FE061E6121
:105390002B4943463A462046FFF70CFFA0B9236845
:1053A00003905A6903929B6903934246394620460B
:1053B000039BFFF741FF58B1236C042B01BF226808
:1053C000136843F400731360012004B0BDE8F08754
:1053D000BAF1010F23681AD1EDB242461D61394678
:1053E0002046FFF729FF02460028E5D121680B6817
:1053F00043F480730B602046CDF800803B464FF0AD
:105400000111FFF797FE226860B11368B4E72A0A1A
:105410001A61394642462046FFF70EFF0028CBD1DD
:105420002368D9E749F001031361054943463A4629
:105430002046FFF7BFFE003818BF0120C5E700BFB8
:105440000200010070B504460D46164623685B69EC
:105450005B0701D500201EE02046FFF751FEC8B9CA
:105460006A1CF3D0FFF7D2FB801BA84201D8002DA5
:10547000ECD123685B6913F00403E7D12022236396
:1054800084F83D2084F83E30226C84F83C3042F0B1
:1054900020022264012070BD70B504460D461646F8
:1054A00021684B6913F0400301D0002011E04A69E4
:1054B000D2060FD56FF010024A612022236384F8D0
:1054C0003D2084F83E30236C2364002384F83C3074
:1054D000012070BDFFF79AFB801BA84201D8002D68
:1054E000DED123685B6913F04003D9D12022236306
:1054F00084F83D2084F83E30236C1343E4E7000039
:1055000070B5044608B9012070BD90F83D3003F035
:10551000FF021BB980F83C20FBF798FF242384F896
:105520003D3023681A6822F001021A601A6842F4BA
:1055300000421A601A6822F400421A6000F08AFEE3
:105540003F4B65689D4294BF3E4B3F4B98428CBF9A
:1055500000230123002BD6D12268394E51683B4BE2
:10556000B0FBF3F321F03F011943B542516088BF0E
:105570004FF49676116A88BF734321F03F0184BFD0
:105580004FF47A76B3FBF6F301330B431362D16920
:10559000431E2B4821F44F41854221F0FF0132D8B0
:1055A0006D0040F6FC70B3FBF5F30133034242D0CB
:1055B000C3F30B031943D161D4E9073011680343E6
:1055C00021F0C0010B4313609168D4E9030321F477
:1055D0000341034321F0FF010B439360D4E90530FD
:1055E000D168034321F0FF010B43D360136843F0FC
:1055F0000103136000202023206484F83D302063E1
:1056000084F83E0080E7A06850B905EB4505B3FB80
:10561000F5F30133C3F30B037BB143F40043C9E754
:1056200019206843B3FBF0F30133C3F30B0323B139
:1056300043F44043BEE70423BCE70123BAE700BFBD
:10564000A08601007F841E00FF083D0040420F003D
:105650002DE9F743044699460C9E0F469046FFF706
:10566000D5FA94F83D30202B054603D0022003B034
:10567000BDE8F08300903C49192301222046FFF742
:1056800059FD0028F2D194F83C30012BEED020686F
:10569000012384F83C300368D9075EBF036843F0F8
:1056A00001030360036823F400630360212384F88B
:1056B0003D30402384F83E30002323640A9B63621C
:1056C000BDF82C306385638D2385284BE362424609
:1056D000CDE900654B4639462046FFF7D7FD002847
:1056E0002AD00120C3E7FFF7A7FD40B1236C042BAC
:1056F00001BF2268136843F400731360F1E7636A23
:1057000027681A4612F8011B39616262628D218D89
:10571000013A92B262857A69481E80B252072085AA
:105720000AD548B15A783A6102336362638D013B0E
:1057300002399BB221856385238D2A463146204656
:10574000002BD0D1FFF77EFE0028CFD1226813684E
:1057500043F400731360202384F83D3084F83C0048
:1057600084F83E0083E700BF020010000000FFFF46
:105770002DE9F043044687B09946109F0D469046A8
:10578000FFF744FA94F83D30202B064604D002255A
:10579000284607B0BDE8F08300907A49192301221A
:1057A0002046FFF7C7FC0028F1D194F83C30012BCC
:1057B000EDD02068012384F83C300368DB075EBF2E
:1057C000036843F001030360036823F4006303608C
:1057D000222384F83D30402384F83E3000232364A4
:1057E0000E9B6362BDF83C306385638D2385664BF9
:1057F000E3622946CDE900764B4642462046FFF754
:105800009FFD054608B10125C2E7228D2368B2B984
:1058100002905A6902929A690292029A1A6842F4B4
:1058200000721A60DFF86481238D002B2CD12022B6
:1058300084F83D2084F83C3084F83E30A8E7012A03
:105840000AD11A6822F480621A6003905A6903929E
:105850009A690392039AE1E7022A0ED11A6822F4A8
:1058600080621A601A6842F400621A6004905A69F1
:1058700004929B690493049BD4E705905A690592AE
:105880009B690593059BCDE7032B56D8012B15D1BA
:10589000324639462046FFF7FFFD0028B3D1236882
:1058A0001A69636A1A70636A01336362238D013B6C
:1058B0002385638D013B9BB26385B5E7022B009680
:1058C0003B464FF000024146204619D1FFF732FC1B
:1058D000002898D123681A6842F400721A601A6985
:1058E000636A1A70626A531C6362238D013B2385CD
:1058F000638D013B9BB2638523681B695370D2E7BC
:10590000FFF718FC024600287FF47DAF2368196872
:1059100021F4806119601969636A1970636A01333F
:105920006362238D013B2385638D013B9BB26385BD
:10593000414600963B462046C8E732463946204657
:10594000FFF7AAFD00287FF45EAF23681A69636A37
:105950001A70628D616A013A92B24B1C62852268AC
:105960006362238D5069013B9BB2400723857FF51D
:105970005BAF032B02BF136823F4806313601369CA
:105980004B7090E7020010000000FFFF04000100D0
:1059900010B590F83D30202BDCB216D1242380F8CE
:1059A0003D3003681A6822F001021A605A6A22F038
:1059B00010025A625A6A114359621A6842F001028F
:1059C0001A6080F83D40002010BD0220FCE730B591
:1059D00090F83D30202BDCB216D10268242380F8E9
:1059E0003D30136823F001031360556A4FF6F073DE
:1059F0002B400B439BB25362136843F001031360C7
:105A000080F83D40002030BD0220FCE70068D20154
:105A100084328318F0B5C7685D684C680E6805F479
:105A200070455D60C56806F1010CC5F30B45C7F311
:105A30000B472744654445EA07455D60C768CD6864
:105A4000C7F30A072F449D6805F470459D60D0F8A0
:105A50000CC08D68CCF30A0C0135654445EA074556
:105A60009D601D69D1F810C08F6925F007051D6183
:105A7000C3F810C091F8305045EA076591F83170CD
:105A800045EA072591F8327045EA07459D615D6951
:105A900025F0FF055D614D695D61DD6925F4E06517
:105AA00025F00705DD61D1E907573D43DD61BCF114
:105AB000070F4D6A9D629CBF0D4D15F80C70DD6A95
:105AC00005F0E025DD6288BF01278D6AC96AA41B45
:105AD0007C437D43033444EA0544DC621C6B6FF372
