:020000040800F2
:10000000000003205D060008F5180008F718000836
:10001000F9180008FB180008FD180008000000008F
:10002000000000000000000000000000318E000809
:10003000FF18000800000000C18E00084F8700086C
:10004000AD060008AD060008AD060008AD060008C4
:10005000AD060008AD060008AD060008011900084D
:1000600007190008AD060008AD060008AD06000837
:10007000AD060008AD060008AD060008AD06000894
:100080000D190008AD060008AD060008AD06000811
:10009000AD060008AD060008AD060008AD06000874
:1000A000AD060008AD060008AD060008AD06000864
:1000B000AD060008AD060008AD060008AD06000854
:1000C000AD060008AD060008AD060008AD06000844
:1000D000AD060008AD060008AD060008AD06000834
:1000E00019190008AD060008AD060008AD060008A5
:1000F000AD060008AD060008AD060008AD06000814
:10010000AD060008AD060008AD060008AD06000803
:10011000AD060008AD06000831190008AD0600085C
:10012000AD060008AD060008AD060008AD060008E3
:10013000AD060008AD060008AD060008AD060008D3
:10014000AD060008AD060008AD060008AD060008C3
:10015000AD060008AD060008AD060008AD060008B3
:10016000AD060008AD060008AD060008AD060008A3
:10017000AD060008AD060008AD060008000000004E
:10018000AD060008AD060008AD060008AD06000883
:10019000AD060008AD060008AD060008AD06000873
:0C01A0003D190008AD06000849190008D0
:1001B00010B5054C237833B9044B13B10448AFF3A1
:1001C00000800123237010BDE00401200000000026
:1001D000D86B020808B5034B1BB103490348AFF3C2
:1001E000008008BD00000000E4040120D86B020874
:1001F00001F0FF01102A2BDB10F0070F08D010F8D8
:10020000013B013A8B422DD010F0070F42B3F6D1DB
:10021000F0B441EA012141EA014122F007047FF0F4
:1002200000070023F0E80256083C85EA010586EA4B
:10023000010685FA47F5A3FA87F586FA47F6A5FA87
:1002400087F68EB9EED1F0BC01F0FF0102F0070293
:1002500032B110F8013B013A83EA010313B1F8D13E
:100260000020704701387047002D06BF354603381F
:10027000073815F0010F07D1013015F4807F02BF58
:10028000013015F4C03F0130F0BC0138704700BFA9
:100290007BB972B90029BEBF00204FF0004106E0D3
:1002A00008BF00281CBF6FF000414FF0FF3000F086
:1002B000D3B9ADF1080C6DE904CE002909DB002BA0
:1002C0001ADB00F04DF8DDF804E0DDE9022304B0AC
:1002D0007047404261EB4101002B1BDB00F040F80E
:1002E000DDF804E0DDE9022304B0404261EB4101A6
:1002F000524263EB43037047524263EB430300F007
:100300002FF8DDF804E0DDE9022304B0404261EBA0
:1003100041017047524263EB430300F021F8DDF8DE
:1003200004E0DDE9022304B0524263EB430370476B
:1003300053B94AB9002908BF00281CBF4FF0FF314C
:100340004FF0FF3000F088B9ADF1080C6DE904CE34
:1003500000F006F8DDF804E0DDE9022304B07047A0
:100360002DE9F047089D8E4604468846002B4AD169
:100370008A42174662D9B2FA82F64EB1C6F120031C
:1003800001FA06F820FA03F3B74043EA0808B4403C
:100390004FEA174E1FFA87FCB8FBFEF1230C0EFB49
:1003A000118843EA084301FB0CF29A4209D9FB1871
:1003B00001F1FF3080F0EA809A4240F2E780023992
:1003C0003B449A1AA3B2B2FBFEF00EFB102243EAA2
:1003D000024300FB0CFC9C4509D9FB1800F1FF32DD
:1003E00080F0D6809C4540F2D3803B44023840EAFE
:1003F0000140A3EB0C0300211DB1F3400022C5E92D
:100400000032BDE8F0878B4205D90DB1C5E9000186
:1004100000210846F5E7B3FA83F1002946D1734578
:1004200002D3824200F20581841A6EEB030201209E
:100430009046002DE5D0C5E90048E2E7002A00F02B
:100440009080B2FA82F6002E40F0A4808A1A030C43
:100450004FEA174E80B2BCB20121B2FBFEFC0EFB8C
:100460001C2243EA024304FB0CF29A4207D9FB1810
:100470000CF1FF3802D29A4200F2E080C4469B1A87
:10048000B3FBFEF20EFB123340EA034302FB04F41B
:100490009C4207D9FB1802F1FF3002D29C4200F2C5
:1004A000CA8002461B1B42EA0C40A5E7C1F12006A8
:1004B0008B4022FA06F71F430EFA01F420FA06F3E6
:1004C0002EFA06FE4FEA1749234300FA01F81FFAF5
:1004D00087FCBEFBF9F01C0C09FB10EE44EA0E444D
:1004E00000FB0CFEA64502FA01F209D93C1900F105
:1004F000FF3A80F09C80A64540F2998002383C4447
:10050000A4EB0E041FFA83FEB4FBF9F309FB1344BA
:100510004EEA044403FB0CFCA44508D93C1903F142
:10052000FF3E80F08280A4457FD9023B3C4443EAF1
:100530000040A4EB0C04A0FB02EC64457346E146CA
:1005400062D35FD05DB1B8EB030264EB090404FA37
:1005500006F622FA01F31E43CC40C5E900640021EF
:100560004FE7B1FBF2FC010C41EA0E4180B240EAD8
:1005700001423B4638463C46B846BE462026B1FBC3
:10058000F7F1A2EB080241EA0C4166E7014618E7E1
:1005900010462CE7C6F120022EFA02F3B740B14014
:1005A00020FA02F24FEA174E0A43B3FBFEF8BCB240
:1005B0000EFB1833110C41EA034108FB04F9B0406B
:1005C00089454FEA104380B23ED9791808F1FF3CC3
:1005D00001D289451FD8A1EB0901B1FBFEF909FB46
:1005E00004F80EFB191192B242EA0142424529D2A7
:1005F000BA1809F1FF31C4D24245C2D2A9F10201B1
:100600003A44BEE7F0459DD2BEEB02036CEB070C0B
:100610000138E14696E7A7EB09094944A8F1020C25
:10062000B1FBFEF909FB04F8DBE773467FE75046B0
:1006300066E70846FDE63B44023A33E7ACF1020CBC
:100640003B441CE749469CE7A1EB0901C446B1FBCA
:10065000FEF909FB04F8C4E7704700BFDFF834D0A7
:10066000002103E00C4B5B58435004310B480C4B0A
:1006700042189A42F6D30B4A02E0002342F8043BA8
:10068000094B9A42F9D305F02FF825F037FD00F019
:100690007DFA7047000003201C5507080000002069
:1006A000C4020120E004012010490220FEE70000FE
:1006B000002170B50B4604460A46084654F82150FE
:1006C0008DB1FAB195424FEA830603F1010315D1CA
:1006D0005200A2510E4D28681044286000220120CB
:1006E0008B4218BF012001310429E7D112B144F82F
:1006F000232001330022032B06DD70BDA25154F8E4
:100700002120EDE72A46EBE744F823200133F2E706
:10071000FC04012008B505F01BF8034B984214BFF8
:1007200058400120186008BD04000020034B044914
:100730001A68044801FB020018607047040000209A
:100740000D6619005FF36E3C70B5044600F140067B
:1007500000252046FFF7ACFF1034002818BF0546DF
:10076000B442F6D1284670BD7FB5044600F140067C
:100770000025E3680093A3680193636802936846C9
:1007800023680393FFF794FF009BE360019BA36042
:10079000029B6360039B44F8103B002818BF05468A
:1007A000B442E6D1284604B070BD7FB5041F00F105
:1007B0000C06002554F8043F009323690193236A33
:1007C00002936846236B0393FFF772FF009B23603D
:1007D000019B2361029B2362002818BF0546039BEF
:1007E0002363B442E6D1284604B070BD7FB5041F30
:1007F00000F10C060025636B0093636A0193636943
:100800000293684654F8043F0393FFF751FF009B9F
:100810002363019B2362029B2361002818BF0546C6
:10082000039B2360A642E6D1284604B070BD0000B9
:10083000F0B50024A1B00546264605EB04110023BF
:1008400051F823202AB920AA02EBC60242E920432C
:1008500001360133042BF3D10134042CEDD1002EE9
:100860001BDDFFF763FF20AAB0FBF6F303FB1603C3
:1008700002EBC30353E92076FFF758FF6423B0FB74
:10088000F3F202FB1300592805EB0715044B98BF40
:100890000224012245F826401A7021B0F0BD00BFA5
:1008A000940801200D4B10B500241C60FFF732FFA7
:1008B0000B4A234621460133042BC2E90011C2E949
:1008C000021102F11002F6D1064B05481960FFF73C
:1008D000AFFFBDE810400248FFF7AABFFC040120AB
:1008E000040501200005012000F10C024C30A2F1AA
:1008F000100353F8041FB1F5006F04DB064B1878A2
:1009000080F0010070479342F3D103F1100282425C
:10091000EDD10020704700BF4405012000F10C021A
:100920004C30A2F1100353F8041F39B19342FAD1AD
:1009300003F110028242F4D1002070470120704779
:1009400030B500F10C0200F14C04A2F10C0319685F
:1009500053F8045FA94200D1C1B99342F7D103F122
:100960001002A242F1D100F1300401460023103000
:1009700051F8232050F82350AA4200D132B9013354
:10098000042BF5D18442F0D1002000E0012030BDDD
:1009900010B50446FFF7C2FF30B92046FFF7D0FF7D
:1009A00080F00100C0B210BD0020FCE710B5174C6C
:1009B0002368022B1DD003281BD8DFE800F0021BA0
:1009C0001F231348FFF7C0FE98B1022000F058F82B
:1009D0000F48FFF72DFF23682BB90D48FFF784FF61
:1009E00008B1012323600A48FFF7D2FF08B10223B0
:1009F000236010BD0648FFF7B7FEE5E70448FFF7A0
:100A0000D4FEE1E70248FFF7F1FEDDE70005012033
:100A10000405012002460021014807F04CB800BF40
:100A2000380601200148002107F04AB838060120A5
:100A3000004870470405012007B5064BADF80600D5
:100A40001B68054801220DF1060107F0B7F903B054
:100A50005DF804FB08000020E005012008B56420D3
:100A600007F0F2FEFBE700000268034B9A4202BF68
:100A7000024B00221A707047003C00404C050120D8
:100A800010B415490B781BBB144B154A032808D822
:100A9000DFE800F0021015191248186045F24320F3
:100AA000106001200870128819680F485DF8044B27
:100AB00005F07ABF0D4818604FF48730F0E70C4816
:100AC00018604420ECE70B48186048F2AD00E7E7F7
:100AD0005DF8044B704700BF4C0501205405012010
:100AE0005005012070940408600701207078020806
:100AF000E87702081000002030B5002495B02146A8
:100B0000142203A8CDE90A440C9425F04EFA1D4B9B
:100B100001941A6C42F080521A641B6C03F08053EB
:100B20000193019B184B02941A6842F440421A60E8
:100B30001B6803F440430293029B09224FF4803365
:100B4000CDE9082302250123B4224FF48001CDE929
:100B50000D3508A80423CDE90F13CDE91125139312
:100B600006F00AFB06F0CEFA0F23CDE90335052186
:100B70004FF4A05303A8CDE90633059406F0D8FC42
:100B800015B030BD003802400070004080B59CB008
:100B90000024C64DDFF84CA304F0B4FDFFF7ACFF12
:100BA00000942B6C43F080532B642B6C03F0805328
:100BB0000093009B06F098FA214614220FA825F016
:100BC000F4F902942B6BBA4843F010032B632B6BA0
:100BD00003F010030293029B03942B6B43F0040376
:100BE0002B632B6B03F004030393039B04942B6B85
:100BF00043F020032B632B6B03F020030493049B2F
:100C000005942B6B43F080032B632B6B03F0800365
:100C10000593059B06942B6B43F001032B632B6B11
:100C200003F001030693069B07942B6B43F002032A
:100C30002B632B6B03F002030793079B08942B6B2A
:100C400043F040032B632B6B03F040030893089B96
:100C500009942B6B43F008032B632B6B03F0080301
:100C6000224609933C21099B05F05EF99148012237
:100C7000022105F059F922468E48042105F054F965
:100C800022468D484FF4405105F04EF901263C2391
:100C9000CDE90F368648119403230FA9022712933A
:100CA00005F058F883480FA9CDE90F76CDE9114436
:100CB00005F050F804237F480FA9CDE90F36CDE9A0
:100CC00011474FF4881905F045F806237B48119722
:100CD0000FA9CDE90F394FF4405805F03BF878489B
:100CE00011970FA9CDE90F8905F034F87248DFF8A4
:100CF000F8910FA9CDE90F86CDE9114705F02AF843
:100D000022460521072004F04FFD072004F07EFD58
:100D100022460521082004F047FD082004F076FD56
:100D200022460521282004F03FFD282004F06EFD16
:100D300001942B6B43F400132B632B6B614D03F475
:100D400000132246052101931020019B04F02CFD85
:100D5000102004F05BFD5C485C4B036004F064FD14
:100D60005B4B2C62C5E9009328464FF48043C5E9EC
:100D70000434C5E90244C5E9064405F0EFFA102140
:100D8000284605F033FD21462846524D05F04DFD1D
:100D90004FF48273C5E900A34FF400721823C5E92C
:100DA000062328460A23C5E90244C5E90444C5E9E7
:100DB0000844AC62EB6206F0A5FF8F232246394659
:100DC0003C488DF82C308DF83C4005F0ADF83246AB
:100DD0004FF47A730BA9284606F0F0FF4FF47A73AC
:100DE00032460FA9284607F095F932463946314870
:100DF000394D05F099F89DF83C30D32B04BF374BA3
:100E00001E70374B0126C5E900361022402300240E
:100E1000C5E904234FF4C073C5E906344FF40063F9
:100E2000C5E908344FF4005302274FF00409AB62C0
:100E30004FF0030A07230FA92846CDE90F73CDE928
:100E400011934FF00808C5E90249CDE913A715979A
:100E500006F03BFE4FF6FF720BA92846CDE90C8643
:100E60000A940B960E9406F050FE304604F076FC81
:100E70004FF6FF720BA92846CDE90B78CDE90D643A
:100E800006F043FE4FF6FF720BA92846CDE90BA8EA
:100E9000CDE90D9406F039FE4FF40C730A930A9BCA
:100EA0000E934FF6FF720BA928461FE00038024050
:100EB0000010024000080240000C02400000024006
:100EC00000040240A80701203C0801200030024035
:100ED000A0860100E00501206405012058050120DD
:100EE000400100A000500140005C0040CDE90B989B
:100EF0000D9606F00AFE40F26A51284606F023FEDF
:100F0000342221460FA825F050F84D4D4D4B2C6151
:100F1000C5E900340923C5E905361D23C5E9073AAB
:100F200040F20D1140F24313C5E9091340F21710C6
:100F300040F24713C5E90B032846C5E90244AC86D5
:100F400085F8364005F0D0FF4FF4806CF022052183
:100F5000CDE916C14FF4A0730FA94FF0FF08CDE9FA
:100F60001024CDE9184228462246374D1A93CDE980
:100F70001237CDE914840F94ADF86C408DF86E40B3
:100F800006F066F8314B2B601B6898472B68304D94
:100F9000DB6898472F4B2846C5E90034C5E9027441
:100FA000C5E90A47C5E90C4404F0DAFD3146284694
:100FB00004F08CFEDFF8C8E027484FF4E133C0E9C5
:100FC00000E30C23C0E90534C0E902440461C461B4
:100FD00007F0F6FA2148224B8461C0E900347F23F0
:100FE000C0E90238C0E90444DFF8988006F01BFD30
:100FF0001C484FF40073C0E900834BF68033C0E90E
:101000000534C0E90244C0E90744046105F02CFC42
:1010100000F019FD00F016FD07F0A6FB124A134878
:10102000214607F0CDFB124B124A186021461248A8
:1010300007F0C6FB114B186007F0A8FBFEE700BFE6
:101040005806012000680140480501207401012074
:10105000FC07012000B0024098050120380601205D
:101060000028004060070120C47702085D0A0008DC
:1010700060050120A0770208551A00085C050120D0
:1010800000100140003C0040704770477FB5094B9D
:101090008DF817201B6802930DF1170201230092AF
:1010A00001930A460146044805F000FA07B05DF8CE
:1010B00004FB00BF0C000020A80701207FB500231F
:1010C0008DF81730084B1B6802930A4601230DF177
:1010D0001701009101930146044805F077FA9DF845
:1010E000170007B05DF804FB0C000020A8070120E2
:1010F0001FB5084C24680092CDE901340A4601234B
:101100000146054805F062FA003818BF012004B016
:1011100010BD00BF0C000020A807012004F01EBB7A
:1011200010B5064C00222046042104F0FDFE2046A6
:101130000122BDE81040042104F0F6BE0008024080
:1011400038B50B4D044601220A484FF4005104F013
:10115000EBFE00220421284604F0E6FE2046FFF7BD
:101160006BFC28460122BDE83840042104F0DCBEB7
:1011700000080240000C024038B50B4D0446002226
:101180000A484FF4005104F0CFFE00220421284603
:1011900004F0CAFE2046FFF74FFC28460122BDE8B6
:1011A0003840042104F0C0BE00080240000C024098
:1011B000F7B5144E144F05460C4630460022042164
:1011C00004F0B2FE00224FF40051384604F0ACFEA9
:1011D0002846FFF731FC0D4B0D481B68224601A93C
:1011E00006F098FF384601224FF40051019C04F0AC
:1011F0009BFE30460122042104F096FE204603B0F7
:10120000F0BD00BF00080240000C024008000020B2
:10121000E005012004F0A2BA0268034B9A4201D112
:1012200004F08ABA704700BF001000407047000009
:1012300082B00E4B00220092596C41F480415964F7
:10124000596C01F48041009100990192196C41F0B0
:10125000805119641B6C03F080530193019B0F2193
:101260006FF0010002B004F09FBA00BF00380240E6
:101270000268094B9A4282B00BD100230193074BBD
:101280001A6B42F480521A631B6B03F48053019370
:10129000019B02B0704700BF00300240003802409E
:1012A00007B50F4B02689A4216D10022A3F5F0430E
:1012B0000192196B41F4000119631B6B03F40003E5
:1012C000019305215A20019B04F06EFA5A2003B0C5
:1012D0005DF804EB04F09ABA03B05DF804FB00BFBC
:1012E00000B002402DE9F043044689B014220021E9
:1012F00003A824F05AFE2268244B9A4243D1244C7E
:10130000244800250095236B43F004032363236BDB
:1013100003F004030093009B0195236B43F001034A
:101320002363236B03F001030193019B4FF0120928
:101330004FF400734FF001080327042603A9CDE9F9
:101340000339CDE90587079604F004FD4FF4807357
:101350001148079603A9CDE90339CDE9058704F0C3
:10136000F9FC0295236C43F400032364236C03F41B
:1013700000030293029B236A43F400032362236A5F
:1013800023F40003236209B0BDE8F083005C004051
:10139000003802400008024000000240F0B595B05D
:1013A00006461422002103A824F0FFFD302200216C
:1013B00008A824F0FAFD3268354B9A4265D1012025
:1013C000C023CDE90803022308A80A9306F088F990
:1013D00008B1FFF72BFF00252E4B00951A6C2E4805
:1013E00042F400421A641A6C02F400420092009A1D
:1013F00001951A6B42F001021A631A6B02F00102A6
:101400000192019A02951A6B42F004021A631B6B57
:1014100003F0040302930624029B07944FF4004355
:10142000022703A9CDE90337CDE9055504F092FC65
:101430004FF4A0531948079403A9194CCDE9033779
:10144000CDE9055504F086FC164B2563C4E900354B
:101450004023C4E902354FF480624FF40063C4E9CD
:1014600004234FF40053C4E906354FF480310423BC
:10147000C4E9081320460323C4E90A3504F0FAF945
:1014800008B1FFF7D3FEB463A66315B0F0BD00BF8B
:10149000003C0040003802400000024000080240CA
:1014A0000007012088600240F0B599B0044614227C
:1014B000002107A824F079FD30220DEB0200002165
:1014C00024F073FD22685E4B9A4240F0B7800823F7
:1014D0000C93C0231093042312930CA84FF40033F1
:1014E000159306F0FDF808B1FFF7A0FE554B5648DE
:1014F000002400945A6C42F080625A645A6C02F0E4
:1015000080620092009A01941A6B42F020021A63E2
:101510001A6B02F020020192019A02941A6B42F0B7
:1015200001021A631A6B02F001020292029A0394FA
:101530001A6B42F002021A631A6B02F00202039263
:10154000039A04941A6B42F040021A631A6B02F079
:1015500040020492049A05941A6B42F004021A6342
:101560001A6B02F004020592059A06941A6B42F077
:1015700008021A631B6B03F00803069302250E266C
:10158000069B0B964FF4806307A9CDE90735CDE99B
:10159000094504F0DFFB41F658032C480B9607A9D8
:1015A000CDE907350927CDE9094504F0D3FB03232D
:1015B00027480B9707A9CDE90735CDE9094504F080
:1015C000C9FB4FF4706322480B9607A9CDE9073594
:1015D000CDE9094504F0BEFB4FF40C631D480B96A2
:1015E00007A9CDE90735CDE9094504F0B3FBC023D0
:1015F00019480B9607A9CDE90735CDE9094504F04F
:10160000A9FB082315480B9607A9CDE90735CDE9B5
:10161000094504F09FFB4FF4A0530E480B9707A910
:10162000CDE90735CDE9094504F094FB5820224661
:10163000052104F0B9F8582004F0E8F819B0F0BD1D
:1016400000680140003802400014024000000240DF
:10165000000402400018024000080240000C024052
:1016600010B504468CB030220021684624F09DFC61
:1016700022680A4B9A420ED12023009368464FF409
:1016800000730A9306F02CF808B1FFF7CFFD044B66
:101690000122C3F83C2E0CB010BD00BF0028004052
:1016A0000000474210B5044688B01422002103A868
:1016B00024F07BFC2268144B9A4223D103F5684343
:1016C000002101915A6C114842F480125A645A6CFC
:1016D00002F480120192019A02911A6B42F02002E8
:1016E0001A631B6B03F020030293029B4FF460729A
:1016F00002230321CDE903230523CDE9061303A922
:1017000004F028FB08B010BD005001400014024056
:1017100010B5044688B01422002103A824F045FC2B
:101720002268144B9A4223D103F59433002101918E
:101730005A6C114842F010025A645A6C02F01002BE
:101740000192019A02911A6B42F001021A631B6B1B
:1017500003F001030293029B4FF4C06202230321B2
:10176000CDE903230723CDE9061303A904F0F2FA18
:1017700008B010BD00100140000002402DE9F0410A
:1017800086B0002303932B4B1C68002C4FD14FF0E5
:101790000108C3F80080284B00949A6B274842EA5E
:1017A00008029A639B6B03EA08030093022703264F
:1017B0000C25009B01A94FF63F03CDE90137CDE988
:1017C000046504F0C7FA1E48059501A9CDE9018713
:1017D000CDE9034604F0BEFA48F2331319480595E3
:1017E00001A9CDE90137CDE9034604F0B3FA4FF67C
:1017F00083731548059501A9CDE90137CDE9034665
:1018000004F0A8FA4CF203731048059501A9CDE93C
:101810000137CDE9034604F09DFA60230C48059595
:1018200001A9CDE90137CDE9034604F093FA06B0EA
:10183000BDE8F08144080120003802400014024055
:10184000000802400018024000100240000C024054
:101850000004024070B588B000230293204B1A6C3C
:1018600042F010021A641B6C03F010030293054649
:1018700001A903A8029B05F015FF069B4BBB05F0D1
:10188000F1FE184E184B336040F2E733F360174B0C
:10189000B0FBF3F3013B7360304600233361B36068
:1018A000B36106F001FE044680B9304606F0D6FC6E
:1018B000044658B9362003F0A9FF0F2D0DD8224653
:1018C0002946362003F070FF094B1D60204608B002
:1018D00070BD05F0C7FE4000D3E70124F6E700BF66
:1018E00000380240480801200010004040420F002C
:1018F000DC0101207047FEE7FEE7FEE7FEE77047E8
:10190000022004F01FBB042004F01CBB014804F0BB
:1019100069B800BF0007012008B54FF4805004F0FB
:1019200011FBBDE808404FF4005004F00BBB000071
:10193000014806F0D1BC00BF48080120014805F06D
:101940002ABB00BF58060120014804F035B900BF8A
:10195000FC07012070B5104E044603F0F9FE336811
:10196000C31AC82B054609D9B4F5805F07D10020FA
:10197000FFF71CF8094B01221A70356070BDB4F5F1
:10198000005F01D10120F3E7022C01D12046EFE7EF
:10199000042CF2D10320EBE79008012094080120E9
:1019A0000120704708B524F0A3FB162303604FF015
:1019B000FF3008BD08B524F09BFB16230360FEE74B
:1019C00070B50D4614460E46731B9C4201DC204642
:1019D00070BDAFF3008006F8010BF5E770B50D465A
:1019E00014460E46731B9C4201DC204670BD16F85F
:1019F000010BAFF30080F5E74FF0FF3070474FF475
:101A000000534B6000207047012070470020704752
:101A10000A4A116808B5034609B9094911601068F6
:101A2000694603448B4206D924F062FB0C23036011
:101A30004FF0FF3008BD1360FCE700BF980801209D
:101A400010490220704708B500F0BEFDBDE808400F
:101A500000F040BD00F0BABD704710B50421044647
:101A600023F060F9204610BD38B50C4B0C4C1880A3
:101A70000C4B822019806368984740F61103984206
:101A80000AD1094D23682C60822098472B68822058
:101A9000DB689847002038BD0120FCE7A60801203C
:101AA000AC010120A4080120A80801204FF4A07176
:101AB000F020FFF7D9BF0000F7B5394D2B68044679
:101AC0001B6982209847208000284ED02B680DF19A
:101AD00006025B6901A982209847324B1B78002BD4
:101AE0004BD0BDF8062040F674639A423FD9ADF85A
:101AF0000630BDF806209B1A9BB20A2B42D90B2256
:101B0000B3FBF2F3284A1288934201D9013A93B207
:101B1000BDF80420254840F6B8318A4234D8C2F5D1
:101B200071620E32016892B20F25B2FBF5F2204DC0
:101B30002D88AA4284BF05F1FF35AAB28A42154614
:101B40008EB22AD9921B91B21A4E3768BB42BAB2F2
:101B50008CBF9A1AD21A92B211440529C4BF0560EB
:101B60003360036863803368A38003B0F0BDB32A99
:101B70009CBFB422ADF80620BBE7BDF80630A3F544
:101B8000B473B9E70023C3E7C2F56D62083292B2BD
:101B90000E2A0168C8D800252A46891A89B2D3E7D7
:101BA000A808012058050120A4080120A008012050
:101BB000A60801209C08012037B568460D4614464A
:101BC000FFF77AFFBDF8000030B1BDF802302B609E
:101BD000BDF804302360012003B030BD032821D8B4
:101BE000DFE800F0020B12190F4B1A68B2FA82F20A
:101BF000520904210D4804F097B90B4B5A68B2FA08
:101C000082F252090821F5E7074B9A68B2FA82F28C
:101C100052091021EEE7044BDA68B2FA82F2520957
:101C20002021E7E7704700BFAC0801200010024008
:101C3000032821D8DFE800F0020B12190F4B1A68B5
:101C4000003A18BF012204210D4804F06DB90B4B76
:101C50005A68003A18BF01220821F5E7074B9A6835
:101C6000003A18BF01221021EEE7044BDA68003A6F
:101C700018BF01222021E7E7704700BFAC08012010
:101C80000010024003280DD8DFE800F00206080A21
:101C90000421054804F04DB90821FAE71021F8E7BE
:101CA0002021F6E7704700BF0010024008B5032866
:101CB00011D8DFE800F0020A0C0E0421074804F0F6
:101CC0002DF9431E5842584108BD0821F6E710215E
:101CD000F4E72021F2E70020F3E700BF0010024004
:101CE00070B5084D00240126E0B2FFF7DFFF18B100
:101CF0002B68012B18BF2E600134052C05F104055B
:101D0000F2D170BDAC080120012380F8781080F872
:101D1000793070477047002070470000034B4164E2
:101D2000003918BF01211970704700BFCF3B022056
:101D3000704700207047836B0BB108461847704707
:101D40004FF6FF707047406803689B6918477047FB
:101D5000704770477047704710B5044600F04CFD5F
:101D600023680349D3F890302046BDE81040184757
:101D7000000000D008B503680446D3F884309847C3
:101D800023682046DB6F984700F0ECF82368204674
:101D90005B6F98472920FFF7EFF900F0E3F823681D
:101DA00020465B6F9847F8E710B5044609F036FE09
:101DB00023682046D3F8BC30BDE81040184700F037
:101DC000FFBC00F003BD00F035BD00F0D5BC00F055
:101DD00045BD00F04DBD00F0D9BC09F04DB810B5BF
:101DE0008421044622F09EFF204610BD10B590F8D5
:101DF000341090F878400C4B8C421A7809D03AB9DC
:101E00000A4A0B491488088810800C8001221A7035
:101E100010BD002AFCD0054A0549148808881080A6
:101E20000C800022F3E700BFC83B0220C43B022025
:101E3000C63B022070B50D46194635B9094B0A4A12
:101E40000A4840F2FF2123F0A9FEC0E90F52084BD7
:101E5000003A18BF01221A700368BDE87040D3F839
:101E600090301847456C02087D6C0208CB6C020864
:101E7000CE3B022008B5094B1B888B4203D8084B88
:101E80001B88934205D9074B074A0848A32123F032
:101E900085FE074B1980074B1A8008BDC43B022002
:101EA000C63B0220106D0208736D0208CB6C02085D
:101EB000CA3B0220CC3B0220034690F87A0018B1BE
:101EC000586803681B68184770470000012108B56F
:101ED0000022084606F0C4FC0A4B186028B90A4BD9
:101EE0000A4A28210A4823F059FE00220421012031
:101EF00006F055FD074B186018B9074B034A2C2113
:101F0000F0E708BDC0080120B66D0208FF6D0208A9
:101F10002E6E0208BC080120746E0208024B4FF0BE
:101F2000FF31186806F0E6BCC0080120014B1868B4
:101F300006F00CBDC0080120024B0021186806F015
:101F4000D9BC00BFC0080120FFF7F0BF0348044917
:101F5000006800231A4606F05DBD00BFBC080120E2
:101F60006C01012013B5084C00231A4601A9206812
:101F700006F081FD20684FF0FF33002201A906F032
:101F80007AFD02B010BD00BFBC08012003685B6C85
:101F900018470120704703689B6A1847FEE740F224
:101FA000EF307047054B0360054B4FF08062C3F87C
:101FB0008820BFF34F8FBFF36F8F7047043A050837
:101FC00000E100E010B504464FF45A61FFF7EAFF64
:101FD000204622F0A7FE204610BD000082B000235C
:101FE00001930E4B1A6B42F400021A631A6B02F44F
:101FF00000020192019A1A6942F400021A611A69F8
:1020000022F400021A61064B064A1A61064A5A6116
:10201000064B4FF080629A6002B070470038024071
:10202000FC0701207D2200089D1F000800E100E060
:1020300008B50A2809D8DFE800F006100E080808DD
:10204000081010101000022008BD054B054A064874
:10205000902123F0A3FD0020F6E70120F4E700BF64
:10206000B66E0208D16E02081C6F020838B50C4625
:10207000887FFFF7DDFFA58AE28A164B2169586346
:1020800042EA05425A64628BD963521B1A6425687E
:10209000082D0ED19A611A615862207F0E4A42EAD9
:1020A0000062DA61E2681A620C4A5961D9601A600A
:1020B00038BD0022D8611A61E1680A0A480902F4B1
:1020C000784200F4FC600243C1F3C4010A439A63FE
:1020D000034AECE700B002400900010001230200BE
:1020E0000123030008B50B280BD8DFE800F0061227
:1020F000100A0A0A0A0808080808022008BD052074
:10210000FCE7054B054A06486F2123F047FD0020F8
:10211000F4E70120F2E700BFB66E0208606F020824
:102120001C6F02082DE9F04191F81D800C464046D5
:10213000FFF7D8FFA77F05463846FFF7D3FF0646CF
:102140003846FFF775FFA18A628B444B521A1A6416
:102150009A61228B521A1A61E28A586342EA01425A
:102160005A6421696268D963DA602068802828D0BF
:10217000227F0FD8202867D0402865D004281AD0A5
:10218000364B45EA026545F40035B845DD6161D05E
:10219000334A44E0B0F5807F04D0B0F5007FEFD142
:1021A000304800E0304840EA0262DA61E2681A62D0
:1021B0005E62596132E045EA026242F40032DA615D
:1021C000F6E7A068021DDA62227F45EA026545F45F
:1021D0000035DD615E625961017841B1012921D08C
:1021E000224B234A23484FF48D7123F0D7FCDA6940
:1021F000418822F47F42013922F0100242EA012292
:10220000DA610121154BDA6942F02002DA61DA69FC
:102210009206FCD410229A600029B9D0164A1A609E
:10222000BDE8F081B2F1FF01DA69408822F47F4213
:1022300000F1FF3022F0100242EA002242F01002C8
:1022400018BF0121DA61DDE745EA0262034B42F47F
:102250000032B4E742F20132E1E700BF00B00240D1
:1022600001230100090002000A000200AA6F02080F
:10227000C46F02081C6F020801230200024B1B6896
:10228000586803685B691847D03B022070B5044664
:1022900025460A4B0C30002660602672667245F8AF
:1022A000203B6022294609F00FFD04F55A63EE60D9
:1022B00024359D42FBD1204670BD00BF043A05087D
:1022C000034B1A68D207FCD423229A60704700BFE0
:1022D00000B002407047000030B50F4C2568ED0794
:1022E000FCD423250904A56041F001010225FF2B40
:1022F00065636164E0630AD00849656241EA03638B
:10230000E361074B22626061E060236030BDE561FC
:10231000039BA363034BF8E700B0024009000100F0
:10232000010002000100030030B50E4C2568ED07E6
:10233000FCD423251204A56042F001020225FF2BE4
:1023400065636264E063E16008D01B0643F002133A
:10235000E361054B65626061236030BD034BE3615F
:102360000123F9E700B0024001000200020002FF71
:1023700030B50B4C2568ED07FCD4232512041B0651
:10238000A56043F40033022542F0010265636264F4
:10239000E063E160E361034B65626061236030BD2F
:1023A00000B0024001000200012070470C2070477D
:1023B0000C2303FB0100083070470C2303FB0100D2
:1023C000083070470120704741F21430704741F2E5
:1023D000143303FB01000830704741F2143303FB50
:1023E000010008307047012070471020704700EB53
:1023F00001100830704700EB0110083070470846A4
:1024000000F0C8BC10B5034B0360044608F08BFA1B
:10241000204610BDBC3A050810B50446FFF7F2FF90
:102420002046142122F07EFC204610BD10B5034B3F
:102430000360044608F077FA204610BD883A050884
:1024400010B50446FFF7F2FF204641F21C3122F09E
:1024500069FC204610BD000010B5034B0360044624
:1024600008F061FA204610BD543A050810B504463C
:10247000FFF7F2FF2046182122F054FC204610BD41
:1024800010B5094B0360044600F59A500830FFF779
:10249000B9FF04F12C00FFF7C9FF04F11400FFF7A6
:1024A000DBFF204610BD00BFF03A050808B5024822
:1024B000FFF7E6FF08BD00BF9C17012010B50446DA
:1024C000FFF7DEFF204641F2BC4122F02BFC204604
:1024D00010BD00002DE9F34100F0D2FA054600F0EE
:1024E000D3FA00240146234628462246009413F0DE
:1024F00067FB274B274A1A60204602F0F5F9264D64
:10250000264B274A27489A6013F0C2FA2B68BFF37C
:102510005B8FDB0735D4284622F006FC88B3224CBB
:10252000224B234F236004F59B5604F1140004F161
:102530002C086060C4F80880E760266108F0F4F9B0
:102540001C4B6361404608F0EFF91B4BE3623846D1
:1025500008F0EAF904F5805303F55770174AC3F8F9
:10256000482302F0C1FC2246311F304602F058FBDE
:10257000304600F00FFC124823F02EFB284622F0D4
:10258000DFFB104802B0BDE8F041FFF7E5BB00BF3C
:10259000343C0220480901209817012068090120D5
:1025A0004C090120700101209C170120F03A050818
:1025B000E42A0120543A0508883A0508BC3A05087F
:1025C000AD240008C4080120704700000148FFF74F
:1025D000D1BB00BFC408012070B5264E264C274D44
:1025E000274B23603046FFF751FE284618F0EEFBDC
:1025F000244810F079FB244B2448DC6000224FF47F
:102600008071C3E9121222491A86C3E91A122149BC
:1026100083F85820C3E91E011F49C3F880101F49E1
:102620001F480B60F021C3E90422C3E90622C3E975
:102630000822C3E90A22C3E90E22C3E91022C3E932
:102640001422C3E917225A6683F870205A67C3E937
:10265000016501801348018013484FF4A071018087
:102660001248018012490A70012283F83420114A6D
:102670001A6070BDF4090120941701206809012037
:10268000003905084C090120C4080120000001019F
:1026900001000001000450001A001400D03B022089
:1026A000C43B0220CA3B0220C63B0220CC3B022096
:1026B000C83B0220183905080148FFF773BC00BF6A
:1026C000F40901200020704781807047C180704765
:1026D000018170474181704770477047704770476C
:1026E000704710B4C4880368121B84885B6D091B93
:1026F00012B25DF8044B09B218474FF6FF7383819D
:102700004FF0FF3303621368C3611060704700200D
:1027100070478B88838001207047704780F82610AF
:10272000704790F82600704710B50022B1F90840B4
:10273000B1F90A10028042808480C18010BD00225D
:10274000028042808280C28070470177704780EDAE
:10275000080A704780F82410704780F825107047E9
:1027600001207047983070478C3070478430704734
:102770007047704770470000034B902283F85A233C
:1027800083F85823704700BF00E100E0094A0A4976
:10279000D3680A48C3F30A03013B9BB20B8011695B
:1027A000C1F30A01013901801364536B43F0010343
:1027B00053637047006801405A2C0120582C0120B7
:1027C000014BD3F8AC00704700680140024B012276
:1027D000C3F8AC105A6270470068014010B52C2154
:1027E000044622F09FFA204610BD10B5BC210446D5
:1027F00022F098FA204610BD70B5044608F091FB0F
:1028000023689D6E0FF012F801462046A847236802
:10281000054AD3F88C502046AC460023BDE87040F2
:10282000A2F51631604700BF00B004D008F060BBCD
:1028300008F06ABB08F026BB08F095BC90F825208C
:1028400012B103685B691847704790F825201AB1E8
:1028500090F8242002B1186070470000034B4FF03D
:1028600080629A604FF080729A60704700E100E0E9
:10287000084B4FF08062C3F88820BFF34F8FBFF33F
:102880006F8F4FF08072C3F88820BFF34F8FBFF374
:102890006F8F704700E100E070B50023124E838017
:1028A000124B0360336893F8582005460AB1D86C80
:1028B00000B998680368DB6A98473368B0FA80F417
:1028C000D86C640930B10368DB6A9847002808BFF8
:1028D00044F001042CB9064B064A07482C2123F08A
:1028E0005DF9284670BD00BFD03B0220043B0508BF
:1028F00002700208607002089970020870B5254ED7
:102900003568BFF35B8F15F0010540D1304622F0EA
:102910000BFA00283BD0204C204B256104F13400F9
:10292000C4E90035C4E90255E584A562A58510F027
:10293000C0FC04F158000AF07BFE194BA365204649
:10294000184B40F8843BFFF7A7FF174BC4F88430BF
:102950002433C4F88C304FF4C803C4E9283500236D
:10296000C4F8AC30C4F8B030C4F8B430C4F8B830EF
:102970000E480F4BC4F89050C4F89C50C4F8A850AF
:10298000C4F8983023F028F9304622F0D9F90248EB
:1029900070BD00BF5C2C0120602C0120744505082F
:1029A000243B05089C3B05082845050875270008B9
:1029B0000845050838B5184C23685BB3174B184A0F
:1029C0001B6C11888B4216D1164B198804F06EFBD4
:1029D000236893F86A200025013283F86A2083F87F
:1029E0007C50FFF7B3FA206809F018F82846BDE8D4
:1029F0003840FFF7F3B804F059FB246823682046F9
:102A00001B6A9847012384F87C300020BDE83840D9
:102A1000FFF70EB938BD00BFD03B0220006801406F
:102A20005A2C0120582C0120704708B506291DD8C2
:102A3000DFE801F00804080C1014180001F0A0FFF2
:102A4000406808BD01F09CFF0068FAE701F098FFBC
:102A50008068F6E701F094FFC068F2E701F090FFAC
:102A60000069EEE701F08CFF4069EAE70020E8E743
:102A700010B50421044622F055F9204610BD00008F
:102A800000487047F43B05080720704713B5002441
:102A900051B1036801948DF8034001AA9C680DF1BF
:102AA0000303A04702B010BD0846FBE7C08970478A
:102AB000008A7047C088704780887047807A00F02D
:102AC0007F007047807AC00970470020704700007F
:102AD0009FED010A704700BF00000000704710B56D
:102AE0000821044622F01EF9204610BD70477047A9
:102AF00000F598730868496803C3704770477047CA
:102B00004160704770477047064BC0F84C31002356
:102B1000C0F8503100F5A273C0F84801C0F8403148
:102B2000704700BFC92B000801230372704770472C
:102B300010B4C26841685410034601EB6200D2072A
:102B400048BF0A599B685DF8044B48BFD3581847E3
:102B50000346406830B19A681AB9D86800F001009D
:102B600070470120704710B50C21044622F0DAF8B6
:102B7000204610BD10B51021044622F0D3F820469F
:102B800010BD10B54FF4AE71044622F0CBF82046CC
:102B900010BD10B50EF04AFE0368BDE81040DB6BB7
:102BA000184710B50446D0F8400158B10368DB68F7
:102BB000984738B1D4F8400103689B6898470023D0
:102BC000C4F8403110BD00002DE9F14FD0E9556A3D
:102BD0000746B06803681B6A984741F2133398426E
:102BE00005D8444B444AA321444822F0D7FF7068DB
:102BF00003681B6A98470F2803D8414B3E4AA4211B
:102C0000F2E7F06803681B6A98470B2803D83D4B2E
:102C1000394AA521E8E70EF009FEDFF8F09004300C
:102C20000EF042FED9F8000010B10368DB68984747
:102C3000D9F8000010B103681B689847DFF8D0800E
:102C4000D8F8000010B103685B699847D7F83C01D9
:102C500010B103685B689847D8F8000010B10368AA
:102C60001B689847D7F83C0110B103689B689847E8
:102C7000F068036800215B6A98474FF0000B224B15
:102C8000C0F804B0044680F808B00360B068036878
:102C900059465B6A9847054602F026F87068036853
:102CA00059465B6A98472946064601F0FBFF331DEB
:102CB000C7F83C61C9F80040C8F80050CAF80030B5
:102CC0002B68C6F808A02846DB68EE63984733688F
:102CD00030461B6898472146284610F06FFF23684E
:102CE00020461B69984723685B69204601B0BDE810
:102CF000F04F1847FB7002088971020861720208E0
:102D0000A87202084B730208043D0508183C022013
:102D1000143C0220044B1B6893F858200AB1D86C6D
:102D200000B99868704700BFD03B0220F8B517463D
:102D300004460E460EF056FE124B1C60124B2360EA
:102D4000124B0025C4E95135114BC4E9535518689D
:102D5000036801219B68C4E94F55C4E9557698473B
:102D6000284601F0C1FDFFF7D5FF19F0D8FEFFF7A7
:102D7000D1FF19F04FFFFFF7CDFF19F057FF2046A5
:102D8000F8BD00BF243C0220B03C0508983C050873
:102D9000D03B0220064BC0F84C310023C0F8503124
:102DA00000F5A273C0F84801C0F84031704700BF79
:102DB000C92B0008806A704770477047704770479A
:102DC00030B4C26844685510034604EB6200D20771
:102DD00048BF62599B6830BC48BFD3581847034668
:102DE000406830B19A681AB9D86800F0010070479D
:102DF0000120704710B51021044621F093FF2046B2
:102E000010BD10B5F821044621F08CFF204610BDFE
:102E100000F1A0028A4203D10368D3F88C3018472E
:102E200070470000074A02600022C0E90122C0E9A1
:102E30000322C0E90522C0E907224FF48072828490
:102E4000704700BF6049050870B5036804461B6BF6
:102E5000154698472368294620465B6BBDE87040BD
:102E600018470000F8B5194B018F1B888B420646A6
:102E70002AD9174B1B682BB9164B174A17486C21D8
:102E800022F08CFE13F81120154B1B6853F82250CA
:102E9000144B186801F064FD2B6807469B6B2846AD
:102EA00098472B6804469B6C3946284698472B6800
:102EB00014FB00F45B6A394628469847A4B22318ED
:102EC0001BB2A6F84630F8BD0023FAE72C3C0220DE
:102ED000283C0220EE730208307402086B7402086A
:102EE000303C0220343C02202DE9F047044688B0F3
:102EF00026460025FFF796FF4D4BA56246F82C3B72
:102F00004FF0260842462946304623F04EF8304618
:102F1000FFF788FF474BE36204F15807FF2342465F
:102F2000294684F852306565384623F03EF8384625
:102F3000FFF778FF404BA3654FF6FF7304F1A0083D
:102F40004FF0FF39DFF800A1A4F884304FF47F037D
:102F5000C4F88C30C4E92695C4F880A0C4F8885021
:102F6000A4F89050C4F8945040460BF09BFC334BAF
:102F7000C4E93A34324BC4E93C354FF0C8132A4611
:102F8000A36029463046FFF75FFF3046C821FFF7B0
:102F90009FFB3046C821FFF79DFB2A4B63653146F6
:102FA000204607F0D3FC6E46372238460B21FFF748
:102FB0004BFF39463046C4F88890A4F88C500AF08C
:102FC00049FE96E8070004F1940383E807001823FC
:102FD0000DEB03013846ADF81C30CDF818A00BF00E
:102FE000E1F83946204607F0B1FC4046782232210C
:102FF000FFF72AFF06AA05A94046ADF81450ADF820
:1030000018500BF022F91623A4F8D8304046FFF7E9
:1030100029FF04F1E8032046C4E93799C4F8C83011
:10302000414607F093FC204608B0BDE8F08700BF9A
:10303000403D05083C470508AC460508283D050805
:10304000112E0008929296FF883C05087047704741
:1030500070477047704730B5036885B06D46018191
:10306000D3F88430014604462846984795E807007F
:103070003C3484E8070005B030BD30B5036885B046
:103080006D464181D3F8843001460446284698476E
:1030900095E807003C3484E8070005B030BD002205
:1030A000028042808280C280704780F8361070476C
:1030B00070B5036804461B6B15469847236829467C
:1030C00020465B6EBDE87040184700207047806C5A
:1030D000704770477047704730B4C26844685510F5
:1030E000034604EB6200D20748BF62599B6830BCBC
:1030F00048BFD35818470346406830B19A681AB998
:10310000D86800F0010070470120704710B54C21CD
:10311000044621F007FE204610BD10B510210446DC
:1031200021F000FE204610BD10B5044600F5967053
:1031300001F080FF04F58050043002F033F804F50C
:103140008A500430BDE8104001F09CBD08B5FFF77F
:1031500075FB08BD00F1F0028A4202D10368DB6A08
:1031600018477047036870B55E6B124B1B680446C6
:103170008DB22BB9104B114A6C21114822F00EFD73
:103180001049828D0988914203D80F4B0B4A6D215B
:10319000F3E713F812200D4B1B6853F82200036865
:1031A0001B6B9847291A3346204609B2BDE8704088
:1031B000184700BF283C0220EE7302083074020852
:1031C0006B7402082C3C0220B2740208303C0220CE
:1031D00000224FF0FF31C0E90021826070470000FB
:1031E00038B500F580550D4B036004460C4BC5F80F
:1031F000443100F58A500430FFF7E0FD094B6B6065
:103200002846043001F0E2FB074BC4F82C3104F5EA
:10321000967000F069FA204638BD00BF803E050870
:10322000C441050850430508BC42050810B50446D2
:10323000FFF7D6FF204641F20C3121F073FD204606
:1032400010BD70B504461D46BDF91060FFF7FCFDCA
:103250002368294620469B6B9847236831462046C1
:10326000DB6BBDE8704018474FF4807181840E49D4
:1032700081624FF6FF7181854FF47F0141630B49F5
:10328000016000224FF0FF31C0E90122C0E90322B2
:10329000C0E90522C0E90722C0E9101202630287D3
:1032A000C2638264704700BF883C0508D83D0508AA
:1032B0002DE9F04F044693B010F0D4FAC94B2360C7
:1032C000C94B0025C4E910354FF4807304F16C0735
:1032D000A4F86430FF234FF6FF7684F8663010A917
:1032E0003846C4E91255C4E91455C4E91655E563D6
:1032F0002566A566ADF840600AF002FA04F198036D
:1033000010A918460393ADF840600AF0F9F904F1EA
:10331000C40310A918460493ADF840600AF0F0F910
:1033200004F1F0031846059304F5805B0BF05CF99B
:1033300004F5967318460BF1040B04F58A580693AE
:1033400008F1040801F0EAFD584601F021FF40466B
:1033500001F08EFC04F591531C3304F5945A184681
:103360000AF1080A0293FFF77FFF5046FFF77CFF40
:103370009E4B04F58056C6E9BF349D4BC6E9C13566
:103380004FF4A0732A4604F1400000932946F0232D
:103390000790FFF756FF079804F104094FF07F43A9
:1033A0000146A366484607F0D1FA0123384610A922
:1033B000ADF840300BF03FF94FF4A0732A46384681
:1033C00000932946F023FFF73CFF384629460AF0D0
:1033D00052F93946484607F0B9FA282703230398DB
:1033E000ADF8403010A90BF026F9052264230398AC
:1033F00000970F21FFF725FF039829460AF03BF9B4
:103400000399484607F0A2FA06230498ADF8403025
:1034100010A90BF010F9C82340F207120498009786
:103420001421FFF70EFF049829460AF024F90499A5
:10343000484607F08BFA05984FF48272A521FFF7F2
:1034400003FD0423ADF83430ADF838300223ADF875
:103450003C30ADF8403010AB0EAA059800930DA992
:103460000FAB0BF02CF86123C4F8283104F5975307
:103470001C33C4F818310599484607F067FA322220
:1034800006981421FFF7E0FC0699484607F05EFA1B
:10349000322258461421FFF7D7FC5946484686F891
:1034A000295007F053FA322240461421FFF7CCFC92
:1034B0004146484686F8695107F048FA1E220298AC
:1034C000DFF84CB17821FFF7BFFC4FF07F43C6F81F
:1034D0006C32D6F83C320299D3F88430A6F8705298
:1034E00008AF3846984797E80700029B3C3383E8CB
:1034F0000700DBF8003004F5965808F114082BB9E2
:103500003C4B3D4A60213D4822F048FB3C4B1B8828
:10351000112B03D83B4B384A6121F4E73A4B112178
:10352000186801F01DFA394A03460A21404612F094
:10353000A1FA0298C6F884820AF014FEDFF8D4805B
:103540000298CDF84080142310A9ADF844300AF059
:1035500029FE0299484607F0F9F90F2278215046D2
:10356000FFF772FCD6F88832A6F8BC524FF07F42C3
:10357000D3F88430C6F8B82251463846984797E8C1
:1035800007000AF13C0383E80700DBF8003004F58C
:1035900097550835002BB3D0194A1388122BB9D987
:1035A000194B1221186801F0DBF9184A03460A2169
:1035B000284612F05FFA5046C6F8D0520AF0D2FD03
:1035C000152310A95046ADF84430CDF840800AF0DC
:1035D000E9FD4846514607F0B9F9204613B0BDE869
:1035E000F08F00BF803E05083C470508683E05088F
:1035F00055310008EE730208F07402086B7402087B
:103600002C3C0220B2740208343C02203B750208B4
:10361000283C0220883C0508406A7047806A704751
:1036200070478A880B8810B5D20A4C88C1699BB252
:1036300051F8220043EA0443184410BD10B5044673
:10364000BAB1107B68B1537BD27A1B0203F4E063FA
:103650001A43236A03EB82031A888A4202D193F940
:10366000020010BD05D8013880B204330028F3D120
:10367000F7E70020F5E710B52C21044621F052FBB6
:10368000204610BD30B58BB00446BDF8605008959B
:10369000BDF85C5007959DF8505006959DF84C502C
:1036A00005959DF8485004959DF8445003959DF864
:1036B000405002959DF83C500195BDF8385000955A
:1036C0000FF0B4FE064B2360159BE361169B23624B
:1036D000199B63621A9BA36220460BB030BD00BFEA
:1036E000B83E05087047704770477047A0F8501003
:1036F0007047B0F85000704701867047008E7047E1
:1037000010B56021044621F00DFB204610BD10B518
:103710004821044621F006FB204610BD10B540F6B6
:103720009851044621F0FEFA204610BD08B590F8E5
:1037300026300BB1FFF782F808BD90F84C3070B519
:103740000446002B4AD0B0F84E00B4F85030013097
:1037500080B29842A4F84E0040D3B4F85450B4F864
:103760005620A66D521BC01A12B2B4F85230002176
:1037700080B2B04794F836200544ABB22DB2AA42CD
:1037800005D02DBB2046FFF759F884F83650B4F821
:103790005030B4F85210B4F84E200B449A421DD366
:1037A000002384F84C30A4F852300EF03FF8214644
:1037B00004300EF060F8E06D80B10368DB68984774
:1037C00060B1E06D036821469B68BDE87040184712
:1037D00084F836302046FFF731F8D8E770BD90F80E
:1037E0002C302DE9F0410446002B41D0C38D028ED0
:1037F00001339BB29342C3853AD39B1A9DB2028F89
:10380000838EC66BD21A12B2438E00212846B0476F
:10381000E38E628F276CD21A0646638E12B20021A5
:103820002846B847E38EC218A38EF11812B209B227
:103830002046FEF756FF238E618EE28D0B449A429E
:1038400016D3002384F82C30E3850DF0EFFF2146DA
:1038500004300EF010F8606C50B10368DB689847D4
:1038600030B1606C036821469B68BDE8F0411847A1
:10387000BDE8F08110B50446FFF7D4FA024B23608F
:103880000023A362204610BD4844050810B5262237
:103890000446002122F089FB2046FFF7C3FA044BBF
:1038A0002360FF2384F826300023A362204610BD46
:1038B0003C47050800224FF0FF31C0E9002182603B
:1038C0007047000010B50446FFF7E0FF064B236089
:1038D0000023C4E90C33C4E90E33C4E9103384F87F
:1038E0002C30E385204610BD203F050838B5262240
:1038F0000446002122F059FB2046FFF793FA0E4BB5
:1039000023600E4BA3624FF6FF730025A3854FF48F
:103910007F03C4E90C53258704F13C00FFF7CAFF7D
:10392000074BA564236084F84C50A4F84E50A4F8CB
:103930005050E565204638BDAC460508883C050872
:10394000903F05082DE9F04F0446B9B02646FFF731
:1039500091FFDA4B46F82C3B3046FFF797FF04F116
:10396000580304F18405184604F1CC0A0693FFF7C6
:1039700081FF2846FFF7A6FF5046FFF7B7FF04F583
:10398000967318460793FFF775FF04F5AC73184656
:103990002193FFF797FF04F5D07318460293FFF7C2
:1039A000A5FF04F5007318460893FFF763FF04F5BD
:1039B0000B7318462293FFF785FF04F51D73184615
:1039C0000393FFF793FF04F5357318460993FFF748
:1039D00051FF04F5407318462393FFF773FF04F576
:1039E000527318460493FFF781FF04F56A73184673
:1039F0000A93FFF73FFF04F5757318462493FFF70A
:103A000061FF04F21C4318460593FFF76FFF04F2B1
:103A10007C4318460B93FFF72DFF04F5956318467A
:103A20002593FFF74FFF04F59E6318461693FFF7A3
:103A30005DFF04F5AA6318460C93FFF71BFF04F221
:103A40007C5318462693FFF73DFF04F2C4531846F3
:103A50001793FFF74BFF04F2246318460D93FFF70B
:103A600009FF04F5CA6318462793FFF72BFF04F5F7
:103A7000D36318461893FFF739FF04F5DF63184640
:103A80000E93FFF7F7FE04F2247318462893FFF70E
:103A900019FF04F26C7318461993FFF727FF04F21D
:103AA000CC7318460F93FFF7E5FE04F5FF63184645
:103AB0002993FFF707FF04F5046318461A93FFF7ED
:103AC00015FF04F50A6318461093FFF7D3FE04F6BA
:103AD000CC0318462A93FFF7F5FE04F61413184694
:103AE0001B93FFF703FF04F6741318461193FFF7B7
:103AF000C1FE04F51A6318462B93FFF7E3FE04F6A4
:103B0000E81318461C93FFF7F1FE04F64823184605
:103B10001293FFF7AFFE04F6742318462C93FFF7B9
:103B2000D1FE04F6BC2318461D93FFF7DFFE04F612
:103B30001C3318461393FFF79DFE04F648331846CE
:103B40002D93FFF7BFFE04F5396318461E93FFF768
:103B5000CDFE04F53F6318461493FFF78BFE04F681
:103B60001C4318462E93FFF7ADFE04F66443184637
:103B70001F93FFF7BBFE04F6C44318461593FFF7E7
:103B800079FE04F54F6318462F93FFF79BFE04F66A
:103B9000385318462093FFF7A9FE4FF0C813A360CF
:103BA0000022C823114600933046FFF74AFB444BDE
:103BB0006365314620462D2606F0C8FE97220698FA
:103BC000009633461146FFF73CFB00221146009653
:103BD00033462846FFF735FB3A4B0698C4F8AC301D
:103BE0004FF00F09294606F0B1FE33464A465046CB
:103BF000CDF800900021FFF724FBD4F8CC3000274B
:103C00000DF1C0084FF07F42C4F8FC2051464046F9
:103C1000D3F88430A4F80071984798E80700D4F8E6
:103C2000CC304FF0060B04F5847585E80700D3F817
:103C3000843084F805B151464046984798E807001B
:103C400085E8070035AD204A359229465046ADF843
:103C5000D8900AF0A7FA0698514606F077FE069922
:103C6000204606F073FE0798009633469722662199
:103C7000FFF7E7FA3A462198009633463946FFF7B0
:103C8000E0FA104B21990798C4F8803106F05EFEE7
:103C90004A460298CDF8009033463946FFF7D1FAEC
:103CA000D4F8A031A4F8D4714FF07F41C4F8D011FA
:103CB00040460299D3F8843008E000BF2840050848
:103CC000A0ADBBFFB4C1CDFF883C0508984798E87C
:103CD0000700D4F8A03104F5EE7A8AE80700D3F89B
:103CE0008430029984F8D9B14046984798E8070093
:103CF0000D238AE80700CF4A029835922946ADF88D
:103D0000D8300AF04FFA0299079806F01FFE07997B
:103D1000204606F01BFE0898009633469722352170
:103D2000FFF78FFA3A462298009633463946FFF756
:103D300088FAC14B22990898C4F8543206F006FE5E
:103D40004A460398CDF8009033463946FFF779FA92
:103D5000D4F87432A4F8A8724FF07F41C4F8A412CA
:103D600040460399D3F88430984798E80700D4F880
:103D7000743204F52C7A8AE80700D3F8843003996A
:103D800084F8ADB24046984798E807000C238AE8CB
:103D90000700A84A039835922946ADF8D8300AF0B2
:103DA00001FA0399089806F0D1FD0899204606F01B
:103DB000CDFD09980096334697220421FFF741FA7A
:103DC0003A462398009633463946FFF73AFA9A4B1B
:103DD00023990998C4F8283306F0B8FD4A46049898
:103DE000CDF8009033463946FFF72BFAD4F8483324
:103DF000A4F87C734FF07F41C4F8781340460499CF
:103E0000D3F88430984798E80700D4F8483304F58D
:103E1000617A8AE80700D3F88430049984F881B382
:103E20004046984798E807000B238AE80700814A34
:103E3000049835922946ADF8D8300AF0B3F90499C0
:103E4000099806F083FD0999204606F07FFD0A983F
:103E50000096334666229721FFF7F3F93A462498F5
:103E6000009633463946FFF7ECF9734B24990A98CC
:103E7000C4F8FC3306F06AFD4A460598CDF8009078
:103E800033463946FFF7DDF9D4F81C34A4F85074F2
:103E90004FF07F41C4F84C1440460599D3F8843064
:103EA000984798E80700D4F81C3404F58B6A8AE830
:103EB0000700D3F88430059984F855B440469847F4
:103EC00098E807000A238AE807005A4A05983592BD
:103ED0002946ADF8D8300AF065F905990A9806F038
:103EE00035FD0A99204606F031FD66220B980096B2
:103EF00033461146FFF7A5F93A4625980096334612
:103F00003946FFF79EF94C4B25990B98C4F8D034ED
:103F100006F01CFD33464A461698CDF80090394607
:103F2000FFF78FF94FF07F41C4F82015A4F82475EE
:103F30002846FFF7BFFC95E8070004F22C5888E8F4
:103F4000070084F829B52846FFF7B4FC95E8070078
:103F5000092388E80700374A169835922946ADF8B4
:103F6000D8300AF01FF916990B9806F0EFFC0B9960
:103F7000204606F0EBFC0C9800963346662235216D
:103F8000FFF75FF93A462698009633463946FFF721
:103F900058F9294B26990C98C4F8A43506F0D6FC9C
:103FA00033464A461798CDF800903946FFF749F94D
:103FB0004FF07F41C4F8F415A4F8F8752846FFF7D0
:103FC00079FC95E8070004F5C06888E8070084F8E4
:103FD000FDB52846FFF76EFC95E80700082388E842
:103FE0000700144A179835922946ADF8D8300AF0E0
:103FF000D9F817990C9806F0A9FC0C99204606F000
:10400000A5FC0D980096334666220521FFF719F9A5
:104010003A462798009633463946FFF712F9064B81
:1040200027990D98C4F8783606F090FC33464A4636
:1040300004E000BF883C0508B4C1CDFF1898CDF856
:1040400000903946FFF7FDF84FF07F41C4F8C816DD
:10405000A4F8CC762846FFF72DFC95E8070004F27B
:10406000D46888E8070084F8D1B62846FFF722FC18
:1040700095E80700072388E80700D34A1898359287
:104080002946ADF8D8300AF08DF818990D9806F049
:104090005DFC0D99204606F059FC0E9800963346BB
:1040A00035229721FFF7CDF83A46289800963346F7
:1040B0003946FFF7C6F8C54B28990E98C4F84C3717
:1040C00006F044FC33464A461998CDF8009039462C
:1040D000FFF7B7F84FF07F41C4F89C17A4F8A0771A
:1040E0002846FFF7E7FB95E8070004F5F56888E840
:1040F000070084F8A5B72846FFF7DCFB95E8070022
:1041000088E80700B04A199835922946ADF8D8B02A
:104110000AF048F819990E9806F018FC0E992046F6
:1041200006F014FC0F980096334635226621FFF7FF
:1041300088F83A462998009633463946FFF781F8C1
:10414000A24B29990F98C4F8203806F0FFFB33469C
:104150004A461A98CDF800903946FFF772F84FF0AA
:104160007F41C4F87018A4F874782846FFF7A2FBC2
:1041700095E8070004F67C0888E8070084F879B819
:104180002846FFF797FB95E80700052388E8070016
:104190008D4A1A9835922946ADF8D8300AF002F8BF
:1041A0001A990F9806F0D2FB0F99204606F0CEFB25
:1041B00035221098009633461146FFF742F83A46EA
:1041C0002A98009633463946FFF73BF87F4B2A99E9
:1041D0001098C4F8F43806F0B9FB33464A461B98E9
:1041E000CDF800903946FFF72CF84FF07F41C4F826
:1041F0004419A4F848792846FFF75CFB95E80700C6
:1042000004F5156888E8070084F84DB92846FFF7DB
:1042100051FB95E8070088E807004FF004086A4A58
:104220001B9835922946ADF8D88009F0BBFF1B9941
:10423000109806F08BFB1099204606F087FB11982A
:104240000096334641463522FEF7FBFF3A462B984F
:10425000009633463946FEF7F4FF5C4B2B991198D4
:10426000C4F8C83906F072FB33464A461C98CDF8AC
:1042700000903946FEF7E5FF4FF07F41C4F8181A69
:10428000A4F81C7A2846FFF715FB95E8070004F60A
:10429000242A8AE8070084F821BA2846FFF70AFB97
:1042A00095E8070003238AE80700474A1C983592DF
:1042B0002946ADF8D83009F075FF1C99119806F021
:1042C00045FB1199204606F041FB129800963346B3
:1042D00042469721FEF7B5FF3A462C9800963346A2
:1042E0003946FEF7AEFF394B2C991298C4F89C3A28
:1042F00006F02CFB33464A461D98CDF8009039460F
:10430000FEF79FFF4FF07F41C4F8EC1AA4F8F07A53
:104310002846FFF7CFFA95E8070004F6F82A8AE85E
:10432000070084F8F5BA2846FFF7C4FA95E80700B5
:1043300002238AE80700244A1D9835922946ADF8E1
:10434000D83009F02FFF1D99129806F0FFFA129944
:10435000204606F0FBFA1398009633464246662143
:10436000FEF76FFF3A462D98009633463946FEF722
:1043700068FF164B2D991398C4F8703B06F0E6FAC7
:1043800033464A461E98CDF800903946FEF759FF4D
:104390004FF07F41C4F8C01BA4F8C47B2846FFF748
:1043A00089FA95E8070004F6CC3A8AE8070084F811
:1043B000C9BB2846FFF77EFA95E807008AE80700A0
:1043C000014A1E9804E000BF883C0508B4C1CDFF37
:1043D00035924FF0010A2946ADF8D8A009F0E2FE67
:1043E0001E99139806F0B2FA1399204606F0AEFA19
:1043F00014980096334642463521FEF722FF3A468E
:104400002E98009633463946FEF71BFF404B2E99F7
:104410001498C4F8443C06F099FA33464A461F986B
:10442000CDF800903946FEF70CFF4FF07F41C4F8FD
:10443000941CA4F8987C2846FFF73CFA95E80700FE
:1044400004F54A6383E8070084F89DBC284602937C
:10445000FFF730FA95E80700029BADF8D87083E8C3
:1044600007002C4A1F983592294609F09BFE1F9998
:10447000149806F06BFA1499204606F067FA15981E
:104480000096334642464146FEF7DBFE3A462F98F9
:10449000009633463946FEF7D4FE1D4B2F991598EA
:1044A000C4F8183D06F052FA4A4639462098CDF82D
:1044B00000903346FEF7C5FE4FF07F43C4F8683DD9
:1044C000A4F86C7D2846FFF7F5F995E8070004F697
:1044D000745686E8070084F871BD2846FFF7EAF9AC
:1044E00095E8070086E807000A4A20983592294691
:1044F000ADF8D8A009F056FE2099159806F026FAD6
:104500002046159906F022FA204639B0BDE8F08F12
:10451000B4C1CDFF883C05087047000030B5164D8A
:104520002C6814F001048FB0BFF35B8F20D12846B4
:1045300020F0FAFBE0B13F230993104B0893104B96
:10454000104911480A94CDE906430423CDE90243FA
:104550000A2300930122CDE90B44CDE904440194E0
:10456000FFF790F8094821F037FB284620F0E8FBD8
:1045700005480FB030BD00BF1C2D01202468050880
:104580003C68050880640508202D012019450008B5
:104590007047000030B5164D2C6814F001048FB040
:1045A000BFF35B8F20D1284620F0BEFBE0B13F2354
:1045B0000993104B0893104B104911480A94CDE908
:1045C00006430423CDE902430A2300931522CDE9D3
:1045D0000B44CDE904440194FFF754F8094821F055
:1045E000FBFA284620F0ACFB05480FB030BD00BFF9
:1045F0004C2D0120286805084068050890640508CE
:10460000502D0120914500087047000030B5164D2F
:104610002C6814F001048FB0BFF35B8F20D12846C3
:1046200020F082FBE0B13F230993104B0893104B1D
:10463000104911480A94CDE906430423CDE9024309
:104640000E2300930B22CDE90B44CDE904440194E1
:10465000FFF718F8094821F0BFFA284620F070FB50
:1046600005480FB030BD00BF7C2D01202C68050827
:1046700044680508B8650508802D01200946000832
:104680007047000030B5164D2C6814F001048FB04F
:10469000BFF35B8F20D1284620F046FBE0B13F23DB
:1046A0000993104B0893104B104911480A94CDE917
:1046B00006430423CDE902430F2300930E22CDE9E4
:1046C0000B44CDE904440194FEF7DCFF094821F0D6
:1046D00083FA284620F034FB05480FB030BD00BFF8
:1046E000AC2D0120306805084868050854660508A7
:1046F000B02D0120814600087047000030B5164DEE
:104700002C6814F001048FB0BFF35B8F20D12846D2
:1047100020F00AFBE0B13F230993104B0893104BA4
:10472000104911480A94CDE906430423CDE9024318
:104730001B2300930A22CDE90B44CDE904440194E4
:10474000FEF7A0FF094821F047FA284620F0F8FAC2
:1047500005480FB030BD00BFDC2D012034680508CE
:104760004C68050818670508E02D0120F946000887
:104770007047000030B5164D2C6814F001048FB05E
:10478000BFF35B8F21D1284620F0CEFAE8B13F235A
:104790000993104B0893104B104911480A94CDE926
:1047A00006430423CDE90243232300930922242353
:1047B000CDE90B44CDE904440194FEF763FF0948B9
:1047C00021F00AFA284620F0BBFA05480FB030BDA8
:1047D0000C2E01203868050850680508A4670508F4
:1047E000102E0120714700080020704700207047FC
:1047F0000EB403B503AB002153F8042B01930EF064
:10480000B7F802B05DF804EB03B070470CB407B51D
:1048100004AB53F8042B01930EF0AAF803B05DF833
:1048200004EB02B07047000010B504460FF052FAD6
:10483000E38E04EB43035884636C5BB3238F2BB983
:10484000174B184AC521184821F0A8F910B3204683
:1048500010F067FB238F012B03D8144B144ACB2194
:10486000F1E7E28E531C9BB2092B194688BFA3F1D6
:104870000A0104EB410140F63F10498C814209D105
:104880000A2B04EB420228BF002304EB4303508CA5
:10489000588451842046BDE8104010F045BA00BF4E
:1048A0003E75020847750208F27502083C76020858
:1048B0004A76020810B5044610F0FDF92046BDE81E
:1048C00010400FF002BA10B586B002AC84E80600C2
:1048D0001A460AAB05930193099B00932146089B56
:1048E0000CF00EFB06B010BD38B518BB124B1348C8
:1048F0001C681349B4B122682244026062682244F1
:104900000A60A26814440F4B00221A8000F038F8A5
:10491000054600F033F80C4B1C600C4B1D600C4B33
:10492000188007E00B4B03600B4B0B600B4B1C68B4
:10493000002CE8D138BD00BF482E0120402E0120B8
:104940003C2E0120442E0120283C0220303C022035
:104950002C3C022054680508D06805083869050811
:10496000044B1B6853F82100034B1B6803EB40000A
:10497000704700BF3C2E0120402E01201A207047B6
:10498000004870474C2E012010B5FFF7C7FD094CB9
:104990002060FFF7EFFE6060FFF738FEA060FFF7D2
:1049A000ADFEE060FFF76EFE2061FFF7F3FD606192
:1049B00010BD00BF4C2E012010B5002404600C6017
:1049C00014601C6010BD7047704770477047704797
:1049D00030B4C26844685510034604EB6200D20745
:1049E00048BF62599B6830BC48BFD358184703463C
:1049F000406830B19A681AB9D86800F00100704771
:104A00000120704710B51021044620F08BF9204694
:104A100010BD10B54FF4A071044620F083F9204674
:104A200010BD00F1A003994270B504460D4603D1B4
:104A30000368D3F88C30984704F1E8039D4206D10F
:104A400023682046D3F89030BDE87040184770BD09
:104A50002DE9F04F044689B026460025FEF7E2F91D
:104A60005D4BA56246F82C3B4FF02608424629468E
:104A7000304621F09AFA3046FEF7D4F9574BE362FC
:104A800004F15807FF234246294684F852306565F1
:104A9000384621F08AFA3846FEF7C4F9504BA36530
:104AA0004FF6FF7304F1A00A4FF0FF39DFF844B16D
:104AB000A4F884304FF47F0304F1E808C4F88C3084
:104AC000C4E92695C4F880B0C4F88850A4F8905082
:104AD000C4F89450504609F0E5FE404609F0E2FE65
:104AE000404BC4E94C34404BC4E94E354FF0C81339
:104AF0002A46A36029463046FEF7A6F93046C8216B
:104B0000FDF7E6FD3046C821FDF7E4FD374B636550
:104B10003146204605F01AFF182238460B21FEF7D1
:104B200093F96E46324BC4F8883039463046A4F8C3
:104B30008C5009F08FF896E8070004F1940383E89D
:104B40000700192306A93846ADF81C30CDF818B077
:104B500009F028FB3946204605F0F8FE5046502261
:104B60003221FEF771F906AA05A95046ADF8145096
:104B7000ADF8185009F069FB1723A4F8D830504657
:104B800004F59876FEF76EF951462046C4E9379948
:104B9000C4F8C86005F0DAFE404682223221FEF7F2
:104BA00053F906AA05A94046ADF81450ADF81850BF
:104BB00009F04BFB1023A4F820314046FEF752F9D0
:104BC0002046C4E94999C4F81061414605F0BEFE8B
:104BD000204609B0BDE8F08FD44005083C470508E1
:104BE000AC460508BC400508234A00088C8CFFFF32
:104BF000F7F7FFFF883C0508704710B54FF4AE711A
:104C0000044620F08FF8204610BD10B50446D0F8B9
:104C1000580100F06CF92046BDE810400CF0A2BE2F
:104C200010B50446FEF782F8014B2360204610BD04
:104C300070410508034B186810B10368DB6A184718
:104C4000704700BF642E012010B5034B036004467B
:104C5000FEF7B4F8204610BDC441050810B504465F
:104C6000FFF7F2FF2046F82120F05CF8204610BD47
:104C700010B50446FEF738F9014B2360204610BDFD
:104C8000C4410508FEF79BB8704704387047704769
:104C900010B51021044620F045F8204610BDA0F1C3
:104CA0000400F5E700228260024A02601832426086
:104CB000C16070475C4205087047000010B5034BA7
:104CC00003600446FEF78CFA204610BD84420508B6
:104CD00010B50446FFF7F2FF204641F2143120F0F0
:104CE00021F8204610BD000010B50446FEF7E0FA9A
:104CF000014B2360204610BD8442050870B5044670
:104D0000FEF712FA04F5967000F094F9114B1C604E
:104D1000FBF788FE04F5805604F5965514350346D6
:104D20000D4AC6F80C030A21284610F0A3FE04F52C
:104D30009150C6F884521C300DF021FF4FF0FF3324
:104D4000C6F81033054B0022BDE870401A70FBF71F
:104D5000A9BD00BF642E01201C7702084405012074
:104D600070B500F58056002500F58A5086F8695127
:104D700004300DF004FF304686F8295004300DF061
:104D8000FEFE044B01201D70FBF77AFEBDE870406B
:104D9000FBF788BD4405012010B500F580530122C2
:104DA000044683F829200320FBF76AFE04F58050AF
:104DB0000430BDE810400DF0E2BE10B500F58053A0
:104DC0000122044683F869210020FBF759FE04F50F
:104DD0008A500430BDE810400DF0D1BE00F580537C
:104DE00010B51846002483F8294004300DF0C7FEA2
:104DF000024B01221A70024B1C6010BD44050120B9
:104E000000050120F8B500F580550646D5F81033A9
:104E10008B420C462DD000F5975708370B46154AA4
:104E2000C5F8101338460A2110F024FE06F59450F8
:104E3000C5F8D07208300DF0A2FED5F80C33A342AD
:104E400017DA06F59657143723460A4AC5F80C4375
:104E50000A21384610F00EFE06F59150C5F884720E
:104E60001C300DF08CFED5F80C03BDE8F840FBF7C4
:104E7000D1BDF8BD1C770208184B1A782DE9F04116
:104E800004460AB300221A70154B1968FFF7BAFFDF
:104E9000144B1B68012B19D0022B1BD0FBF7C8FD4C
:104EA0000026074604F5967407EB0618002558F807
:104EB00025302A4631462046013500F039F8042DC8
:104EC000F5D10136042EEFD1BDE8F0812046FFF781
:104ED00063FFE3E72046FFF770FFDFE79408012058
:104EE000FC04012000050120002202607047704789
:104EF00010B5034B03600446FEF7F6FB204610BDD9
:104F0000BC42050810B50446FFF7F2FF204640F604
:104F1000D8611FF007FF204610BD000010B5044601
:104F2000FEF710FD014B2360204610BDBC42050872
:104F30002DE9F04102EB810500EB85051C46D5F813
:104F4000986E002E5AD0D5F8585E6BB986F8253089
:104F50002B4BAB622B6828465B6998473368304619
:104F60005B69BDE8F04118470C277A4302F6985276
:104F7000302707FB01214718224A0621384610F046
:104F800079FD0123B76486F82530002DE6D0402C4A
:104F900028D013DC082C27D008DC022C26D01A4A93
:104FA0001A4B042C08BF1A46AA62D3E7102C1FD054
:104FB000154A174B202C08BF1A46F5E7B4F5007FB9
:104FC00018D008DC802C17D00F4A124BB4F5807F24
:104FD00008BF1A46E8E70C4A0F4BB4F5806F08BFCC
:104FE0001A46E1E70D4ADFE70D4ADDE70D4ADBE748
:104FF0000D4AD9E70D4AD7E70D4AD5E7BDE8F0815C
:10500000B4C1CDFF1C770208C8C8C8FF5A14F0FF0E
:10501000D69500FFA5D729FF9B065FFF7B00CEFF3B
:105020001BC9FFFFFF0096FF6395F5FF2400FFFFFC
:105030001855FFFF10B50446FEF757FB04F638532A
:10504000C4F8983E04F54F63C4F8583E04F6644330
:10505000C4F89C3E04F61C43C4F85C3E04F5396376
:10506000C4F8A03E04F64833C4F8603E04F6BC23FE
:10507000C4F8A43E04F67423C4F8643E04F6E813AE
:10508000C4F8A83E04F51A63C4F8683E04F6141385
:10509000C4F8AC3E04F6CC03C4F86C3E04F50463DB
:1050A000C4F8B03E04F5FF63C4F8703E04F26C73BC
:1050B000C4F8B43E04F22473C4F8743E04F5D36318
:1050C000C4F8B83E04F5CA63C4F8783E04F2C45389
:1050D000C4F8BC3E04F27C53C4F87C3E04F59E63E5
:1050E000C4F8C03E04F59563C4F8803E04F21C4346
:1050F000C4F8C43E04F57573C4F8843E04F55273D5
:10510000C4F8C83E04F54073C4F8883E04F51D7326
:10511000C4F8CC3E04F50B73C4F88C3E04F5D07390
:10512000C4F8D03E04F5AC73C4F8903E04F1CC034F
:10513000C4F8D43E04F18403C4F8943E10BD0000CA
:10514000034B186810B10368DB6A1847704700BF4B
:10515000642E0120024B186808B1FFF73FBE70476C
:10516000642E012010B5034B03600446FFF72EFCAC
:10517000204610BD5043050810B50446FFF7F2FF66
:1051800020464FF4A0711FF0CDFD204610BD000059
:1051900010B50446FFF75CFC014B2360204610BDB0
:1051A00050430508FFF713BCF02070474FF4A07080
:1051B00070472920FBF7E0BF2820FBF7DDBF08B5CB
:1051C000FBF7AEFFCA20FBF7D7FFC320FBF7B8FF02
:1051D0000820FBF7B5FF5020FBF7B2FFCF20FBF70D
:1051E000CBFF0020FBF7ACFFC120FBF7A9FF30206D
:1051F000FBF7A6FFED20FBF7BFFF6420FBF7A0FF46
:105200000320FBF79DFF1220FBF79AFF8120FBF79D
:1052100097FFE820FBF7B0FF8520FBF791FF002008
:10522000FBF78EFF7820FBF78BFFCB20FBF7A4FF6B
:105230003920FBF785FF2C20FBF782FF0020FBF7CE
:105240007FFF3420FBF77CFF0220FBF779FFF7207C
:10525000FBF792FF2020FBF773FFEA20FBF78CFFA0
:105260000020FBF76DFF0020FBF76AFFB120FBF782
:1052700083FF0020FBF764FF1B20FBF761FFB620D4
:10528000FBF77AFF0A20FBF75BFFA220FBF758FF32
:10529000C020FBF771FF1020FBF752FFC120FBF786
:1052A0006BFF1020FBF74CFFC520FBF765FF452087
:1052B000FBF746FF1520FBF743FFC720FBF75CFF1A
:1052C0009020FBF73DFF3620FBF756FFC820FBF789
:1052D00037FFF220FBF750FF0020FBF731FFB02033
:1052E000FBF74AFFC220FBF72BFFB620FBF744FF7A
:1052F0000A20FBF725FFA720FBF722FF2720FBF75B
:105300001FFF0420FBF71CFF2A20FBF735FF0020BE
:10531000FBF716FF0020FBF713FF0020FBF710FF41
:10532000EF20FBF70DFF2B20FBF726FF0020FBF7FC
:1053300007FF0020FBF704FF0120FBF701FF3F20E0
:10534000FBF7FEFEF620FBF717FF0120FBF7F8FE48
:105350000020FBF7F5FE0620FBF7F2FE2C20FBF702
:105360000BFFC820FBF756FF2620FBF705FF0120A7
:10537000FBF7E6FEE020FBF7FFFE0F20FBF7E0FE69
:105380002920FBF7DDFE2420FBF7DAFE0C20FBF7DB
:10539000D7FE0E20FBF7D4FE0920FBF7D1FE4E20EE
:1053A000FBF7CEFE7820FBF7CBFE3C20FBF7C8FED8
:1053B0000920FBF7C5FE1320FBF7C2FE0520FBF713
:1053C000BFFE1720FBF7BCFE1120FBF7B9FE002043
:1053D000FBF7B6FEE120FBF7CFFE0020FBF7B0FEA7
:1053E0001620FBF7ADFE1B20FBF7AAFE0420FBF7FF
:1053F000A7FE1120FBF7A4FE0720FBF7A1FE31203A
:10540000FBF79EFE3320FBF79BFE4220FBF798FE46
:105410000520FBF795FE0C20FBF792FE0A20FBF718
:105420008FFE2820FBF78CFE2F20FBF789FE0F2034
:10543000FBF786FE1120FBF79FFEC820FBF7EAFE74
:105440002920FBF799FEBDE808402C20FBF794BE0D
:1054500008B5FBF765FE0321D320FBF7A9FE80B258
:1054600008BD10B5C4B2022203212046FBF70EFE90
:105470000A20FBF753FE204600220321FBF706FE1D
:10548000BDE810400220FBF749BE38B50446E4B23F
:10549000FBF7FAFD00212046FBF710FE012105462F
:1054A0002046FBF70BFE40EA052080B238BD10B560
:1054B000C4B240212046FBF701FE030607D54C216C
:1054C0002046FBF7FBFD003818BF012010BD01226C
:1054D0004B212046FBF7DAFD204600224B21FBF74B
:1054E000D5FD0020F2E773B50423C4B20E4615467D
:1054F000D7210DEB03022046FBF7FAFD019B1BBAF7
:105500001A0DC3F30B23328020462B8001224B213E
:10551000FBF7BCFD00224B212046FBF7B7FD02B094
:1055200070BD000010B50A4A1378984204460DD0A9
:10553000517888420AD00BB141B90123D454FBF70A
:10554000A3FD2046BDE81040FFF78BBF10BD00BF94
:10555000682E012010B5C4B209212046FBF7AEFD2C
:1055600040F00102D2B220460921BDE81040FBF70D
:105570008DBD10B5C4B209212046FBF79FFD09215E
:1055800000F0FE022046BDE81040FBF77FBD38B5B5
:10559000C4B20D4620460A21FBF790FD40EA050201
:1055A000D2B220460A21BDE83840FBF76FBD10B5E6
:1055B0000446FBF76AFD20461F21FFF7E8FF20465F
:1055C000BDE81040FFF7C6BF38B5C4B20D4620464F
:1055D0000A21FBF773FD20EA0502D2B220460A2118
:1055E000BDE83840FBF752BD10B50446FFF7C1FFD8
:1055F00020461F21BDE81040FFF7E6BF10B5C0B23E
:105600000C460B21FBF75AFD204010BD1F21FFF770
:10561000F5BF0A46C0B20B21FBF738BD1F21FFF7CB
:10562000F8BF38B5C4B20D4620461721FBF746FD3A
:1056300020EA0502D2B220461721BDE83840FBF728
:1056400025BD70B5C4B2064604212046FBF736FDE1
:10565000042100F0FB0205462046FBF717FD30460B
:10566000F021FFF7DEFF05F0F80220460421FBF7EA
:105670000DFD492220212046FBF708FD0220FBF703
:105680004DFD204601222121FBF700FD20469A22F4
:105690004121FBF7FBFC204601224A21FBF7F6FCE7
:1056A000204601224B21FBF7F1FC204600224B2132
:1056B000FBF7ECFC204601225621FBF7E7FC2046D5
:1056C00001225821FBF7E2FC204601224021FBF792
:1056D000DDFC2046FF220B21FBF7D8FCBDE8704023
:1056E0000220FBF71BBD0000054BD3F8882042F4D5
:1056F0007002C3F888204FF000629A60704700BFC4
:1057000000ED00E008B50B4B1A6842F400721A6015
:105710001A6842F480621A601A6842F480721A6051
:10572000032000F02FF80020FCF794F8FBF780FD31
:10573000002008BD003C0240034A044B11681B785E
:105740000B441360704700BF6C2E0120D80101206C
:10575000014B1868704700BF6C2E012038B5044615
:10576000FFF7F6FF631C1CBF054B1B78054618BFEF
:10577000E418FFF7EDFF431BA342FAD338BD00BF87
:10578000D80101200749CA6822F4E062030212042A
:1057900003F4E063120C134343F0BF6343F400339C
:1057A000CB60704700ED00E0164B30B5DC68C4F309
:1057B0000224C4F10703251D042B28BF0423062D52
:1057C0004FF0FF358CBF033C002405FA03F321EAB8
:1057D0000303A54022EA0502A340002843EA02038E
:1057E000ACBF00F16040084A4FEA0313B8BF00F0B5
:1057F0000F00DBB2AABF00F56140135480F80033FC
:1058000030BD00BF00ED00E014ED00E0002807DB34
:10581000044A4109012300F01F00834042F821306F
:10582000704700BF00E100E010B5044650B1437975
:1058300003F0FF0213B90271FBF71AFD0123637134
:10584000002010BD0120FCE7036810B5084C02469B
:10585000D9B210391820B1FBF0F0205CD06523F4E8
:105860007F7020F003005F2988BF0430906510BD71
:10587000FC43050870B50446FFF76AFF0546002C97
:1058800060D0022384F835302268002384F8343055
:10589000136823F00103136022681368D8072ED41D
:1058A00013683248A1691840D4E901352B43E568F3
:1058B0002B4325692B4365692B43E5690B432B4338
:1058C000256A2B430343606A042802BFD4E90B56C0
:1058D00035432B4313605369042823F0070343EA3D
:1058E000000335D1A06AE56A03438DB391B901285D
:1058F00020D030F002012BD1E90129D51DE0FFF7BE
:1059000027FF401B0528C7D920230320636584F89F
:10591000350070BDB1F5005F16D1032818D801A17C
:1059200051F820F03B590008F95800083B5900088D
:1059300035590008B5F1C07F0AD1402363650123C2
:1059400084F835300120E4E70228F6D90328D3D0C3
:1059500053612046FFF778FFE26D3F239340836059
:1059600000200123606584F83530D2E73F8010F0D5
:1059700070B590F83440866D012C30D0012480F849
:10598000344090F83540012C4FF0000425D1022519
:1059900080F8355044650468256825F48025256025
:1059A00063608368402B0EBFA260A160E260C26D9D
:1059B00008BFE1603F239340B360236843F01603C0
:1059C0002360036C1BB1236843F008032360236842
:1059D00043F001032360002070BD80F834400220B2
:1059E000FAE70000F7B5002301935C4B856D1F6853
:1059F000C36D2E6808229A40324204460CD00168DA
:105A00000868400708D5086820F004000860AA600C
:105A1000626D42F00102626501229A40324208D072
:105A200021684969090641BFAA60626D42F002021D
:105A3000626504229A40324208D0216809688807CA
:105A400041BFAA60626D42F00402626510229A4072
:105A5000324210D02368196809070CD5AA601A6869
:105A6000500337D51B68190301D4236C00E0A36CE5
:105A70000BB120469847E16D20228A4032423AD04D
:105A800023681868C60636D5AA6094F83520052A1A
:105A90001A6827D122F016021A605A6922F0800291
:105AA0005A61226C0AB9A26C1AB11A6822F0080273
:105AB0001A603F238B40AB60012384F8353000230C
:105AC00084F83430236D002B45D0204603B0BDE868
:105AD000F04018471A68D2055EBF1A6822F0080223
