:020000040800F2
:10000000000003205D060008011700080317000820
:10001000051700080717000809170008000000006E
:100020000000000000000000000000001183000834
:100030000B17000800000000A18300082B7C0008BB
:10004000AD060008AD060008AD060008AD060008C4
:10005000AD060008AD060008AD0600080D17000843
:1000600013170008AD060008AD060008AD0600082D
:10007000AD060008AD060008AD060008AD06000894
:10008000AD060008AD060008AD060008AD06000884
:10009000AD060008AD060008AD060008AD06000874
:1000A000AD060008AD060008AD060008AD06000864
:1000B000AD060008AD060008AD060008AD06000854
:1000C000AD060008AD060008AD060008AD06000844
:1000D000AD060008AD060008AD060008AD06000834
:1000E00019170008AD060008AD060008AD060008A7
:1000F000AD060008AD060008AD060008AD06000814
:10010000AD060008AD060008AD060008AD06000803
:10011000AD060008AD06000831170008AD0600085E
:10012000AD060008AD060008AD060008AD060008E3
:10013000AD060008AD060008AD060008AD060008D3
:10014000AD060008AD060008AD060008AD060008C3
:10015000AD060008AD060008AD060008AD060008B3
:10016000AD060008AD060008AD060008AD060008A3
:10017000AD060008AD060008AD060008000000004E
:10018000AD060008AD060008AD060008AD06000883
:10019000AD060008AD060008AD060008AD06000873
:0C01A0003D170008AD06000849170008D4
:1001B00010B5054C237833B9044B13B10448AFF3A1
:1001C00000800123237010BD800300200000000088
:1001D000B860020808B5034B1BB103490348AFF3ED
:1001E000008008BD0000000084030020B860020801
:1001F00001F0FF01102A2BDB10F0070F08D010F8D8
:10020000013B013A8B422DD010F0070F42B3F6D1DB
:10021000F0B441EA012141EA014122F007047FF0F4
:1002200000070023F0E80256083C85EA010586EA4B
:10023000010685FA47F5A3FA87F586FA47F6A5FA87
:1002400087F68EB9EED1F0BC01F0FF0102F0070293
:1002500032B110F8013B013A83EA010313B1F8D13E
:100260000020704701387047002D06BF354603381F
:10027000073815F0010F07D1013015F4807F02BF58
:10028000013015F4C03F0130F0BC0138704700BFA9
:100290007BB972B90029BEBF00204FF0004106E0D3
:1002A00008BF00281CBF6FF000414FF0FF3000F086
:1002B000D3B9ADF1080C6DE904CE002909DB002BA0
:1002C0001ADB00F04DF8DDF804E0DDE9022304B0AC
:1002D0007047404261EB4101002B1BDB00F040F80E
:1002E000DDF804E0DDE9022304B0404261EB4101A6
:1002F000524263EB43037047524263EB430300F007
:100300002FF8DDF804E0DDE9022304B0404261EBA0
:1003100041017047524263EB430300F021F8DDF8DE
:1003200004E0DDE9022304B0524263EB430370476B
:1003300053B94AB9002908BF00281CBF4FF0FF314C
:100340004FF0FF3000F088B9ADF1080C6DE904CE34
:1003500000F006F8DDF804E0DDE9022304B07047A0
:100360002DE9F047089D8E4604468846002B4AD169
:100370008A42174662D9B2FA82F64EB1C6F120031C
:1003800001FA06F820FA03F3B74043EA0808B4403C
:100390004FEA174E1FFA87FCB8FBFEF1230C0EFB49
:1003A000118843EA084301FB0CF29A4209D9FB1871
:1003B00001F1FF3080F0EA809A4240F2E780023992
:1003C0003B449A1AA3B2B2FBFEF00EFB102243EAA2
:1003D000024300FB0CFC9C4509D9FB1800F1FF32DD
:1003E00080F0D6809C4540F2D3803B44023840EAFE
:1003F0000140A3EB0C0300211DB1F3400022C5E92D
:100400000032BDE8F0878B4205D90DB1C5E9000186
:1004100000210846F5E7B3FA83F1002946D1734578
:1004200002D3824200F20581841A6EEB030201209E
:100430009046002DE5D0C5E90048E2E7002A00F02B
:100440009080B2FA82F6002E40F0A4808A1A030C43
:100450004FEA174E80B2BCB20121B2FBFEFC0EFB8C
:100460001C2243EA024304FB0CF29A4207D9FB1810
:100470000CF1FF3802D29A4200F2E080C4469B1A87
:10048000B3FBFEF20EFB123340EA034302FB04F41B
:100490009C4207D9FB1802F1FF3002D29C4200F2C5
:1004A000CA8002461B1B42EA0C40A5E7C1F12006A8
:1004B0008B4022FA06F71F430EFA01F420FA06F3E6
:1004C0002EFA06FE4FEA1749234300FA01F81FFAF5
:1004D00087FCBEFBF9F01C0C09FB10EE44EA0E444D
:1004E00000FB0CFEA64502FA01F209D93C1900F105
:1004F000FF3A80F09C80A64540F2998002383C4447
:10050000A4EB0E041FFA83FEB4FBF9F309FB1344BA
:100510004EEA044403FB0CFCA44508D93C1903F142
:10052000FF3E80F08280A4457FD9023B3C4443EAF1
:100530000040A4EB0C04A0FB02EC64457346E146CA
:1005400062D35FD05DB1B8EB030264EB090404FA37
:1005500006F622FA01F31E43CC40C5E900640021EF
:100560004FE7B1FBF2FC010C41EA0E4180B240EAD8
:1005700001423B4638463C46B846BE462026B1FBC3
:10058000F7F1A2EB080241EA0C4166E7014618E7E1
:1005900010462CE7C6F120022EFA02F3B740B14014
:1005A00020FA02F24FEA174E0A43B3FBFEF8BCB240
:1005B0000EFB1833110C41EA034108FB04F9B0406B
:1005C00089454FEA104380B23ED9791808F1FF3CC3
:1005D00001D289451FD8A1EB0901B1FBFEF909FB46
:1005E00004F80EFB191192B242EA0142424529D2A7
:1005F000BA1809F1FF31C4D24245C2D2A9F10201B1
:100600003A44BEE7F0459DD2BEEB02036CEB070C0B
:100610000138E14696E7A7EB09094944A8F1020C25
:10062000B1FBFEF909FB04F8DBE773467FE75046B0
:1006300066E70846FDE63B44023A33E7ACF1020CBC
:100640003B441CE749469CE7A1EB0901C446B1FBCA
:10065000FEF909FB04F8C4E7704700BFDFF834D0A7
:10066000002103E00C4B5B58435004310B480C4B0A
:1006700042189A42F6D30B4A02E0002342F8043BA8
:10068000094B9A42F9D304F01FFF24F0A7FF00F0B2
:1006900031FA704700000320E488040800000020BD
:1006A0006801002080030020FC460120FEE70000D6
:1006B000002170B50B4604460A46084654F82150FE
:1006C0008DB1FAB195424FEA830603F1010315D1CA
:1006D0005200A2510E4D28681044286000220120CB
:1006E0008B4218BF012001310429E7D112B144F82F
:1006F000232001330022032B06DD70BDA25154F8E4
:100700002120EDE72A46EBE744F823200133F2E706
:100710009C03002008B504F00BFF034B984214BF64
:1007200058400120186008BD04000020034B044914
:100730001A68044801FB020018607047040000209A
:100740000D6619005FF36E3C70B5044600F140067B
:1007500000252046FFF7ACFF1034002818BF0546DF
:10076000B442F6D1284670BD7FB5044600F140067C
:100770000025E3680093A3680193636802936846C9
:1007800023680393FFF794FF009BE360019BA36042
:10079000029B6360039B44F8103B002818BF05468A
:1007A000B442E6D1284604B070BD7FB5041F00F105
:1007B0000C06002554F8043F009323690193236A33
:1007C00002936846236B0393FFF772FF009B23603D
:1007D000019B2361029B2362002818BF0546039BEF
:1007E0002363B442E6D1284604B070BD7FB5041F30
:1007F00000F10C060025636B0093636A0193636943
:100800000293684654F8043F0393FFF751FF009B9F
:100810002363019B2362029B2361002818BF0546C6
:10082000039B2360A642E6D1284604B070BD0000B9
:10083000F0B50024A1B00546264605EB04110023BF
:1008400051F823202AB920AA02EBC60242E920432C
:1008500001360133042BF3D10134042CEDD1002EE9
:100860001BDDFFF763FF20AAB0FBF6F303FB1603C3
:1008700002EBC30353E92076FFF758FF6423B0FB74
:10088000F3F202FB1300592805EB0715044B98BF40
:100890000224012245F826401A7021B0F0BD00BFA5
:1008A000800600200D4B10B500241C60FFF732FFBE
:1008B0000B4A234621460133042BC2E90011C2E949
:1008C000021102F11002F6D1064B05481960FFF73C
:1008D000AFFFBDE810400248FFF7AABF9C0300200D
:1008E000A4030020A003002000F10C024C30A2F170
:1008F000100353F8041F1F2904DD064B187880F0FD
:10090000010070479342F4D103F110028242EED10C
:1009100000207047E403002000F10C024C30A2F1EB
:10092000100353F8041F39B19342FAD103F11002B6
:100930008242F4D1002070470120704730B500F1A9
:100940000C0200F14C04A2F10C03196853F8045F87
:10095000A94200D1C1B99342F7D103F11002A242DA
:10096000F1D100F1300401460023103051F823206A
:1009700050F82350AA4200D132B90133042BF5D1EB
:100980008442F0D1002000E0012030BD10B50446C3
:10099000FFF7C2FF30B92046FFF7D0FF80F001001B
:1009A000C0B210BD0020FCE710B5164C2368022B26
:1009B0001AD0032818D8DFE800F002181C201248CB
:1009C000FFF7C2FE80B11048FFF732FF23682BB952
:1009D0000D48FFF789FF08B1012323600A48FFF79C
:1009E000D5FF08B10223236010BD0748FFF7BCFE06
:1009F000E8E70548FFF7D9FEE4E70348FFF7F6FE0E
:100A0000E0E700BFA0030020A4030020024600216D
:100A1000014806F0BEBA00BFCC0400200148002106
:100A200006F0BCBACC04002000487047A4030020A4
:100A300007B5064BADF806001B68054801220DF10D
:100A4000060106F029FC03B05DF804FB0800002055
:100A50007404002008B5642007F064F9FBE7000087
:100A600030B5002495B02146142203A8CDE90A44EC
:100A70000C9424F00AFD1D4B01941A6C42F0805234
:100A80001A641B6C03F080530193019B184B029472
:100A90001A6842F440421A601B6803F44043029310
:100AA000029B09224FF48033CDE90823022501235C
:100AB000B4224FF48001CDE90D3508A80423CDE917
:100AC0000F13CDE91125139305F0EEFD05F0B2FDEE
:100AD0000F23CDE9033505214FF4A05303A8CDE939
:100AE0000633059405F0BCFF15B030BD0038024058
:100AF0000070004080B59CB00024C64DDFF85493D0
:100B000004F0F0FCFFF7ACFF01942B6C43F0805332
:100B10002B642B6C03F080530193019B05F07CFD4B
:100B2000214614220FA824F0B0FC02942B6BBA4883
:100B300043F010032B632B6B03F010030293029B13
:100B400003942B6B43F004032B632B6B03F0040320
:100B50000393039B04942B6B43F020032B632B6BB9
:100B600003F020030493049B05942B6B43F0800354
:100B70002B632B6B03F080030593059B06942B6B73
:100B800043F001032B632B6B03F001030693069BD9
:100B900007942B6B43F002032B632B6B03F00203D0
:100BA0000793079B08942B6B43F040032B632B6B3D
:100BB00003F040030893089B09942B6B43F0080350
:100BC0002B632B6B03F00803224609933C21099BFE
:100BD00004F00EFF91480122022104F009FF224691
:100BE0008E48042104F004FF22468D484FF4405102
:100BF00004F0FEFE01263C23CDE90F368648119411
:100C000003230FA90227129304F008FE83480FA9BB
:100C1000CDE90F76CDE9114404F000FE04237F48AE
:100C20000FA9CDE90F36CDE911474FF4881804F02C
:100C3000F5FD06237B4811970FA9CDE90F384FF436
:100C4000405504F0EBFD784811970FA9CDE90F58F6
:100C500004F0E4FD7248DFF800820FA9CDE90F56D9
:100C6000CDE9114704F0DAFD22460521072004F002
:100C70008BFC072004F0BAFC22460521082004F072
:100C800083FC082004F0B2FC22460521282004F051
:100C90007BFC282004F0AAFC6448654B654D03608A
:100CA00004F0B2FC644B2C62C5E9008328464FF483
:100CB0008043C5E90434C5E90244C5E9064405F0AA
:100CC000B1F81021284605F0F5FA214628465B4D7B
:100CD00005F00FFB4FF48273C5E900934FF4007ADF
:100CE0001823C5E906A328460A23C5E90244C5E935
:100CF0000444C5E90844AC62EB6206F071FA8F2344
:100D00002246394645488DF82C308DF83C4004F099
:100D10006FFE32464FF47A730BA9284606F0BCFAF0
:100D20004FF47A7332460FA9284606F061FC32462A
:100D300039463A48424D04F05BFE9DF83C30D32BD7
:100D400004BF404B1E70404B0126C5E900361022FF
:100D500040230024C5E904234FF4C073C5E90634D9
:100D60004FF40063C5E908344FF4005302274FF0F5
:100D70000409AB624FF0030A07230FA92846CDE907
:100D80000F73CDE911934FF00808C5E90249CDE989
:100D900013A7159706F007F94FF6FF720BA928461F
:100DA000CDE90C860A940B960E9406F01CF9304699
:100DB00004F0C4FB4FF6FF720BA92846CDE90B786F
:100DC000CDE90D6406F00FF94FF6FF720BA9284626
:100DD000CDE90BA8CDE90D9406F005F94FF40C739D
:100DE0000A930A9B0E934FF6FF720BA92846CDE992
:100DF0000B980D9606F0F7F840F26A51284606F077
:100E000010F9342221460FA824F03FFB0F4D104B60
:100E10002C6123E00038024000100240000802402C
:100E2000000C02400000024000040240280600209E
:100E30000030024094050020A086010074040020C8
:100E4000F8030020EC030020400100A0EC04002087
:100E50000068014000500140005C0040C5E90034DA
:100E60000923C5E905361D23C5E9073A40F20D11EE
:100E700040F24313C5E9091340F2171040F247133B
:100E8000C5E90B032846C5E90244AC8685F836401F
:100E900005F0C2FA4FF4806CF0220521CDE916C1AD
:100EA0004FF4A0730FA9CDE91024CDE918424FF0FB
:100EB000FF0822462846CDE912372B4D1A93CDE97B
:100EC00014840F94ADF86C408DF86E4005F058FB1B
:100ED000264B2B601B6898472B68254DDB6898478D
:100EE000244B2846C5E90034C5E90274C5E90A4720
:100EF000C5E90C4404F098FB3146284604F04AFC4E
:100F0000DFF898E01C484FF4E133C0E900E30C231C
:100F1000C0E90534C0E902440461C46106F0BEFDC5
:100F20001648174B8461C0E900347F23C0E90238BA
:100F3000C0E9044405F0E5FF00F085FC00F082FC08
:100F400006F080FE0F4A1048214606F0A7FE0F4B20
:100F50000F4A186021460F4806F0A0FE0E4B18609D
:100F600006F082FEFEE700BFE80300201800002024
:100F7000E805002000B002402C040020CC04002032
:100F800000280040A46C0208550A0008F403002061
:100F9000806C020855180008F00300200010014082
:100FA000704770477FB5094B8DF817201B68029377
:100FB0000DF117020123009201930A4601460448ED
:100FC00004F0D8FF07B05DF804FB00BF0C00002060
:100FD000940500207FB500238DF81730084B1B685F
:100FE00002930A4601230DF1170100910193014676
:100FF000044805F04FF89DF8170007B05DF804FBB2
:101000000C000020940500201FB5084C24680092B5
:10101000CDE901340A4601230146054805F03AF8B6
:10102000003818BF012004B010BD00BF0C00002024
:101030009405002004F082BA10B5064C0022204628
:10104000042104F0D5FC20460122BDE81040042113
:1010500004F0CEBC0008024038B50B4D0446012216
:101060000A484FF4005104F0C3FC00220421284632
:1010700004F0BEFC2046FFF7DBFC28460122BDE859
:101080003840042104F0B4BC00080240000C0240C7
:1010900038B50B4D044600220A484FF4005104F0C5
:1010A000A7FC00220421284604F0A2FC2046FFF7FA
:1010B000BFFC28460122BDE83840042104F098BC5A
:1010C00000080240000C0240F7B5144E144F0546CC
:1010D0000C4630460022042104F08AFC00224FF422
:1010E0000051384604F084FC2846FFF7A1FC0D4B64
:1010F0000D481B68224601A906F07AFA38460122FB
:101100004FF40051019C04F073FC3046012204218D
:1011100004F06EFC204603B0F0BD00BF00080240A2
:10112000000C0240080000207404002004F006BAFD
:101130000268034B9A4201D104F0EEB9704700BF38
:10114000001000407047000082B00E4B0022009259
:10115000596C41F480415964596C01F4804100910B
:1011600000990192196C41F0805119641B6C03F0D5
:1011700080530193019B0F216FF0010002B004F036
:1011800003BA00BF003802400268094B9A4282B09D
:101190000BD100230193074B1A6B42F480521A6360
:1011A0001B6B03F480530193019B02B0704700BF97
:1011B000003002400038024007B50F4B02689A42E7
:1011C00016D10022A3F5F0430192196B41F40001FE
:1011D00019631B6B03F40003019305215A20019B43
:1011E00004F0D2F95A2003B05DF804EB04F0FEB924
:1011F00003B05DF804FB00BF00B002402DE9F043EE
:10120000044689B01422002103A824F03EF9226884
:10121000244B9A4243D1244C244800250095236B4B
:1012200043F004032363236B03F004030093009B48
:101230000195236B43F001032363236B03F0010348
:101240000193019B4FF012094FF400734FF0010816
:101250000327042603A9CDE90339CDE905870796BD
:1012600004F0DCFA4FF480731148079603A9CDE926
:101270000339CDE9058704F0D1FA0295236C43F4D4
:1012800000032364236C03F400030293029B236A8C
:1012900043F400032362236A23F40003236209B0AA
:1012A000BDE8F083005C00400038024000080240C6
:1012B00000000240F0B599B004461422002107A8AE
:1012C00024F0E3F830220DEB0200002124F0DDF8D9
:1012D00022685E4B9A4240F0B78008230C93C023EB
:1012E0001093042312930CA84FF40033159305F0C8
:1012F0008FFC08B1FFF726FF554B56480024009499
:101300005A6C42F080625A645A6C02F08062009219
:10131000009A01941A6B42F020021A631A6B02F0D1
:1013200020020192019A02941A6B42F001021A63A0
:101330001A6B02F001020292029A03941A6B42F0B5
:1013400002021A631A6B02F002020392039A0494D7
:101350001A6B42F040021A631A6B02F040020492C8
:10136000049A05941A6B42F004021A631A6B02F095
:1013700004020592059A06941A6B42F008021A6359
:101380001B6B03F00803069302250E26069B0B96A3
:101390004FF4806307A9CDE90735CDE9094504F08D
:1013A0003DFA41F658032C480B9607A9CDE90735BD
:1013B0000927CDE9094504F031FA032327480B97A3
:1013C00007A9CDE90735CDE9094504F027FA4FF41F
:1013D000706322480B9607A9CDE90735CDE9094589
:1013E00004F01CFA4FF40C631D480B9607A9CDE9D5
:1013F0000735CDE9094504F011FAC02319480B96C9
:1014000007A9CDE90735CDE9094504F007FA082316
:1014100015480B9607A9CDE90735CDE9094504F034
:10142000FDF94FF4A0530E480B9707A9CDE90735F6
:10143000CDE9094504F0F2F958202246052104F0CF
:10144000A3F8582004F0D2F819B0F0BD00680140AC
:101450000038024000140240000002400004024034
:101460000018024000080240000C024010B504467B
:101470008CB030220021684624F007F822680A4B1D
:101480009A420ED12023009368464FF400730A93CA
:1014900005F0BEFB08B1FFF755FE044B0122C3F86F
:1014A0003C2E0CB010BD00BF002800400000474299
:1014B00010B5044688B01422002103A823F0E5FFEC
:1014C0002268144B9A4223D103F56843002101910D
:1014D0005A6C114842F480125A645A6C02F4801219
:1014E0000192019A02911A6B42F020021A631B6B5F
:1014F00003F020030293029B4FF460720223032146
:10150000CDE903230523CDE9061303A904F086F9E9
:1015100008B010BD005001400014024010B5044650
:1015200088B01422002103A823F0AFFF2268144BD7
:101530009A4223D103F59433002101915A6C11484A
:1015400042F010025A645A6C02F010020192019AA1
:1015500002911A6B42F001021A631B6B03F0010344
:101560000293029B4FF4C06202230321CDE90323BF
:101570000723CDE9061303A904F050F908B010BD04
:1015800000100140000002402DE9F04186B0002328
:1015900003932B4B1C68002C4FD14FF00108C3F86C
:1015A0000080284B00949A6B274842EA08029A630D
:1015B0009B6B03EA08030093022703260C25009B7C
:1015C00001A94FF63F03CDE90137CDE9046504F0E9
:1015D00025F91E48059501A9CDE90187CDE9034606
:1015E00004F01CF948F233131948059501A9CDE917
:1015F0000137CDE9034604F011F94FF6837315481E
:10160000059501A9CDE90137CDE9034604F006F9B6
:101610004CF203731048059501A9CDE90137CDE9D6
:10162000034604F0FBF860230C48059501A9CDE9B9
:101630000137CDE9034604F0F1F806B0BDE8F081CA
:10164000300600200038024000140240000802402A
:101650000018024000100240000C0240000402404A
:1016600070B588B000230293204B1A6C42F0100230
:101670001A641B6C03F010030293054601A903A82A
:10168000029B05F0A7FA069B4BBB05F083FA184EA8
:10169000184B336040F2E733F360174BB0FBF3F3C2
:1016A000013B7360304600233361B360B36106F0E1
:1016B00069F9044680B9304606F03EF8044658B948
:1016C000362003F093FF0F2D0DD8224629463620F1
:1016D00003F05AFF094B1D60204608B070BD05F0AD
:1016E00059FA4000D3E70124F6E700BF0038024072
:1016F000340600200010004040420F00800000200F
:101700007047FEE7FEE7FEE7FEE77047022004F0C1
:101710007DB9042004F07AB908B54FF4805004F084
:1017200075F9BDE808404FF4005004F06FB90000AF
:10173000014806F03FB800BF34060020014804F01D
:10174000C2BE00BFEC040020014803F099BF00BFF7
:10175000E805002070B5104E044603F0E9FE33683A
:10176000C31AC82B054609D9B4F5805F07D10020FC
:10177000FFF71AF9094B01221A70356070BDB4F5F4
:10178000005F01D10120F3E7022C01D12046EFE7F1
:10179000042CF2D10320EBE77C0600208006002019
:1017A0000120704708B523F013FF162303604FF0A4
:1017B000FF3008BD08B523F00BFF16230360FEE7DA
:1017C00070B50D4614460E46731B9C4201DC204644
:1017D00070BDAFF3008006F8010BF5E770B50D465C
:1017E00014460E46731B9C4201DC204670BD16F861
:1017F000010BAFF30080F5E74FF0FF3070474FF477
:1018000000534B6000207047012070470020704754
:101810000A4A116808B5034609B9094911601068F8
:10182000694603448B4206D923F0D2FE0C230360A1
:101830004FF0FF3008BD1360FCE700BF84060020B6
:1018400000470120704708B500F0BEFDBDE8084024
:1018500000F040BD00F0BABD704710B50421044649
:1018600022F0D0FC204610BD38B50C4B0C4C188033
:101870000C4B822019806368984740F61103984208
:101880000AD1094D23682C60822098472B6882205A
:10189000DB689847002038BD0120FCE79206002055
:1018A0005000002090060020940600204FF4A07104
:1018B000F020FFF7D9BF0000F7B5394D2B6804467B
:1018C0001B6982209847208000284ED02B680DF19C
:1018D00006025B6901A982209847324B1B78002BD6
:1018E0004BD0BDF8062040F674639A423FD9ADF85C
:1018F0000630BDF806209B1A9BB20A2B42D90B2258
:10190000B3FBF2F3284A1288934201D9013A93B209
:10191000BDF80420254840F6B8318A4234D8C2F5D3
:1019200071620E32016892B20F25B2FBF5F2204DC2
:101930002D88AA4284BF05F1FF35AAB28A42154616
:101940008EB22AD9921B91B21A4E3768BB42BAB2F4
:101950008CBF9A1AD21A92B211440529C4BF0560ED
:101960003360036863803368A38003B0F0BDB32A9B
:101970009CBFB422ADF80620BBE7BDF80630A3F546
:10198000B473B9E70023C3E7C2F56D62083292B2BF
:101990000E2A0168C8D800252A46891A89B2D3E7D9
:1019A00094060020EC030020900600208C06002006
:1019B000920600208806002037B568460D4614467A
:1019C000FFF77AFFBDF8000030B1BDF802302B60A0
:1019D000BDF804302360012003B030BD032821D8B6
:1019E000DFE800F0020B12190F4B1A68B2FA82F20C
:1019F000520904210D4803F0FBBF0B4B5A68B2FAA1
:101A000082F252090821F5E7074B9A68B2FA82F28E
:101A100052091021EEE7044BDA68B2FA82F2520959
:101A20002021E7E7704700BF980600200010024021
:101A3000032821D8DFE800F0020B12190F4B1A68B7
:101A4000003A18BF012204210D4803F0D1BF0B4B0F
:101A50005A68003A18BF01220821F5E7074B9A6837
:101A6000003A18BF01221021EEE7044BDA68003A71
:101A700018BF01222021E7E7704700BF9806002029
:101A80000010024003280DD8DFE800F00206080A23
:101A90000421054803F0B1BF0821FAE71021F8E757
:101AA0002021F6E7704700BF0010024008B5032868
:101AB00011D8DFE800F0020A0C0E0421074803F0F9
:101AC00091FF431E5842584108BD0821F6E71021F6
:101AD000F4E72021F2E70020F3E700BF0010024006
:101AE00070B5084D00240126E0B2FFF7DFFF18B102
:101AF0002B68012B18BF2E600134052C05F104055D
:101B0000F2D170BD98060020012380F8781080F88B
:101B1000793070477047002070470000034B4164E4
:101B2000003918BF01211970704700BFBB3901206F
:101B3000704700207047836B0BB108461847704709
:101B40004FF6FF707047406803689B6918477047FD
:101B5000704770477047704710B5044600F04CFD61
:101B600023680349D3F890302046BDE81040184759
:101B7000000000D008B503680446D3F884309847C5
:101B800023682046DB6F984700F0ECF82368204676
:101B90005B6F98472920FFF77BFA00F0E3F8236892
:101BA00020465B6F9847F8E710B5044609F0A6F9A0
:101BB00023682046D3F8BC30BDE81040184700F039
:101BC000FFBC00F003BD00F035BD00F0D5BC00F057
:101BD00045BD00F04DBD00F0D9BC08F0BDBB10B54F
:101BE0008421044622F00EFB204610BD10B590F86B
:101BF000341090F878400C4B8C421A7809D03AB9DE
:101C00000A4A0B491488088810800C8001221A7037
:101C100010BD002AFCD0054A0549148808881080A8
:101C20000C800022F3E700BFB4390120B039012055
:101C3000B239012070B50D46194635B9094B0A4A2B
:101C40000A4840F2FF2123F019FAC0E90F52084B6D
:101C5000003A18BF01221A700368BDE87040D3F83B
:101C600090301847256102085D610208AB610208E7
:101C7000BA39012008B5094B1B888B4203D8084BA1
:101C80001B88934205D9074B074A0848A32123F034
:101C9000F5F9074B1980074B1A8008BDB0390120B0
:101CA000B2390120F061020853620208AB610208F8
:101CB000B6390120B8390120034690F87A0018B1EE
:101CC000586803681B68184770470000012108B571
:101CD0000022084606F032F80A4B186028B90A4B71
:101CE0000A4A28210A4823F0C9F9002204210120C8
:101CF00006F0C3F8074B186018B9074B034A2C21AC
:101D0000F0E708BDAC06002096620208DF62020818
:101D10000E630208A806002054630208024B4FF02D
:101D2000FF31186806F054B8AC060020014B186863
:101D300006F07AB8AC060020024B0021186806F0C5
:101D400047B800BFAC060020FFF7F0BF03480449C6
:101D5000006800231A4606F0CBB800BFA806002092
:101D60001000002013B5084C00231A4601A9206872
:101D700006F0EFF820684FF0FF33002201A906F0CB
:101D8000E8F802B010BD00BFA806002003685B6C35
:101D900018470120704703689B6A1847FEE740F226
:101DA000EF307047054B0360054B4FF08062C3F87E
:101DB0008820BFF34F8FBFF36F8F7047D46D020839
:101DC00000E100E010B504464FF45A61FFF7EAFF66
:101DD000204622F017FA204610BD000082B00023F2
:101DE00001930E4B1A6B42F400021A631A6B02F451
:101DF00000020192019A1A6942F400021A611A69FA
:101E000022F400021A61064B064A1A61064A5A6118
:101E1000064B4FF080629A6002B070470038024073
:101E2000E80500207D2000089D1D000800E100E07D
:101E300008B50A2809D8DFE800F006100E080808DF
:101E4000081010101000022008BD054B054A064876
:101E5000902123F013F90020F6E70120F4E700BFFA
:101E600096630208B1630208FC63020838B50C46A9
:101E7000887FFFF7DDFFA58AE28A164B2169586348
:101E800042EA05425A64628BD963521B1A64256880
:101E9000082D0ED19A611A615862207F0E4A42EADB
:101EA0000062DA61E2681A620C4A5961D9601A600C
:101EB00038BD0022D8611A61E1680A0A480902F4B3
:101EC000784200F4FC600243C1F3C4010A439A6300
:101ED000034AECE700B002400900010001230200C0
:101EE0000123030008B50B280BD8DFE800F0061229
:101EF000100A0A0A0A0808080808022008BD052076
:101F0000FCE7054B054A06486F2123F0B7F800208F
:101F1000F4E70120F2E700BF96630208406402087C
:101F2000FC6302082DE9F04191F81D800C46404603
:101F3000FFF7D8FFA77F05463846FFF7D3FF0646D1
:101F40003846FFF775FFA18A628B444B521A1A6418
:101F50009A61228B521A1A61E28A586342EA01425C
:101F60005A6421696268D963DA602068802828D0C1
:101F7000227F0FD8202867D0402865D004281AD0A7
:101F8000364B45EA026545F40035B845DD6161D060
:101F9000334A44E0B0F5807F04D0B0F5007FEFD144
:101FA000304800E0304840EA0262DA61E2681A62D2
:101FB0005E62596132E045EA026242F40032DA615F
:101FC000F6E7A068021DDA62227F45EA026545F461
:101FD0000035DD615E625961017841B1012921D08E
:101FE000224B234A23484FF48D7123F047F8DA69D6
:101FF000418822F47F42013922F0100242EA012294
:10200000DA610121154BDA6942F02002DA61DA69FE
:102010009206FCD410229A600029B9D0164A1A60A0
:10202000BDE8F081B2F1FF01DA69408822F47F4215
:1020300000F1FF3022F0100242EA002242F01002CA
:1020400018BF0121DA61DDE745EA0262034B42F481
:102050000032B4E742F20132E1E700BF00B00240D3
:1020600001230100090002000A0002008A6402083C
:10207000A4640208FC63020801230200024B1B68EF
:10208000586803685B691847BC39012070B504467D
:1020900025460A4B0C30002660602672667245F8B1
:1020A000203B6022294609F07FF804F55A63EE6070
:1020B00024359D42FBD1204670BD00BFD46D02087F
:1020C000034B1A68D207FCD423229A60704700BFE2
:1020D00000B002407047000030B50F4C2568ED0796
:1020E000FCD423250904A56041F001010225FF2B42
:1020F00065636164E0630AD00849656241EA03638D
:10210000E361074B22626061E060236030BDE561FE
:10211000039BA363034BF8E700B0024009000100F2
:10212000010002000100030030B50E4C2568ED07E8
:10213000FCD423251204A56042F001020225FF2BE6
:1021400065636264E063E16008D01B0643F002133C
:10215000E361054B65626061236030BD034BE36161
:102160000123F9E700B0024001000200020002FF73
:1021700030B50B4C2568ED07FCD4232512041B0653
:10218000A56043F40033022542F0010265636264F6
:10219000E063E160E361034B65626061236030BD31
:1021A00000B0024001000200012070470C2070477F
:1021B0000C2303FB0100083070470C2303FB0100D4
:1021C000083070470120704741F21430704741F2E7
:1021D000143303FB01000830704741F2143303FB52
:1021E000010008307047012070471020704700EB55
:1021F00001100830704700EB0110083070470846A6
:1022000000F0C8BC10B5034B0360044607F0FBFDAB
:10221000204610BD8C6E020810B50446FFF7F2FF91
:102220002046142121F0EEFF204610BD10B5034BCF
:102230000360044607F0E7FD204610BD586E020813
:1022400010B50446FFF7F2FF204641F21C3121F0A1
:10225000D9FF204610BD000010B5034B03600446B3
:1022600007F0D1FD204610BD246E020810B50446CB
:10227000FFF7F2FF2046182121F0C4FF204610BDD1
:1022800010B5094B0360044600F59A500830FFF77B
:10229000B9FF04F12C00FFF7C9FF04F11400FFF7A8
:1022A000DBFF204610BD00BFC06E020808B5024823
:1022B000FFF7E6FF08BD00BF8815002010B50446F3
:1022C000FFF7DEFF204641F2BC4121F09BFF204694
:1022D00010BD00002DE9F34100F0D2FA054600F0F0
:1022E000D3FA00240146234628462246009412F0E1
:1022F000D7FE274B274A1A60204602F0F5F9264DF3
:10230000264B274A27489A6012F032FE2B68BFF30B
:102310005B8FDB0735D4284621F076FF88B3224C4B
:10232000224B234F236004F59B5604F1140004F163
:102330002C086060C4F80880E760266107F064FD3F
:102340001C4B6361404607F05FFD1B4BE362384660
:1023500007F05AFD04F5805303F55770174AC3F888
:10236000482302F0B1FC2246311F304602F058FBF0
:10237000304600F00FFC124822F09EFE284621F065
:102380004FFF104802B0BDE8F041FFF7E5BB00BFCA
:10239000203A012034070020841500205407002033
:1023A000380700201400002088150020C06E0208A5
:1023B000D0280020246E0208586E02088C6E020895
:1023C000AD220008B0060020704700000148FFF76A
:1023D000D1BB00BFB006002070B5264E264C274D5D
:1023E000274B23603046FFF751FE284617F05EFF6B
:1023F00024480FF0E9FE244B2448DC6000224FF40F
:102400008071C3E9121222491A86C3E91A122149BE
:1024100083F85820C3E91E011F49C3F880101F49E3
:102420001F480B60F021C3E90422C3E90622C3E977
:102430000822C3E90A22C3E90E22C3E91022C3E934
:102440001422C3E917225A6683F870205A67C3E939
:10245000016501801348018013484FF4A071018089
:102460001248018012490A70012283F83420114A6F
:102470001A6070BDE007002080150020540700207E
:10248000D06C020838070020B006002000000101CF
:1024900001000001000450001A001400BC390120A2
:1024A000B0390120B6390120B2390120B8390120F4
:1024B000B4390120E86C02080148FFF773BC00BF83
:1024C000E00700200020704781807047C18070477E
:1024D000018170474181704770477047704770476E
:1024E000704710B4C4880368121B84885B6D091B95
:1024F00012B25DF8044B09B218474FF6FF7383819F
:102500004FF0FF3303621368C3611060704700200F
:1025100070478B88838001207047704780F82610B1
:10252000704790F82600704710B50022B1F90840B6
:10253000B1F90A10028042808480C18010BD00225F
:10254000028042808280C28070470177704780EDB0
:10255000080A704780F82410704780F825107047EB
:1025600001207047983070478C3070478430704736
:102570007047704770470000034B902283F85A233E
:1025800083F85823704700BF00E100E0094A0A4978
:10259000D3680A48C3F30A03013B9BB20B8011695D
:1025A000C1F30A01013901801364536B43F0010345
:1025B0005363704700680140462A0020442A0020E7
:1025C000014BD3F8AC00704700680140024B012278
:1025D000C3F8AC105A6270470068014010B52C2156
:1025E000044621F00FFE204610BD10B5BC21044664
:1025F00021F008FE204610BD70B5044607F001FF2B
:1026000023689D6E0EF082FB01462046A847236892
:10261000054AD3F88C502046AC460023BDE87040F4
:10262000A2F51631604700BF00B004D007F0D0BE5D
:1026300007F0DABE07F096BE08F005B890F825203E
:1026400012B103685B691847704790F825201AB1EA
:1026500090F8242002B1186070470000034B4FF03F
:1026600080629A604FF080729A60704700E100E0EB
:10267000084B4FF08062C3F88820BFF34F8FBFF341
:102680006F8F4FF08072C3F88820BFF34F8FBFF376
:102690006F8F704700E100E070B50023124E838019
:1026A000124B0360336893F8582005460AB1D86C82
:1026B00000B998680368DB6A98473368B0FA80F419
:1026C000D86C640930B10368DB6A9847002808BFFA
:1026D00044F001042CB9064B064A07482C2122F08D
:1026E000CDFC284670BD00BFBC390120D46E020865
:1026F000E2640208406502087965020870B5254E5B
:102700003568BFF35B8F15F0010540D1304621F0ED
:102710007BFD00283BD0204C204B256104F1340088
:10272000C4E90035C4E90255E584A562A58510F029
:1027300030F804F158000AF0EBF9194BA365204674
:10274000184B40F8843BFFF7A7FF174BC4F88430C1
:102750002433C4F88C304FF4C803C4E9283500236F
:10276000C4F8AC30C4F8B030C4F8B430C4F8B830F1
:102770000E480F4BC4F89050C4F89C50C4F8A850B1
:10278000C4F8983022F098FC304621F049FD024808
:1027900070BD00BF482A00204C2A00203C79020866
:1027A000F46E02086C6F0208F078020875250008C4
:1027B000D078020838B5184C23685BB3174B184A19
:1027C0001B6C11888B4216D1164B198803F006FF3B
:1027D000236893F86A200025013283F86A2083F881
:1027E0007C50FFF7B3FA206808F088FB2846BDE864
:1027F0003840FFF7F3B803F0F1FE24682368204661
:102800001B6A9847012384F87C300020BDE83840DB
:10281000FFF70EB938BD00BFBC3901200068014088
:10282000462A0020442A0020704708B506291DD8F2
:10283000DFE801F00804080C1014180001F0A0FFF4
:10284000406808BD01F09CFF0068FAE701F098FFBE
:102850008068F6E701F094FFC068F2E701F090FFAE
:102860000069EEE701F08CFF4069EAE70020E8E745
:1028700010B50421044621F0C5FC204610BD00001F
:1028800000487047C46F02080720704713B5002442
:1028900051B1036801948DF8034001AA9C680DF1C1
:1028A0000303A04702B010BD0846FBE7C08970478C
:1028B000008A7047C088704780887047807A00F02F
:1028C0007F007047807AC009704700207047000081
:1028D0009FED010A704700BF00000000704710B56F
:1028E0000821044621F08EFC204610BD7047704739
:1028F00000F598730868496803C3704770477047CC
:102900004160704770477047064BC0F84C31002358
:10291000C0F8503100F5A273C0F84801C0F840314A
:10292000704700BFC9290008012303727047704730
:1029300010B4C26841685410034601EB6200D2072C
:1029400048BF0A599B685DF8044B48BFD3581847E5
:102950000346406830B19A681AB9D86800F001009F
:1029600070470120704710B50C21044621F04AFC45
:10297000204610BD10B51021044621F043FC20462E
:1029800010BD10B54FF4AE71044621F03BFC20465B
:1029900010BD10B50EF0BAF90368BDE81040DB6B4E
:1029A000184710B50446D0F8400158B10368DB68F9
:1029B000984738B1D4F8400103689B6898470023D2
:1029C000C4F8403110BD00002DE9F14FD0E9556A3F
:1029D0000746B06803681B6A984741F21333984270
:1029E00005D8444B444AA321444822F047FB706871
:1029F00003681B6A98470F2803D8414B3E4AA4211D
:102A0000F2E7F06803681B6A98470B2803D83D4B30
:102A1000394AA521E8E70EF079F9DFF8F0900430A3
:102A20000EF0B2F9D9F8000010B10368DB689847DE
:102A3000D9F8000010B103681B689847DFF8D08010
:102A4000D8F8000010B103685B699847D7F83C01DB
:102A500010B103685B689847D8F8000010B10368AC
:102A60001B689847D7F83C0110B103689B689847EA
:102A7000F068036800215B6A98474FF0000B224B17
:102A8000C0F804B0044680F808B00360B06803687A
:102A900059465B6A9847054602F026F87068036855
:102AA00059465B6A98472946064601F0FBFF331DED
:102AB000C7F83C61C9F80040C8F80050CAF80030B7
:102AC0002B68C6F808A02846DB68EE639847336891
:102AD00030461B6898472146284610F0DFFA2368E5
:102AE00020461B69984723685B69204601B0BDE812
:102AF000F04F1847DB650208696602084167020863
:102B0000886702082B680208D4700208043A012082
:102B1000003A0120044B1B6893F858200AB1D86C86
:102B200000B99868704700BFBC390120F8B5174656
:102B300004460E460EF0C6F9124B1C60124B236081
:102B4000124B0025C4E95135114BC4E9535518689F
:102B5000036801219B68C4E94F55C4E9557698473D
:102B6000284601F0C1FDFFF7D5FF19F048FAFFF73D
:102B7000D1FF19F0BFFAFFF7CDFF19F0C7FA2046D1
:102B8000F8BD00BF103A012080700208687002088A
:102B9000BC390120064BC0F84C310023C0F850313D
:102BA00000F5A273C0F84801C0F84031704700BF7B
:102BB000C9290008806A704770477047704770479E
:102BC00030B4C26844685510034604EB6200D20773
:102BD00048BF62599B6830BC48BFD358184703466A
:102BE000406830B19A681AB9D86800F0010070479F
:102BF0000120704710B51021044621F003FB204648
:102C000010BD10B5F821044621F0FCFA204610BD95
:102C100000F1A0028A4203D10368D3F88C30184730
:102C200070470000074A02600022C0E90122C0E9A3
:102C30000322C0E90522C0E907224FF48072828492
:102C4000704700BF287D020870B5036804461B6BFF
:102C5000154698472368294620465B6BBDE87040BF
:102C600018470000F8B5194B018F1B888B420646A8
:102C70002AD9174B1B682BB9164B174A17486C21DA
:102C800022F0FCF913F81120154B1B6853F8225061
:102C9000144B186801F064FD2B6807469B6B2846AF
:102CA00098472B6804469B6C3946284698472B6802
:102CB00014FB00F45B6A394628469847A4B22318EF
:102CC0001BB2A6F84630F8BD0023FAE7183A0120F7
:102CD000143A0120CE680208106902084B69020804
:102CE0001C3A0120203A01202DE9F047044688B023
:102CF00026460025FFF796FF4D4BA56246F82C3B74
:102D00004FF0260842462946304622F0BEFB3046A8
:102D1000FFF788FF474BE36204F15807FF23424661
:102D2000294684F852306565384622F0AEFB3846B5
:102D3000FFF778FF404BA3654FF6FF7304F1A0083F
:102D40004FF0FF39DFF800A1A4F884304FF47F037F
:102D5000C4F88C30C4E92695C4F880A0C4F8885023
:102D6000A4F89050C4F8945040460BF00BF8334B45
:102D7000C4E93A34324BC4E93C354FF0C8132A4613
:102D8000A36029463046FFF75FFF3046C821FFF7B2
:102D90009FFB3046C821FFF79DFB2A4B63653146F8
:102DA000204607F043F86E46372238460B21FFF7DE
:102DB0004BFF39463046C4F88890A4F88C500AF08E
:102DC000B9F996E8070004F1940383E80700182393
:102DD0000DEB03013846ADF81C30CDF818A00AF011
:102DE00051FC3946204607F021F84046782232212E
:102DF000FFF72AFF06AA05A94046ADF81450ADF822
:102E000018500AF092FC1623A4F8D8304046FFF779
:102E100029FF04F1E8032046C4E93799C4F8C83013
:102E2000414607F003F8204608B0BDE8F08700BF30
:102E300010710208047B0208747A0208F870020814
:102E4000112C0008929296FF587002087047704744
:102E500070477047704730B5036885B06D46018193
:102E6000D3F88430014604462846984795E8070081
:102E70003C3484E8070005B030BD30B5036885B048
:102E80006D464181D3F88430014604462846984770
:102E900095E807003C3484E8070005B030BD002207
:102EA000028042808280C280704780F8361070476E
:102EB00070B5036804461B6B15469847236829467E
:102EC00020465B6EBDE87040184700207047806C5C
:102ED000704770477047704730B4C26844685510F7
:102EE000034604EB6200D20748BF62599B6830BCBE
:102EF00048BFD35818470346406830B19A681AB99A
:102F0000D86800F0010070470120704710B54C21CF
:102F1000044621F077F9204610BD10B51021044673
:102F200021F070F9204610BD10B5044600F59670EA
:102F300001F070FF04F58050043002F023F804F52E
:102F40008A500430BDE8104001F09CBD08B5FFF781
:102F500075FB08BD00F1F0028A4202D10368DB6A0A
:102F600018477047036870B55E6B124B1B680446C8
:102F70008DB22BB9104B114A6C21114822F07EF80A
:102F80001049828D0988914203D80F4B0B4A6D215D
:102F9000F3E713F812200D4B1B6853F82200036867
:102FA0001B6B9847291A3346204609B2BDE870408A
:102FB000184700BF143A0120CE68020810690208C1
:102FC0004B690208183A0120926902081C3A012054
:102FD00000224FF0FF31C0E90021826070470000FD
:102FE00038B500F580550D4B036004460C4BC5F811
:102FF000443100F58A500430FFF7E0FD094B6B6067
:103000002846043001F0E2FB074BC4F82C3104F5EC
:10301000967000F069FA204638BD00BF5072020871
:1030200094750208207702088C76020810B50446D1
:10303000FFF7D6FF204641F20C3121F0E3F820469D
:1030400010BD70B504461D46BDF91060FFF7FCFDCC
:103050002368294620469B6B9847236831462046C3
:10306000DB6BBDE8704018474FF4807181840E49D6
:1030700081624FF6FF7181854FF47F0141630B49F7
:10308000016000224FF0FF31C0E90122C0E90322B4
:10309000C0E90522C0E90722C0E9101202630287D5
:1030A000C2638264704700BF58700208A8710208AA
:1030B0002DE9F04F044693B00FF044FEC94B236056
:1030C000C94B0025C4E910354FF4807304F16C0737
:1030D000A4F86430FF234FF6FF7684F8663010A919
:1030E0003846C4E91255C4E91455C4E91655E563D8
:1030F0002566A566ADF8406009F072FD04F19803FD
:1031000010A918460393ADF8406009F069FD04F179
:10311000C40310A918460493ADF8406009F060FD9F
:1031200004F1F0031846059304F5805B0AF0CCFC2B
:1031300004F5967318460BF1040B04F58A580693B0
:1031400008F1040801F0DAFD584601F011FF40468D
:1031500001F08EFC04F591531C3304F5945A184683
:103160000AF1080A0293FFF77FFF5046FFF77CFF42
:103170009E4B04F58056C6E9BF349D4BC6E9C13568
:103180004FF4A0732A4604F1400000932946F0232F
:103190000790FFF756FF079804F104094FF07F43AB
:1031A0000146A366484606F041FE0123384610A9B1
:1031B000ADF840300AF0AFFC4FF4A0732A46384611
:1031C00000932946F023FFF73CFF3846294609F0D3
:1031D000C2FC3946484606F029FE282703230398F7
:1031E000ADF8403010A90AF096FC0522642303983C
:1031F00000970F21FFF725FF0398294609F0ABFC44
:103200000399484606F012FE06230498ADF84030B4
:1032100010A90AF080FCC82340F207120498009716
:103220001421FFF70EFF0498294609F094FC049935
:10323000484606F0FBFD05984FF48272A521FFF782
:1032400003FD0423ADF83430ADF838300223ADF877
:103250003C30ADF8403010AB0EAA059800930DA994
:103260000FAB0AF09CFB6123C4F8283104F5975397
:103270001C33C4F818310599484606F0D7FD3222B0
:1032800006981421FFF7E0FC0699484606F0CEFDAB
:10329000322258461421FFF7D7FC5946484686F893
:1032A000295006F0C3FD322240461421FFF7CCFC22
:1032B0004146484686F8695106F0B8FD1E2202983C
:1032C000DFF84CB17821FFF7BFFC4FF07F43C6F821
:1032D0006C32D6F83C320299D3F88430A6F870529A
:1032E00008AF3846984797E80700029B3C3383E8CD
:1032F0000700DBF8003004F5965808F114082BB9E4
:103300003C4B3D4A60213D4821F0B8FE3C4B1B88B8
:10331000112B03D83B4B384A6121F4E73A4B11217A
:10332000186801F01DFA394A03460A21404611F097
:1033300011FE0298C6F884820AF084F9DFF8D4807E
:103340000298CDF84080142310A9ADF844300AF05B
:1033500099F90299484606F069FD0F2278215046F6
:10336000FFF772FCD6F88832A6F8BC524FF07F42C5
:10337000D3F88430C6F8B82251463846984797E8C3
:1033800007000AF13C0383E80700DBF8003004F58E
:1033900097550835002BB3D0194A1388122BB9D989
:1033A000194B1221186801F0DBF9184A03460A216B
:1033B000284611F0CFFD5046C6F8D0520AF042F927
:1033C000152310A95046ADF84430CDF840800AF0DE
:1033D00059F94846514606F029FD204613B0BDE88C
:1033E000F08F00BF50720208047B02083872020896
:1033F000552F0008CE680208D06902084B69020800
:10340000183A012092690208203A01201B6A02083A
:10341000143A012058700208406A7047806A704769
:1034200070478A880B8810B5D20A4C88C1699BB254
:1034300051F8220043EA0443184410BD10B5044675
:10344000BAB1107B68B1537BD27A1B0203F4E063FC
:103450001A43236A03EB82031A888A4202D193F942
:10346000020010BD05D8013880B204330028F3D122
:10347000F7E70020F5E710B52C21044620F0C2FE46
:10348000204610BD30B58BB00446BDF8605008959D
:10349000BDF85C5007959DF8505006959DF84C502E
:1034A00005959DF8485004959DF8445003959DF866
:1034B000405002959DF83C500195BDF8385000955C
:1034C0000FF024FA064B2360159BE361169B2362E1
:1034D000199B63621A9BA36220460BB030BD00BFEC
:1034E000887202087047704770477047A0F8501004
:1034F0007047B0F85000704701867047008E7047E3
:1035000010B56021044620F07DFE204610BD10B5A8
:103510004821044620F076FE204610BD10B540F646
:103520009851044620F06EFE204610BD08B590F874
:1035300026300BB1FFF782F808BD90F84C3070B51B
:103540000446002B4AD0B0F84E00B4F85030013099
:1035500080B29842A4F84E0040D3B4F85450B4F866
:103560005620A66D521BC01A12B2B4F85230002178
:1035700080B2B04794F836200544ABB22DB2AA42CF
:1035800005D02DBB2046FFF759F884F83650B4F823
:103590005030B4F85210B4F84E200B449A421DD368
:1035A000002384F84C30A4F852300DF0AFFB2146D4
:1035B00004300DF0D0FBE06D80B10368DB68984704
:1035C00060B1E06D036821469B68BDE87040184714
:1035D00084F836302046FFF731F8D8E770BD90F810
:1035E0002C302DE9F0410446002B41D0C38D028ED2
:1035F00001339BB29342C3853AD39B1A9DB2028F8B
:10360000838EC66BD21A12B2438E00212846B04771
:10361000E38E628F276CD21A0646638E12B20021A7
:103620002846B847E38EC218A38EF11812B209B229
:103630002046FEF756FF238E618EE28D0B449A42A0
:1036400016D3002384F82C30E3850DF05FFB214670
:1036500004300DF080FB606C50B10368DB68984764
:1036600030B1606C036821469B68BDE8F0411847A3
:10367000BDE8F08110B50446FFF7D4FA024B236091
:103680000023A362204610BD1078020810B5262240
:103690000446002121F0F9FE2046FFF7C3FA044B4F
:1036A0002360FF2384F826300023A362204610BD48
:1036B000047B020800224FF0FF31C0E90021826044
:1036C0007047000010B50446FFF7E0FF064B23608B
:1036D0000023C4E90C33C4E90E33C4E9103384F881
:1036E0002C30E385204610BDF072020838B5262242
:1036F0000446002121F0C9FE2046FFF793FA0E4B45
:1037000023600E4BA3624FF6FF730025A3854FF491
:103710007F03C4E90C53258704F13C00FFF7CAFF7F
:10372000074BA564236084F84C50A4F84E50A4F8CD
:103730005050E565204638BD747A0208587002087A
:10374000607302082DE9F04F0446B9B02646FFF732
:1037500091FFDA4B46F82C3B3046FFF797FF04F118
:10376000580304F18405184604F1CC0A0693FFF7C8
:1037700081FF2846FFF7A6FF5046FFF7B7FF04F585
:10378000967318460793FFF775FF04F5AC73184658
:103790002193FFF797FF04F5D07318460293FFF7C4
:1037A000A5FF04F5007318460893FFF763FF04F5BF
:1037B0000B7318462293FFF785FF04F51D73184617
:1037C0000393FFF793FF04F5357318460993FFF74A
:1037D00051FF04F5407318462393FFF773FF04F578
:1037E000527318460493FFF781FF04F56A73184675
:1037F0000A93FFF73FFF04F5757318462493FFF70C
:1038000061FF04F21C4318460593FFF76FFF04F2B3
:103810007C4318460B93FFF72DFF04F5956318467C
:103820002593FFF74FFF04F59E6318461693FFF7A5
:103830005DFF04F5AA6318460C93FFF71BFF04F223
:103840007C5318462693FFF73DFF04F2C4531846F5
:103850001793FFF74BFF04F2246318460D93FFF70D
:1038600009FF04F5CA6318462793FFF72BFF04F5F9
:10387000D36318461893FFF739FF04F5DF63184642
:103880000E93FFF7F7FE04F2247318462893FFF710
:1038900019FF04F26C7318461993FFF727FF04F21F
:1038A000CC7318460F93FFF7E5FE04F5FF63184647
:1038B0002993FFF707FF04F5046318461A93FFF7EF
:1038C00015FF04F50A6318461093FFF7D3FE04F6BC
:1038D000CC0318462A93FFF7F5FE04F61413184696
:1038E0001B93FFF703FF04F6741318461193FFF7B9
:1038F000C1FE04F51A6318462B93FFF7E3FE04F6A6
:10390000E81318461C93FFF7F1FE04F64823184607
:103910001293FFF7AFFE04F6742318462C93FFF7BB
:10392000D1FE04F6BC2318461D93FFF7DFFE04F614
:103930001C3318461393FFF79DFE04F648331846D0
:103940002D93FFF7BFFE04F5396318461E93FFF76A
:10395000CDFE04F53F6318461493FFF78BFE04F683
:103960001C4318462E93FFF7ADFE04F66443184639
:103970001F93FFF7BBFE04F6C44318461593FFF7E9
:1039800079FE04F54F6318462F93FFF79BFE04F66C
:10399000385318462093FFF7A9FE4FF0C813A360D1
:1039A0000022C823114600933046FFF74AFB444BE0
:1039B0006365314620462D2606F038FA9722069890
:1039C000009633461146FFF73CFB00221146009655
:1039D00033462846FFF735FB3A4B0698C4F8AC301F
:1039E0004FF00F09294606F021FA33464A46504661
:1039F000CDF800900021FFF724FBD4F8CC3000274D
:103A00000DF1C0084FF07F42C4F8FC2051464046FB
:103A1000D3F88430A4F80071984798E80700D4F8E8
:103A2000CC304FF0060B04F5847585E80700D3F819
:103A3000843084F805B151464046984798E807001D
:103A400085E8070035AD204A359229465046ADF845
:103A5000D89009F017FE0698514606F0E7F9069946
:103A6000204606F0E3F90798009633469722662130
:103A7000FFF7E7FA3A462198009633463946FFF7B2
:103A8000E0FA104B21990798C4F8803106F0CEF97E
:103A90004A460298CDF8009033463946FFF7D1FAEE
:103AA000D4F8A031A4F8D4714FF07F41C4F8D011FC
:103AB00040460299D3F8843008E000BFF87302084A
:103AC000A0ADBBFFB4C1CDFF58700208984798E87D
:103AD0000700D4F8A03104F5EE7A8AE80700D3F89D
:103AE0008430029984F8D9B14046984798E8070095
:103AF0000D238AE80700CF4A029835922946ADF88F
:103B0000D83009F0BFFD0299079806F08FF90799A0
:103B1000204606F08BF90898009633469722352107
:103B2000FFF78FFA3A462298009633463946FFF758
:103B300088FAC14B22990898C4F8543206F076F9F5
:103B40004A460398CDF8009033463946FFF779FA94
:103B5000D4F87432A4F8A8724FF07F41C4F8A412CC
:103B600040460399D3F88430984798E80700D4F882
:103B7000743204F52C7A8AE80700D3F8843003996C
:103B800084F8ADB24046984798E807000C238AE8CD
:103B90000700A84A039835922946ADF8D83009F0B5
:103BA00071FD0399089806F041F90899204606F03E
:103BB0003DF909980096334697220421FFF741FA10
:103BC0003A462398009633463946FFF73AFA9A4B1D
:103BD00023990998C4F8283306F028F94A4604982E
:103BE000CDF8009033463946FFF72BFAD4F8483326
:103BF000A4F87C734FF07F41C4F8781340460499D1
:103C0000D3F88430984798E80700D4F8483304F58F
:103C1000617A8AE80700D3F88430049984F881B384
:103C20004046984798E807000B238AE80700814A36
:103C3000049835922946ADF8D83009F023FD04994F
:103C4000099806F0F3F80999204606F0EFF80A986B
:103C50000096334666229721FFF7F3F93A462498F7
:103C6000009633463946FFF7ECF9734B24990A98CE
:103C7000C4F8FC3306F0DAF84A460598CDF800900F
:103C800033463946FFF7DDF9D4F81C34A4F85074F4
:103C90004FF07F41C4F84C1440460599D3F8843066
:103CA000984798E80700D4F81C3404F58B6A8AE832
:103CB0000700D3F88430059984F855B440469847F6
:103CC00098E807000A238AE807005A4A05983592BF
:103CD0002946ADF8D83009F0D5FC05990A9806F0C8
:103CE000A5F80A99204606F0A1F866220B980096DE
:103CF00033461146FFF7A5F93A4625980096334614
:103D00003946FFF79EF94C4B25990B98C4F8D034EF
:103D100006F08CF833464A461698CDF8009039469E
:103D2000FFF78FF94FF07F41C4F82015A4F82475F0
:103D30002846FFF7BFFC95E8070004F22C5888E8F6
:103D4000070084F829B52846FFF7B4FC95E807007A
:103D5000092388E80700374A169835922946ADF8B6
:103D6000D83009F08FFC16990B9806F05FF80B9984
:103D7000204606F05BF80C98009633466622352103
:103D8000FFF75FF93A462698009633463946FFF723
:103D900058F9294B26990C98C4F8A43506F046F832
:103DA00033464A461798CDF800903946FFF749F94F
:103DB0004FF07F41C4F8F415A4F8F8752846FFF7D2
:103DC00079FC95E8070004F5C06888E8070084F8E6
:103DD000FDB52846FFF76EFC95E80700082388E844
:103DE0000700144A179835922946ADF8D83009F0E3
:103DF00049FC17990C9806F019F80C99204606F022
:103E000015F80D980096334666220521FFF719F93B
:103E10003A462798009633463946FFF712F9064B83
:103E200027990D98C4F8783606F000F833464A46CC
:103E300004E000BF58700208B4C1CDFF1898CDF857
:103E400000903946FFF7FDF84FF07F41C4F8C816DF
:103E5000A4F8CC762846FFF72DFC95E8070004F27D
:103E6000D46888E8070084F8D1B62846FFF722FC1A
:103E700095E80700072388E80700D34A1898359289
:103E80002946ADF8D83009F0FDFB18990D9805F0DA
:103E9000CDFF0D99204605F0C9FF0E9800963346D8
:103EA00035229721FFF7CDF83A46289800963346F9
:103EB0003946FFF7C6F8C54B28990E98C4F84C3719
:103EC00005F0B4FF33464A461998CDF800903946BC
:103ED000FFF7B7F84FF07F41C4F89C17A4F8A0771C
:103EE0002846FFF7E7FB95E8070004F5F56888E842
:103EF000070084F8A5B72846FFF7DCFB95E8070024
:103F000088E80700B04A199835922946ADF8D8B02C
:103F100009F0B8FB19990E9805F088FF0E99204614
:103F200005F084FF0F980096334635226621FFF78F
:103F300088F83A462998009633463946FFF781F8C3
:103F4000A24B29990F98C4F8203805F06FFF33462B
:103F50004A461A98CDF800903946FFF772F84FF0AC
:103F60007F41C4F87018A4F874782846FFF7A2FBC4
:103F700095E8070004F67C0888E8070084F879B81B
:103F80002846FFF797FB95E80700052388E8070018
:103F90008D4A1A9835922946ADF8D83009F072FB4F
:103FA0001A990F9805F042FF0F99204605F03EFF41
:103FB00035221098009633461146FFF742F83A46EC
:103FC0002A98009633463946FFF73BF87F4B2A99EB
:103FD0001098C4F8F43805F029FF33464A461B9878
:103FE000CDF800903946FFF72CF84FF07F41C4F828
:103FF0004419A4F848792846FFF75CFB95E80700C8
:1040000004F5156888E8070084F84DB92846FFF7DD
:1040100051FB95E8070088E807004FF004086A4A5A
:104020001B9835922946ADF8D88009F02BFB1B99D7
:10403000109805F0FBFE1099204605F0F7FE119848
:104040000096334641463522FEF7FBFF3A462B9851
:10405000009633463946FEF7F4FF5C4B2B991198D6
:10406000C4F8C83905F0E2FE33464A461C98CDF83C
:1040700000903946FEF7E5FF4FF07F41C4F8181A6B
:10408000A4F81C7A2846FFF715FB95E8070004F60C
:10409000242A8AE8070084F821BA2846FFF70AFB99
:1040A00095E8070003238AE80700474A1C983592E1
:1040B0002946ADF8D83009F0E5FA1C99119805F0B9
:1040C000B5FE1199204605F0B1FE129800963346D0
:1040D00042469721FEF7B5FF3A462C9800963346A4
:1040E0003946FEF7AEFF394B2C991298C4F89C3A2A
:1040F00005F09CFE33464A461D98CDF8009039469F
:10410000FEF79FFF4FF07F41C4F8EC1AA4F8F07A55
:104110002846FFF7CFFA95E8070004F6F82A8AE860
:10412000070084F8F5BA2846FFF7C4FA95E80700B7
:1041300002238AE80700244A1D9835922946ADF8E3
:10414000D83009F09FFA1D99129805F06FFE129968
:10415000204605F06BFE13980096334642466621D2
:10416000FEF76FFF3A462D98009633463946FEF724
:1041700068FF164B2D991398C4F8703B05F056FE56
:1041800033464A461E98CDF800903946FEF759FF4F
:104190004FF07F41C4F8C01BA4F8C47B2846FFF74A
:1041A00089FA95E8070004F6CC3A8AE8070084F813
:1041B000C9BB2846FFF77EFA95E807008AE80700A2
:1041C000014A1E9804E000BF58700208B4C1CDFF38
:1041D00035924FF0010A2946ADF8D8A009F052FAFD
:1041E0001E99139805F022FE1399204605F01EFE35
:1041F00014980096334642463521FEF722FF3A4690
:104200002E98009633463946FEF71BFF404B2E99F9
:104210001498C4F8443C05F009FE33464A461F98FA
:10422000CDF800903946FEF70CFF4FF07F41C4F8FF
:10423000941CA4F8987C2846FFF73CFA95E8070000
:1042400004F54A6383E8070084F89DBC284602937E
:10425000FFF730FA95E80700029BADF8D87083E8C5
:1042600007002C4A1F983592294609F00BFA1F992E
:10427000149805F0DBFD1499204605F0D7FD15983C
:104280000096334642464146FEF7DBFE3A462F98FB
:10429000009633463946FEF7D4FE1D4B2F991598EC
:1042A000C4F8183D05F0C2FD4A4639462098CDF8BD
:1042B00000903346FEF7C5FE4FF07F43C4F8683DDB
:1042C000A4F86C7D2846FFF7F5F995E8070004F699
:1042D000745686E8070084F871BD2846FFF7EAF9AE
:1042E00095E8070086E807000A4A20983592294693
:1042F000ADF8D8A009F0C6F92099159805F096FDFB
:104300002046159905F092FD204639B0BDE8F08FA2
:10431000B4C1CDFF587002087047000030B5164D8B
:104320002C6814F001048FB0BFF35B8F20D12846B6
:104330001FF06AFFE0B13F230993104B0893104B25
:10434000104911480A94CDE906430423CDE90243FC
:104350000A2300930122CDE90B44CDE904440194E2
:10436000FFF790F8094820F0A7FE28461FF058FFF5
:1043700005480FB030BD00BF082B0020EC9B0208A1
:10438000049C0208489802080C2B002019430008DE
:104390007047000030B5164D2C6814F001048FB042
:1043A000BFF35B8F20D128461FF02EFFE0B13F23E3
:1043B0000993104B0893104B104911480A94CDE90A
:1043C00006430423CDE902430A2300931522CDE9D5
:1043D0000B44CDE904440194FFF754F8094820F058
:1043E0006BFE28461FF01CFF05480FB030BD00BF14
:1043F000382B0020F09B0208089C020858980208FD
:104400003C2B0020914300087047000030B5164D4A
:104410002C6814F001048FB0BFF35B8F20D12846C5
:104420001FF0F2FEE0B13F230993104B0893104BAD
:10443000104911480A94CDE906430423CDE902430B
:104440000E2300930B22CDE90B44CDE904440194E3
:10445000FFF718F8094820F02FFE28461FF0E0FE6D
:1044600005480FB030BD00BF682B0020F49B020848
:104470000C9C0208809902086C2B0020094400085B
:104480007047000030B5164D2C6814F001048FB051
:10449000BFF35B8F20D128461FF0B6FEE0B13F236B
:1044A0000993104B0893104B104911480A94CDE919
:1044B00006430423CDE902430F2300930E22CDE9E6
:1044C0000B44CDE904440194FEF7DCFF094820F0D9
:1044D000F3FD28461FF0A4FE05480FB030BD00BF15
:1044E000982B0020F89B0208109C02081C9A0208D6
:1044F0009C2B0020814400087047000030B5164D09
:104500002C6814F001048FB0BFF35B8F20D12846D4
:104510001FF07AFEE0B13F230993104B0893104B34
:10452000104911480A94CDE906430423CDE902431A
:104530001B2300930A22CDE90B44CDE904440194E6
:10454000FEF7A0FF094820F0B7FD28461FF068FEDF
:1045500005480FB030BD00BFC82B0020FC9B0208EF
:10456000149C0208E09A0208CC2B0020F9440008B1
:104570007047000030B5164D2C6814F001048FB060
:10458000BFF35B8F21D128461FF03EFEE8B13F23E9
:104590000993104B0893104B104911480A94CDE928
:1045A00006430423CDE90243232300930922242355
:1045B000CDE90B44CDE904440194FEF763FF0948BB
:1045C00020F07AFD28461FF02BFE05480FB030BDC5
:1045D000F82B0020009C0208189C02086C9B020823
:1045E000FC2B002071450008002070470020704718
:1045F0000EB403B503AB002153F8042B01930DF067
:1046000027FC02B05DF804EB03B070470CB407B5AB
:1046100004AB53F8042B01930DF01AFC03B05DF8C2
:1046200004EB02B07047000010B504460EF0C2FD66
:10463000E38E04EB43035884636C5BB3238F2BB985
:10464000174B184AC521184820F018FD10B3204612
:104650000FF0D7FE238F012B03D8144B144ACB2124
:10466000F1E7E28E531C9BB2092B194688BFA3F1D8
:104670000A0104EB410140F63F10498C814209D107
:104680000A2B04EB420228BF002304EB4303508CA7
:10469000588451842046BDE810400FF0B5BD00BFDE
:1046A0001E6A0208276A0208D26A02081C6B020806
:1046B0002A6B020810B504460FF06DFD2046BDE8D8
:1046C00010400EF072BD10B586B002AC84E8060052
:1046D0001A460AAB05930193099B00932146089B58
:1046E0000BF07EFE06B010BD38B518BB124B134858
:1046F0001C681349B4B122682244026062682244F3
:104700000A60A26814440F4B00221A8000F038F8A7
:10471000054600F033F80C4B1C600C4B1D600C4B35
:10472000188007E00B4B03600B4B0B600B4B1C68B6
:10473000002CE8D138BD00BF342C00202C2C0020E8
:10474000282C0020302C0020143A01201C3A012093
:10475000183A01201C9C0208989C0208009D02083F
:10476000044B1B6853F82100034B1B6803EB40000C
:10477000704700BF282C00202C2C00201A207047E6
:1047800000487047382C002010B5FFF7C7FD094CD2
:104790002060FFF7EFFE6060FFF738FEA060FFF7D4
:1047A000ADFEE060FFF76EFE2061FFF7F3FD606194
:1047B00010BD00BF382C002010B5002404600C6030
:1047C00014601C6010BD7047704770477047704799
:1047D00030B4C26844685510034604EB6200D20747
:1047E00048BF62599B6830BC48BFD358184703463E
:1047F000406830B19A681AB9D86800F00100704773
:104800000120704710B5102104461FF0FBFC204624
:1048100010BD10B54FF4A07104461FF0F3FC204604
:1048200010BD00F1A003994270B504460D4603D1B6
:104830000368D3F88C30984704F1E8039D4206D111
:1048400023682046D3F89030BDE87040184770BD0B
:104850002DE9F04F044689B026460025FEF7E2F91F
:104860005D4BA56246F82C3B4FF026084246294690
:10487000304620F00AFE3046FEF7D4F9574BE3628B
:1048800004F15807FF234246294684F852306565F3
:10489000384620F0FAFD3846FEF7C4F9504BA365C0
:1048A0004FF6FF7304F1A00A4FF0FF39DFF844B16F
:1048B000A4F884304FF47F0304F1E808C4F88C3086
:1048C000C4E92695C4F880B0C4F88850A4F8905084
:1048D000C4F89450504609F055FA404609F052FA8F
:1048E000404BC4E94C34404BC4E94E354FF0C8133B
:1048F0002A46A36029463046FEF7A6F93046C8216D
:10490000FDF7E6FD3046C821FDF7E4FD374B636552
:104910003146204605F08AFA182238460B21FEF768
:1049200093F96E46324BC4F8883039463046A4F8C5
:104930008C5008F0FFFB96E8070004F1940383E82D
:104940000700192306A93846ADF81C30CDF818B079
:1049500008F098FE3946204605F068FA5046502285
:104960003221FEF771F906AA05A95046ADF8145098
:10497000ADF8185008F0D9FE1723A4F8D8305046E7
:1049800004F59876FEF76EF951462046C4E937994A
:10499000C4F8C86005F04AFA404682223221FEF788
:1049A00053F906AA05A94046ADF81450ADF81850C1
:1049B00008F0BBFE1023A4F820314046FEF752F960
:1049C0002046C4E94999C4F81061414605F02EFA21
:1049D000204609B0BDE8F08FA4740208047B0208E9
:1049E000747A02088C740208234800088C8CFFFF3C
:1049F000F7F7FFFF58700208704710B54FF4AE711B
:104A000004461FF0FFFB204610BD10B50446D0F849
:104A1000580100F05CF92046BDE810400CF012BAD5
:104A200010B50446FEF782F8014B2360204610BD06
:104A300040750208034B186810B10368DB6A184719
:104A4000704700BF502C002010B5034B0360044694
:104A5000FEF7B4F8204610BD9475020810B5044660
:104A6000FFF7F2FF2046F8211FF0CCFB204610BDD7
:104A700010B50446FEF738F9014B2360204610BDFF
:104A800094750208FEF79BB870470438704770476A
:104A900010B5102104461FF0B5FB204610BDA0F153
:104AA0000400F5E700228260024A02601832426088
:104AB000C16070472C7602087047000010B5034BA8
:104AC00003600446FEF78CFA204610BD54760208B7
:104AD00010B50446FFF7F2FF204641F214311FF0F3
:104AE00091FB204610BD000010B50446FEF7E0FA29
:104AF000014B2360204610BD5476020870B5044671
:104B0000FEF712FA04F5967000F084F9114B1C6060
:104B1000FBF784FF04F5805604F5965514350346DB
:104B20000D4AC6F80C030A21284610F013FA04F5C2
:104B30009150C6F884521C300DF091FA4FF0FF33BB
:104B4000C6F81033054B0022BDE870401A70FBF721
:104B5000A9BE00BF502C0020FC6B0208E40300201B
:104B600070B500F58056002500F58A5086F8695129
:104B700004300DF074FA304686F8295004300DF0F8
:104B80006EFA034B1D70BDE87040FBF78BBE00BF93
:104B9000E403002000F580530122184683F8292001
:104BA00004300DF05CBA00F58053012200F58A5004
:104BB00083F8692104300DF052BA000000F58053EB
:104BC00010B51846002483F8294004300DF047FA48
:104BD000024B01221A70024B1C6010BDE40300203E
:104BE000A0030020F8B500F580550646D5F810332F
:104BF0008B420C462DD000F5975708370B46154AC7
:104C0000C5F8101338460A2110F0A4F906F594509F
:104C1000C5F8D07208300DF022FAD5F80C33A34253
:104C200017DA06F59657143723460A4AC5F80C4397
:104C30000A21384610F08EF906F59150C5F88472B5
:104C40001C300DF00CFAD5F80C03BDE8F840FBF76A
:104C5000DDBEF8BDFC6B0208184B1A782DE9F04157
:104C600004460AB300221A70154B1968FFF7BAFF01
:104C7000144B1B68012B19D0022B1BD0FBF7D4FE61
:104C80000026074604F5967407EB0618002558F829
:104C900025302A4631462046013500F039F8042DEA
:104CA000F5D10136042EEFD1BDE8F0812046FFF7A3
:104CB00071FFE3E72046FFF776FFDFE7800600207D
:104CC0009C030020A0030020002202607047704770
:104CD00010B5034B03600446FEF706FC204610BDEA
:104CE0008C76020810B50446FFF7F2FF204640F626
:104CF000D8611FF087FA204610BD000010B50446A9
:104D0000FEF720FD014B2360204610BD8C76020883
:104D10002DE9F04102EB810500EB85051C46D5F835
:104D2000986E002E5AD0D5F8585E6BB986F82530AB
:104D30002B4BAB622B6828465B699847336830463B
:104D40005B69BDE8F04118470C277A4302F6985298
:104D5000302707FB01214718224A0621384610F068
:104D6000F9F80123B76486F82530002DE6D0402CF1
:104D700028D013DC082C27D008DC022C26D01A4AB5
:104D80001A4B042C08BF1A46AA62D3E7102C1FD076
:104D9000154A174B202C08BF1A46F5E7B4F5007FDB
:104DA00018D008DC802C17D00F4A124BB4F5807F46
:104DB00008BF1A46E8E70C4A0F4BB4F5806F08BFEE
:104DC0001A46E1E70D4ADFE70D4ADDE70D4ADBE76A
:104DD0000D4AD9E70D4AD7E70D4AD5E7BDE8F0817E
:104DE000B4C1CDFFFC6B0208C8C8C8FF5A14F0FF5D
:104DF000D69500FFA5D729FF9B065FFF7B00CEFF5E
:104E00001BC9FFFFFF0096FF6395F5FF2400FFFF1E
:104E10001855FFFF10B50446FEF767FB04F638533C
:104E2000C4F8983E04F54F63C4F8583E04F6644352
:104E3000C4F89C3E04F61C43C4F85C3E04F5396398
:104E4000C4F8A03E04F64833C4F8603E04F6BC2320
:104E5000C4F8A43E04F67423C4F8643E04F6E813D0
:104E6000C4F8A83E04F51A63C4F8683E04F61413A7
:104E7000C4F8AC3E04F6CC03C4F86C3E04F50463FD
:104E8000C4F8B03E04F5FF63C4F8703E04F26C73DE
:104E9000C4F8B43E04F22473C4F8743E04F5D3633A
:104EA000C4F8B83E04F5CA63C4F8783E04F2C453AB
:104EB000C4F8BC3E04F27C53C4F87C3E04F59E6307
:104EC000C4F8C03E04F59563C4F8803E04F21C4368
:104ED000C4F8C43E04F57573C4F8843E04F55273F7
:104EE000C4F8C83E04F54073C4F8883E04F51D7349
:104EF000C4F8CC3E04F50B73C4F88C3E04F5D073B3
:104F0000C4F8D03E04F5AC73C4F8903E04F1CC0371
:104F1000C4F8D43E04F18403C4F8943E10BD0000EC
:104F2000034B186810B10368DB6A1847704700BF6D
:104F3000502C0020024B186808B1FFF73FBE7047A5
:104F4000502C002010B5034B03600446FFF73EFCD5
:104F5000204610BD2077020810B50446FFF7F2FF87
:104F600020464FF4A0711FF04DF9204610BD0000FF
:104F700010B50446FFF76CFC014B2360204610BDC2
:104F800020770208FFF723BCF02070474FF4A07091
:104F900070472920FCF77CB82820FCF779B808B5C1
:104FA000FCF74AF8CA20FCF773F8C320FCF754F862
:104FB0000820FCF751F85020FCF74EF8CF20FCF702
:104FC00067F80020FCF748F8C120FCF745F83020CE
:104FD000FCF742F8ED20FCF75BF86420FCF73CF8A6
:104FE0000320FCF739F81220FCF736F88120FCF793
:104FF00033F8E820FCF74CF88520FCF72DF800206A
:10500000FCF72AF87820FCF727F8CB20FCF740F8CB
:105010003920FCF721F82C20FCF71EF80020FCF7C3
:105020001BF83420FCF718F80220FCF715F8F720DD
:10503000FCF72EF82020FCF70FF8EA20FCF728F800
:105040000020FCF709F80020FCF706F8B120FCF777
:105050001FF80020FCF700F81B20FBF7FDFFB6202F
:10506000FCF716F80A20FBF7F7FFA220FBF7F4FF86
:10507000C020FCF70DF81020FBF7EEFFC120FCF775
:1050800007F81020FBF7E8FFC520FCF701F84520E2
:10509000FBF7E2FF1520FBF7DFFFC720FBF7F8FF68
:1050A0009020FBF7D9FF3620FBF7F2FFC820FBF773
:1050B000D3FFF220FBF7ECFF0020FBF7CDFFB02081
:1050C000FBF7E6FFC220FBF7C7FFB620FBF7E0FFC8
:1050D0000A20FBF7C1FFA720FBF7BEFF2720FBF745
:1050E000BBFF0420FBF7B8FF2A20FBF7D1FF00200D
:1050F000FBF7B2FF0020FBF7AFFF0020FBF7ACFF90
:10510000EF20FBF7A9FF2B20FBF7C2FF0020FBF7E6
:10511000A3FF0020FBF7A0FF0120FBF79DFF3F202E
:10512000FBF79AFFF620FBF7B3FF0120FBF794FF94
:105130000020FBF791FF0620FBF78EFF2C20FBF7EA
:10514000A7FFC820FBF7F2FF2620FBF7A1FF0120F5
:10515000FBF782FFE020FBF79BFF0F20FBF77CFFB4
:105160002920FBF779FF2420FBF776FF0C20FBF7C3
:1051700073FF0E20FBF770FF0920FBF76DFF4E2039
:10518000FBF76AFF7820FBF767FF3C20FBF764FF23
:105190000920FBF761FF1320FBF75EFF0520FBF7FB
:1051A0005BFF1720FBF758FF1120FBF755FF00208E
:1051B000FBF752FFE120FBF76BFF0020FBF74CFFF2
:1051C0001620FBF749FF1B20FBF746FF0420FBF7E7
:1051D00043FF1120FBF740FF0720FBF73DFF312085
:1051E000FBF73AFF3320FBF737FF4220FBF734FF92
:1051F0000520FBF731FF0C20FBF72EFF0A20FBF701
:105200002BFF2820FBF728FF2F20FBF725FF0F207F
:10521000FBF722FF1120FBF73BFFC820FBF786FFBF
:105220002920FBF735FFBDE808402C20FBF730BFF5
:1052300008B5FBF701FF0321D320FBF745FF80B240
:1052400008BD10B5C4B2022203212046FBF7AAFE16
:105250000A20FBF7EFFE204600220321FBF7A2FE07
:10526000BDE810400220FBF7E5BE38B50446E4B2C5
:10527000FBF796FE00212046FBF7ACFE0121054618
:105280002046FBF7A7FE40EA052080B238BD10B5E6
:10529000C4B240212046FBF79DFE030607D54C21F2
:1052A0002046FBF797FE003818BF012010BD0122F1
:1052B0004B212046FBF776FE204600224B21FBF7D0
:1052C00071FE0020F2E773B50423C4B20E46154602
:1052D000D7210DEB03022046FBF796FE019B1BBA7C
:1052E0001A0DC3F30B23328020462B8001224B2161
:1052F000FBF758FE00224B212046FBF753FE02B07D
:1053000070BD000010B50A4A1378984204460DD0CB
:10531000517888420AD00BB141B90123D454FBF72C
:105320003FFE2046BDE81040FFF78BBF10BD00BF19
:10533000542C002010B5C4B209212046FBF74AFEC8
:1053400040F00102D2B220460921BDE81040FBF72F
:1053500029BE10B5C4B209212046FBF73BFE092146
:1053600000F0FE022046BDE81040FBF71BBE38B53A
:10537000C4B20D4620460A21FBF72CFE40EA050286
:10538000D2B220460A21BDE83840FBF70BBE10B56B
:105390000446FBF706FE20461F21FFF7E8FF2046E4
:1053A000BDE81040FFF7C6BF38B5C4B20D46204671
:1053B0000A21FBF70FFE20EA0502D2B220460A219D
:1053C000BDE83840FBF7EEBD10B50446FFF7C1FF5E
:1053D00020461F21BDE81040FFF7E6BF10B5C0B260
:1053E0000C460B21FBF7F6FD204010BD1F21FFF7F7
:1053F000F5BF0A46C0B20B21FBF7D4BD1F21FFF752
:10540000F8BF38B5C4B20D4620461721FBF7E2FDC0
:1054100020EA0502D2B220461721BDE83840FBF74A
:10542000C1BD70B5C4B2064604212046FBF7D2FDCB
:10543000042100F0FB0205462046FBF7B3FD304691
:10544000F021FFF7DEFF05F0F80220460421FBF70C
:10545000A9FD492220212046FBF7A4FD0220FBF7ED
:10546000E9FD204601222121FBF79CFD20469A22DE
:105470004121FBF797FD204601224A21FBF792FDCF
:10548000204601224B21FBF78DFD204600224B21B7
:10549000FBF788FD204601225621FBF783FD2046BD
:1054A00001225821FBF77EFD204601224021FBF717
:1054B00079FD2046FF220B21FBF774FDBDE870400B
:1054C0000220FBF7B7BD0000054BD3F8882042F45B
:1054D0007002C3F888204FF000629A60704700BFE6
:1054E00000ED00E008B50B4B1A6842F400721A6038
:1054F0001A6842F480621A601A6842F480721A6074
:10550000032000F02FF80020FCF7AAF8FBF71CFEA0
:10551000002008BD003C0240034A044B11681B7880
:105520000B441360704700BF582C00207C00002003
:10553000014B1868704700BF582C002038B504464E
:10554000FFF7F6FF631C1CBF054B1B78054618BF11
:10555000E418FFF7EDFF431BA342FAD338BD00BFA9
:105560007C0000200749CA6822F4E06203021204AA
:1055700003F4E063120C134343F0BF6343F40033BE
:10558000CB60704700ED00E0164B30B5DC68C4F32B
:105590000224C4F10703251D042B28BF0423062D74
:1055A0004FF0FF358CBF033C002405FA03F321EADA
:1055B0000303A54022EA0502A340002843EA0203B0
:1055C000ACBF00F16040084A4FEA0313B8BF00F0D7
:1055D0000F00DBB2AABF00F56140135480F800331E
:1055E00030BD00BF00ED00E014ED00E0002807DB57
:1055F000044A4109012300F01F00834042F8213092
:10560000704700BF00E100E010B5044650B1437997
:1056100003F0FF0213B90271FBF7B6FD01236371BA
:10562000002010BD0120FCE710B5044620B390F81F
:10563000393003F0FF021BB980F83820FBF7BCFDBE
:10564000022384F83930236861681A6822F44032F2
:105650000A431A605A6BA16822F007020A435A6390
:105660001A6CE1686FF30D020A431A6400200123EB
:10567000E06384F8393010BD0120FCE770477047C3
:10568000036870B55E681D68F207044614D5E90525
:1056900012D51A6822F480721A60C26B42F00102BD
:1056A000C26301229A60042380F83930002380F815
:1056B0003830436903B19847B20616D5AB0414D508
:1056C00023681A6822F400521A6020229A60E36B61
:1056D00043F00203E363042384F83930002384F8A1
:1056E000383063690BB120469847300716D5290535
:1056F00014D523681A6822F400621A6008229A609E
:10570000E36B43F00403E363042384F8393000239C
:1057100084F8383063690BB12046984772070BD57F
:105720006B0509D523681A6822F480621A60042286
:105730009A602046FFF7A2FFB00714D5A90512D53D
:1057400023681A6822F400721A6002229A60E36BDE
:10575000E363012384F83930002384F83830236967
:105760000BB120469847F20613D5EB0411D52368F8
:105770001A6822F480521A6010229A60E36BE36385
:10578000012384F83930002384F838302046FFF7AD
:1057900076FF70BDF0B590F83820012A03464FF02F
:1057A00002002BD0012283F8382083F8390003EB64
:1057B0000112D2E90740556A174F44EA0040093CFC
:1057C000012C9CBF05F07F4210434FEA01161A6876
:1057D00088BF40EA056091B9516A3940014351627E
:1057E000012C9969916103D8596A21F07F41916236
:1057F0000122002083F8392083F83800F0BDD169F8
:1058000039400143D1619919012C896911619CBF0B
:1058100025F07F451562EBE7F0FFFC002DE9F74F1F
:10582000DFF8BC916C4A00230D6801249C4004EA17
:105830000506AC4340F0B7804D68032705F003042C
:105840004FEA430807FA08FC671E012F6FEA0C0CA9
:1058500034D8876807EA0C0ECF6807FA08F747EADA
:105860000E078760476827EA060EC5F300179F40BA
:1058700047EA0E074760C76807EA0C0E8F6807FA09
:1058800008F747EA0E07022CC76019D14FEAD30A7E
:1058900000EB8A0A03F0070BDAF820704FEA8B0B53
:1058A0004FF00F0E0EFA0BFE27EA0E0E0F6907FAE5
:1058B0000BF747EA0E07CAF8207001E0032CDAD193
:1058C000076804FA08F407EA0C073C4315F4403F64
:1058D000046068D000240194D9F8444044F4804422
:1058E000C9F84440D9F8444023F0030707F1804742
:1058F00004F4804407F59C37019403F0030C019CE9
:10590000D7F808E04FEA8C0C0F2404FA0CF42EEAC6
:10591000040E324CA0424DD004F58064A0424BD01E
:1059200004F58064A04249D004F58064A04247D0C9
:1059300004F58064A04245D004F58064A04243D0C1
:1059400004F58064A04241D004F58064A0423FD0B9
:1059500004F58064A0423DD004F58064A04214BFE9
:105960000A24092404FA0CF444EA0E04BC60946886
:10597000F74315F4801F0CBF3C4034439460D46857
:1059800015F4001F0CBF3C403443D460546815F438
:10599000003F0CBF3C40344354601468ED0354BFD7
:1059A0003C40344314600133102B7FF43DAF03B00F
:1059B000BDE8F08F0024D5E70124D3E70224D1E726
:1059C0000324CFE70424CDE70524CBE70624C9E769
:1059D0000724C7E70824C5E7003C01400000024057
:1059E000003802400369194214BF012000207047AB
:1059F0000AB1816170470904FBE7436901EA0302C8
:105A000021EA030141EA024181617047044A516978
:105A1000014208B502D05061FBF79CFE08BD00BFF3
:105A2000003C014001684B6913F480634FF00002B1
:105A300010D06FF480634B612023026380F83D3007
:105A400080F83E20036C80F83C2043F0040303649C
:105A500001207047184670472DE9F84606460F4664
:105A600091461D464FEA114A3368BAF1010F0CBF47
:105A70005C699C6927EA0404A4B2B4FA84F464095A
:105A8000A14501D0002025E06A1CEED0FFF750FDB3
:105A9000089BC01AA84201D8002DE5D13368BAF19D
:105AA000010F0CBF5B699B6927EA03039BB2B3FA42
:105AB00083F35B099945D7D100232022336386F80D
:105AC0003D2086F83E30326C86F83C3042F02002B1
:105AD00032640120BDE8F8862DE9F04104460F4606
